{
	"contracts/transactionData.sol": {
		"TransactionData": {
			"abi": [
				{
					"inputs": [],
					"stateMutability": "nonpayable",
					"type": "constructor"
				},
				{
					"inputs": [
						{
							"internalType": "uint256",
							"name": "transactionID",
							"type": "uint256"
						}
					],
					"name": "deleteTransaction",
					"outputs": [],
					"stateMutability": "nonpayable",
					"type": "function"
				},
				{
					"inputs": [],
					"name": "getAllTransactions",
					"outputs": [
						{
							"components": [
								{
									"internalType": "uint256",
									"name": "transactionID",
									"type": "uint256"
								},
								{
									"internalType": "uint256",
									"name": "userID",
									"type": "uint256"
								},
								{
									"internalType": "uint256",
									"name": "productID",
									"type": "uint256"
								},
								{
									"internalType": "string",
									"name": "productName",
									"type": "string"
								},
								{
									"internalType": "uint256",
									"name": "amount",
									"type": "uint256"
								},
								{
									"internalType": "uint256",
									"name": "unitPrice",
									"type": "uint256"
								},
								{
									"internalType": "string",
									"name": "dateTime",
									"type": "string"
								},
								{
									"internalType": "string",
									"name": "status",
									"type": "string"
								}
							],
							"internalType": "struct TransactionData.Transaction[]",
							"name": "",
							"type": "tuple[]"
						}
					],
					"stateMutability": "view",
					"type": "function"
				},
				{
					"inputs": [
						{
							"internalType": "uint256",
							"name": "transactionID",
							"type": "uint256"
						}
					],
					"name": "getTransaction",
					"outputs": [
						{
							"internalType": "uint256",
							"name": "",
							"type": "uint256"
						},
						{
							"internalType": "uint256",
							"name": "",
							"type": "uint256"
						},
						{
							"internalType": "string",
							"name": "",
							"type": "string"
						},
						{
							"internalType": "uint256",
							"name": "",
							"type": "uint256"
						},
						{
							"internalType": "uint256",
							"name": "",
							"type": "uint256"
						},
						{
							"internalType": "string",
							"name": "",
							"type": "string"
						},
						{
							"internalType": "string",
							"name": "",
							"type": "string"
						}
					],
					"stateMutability": "view",
					"type": "function"
				},
				{
					"inputs": [],
					"name": "removeMe",
					"outputs": [
						{
							"internalType": "uint256",
							"name": "transactionID",
							"type": "uint256"
						},
						{
							"internalType": "uint256",
							"name": "userID",
							"type": "uint256"
						},
						{
							"internalType": "uint256",
							"name": "productID",
							"type": "uint256"
						},
						{
							"internalType": "string",
							"name": "productName",
							"type": "string"
						},
						{
							"internalType": "uint256",
							"name": "amount",
							"type": "uint256"
						},
						{
							"internalType": "uint256",
							"name": "unitPrice",
							"type": "uint256"
						},
						{
							"internalType": "string",
							"name": "dateTime",
							"type": "string"
						},
						{
							"internalType": "string",
							"name": "status",
							"type": "string"
						}
					],
					"stateMutability": "view",
					"type": "function"
				},
				{
					"inputs": [
						{
							"internalType": "uint256",
							"name": "transactionID",
							"type": "uint256"
						},
						{
							"internalType": "uint256",
							"name": "userID",
							"type": "uint256"
						},
						{
							"internalType": "uint256",
							"name": "productID",
							"type": "uint256"
						},
						{
							"internalType": "string",
							"name": "productName",
							"type": "string"
						},
						{
							"internalType": "uint256",
							"name": "amount",
							"type": "uint256"
						},
						{
							"internalType": "uint256",
							"name": "unitPrice",
							"type": "uint256"
						},
						{
							"internalType": "string",
							"name": "dateTime",
							"type": "string"
						},
						{
							"internalType": "string",
							"name": "status",
							"type": "string"
						}
					],
					"name": "setTransaction",
					"outputs": [],
					"stateMutability": "nonpayable",
					"type": "function"
				},
				{
					"inputs": [
						{
							"internalType": "uint256",
							"name": "",
							"type": "uint256"
						}
					],
					"name": "transactionArray",
					"outputs": [
						{
							"internalType": "uint256",
							"name": "transactionID",
							"type": "uint256"
						},
						{
							"internalType": "uint256",
							"name": "userID",
							"type": "uint256"
						},
						{
							"internalType": "uint256",
							"name": "productID",
							"type": "uint256"
						},
						{
							"internalType": "string",
							"name": "productName",
							"type": "string"
						},
						{
							"internalType": "uint256",
							"name": "amount",
							"type": "uint256"
						},
						{
							"internalType": "uint256",
							"name": "unitPrice",
							"type": "uint256"
						},
						{
							"internalType": "string",
							"name": "dateTime",
							"type": "string"
						},
						{
							"internalType": "string",
							"name": "status",
							"type": "string"
						}
					],
					"stateMutability": "view",
					"type": "function"
				},
				{
					"inputs": [
						{
							"internalType": "uint256",
							"name": "",
							"type": "uint256"
						}
					],
					"name": "transactions",
					"outputs": [
						{
							"internalType": "uint256",
							"name": "transactionID",
							"type": "uint256"
						},
						{
							"internalType": "uint256",
							"name": "userID",
							"type": "uint256"
						},
						{
							"internalType": "uint256",
							"name": "productID",
							"type": "uint256"
						},
						{
							"internalType": "string",
							"name": "productName",
							"type": "string"
						},
						{
							"internalType": "uint256",
							"name": "amount",
							"type": "uint256"
						},
						{
							"internalType": "uint256",
							"name": "unitPrice",
							"type": "uint256"
						},
						{
							"internalType": "string",
							"name": "dateTime",
							"type": "string"
						},
						{
							"internalType": "string",
							"name": "status",
							"type": "string"
						}
					],
					"stateMutability": "view",
					"type": "function"
				},
				{
					"inputs": [
						{
							"internalType": "uint256",
							"name": "transactionID",
							"type": "uint256"
						},
						{
							"internalType": "uint256",
							"name": "userID",
							"type": "uint256"
						},
						{
							"internalType": "uint256",
							"name": "productID",
							"type": "uint256"
						},
						{
							"internalType": "string",
							"name": "productName",
							"type": "string"
						},
						{
							"internalType": "uint256",
							"name": "amount",
							"type": "uint256"
						},
						{
							"internalType": "uint256",
							"name": "unitPrice",
							"type": "uint256"
						},
						{
							"internalType": "string",
							"name": "dateTime",
							"type": "string"
						},
						{
							"internalType": "string",
							"name": "status",
							"type": "string"
						}
					],
					"name": "updateTransaction",
					"outputs": [],
					"stateMutability": "nonpayable",
					"type": "function"
				}
			],
			"devdoc": {
				"kind": "dev",
				"methods": {},
				"version": 1
			},
			"evm": {
				"assembly": "    /* \"contracts/transactionData.sol\":68:3474  contract TransactionData {... */\n  mstore(0x40, 0x80)\n    /* \"contracts/transactionData.sol\":476:527  constructor() {... */\n  callvalue\n  dup1\n  iszero\n  tag_1\n  jumpi\n  0x00\n  dup1\n  revert\ntag_1:\n  pop\n    /* \"contracts/transactionData.sol\":509:519  msg.sender */\n  caller\n    /* \"contracts/transactionData.sol\":501:506  owner */\n  0x00\n  dup1\n    /* \"contracts/transactionData.sol\":501:519  owner = msg.sender */\n  0x0100\n  exp\n  dup2\n  sload\n  dup2\n  0xffffffffffffffffffffffffffffffffffffffff\n  mul\n  not\n  and\n  swap1\n  dup4\n  0xffffffffffffffffffffffffffffffffffffffff\n  and\n  mul\n  or\n  swap1\n  sstore\n  pop\n    /* \"contracts/transactionData.sol\":68:3474  contract TransactionData {... */\n  dataSize(sub_0)\n  dup1\n  dataOffset(sub_0)\n  0x00\n  codecopy\n  0x00\n  return\nstop\n\nsub_0: assembly {\n        /* \"contracts/transactionData.sol\":68:3474  contract TransactionData {... */\n      mstore(0x40, 0x80)\n      callvalue\n      dup1\n      iszero\n      tag_1\n      jumpi\n      0x00\n      dup1\n      revert\n    tag_1:\n      pop\n      jumpi(tag_2, lt(calldatasize, 0x04))\n      shr(0xe0, calldataload(0x00))\n      dup1\n      0x9ace38c2\n      gt\n      tag_11\n      jumpi\n      dup1\n      0x9ace38c2\n      eq\n      tag_7\n      jumpi\n      dup1\n      0x9d08f4a9\n      eq\n      tag_8\n      jumpi\n      dup1\n      0xc82ef8fb\n      eq\n      tag_9\n      jumpi\n      dup1\n      0xf80ad0b6\n      eq\n      tag_10\n      jumpi\n      jump(tag_2)\n    tag_11:\n      dup1\n      0xe9c006\n      eq\n      tag_3\n      jumpi\n      dup1\n      0x27506f53\n      eq\n      tag_4\n      jumpi\n      dup1\n      0x33ea3dc8\n      eq\n      tag_5\n      jumpi\n      dup1\n      0x93691e0a\n      eq\n      tag_6\n      jumpi\n    tag_2:\n      0x00\n      dup1\n      revert\n        /* \"contracts/transactionData.sol\":2847:3471  function deleteTransaction(uint256 transactionID) public onlyOwner() {... */\n    tag_3:\n      tag_12\n      0x04\n      dup1\n      calldatasize\n      sub\n      dup2\n      add\n      swap1\n      tag_13\n      swap2\n      swap1\n      tag_14\n      jump\t// in\n    tag_13:\n      tag_15\n      jump\t// in\n    tag_12:\n      stop\n        /* \"contracts/transactionData.sol\":1951:2066  function getAllTransactions() public view returns (Transaction[] memory) {... */\n    tag_4:\n      tag_16\n      tag_17\n      jump\t// in\n    tag_16:\n      mload(0x40)\n      tag_18\n      swap2\n      swap1\n      tag_19\n      jump\t// in\n    tag_18:\n      mload(0x40)\n      dup1\n      swap2\n      sub\n      swap1\n      return\n        /* \"contracts/transactionData.sol\":1446:1943  function getTransaction(uint256 transactionID) public view returns (uint256, uint256, string memory, uint256, uint256, string memory, string memory) {... */\n    tag_5:\n      tag_20\n      0x04\n      dup1\n      calldatasize\n      sub\n      dup2\n      add\n      swap1\n      tag_21\n      swap2\n      swap1\n      tag_14\n      jump\t// in\n    tag_21:\n      tag_22\n      jump\t// in\n    tag_20:\n      mload(0x40)\n      tag_23\n      swap8\n      swap7\n      swap6\n      swap5\n      swap4\n      swap3\n      swap2\n      swap1\n      tag_24\n      jump\t// in\n    tag_23:\n      mload(0x40)\n      dup1\n      swap2\n      sub\n      swap1\n      return\n        /* \"contracts/transactionData.sol\":728:1438  function setTransaction(uint256 transactionID, uint256 userID, uint256 productID, ... */\n    tag_6:\n      tag_25\n      0x04\n      dup1\n      calldatasize\n      sub\n      dup2\n      add\n      swap1\n      tag_26\n      swap2\n      swap1\n      tag_27\n      jump\t// in\n    tag_26:\n      tag_28\n      jump\t// in\n    tag_25:\n      stop\n        /* \"contracts/transactionData.sol\":374:423  mapping (uint => Transaction) public transactions */\n    tag_7:\n      tag_29\n      0x04\n      dup1\n      calldatasize\n      sub\n      dup2\n      add\n      swap1\n      tag_30\n      swap2\n      swap1\n      tag_14\n      jump\t// in\n    tag_30:\n      tag_31\n      jump\t// in\n    tag_29:\n      mload(0x40)\n      tag_32\n      swap9\n      swap8\n      swap7\n      swap6\n      swap5\n      swap4\n      swap3\n      swap2\n      swap1\n      tag_33\n      jump\t// in\n    tag_32:\n      mload(0x40)\n      dup1\n      swap2\n      sub\n      swap1\n      return\n        /* \"contracts/transactionData.sol\":2716:2743  Transaction public removeMe */\n    tag_8:\n      tag_34\n      tag_35\n      jump\t// in\n    tag_34:\n      mload(0x40)\n      tag_36\n      swap9\n      swap8\n      swap7\n      swap6\n      swap5\n      swap4\n      swap3\n      swap2\n      swap1\n      tag_33\n      jump\t// in\n    tag_36:\n      mload(0x40)\n      dup1\n      swap2\n      sub\n      swap1\n      return\n        /* \"contracts/transactionData.sol\":430:467  Transaction[] public transactionArray */\n    tag_9:\n      tag_37\n      0x04\n      dup1\n      calldatasize\n      sub\n      dup2\n      add\n      swap1\n      tag_38\n      swap2\n      swap1\n      tag_14\n      jump\t// in\n    tag_38:\n      tag_39\n      jump\t// in\n    tag_37:\n      mload(0x40)\n      tag_40\n      swap9\n      swap8\n      swap7\n      swap6\n      swap5\n      swap4\n      swap3\n      swap2\n      swap1\n      tag_33\n      jump\t// in\n    tag_40:\n      mload(0x40)\n      dup1\n      swap2\n      sub\n      swap1\n      return\n        /* \"contracts/transactionData.sol\":2074:2708  function updateTransaction(uint256 transactionID, uint256 userID, uint256 productID, ... */\n    tag_10:\n      tag_41\n      0x04\n      dup1\n      calldatasize\n      sub\n      dup2\n      add\n      swap1\n      tag_42\n      swap2\n      swap1\n      tag_27\n      jump\t// in\n    tag_42:\n      tag_43\n      jump\t// in\n    tag_41:\n      stop\n        /* \"contracts/transactionData.sol\":2847:3471  function deleteTransaction(uint256 transactionID) public onlyOwner() {... */\n    tag_15:\n        /* \"contracts/transactionData.sol\":587:592  owner */\n      0x00\n      dup1\n      sload\n      swap1\n      0x0100\n      exp\n      swap1\n      div\n      0xffffffffffffffffffffffffffffffffffffffff\n      and\n        /* \"contracts/transactionData.sol\":573:592  msg.sender == owner */\n      0xffffffffffffffffffffffffffffffffffffffff\n      and\n        /* \"contracts/transactionData.sol\":573:583  msg.sender */\n      caller\n        /* \"contracts/transactionData.sol\":573:592  msg.sender == owner */\n      0xffffffffffffffffffffffffffffffffffffffff\n      and\n      eq\n        /* \"contracts/transactionData.sol\":565:593  require(msg.sender == owner) */\n      tag_45\n      jumpi\n      0x00\n      dup1\n      revert\n    tag_45:\n        /* \"contracts/transactionData.sol\":2980:2981  0 */\n      0x00\n        /* \"contracts/transactionData.sol\":2935:2947  transactions */\n      0x01\n        /* \"contracts/transactionData.sol\":2935:2962  transactions[transactionID] */\n      0x00\n        /* \"contracts/transactionData.sol\":2948:2961  transactionID */\n      dup4\n        /* \"contracts/transactionData.sol\":2935:2962  transactions[transactionID] */\n      dup2\n      mstore\n      0x20\n      add\n      swap1\n      dup2\n      mstore\n      0x20\n      add\n      0x00\n      keccak256\n        /* \"contracts/transactionData.sol\":2935:2976  transactions[transactionID].transactionID */\n      0x00\n      add\n      sload\n        /* \"contracts/transactionData.sol\":2935:2981  transactions[transactionID].transactionID != 0 */\n      sub\n        /* \"contracts/transactionData.sol\":2927:3014  require(transactions[transactionID].transactionID != 0, \"Transaction is not available\") */\n      tag_47\n      jumpi\n      mload(0x40)\n      0x08c379a000000000000000000000000000000000000000000000000000000000\n      dup2\n      mstore\n      0x04\n      add\n      tag_48\n      swap1\n      tag_49\n      jump\t// in\n    tag_48:\n      mload(0x40)\n      dup1\n      swap2\n      sub\n      swap1\n      revert\n    tag_47:\n        /* \"contracts/transactionData.sol\":3032:3044  transactions */\n      0x01\n        /* \"contracts/transactionData.sol\":3032:3059  transactions[transactionID] */\n      0x00\n        /* \"contracts/transactionData.sol\":3045:3058  transactionID */\n      dup3\n        /* \"contracts/transactionData.sol\":3032:3059  transactions[transactionID] */\n      dup2\n      mstore\n      0x20\n      add\n      swap1\n      dup2\n      mstore\n      0x20\n      add\n      0x00\n      keccak256\n      0x00\n        /* \"contracts/transactionData.sol\":3025:3059  delete transactions[transactionID] */\n      dup1\n      dup3\n      add\n      0x00\n      swap1\n      sstore\n      0x01\n      dup3\n      add\n      0x00\n      swap1\n      sstore\n      0x02\n      dup3\n      add\n      0x00\n      swap1\n      sstore\n      0x03\n      dup3\n      add\n      0x00\n      tag_50\n      swap2\n      swap1\n      tag_51\n      jump\t// in\n    tag_50:\n      0x04\n      dup3\n      add\n      0x00\n      swap1\n      sstore\n      0x05\n      dup3\n      add\n      0x00\n      swap1\n      sstore\n      0x06\n      dup3\n      add\n      0x00\n      tag_52\n      swap2\n      swap1\n      tag_51\n      jump\t// in\n    tag_52:\n      0x07\n      dup3\n      add\n      0x00\n      tag_53\n      swap2\n      swap1\n      tag_51\n      jump\t// in\n    tag_53:\n      pop\n      pop\n        /* \"contracts/transactionData.sol\":3077:3083  uint i */\n      0x00\n        /* \"contracts/transactionData.sol\":3072:3431  for (uint i = 0; i < transactionArray.length; i++) {... */\n    tag_54:\n        /* \"contracts/transactionData.sol\":3093:3109  transactionArray */\n      0x02\n        /* \"contracts/transactionData.sol\":3093:3116  transactionArray.length */\n      dup1\n      sload\n      swap1\n      pop\n        /* \"contracts/transactionData.sol\":3089:3090  i */\n      dup2\n        /* \"contracts/transactionData.sol\":3089:3116  i < transactionArray.length */\n      lt\n        /* \"contracts/transactionData.sol\":3072:3431  for (uint i = 0; i < transactionArray.length; i++) {... */\n      iszero\n      tag_55\n      jumpi\n        /* \"contracts/transactionData.sol\":3179:3192  transactionID */\n      dup2\n        /* \"contracts/transactionData.sol\":3142:3158  transactionArray */\n      0x02\n        /* \"contracts/transactionData.sol\":3159:3160  i */\n      dup3\n        /* \"contracts/transactionData.sol\":3142:3161  transactionArray[i] */\n      dup2\n      sload\n      dup2\n      lt\n      tag_57\n      jumpi\n      tag_58\n      tag_59\n      jump\t// in\n    tag_58:\n    tag_57:\n      swap1\n      0x00\n      mstore\n      keccak256(0x00, 0x20)\n      swap1\n      0x08\n      mul\n      add\n        /* \"contracts/transactionData.sol\":3142:3175  transactionArray[i].transactionID */\n      0x00\n      add\n      sload\n        /* \"contracts/transactionData.sol\":3142:3192  transactionArray[i].transactionID == transactionID */\n      sub\n        /* \"contracts/transactionData.sol\":3138:3420  if (transactionArray[i].transactionID == transactionID) {... */\n      tag_61\n      jumpi\n        /* \"contracts/transactionData.sol\":3224:3240  transactionArray */\n      0x02\n        /* \"contracts/transactionData.sol\":3241:3242  i */\n      dup2\n        /* \"contracts/transactionData.sol\":3224:3243  transactionArray[i] */\n      dup2\n      sload\n      dup2\n      lt\n      tag_62\n      jumpi\n      tag_63\n      tag_59\n      jump\t// in\n    tag_63:\n    tag_62:\n      swap1\n      0x00\n      mstore\n      keccak256(0x00, 0x20)\n      swap1\n      0x08\n      mul\n      add\n        /* \"contracts/transactionData.sol\":3213:3221  removeMe */\n      0x03\n        /* \"contracts/transactionData.sol\":3213:3243  removeMe = transactionArray[i] */\n      0x00\n      dup3\n      add\n      sload\n      dup2\n      0x00\n      add\n      sstore\n      0x01\n      dup3\n      add\n      sload\n      dup2\n      0x01\n      add\n      sstore\n      0x02\n      dup3\n      add\n      sload\n      dup2\n      0x02\n      add\n      sstore\n      0x03\n      dup3\n      add\n      dup2\n      0x03\n      add\n      swap1\n      dup2\n      tag_65\n      swap2\n      swap1\n      tag_66\n      jump\t// in\n    tag_65:\n      pop\n      0x04\n      dup3\n      add\n      sload\n      dup2\n      0x04\n      add\n      sstore\n      0x05\n      dup3\n      add\n      sload\n      dup2\n      0x05\n      add\n      sstore\n      0x06\n      dup3\n      add\n      dup2\n      0x06\n      add\n      swap1\n      dup2\n      tag_67\n      swap2\n      swap1\n      tag_66\n      jump\t// in\n    tag_67:\n      pop\n      0x07\n      dup3\n      add\n      dup2\n      0x07\n      add\n      swap1\n      dup2\n      tag_68\n      swap2\n      swap1\n      tag_66\n      jump\t// in\n    tag_68:\n      pop\n      swap1\n      pop\n      pop\n        /* \"contracts/transactionData.sol\":3284:3300  transactionArray */\n      0x02\n        /* \"contracts/transactionData.sol\":3327:3328  1 */\n      0x01\n        /* \"contracts/transactionData.sol\":3301:3317  transactionArray */\n      0x02\n        /* \"contracts/transactionData.sol\":3301:3324  transactionArray.length */\n      dup1\n      sload\n      swap1\n      pop\n        /* \"contracts/transactionData.sol\":3301:3328  transactionArray.length - 1 */\n      tag_69\n      swap2\n      swap1\n      tag_70\n      jump\t// in\n    tag_69:\n        /* \"contracts/transactionData.sol\":3284:3329  transactionArray[transactionArray.length - 1] */\n      dup2\n      sload\n      dup2\n      lt\n      tag_71\n      jumpi\n      tag_72\n      tag_59\n      jump\t// in\n    tag_72:\n    tag_71:\n      swap1\n      0x00\n      mstore\n      keccak256(0x00, 0x20)\n      swap1\n      0x08\n      mul\n      add\n        /* \"contracts/transactionData.sol\":3262:3278  transactionArray */\n      0x02\n        /* \"contracts/transactionData.sol\":3279:3280  i */\n      dup3\n        /* \"contracts/transactionData.sol\":3262:3281  transactionArray[i] */\n      dup2\n      sload\n      dup2\n      lt\n      tag_74\n      jumpi\n      tag_75\n      tag_59\n      jump\t// in\n    tag_75:\n    tag_74:\n      swap1\n      0x00\n      mstore\n      keccak256(0x00, 0x20)\n      swap1\n      0x08\n      mul\n      add\n        /* \"contracts/transactionData.sol\":3262:3329  transactionArray[i] = transactionArray[transactionArray.length - 1] */\n      0x00\n      dup3\n      add\n      sload\n      dup2\n      0x00\n      add\n      sstore\n      0x01\n      dup3\n      add\n      sload\n      dup2\n      0x01\n      add\n      sstore\n      0x02\n      dup3\n      add\n      sload\n      dup2\n      0x02\n      add\n      sstore\n      0x03\n      dup3\n      add\n      dup2\n      0x03\n      add\n      swap1\n      dup2\n      tag_77\n      swap2\n      swap1\n      tag_66\n      jump\t// in\n    tag_77:\n      pop\n      0x04\n      dup3\n      add\n      sload\n      dup2\n      0x04\n      add\n      sstore\n      0x05\n      dup3\n      add\n      sload\n      dup2\n      0x05\n      add\n      sstore\n      0x06\n      dup3\n      add\n      dup2\n      0x06\n      add\n      swap1\n      dup2\n      tag_78\n      swap2\n      swap1\n      tag_66\n      jump\t// in\n    tag_78:\n      pop\n      0x07\n      dup3\n      add\n      dup2\n      0x07\n      add\n      swap1\n      dup2\n      tag_79\n      swap2\n      swap1\n      tag_66\n      jump\t// in\n    tag_79:\n      pop\n      swap1\n      pop\n      pop\n        /* \"contracts/transactionData.sol\":3396:3404  removeMe */\n      0x03\n        /* \"contracts/transactionData.sol\":3348:3364  transactionArray */\n      0x02\n        /* \"contracts/transactionData.sol\":3391:3392  1 */\n      0x01\n        /* \"contracts/transactionData.sol\":3365:3381  transactionArray */\n      0x02\n        /* \"contracts/transactionData.sol\":3365:3388  transactionArray.length */\n      dup1\n      sload\n      swap1\n      pop\n        /* \"contracts/transactionData.sol\":3365:3392  transactionArray.length - 1 */\n      tag_80\n      swap2\n      swap1\n      tag_70\n      jump\t// in\n    tag_80:\n        /* \"contracts/transactionData.sol\":3348:3393  transactionArray[transactionArray.length - 1] */\n      dup2\n      sload\n      dup2\n      lt\n      tag_81\n      jumpi\n      tag_82\n      tag_59\n      jump\t// in\n    tag_82:\n    tag_81:\n      swap1\n      0x00\n      mstore\n      keccak256(0x00, 0x20)\n      swap1\n      0x08\n      mul\n      add\n        /* \"contracts/transactionData.sol\":3348:3404  transactionArray[transactionArray.length - 1] = removeMe */\n      0x00\n      dup3\n      add\n      sload\n      dup2\n      0x00\n      add\n      sstore\n      0x01\n      dup3\n      add\n      sload\n      dup2\n      0x01\n      add\n      sstore\n      0x02\n      dup3\n      add\n      sload\n      dup2\n      0x02\n      add\n      sstore\n      0x03\n      dup3\n      add\n      dup2\n      0x03\n      add\n      swap1\n      dup2\n      tag_84\n      swap2\n      swap1\n      tag_66\n      jump\t// in\n    tag_84:\n      pop\n      0x04\n      dup3\n      add\n      sload\n      dup2\n      0x04\n      add\n      sstore\n      0x05\n      dup3\n      add\n      sload\n      dup2\n      0x05\n      add\n      sstore\n      0x06\n      dup3\n      add\n      dup2\n      0x06\n      add\n      swap1\n      dup2\n      tag_85\n      swap2\n      swap1\n      tag_66\n      jump\t// in\n    tag_85:\n      pop\n      0x07\n      dup3\n      add\n      dup2\n      0x07\n      add\n      swap1\n      dup2\n      tag_86\n      swap2\n      swap1\n      tag_66\n      jump\t// in\n    tag_86:\n      pop\n      swap1\n      pop\n      pop\n        /* \"contracts/transactionData.sol\":3138:3420  if (transactionArray[i].transactionID == transactionID) {... */\n    tag_61:\n        /* \"contracts/transactionData.sol\":3118:3121  i++ */\n      dup1\n      dup1\n      tag_87\n      swap1\n      tag_88\n      jump\t// in\n    tag_87:\n      swap2\n      pop\n      pop\n        /* \"contracts/transactionData.sol\":3072:3431  for (uint i = 0; i < transactionArray.length; i++) {... */\n      jump(tag_54)\n    tag_55:\n      pop\n        /* \"contracts/transactionData.sol\":3441:3457  transactionArray */\n      0x02\n        /* \"contracts/transactionData.sol\":3441:3463  transactionArray.pop() */\n      dup1\n      sload\n      dup1\n      tag_89\n      jumpi\n      tag_90\n      tag_91\n      jump\t// in\n    tag_90:\n    tag_89:\n      0x01\n      swap1\n      sub\n      dup2\n      dup2\n      swap1\n      0x00\n      mstore\n      keccak256(0x00, 0x20)\n      swap1\n      0x08\n      mul\n      add\n      0x00\n      dup1\n      dup3\n      add\n      0x00\n      swap1\n      sstore\n      0x01\n      dup3\n      add\n      0x00\n      swap1\n      sstore\n      0x02\n      dup3\n      add\n      0x00\n      swap1\n      sstore\n      0x03\n      dup3\n      add\n      0x00\n      tag_93\n      swap2\n      swap1\n      tag_51\n      jump\t// in\n    tag_93:\n      0x04\n      dup3\n      add\n      0x00\n      swap1\n      sstore\n      0x05\n      dup3\n      add\n      0x00\n      swap1\n      sstore\n      0x06\n      dup3\n      add\n      0x00\n      tag_94\n      swap2\n      swap1\n      tag_51\n      jump\t// in\n    tag_94:\n      0x07\n      dup3\n      add\n      0x00\n      tag_95\n      swap2\n      swap1\n      tag_51\n      jump\t// in\n    tag_95:\n      pop\n      pop\n      swap1\n      sstore\n        /* \"contracts/transactionData.sol\":2847:3471  function deleteTransaction(uint256 transactionID) public onlyOwner() {... */\n      pop\n      jump\t// out\n        /* \"contracts/transactionData.sol\":1951:2066  function getAllTransactions() public view returns (Transaction[] memory) {... */\n    tag_17:\n        /* \"contracts/transactionData.sol\":2002:2022  Transaction[] memory */\n      0x60\n        /* \"contracts/transactionData.sol\":2042:2058  transactionArray */\n      0x02\n        /* \"contracts/transactionData.sol\":2035:2058  return transactionArray */\n      dup1\n      sload\n      dup1\n      0x20\n      mul\n      0x20\n      add\n      mload(0x40)\n      swap1\n      dup2\n      add\n      0x40\n      mstore\n      dup1\n      swap3\n      swap2\n      swap1\n      dup2\n      dup2\n      mstore\n      0x20\n      add\n      0x00\n      swap1\n    tag_97:\n      dup3\n      dup3\n      lt\n      iszero\n      tag_98\n      jumpi\n      dup4\n      dup3\n      swap1\n      0x00\n      mstore\n      keccak256(0x00, 0x20)\n      swap1\n      0x08\n      mul\n      add\n      mload(0x40)\n      dup1\n      0x0100\n      add\n      0x40\n      mstore\n      swap1\n      dup2\n      0x00\n      dup3\n      add\n      sload\n      dup2\n      mstore\n      0x20\n      add\n      0x01\n      dup3\n      add\n      sload\n      dup2\n      mstore\n      0x20\n      add\n      0x02\n      dup3\n      add\n      sload\n      dup2\n      mstore\n      0x20\n      add\n      0x03\n      dup3\n      add\n      dup1\n      sload\n      tag_100\n      swap1\n      tag_101\n      jump\t// in\n    tag_100:\n      dup1\n      0x1f\n      add\n      0x20\n      dup1\n      swap2\n      div\n      mul\n      0x20\n      add\n      mload(0x40)\n      swap1\n      dup2\n      add\n      0x40\n      mstore\n      dup1\n      swap3\n      swap2\n      swap1\n      dup2\n      dup2\n      mstore\n      0x20\n      add\n      dup3\n      dup1\n      sload\n      tag_102\n      swap1\n      tag_101\n      jump\t// in\n    tag_102:\n      dup1\n      iszero\n      tag_103\n      jumpi\n      dup1\n      0x1f\n      lt\n      tag_104\n      jumpi\n      0x0100\n      dup1\n      dup4\n      sload\n      div\n      mul\n      dup4\n      mstore\n      swap2\n      0x20\n      add\n      swap2\n      jump(tag_103)\n    tag_104:\n      dup3\n      add\n      swap2\n      swap1\n      0x00\n      mstore\n      keccak256(0x00, 0x20)\n      swap1\n    tag_105:\n      dup2\n      sload\n      dup2\n      mstore\n      swap1\n      0x01\n      add\n      swap1\n      0x20\n      add\n      dup1\n      dup4\n      gt\n      tag_105\n      jumpi\n      dup3\n      swap1\n      sub\n      0x1f\n      and\n      dup3\n      add\n      swap2\n    tag_103:\n      pop\n      pop\n      pop\n      pop\n      pop\n      dup2\n      mstore\n      0x20\n      add\n      0x04\n      dup3\n      add\n      sload\n      dup2\n      mstore\n      0x20\n      add\n      0x05\n      dup3\n      add\n      sload\n      dup2\n      mstore\n      0x20\n      add\n      0x06\n      dup3\n      add\n      dup1\n      sload\n      tag_106\n      swap1\n      tag_101\n      jump\t// in\n    tag_106:\n      dup1\n      0x1f\n      add\n      0x20\n      dup1\n      swap2\n      div\n      mul\n      0x20\n      add\n      mload(0x40)\n      swap1\n      dup2\n      add\n      0x40\n      mstore\n      dup1\n      swap3\n      swap2\n      swap1\n      dup2\n      dup2\n      mstore\n      0x20\n      add\n      dup3\n      dup1\n      sload\n      tag_107\n      swap1\n      tag_101\n      jump\t// in\n    tag_107:\n      dup1\n      iszero\n      tag_108\n      jumpi\n      dup1\n      0x1f\n      lt\n      tag_109\n      jumpi\n      0x0100\n      dup1\n      dup4\n      sload\n      div\n      mul\n      dup4\n      mstore\n      swap2\n      0x20\n      add\n      swap2\n      jump(tag_108)\n    tag_109:\n      dup3\n      add\n      swap2\n      swap1\n      0x00\n      mstore\n      keccak256(0x00, 0x20)\n      swap1\n    tag_110:\n      dup2\n      sload\n      dup2\n      mstore\n      swap1\n      0x01\n      add\n      swap1\n      0x20\n      add\n      dup1\n      dup4\n      gt\n      tag_110\n      jumpi\n      dup3\n      swap1\n      sub\n      0x1f\n      and\n      dup3\n      add\n      swap2\n    tag_108:\n      pop\n      pop\n      pop\n      pop\n      pop\n      dup2\n      mstore\n      0x20\n      add\n      0x07\n      dup3\n      add\n      dup1\n      sload\n      tag_111\n      swap1\n      tag_101\n      jump\t// in\n    tag_111:\n      dup1\n      0x1f\n      add\n      0x20\n      dup1\n      swap2\n      div\n      mul\n      0x20\n      add\n      mload(0x40)\n      swap1\n      dup2\n      add\n      0x40\n      mstore\n      dup1\n      swap3\n      swap2\n      swap1\n      dup2\n      dup2\n      mstore\n      0x20\n      add\n      dup3\n      dup1\n      sload\n      tag_112\n      swap1\n      tag_101\n      jump\t// in\n    tag_112:\n      dup1\n      iszero\n      tag_113\n      jumpi\n      dup1\n      0x1f\n      lt\n      tag_114\n      jumpi\n      0x0100\n      dup1\n      dup4\n      sload\n      div\n      mul\n      dup4\n      mstore\n      swap2\n      0x20\n      add\n      swap2\n      jump(tag_113)\n    tag_114:\n      dup3\n      add\n      swap2\n      swap1\n      0x00\n      mstore\n      keccak256(0x00, 0x20)\n      swap1\n    tag_115:\n      dup2\n      sload\n      dup2\n      mstore\n      swap1\n      0x01\n      add\n      swap1\n      0x20\n      add\n      dup1\n      dup4\n      gt\n      tag_115\n      jumpi\n      dup3\n      swap1\n      sub\n      0x1f\n      and\n      dup3\n      add\n      swap2\n    tag_113:\n      pop\n      pop\n      pop\n      pop\n      pop\n      dup2\n      mstore\n      pop\n      pop\n      dup2\n      mstore\n      0x20\n      add\n      swap1\n      0x01\n      add\n      swap1\n      jump(tag_97)\n    tag_98:\n      pop\n      pop\n      pop\n      pop\n      swap1\n      pop\n        /* \"contracts/transactionData.sol\":1951:2066  function getAllTransactions() public view returns (Transaction[] memory) {... */\n      swap1\n      jump\t// out\n        /* \"contracts/transactionData.sol\":1446:1943  function getTransaction(uint256 transactionID) public view returns (uint256, uint256, string memory, uint256, uint256, string memory, string memory) {... */\n    tag_22:\n        /* \"contracts/transactionData.sol\":1514:1521  uint256 */\n      0x00\n        /* \"contracts/transactionData.sol\":1523:1530  uint256 */\n      dup1\n        /* \"contracts/transactionData.sol\":1532:1545  string memory */\n      0x60\n        /* \"contracts/transactionData.sol\":1547:1554  uint256 */\n      0x00\n        /* \"contracts/transactionData.sol\":1556:1563  uint256 */\n      dup1\n        /* \"contracts/transactionData.sol\":1565:1578  string memory */\n      0x60\n        /* \"contracts/transactionData.sol\":1580:1593  string memory */\n      dup1\n        /* \"contracts/transactionData.sol\":1659:1660  0 */\n      0x00\n        /* \"contracts/transactionData.sol\":1614:1626  transactions */\n      0x01\n        /* \"contracts/transactionData.sol\":1614:1641  transactions[transactionID] */\n      0x00\n        /* \"contracts/transactionData.sol\":1627:1640  transactionID */\n      dup11\n        /* \"contracts/transactionData.sol\":1614:1641  transactions[transactionID] */\n      dup2\n      mstore\n      0x20\n      add\n      swap1\n      dup2\n      mstore\n      0x20\n      add\n      0x00\n      keccak256\n        /* \"contracts/transactionData.sol\":1614:1655  transactions[transactionID].transactionID */\n      0x00\n      add\n      sload\n        /* \"contracts/transactionData.sol\":1614:1660  transactions[transactionID].transactionID != 0 */\n      sub\n        /* \"contracts/transactionData.sol\":1606:1693  require(transactions[transactionID].transactionID != 0, \"Transaction is not available\") */\n      tag_117\n      jumpi\n      mload(0x40)\n      0x08c379a000000000000000000000000000000000000000000000000000000000\n      dup2\n      mstore\n      0x04\n      add\n      tag_118\n      swap1\n      tag_49\n      jump\t// in\n    tag_118:\n      mload(0x40)\n      dup1\n      swap2\n      sub\n      swap1\n      revert\n    tag_117:\n        /* \"contracts/transactionData.sol\":1704:1734  Transaction memory transaction */\n      0x00\n        /* \"contracts/transactionData.sol\":1737:1749  transactions */\n      0x01\n        /* \"contracts/transactionData.sol\":1737:1764  transactions[transactionID] */\n      0x00\n        /* \"contracts/transactionData.sol\":1750:1763  transactionID */\n      dup11\n        /* \"contracts/transactionData.sol\":1737:1764  transactions[transactionID] */\n      dup2\n      mstore\n      0x20\n      add\n      swap1\n      dup2\n      mstore\n      0x20\n      add\n      0x00\n      keccak256\n        /* \"contracts/transactionData.sol\":1704:1764  Transaction memory transaction = transactions[transactionID] */\n      mload(0x40)\n      dup1\n      0x0100\n      add\n      0x40\n      mstore\n      swap1\n      dup2\n      0x00\n      dup3\n      add\n      sload\n      dup2\n      mstore\n      0x20\n      add\n      0x01\n      dup3\n      add\n      sload\n      dup2\n      mstore\n      0x20\n      add\n      0x02\n      dup3\n      add\n      sload\n      dup2\n      mstore\n      0x20\n      add\n      0x03\n      dup3\n      add\n      dup1\n      sload\n      tag_119\n      swap1\n      tag_101\n      jump\t// in\n    tag_119:\n      dup1\n      0x1f\n      add\n      0x20\n      dup1\n      swap2\n      div\n      mul\n      0x20\n      add\n      mload(0x40)\n      swap1\n      dup2\n      add\n      0x40\n      mstore\n      dup1\n      swap3\n      swap2\n      swap1\n      dup2\n      dup2\n      mstore\n      0x20\n      add\n      dup3\n      dup1\n      sload\n      tag_120\n      swap1\n      tag_101\n      jump\t// in\n    tag_120:\n      dup1\n      iszero\n      tag_121\n      jumpi\n      dup1\n      0x1f\n      lt\n      tag_122\n      jumpi\n      0x0100\n      dup1\n      dup4\n      sload\n      div\n      mul\n      dup4\n      mstore\n      swap2\n      0x20\n      add\n      swap2\n      jump(tag_121)\n    tag_122:\n      dup3\n      add\n      swap2\n      swap1\n      0x00\n      mstore\n      keccak256(0x00, 0x20)\n      swap1\n    tag_123:\n      dup2\n      sload\n      dup2\n      mstore\n      swap1\n      0x01\n      add\n      swap1\n      0x20\n      add\n      dup1\n      dup4\n      gt\n      tag_123\n      jumpi\n      dup3\n      swap1\n      sub\n      0x1f\n      and\n      dup3\n      add\n      swap2\n    tag_121:\n      pop\n      pop\n      pop\n      pop\n      pop\n      dup2\n      mstore\n      0x20\n      add\n      0x04\n      dup3\n      add\n      sload\n      dup2\n      mstore\n      0x20\n      add\n      0x05\n      dup3\n      add\n      sload\n      dup2\n      mstore\n      0x20\n      add\n      0x06\n      dup3\n      add\n      dup1\n      sload\n      tag_124\n      swap1\n      tag_101\n      jump\t// in\n    tag_124:\n      dup1\n      0x1f\n      add\n      0x20\n      dup1\n      swap2\n      div\n      mul\n      0x20\n      add\n      mload(0x40)\n      swap1\n      dup2\n      add\n      0x40\n      mstore\n      dup1\n      swap3\n      swap2\n      swap1\n      dup2\n      dup2\n      mstore\n      0x20\n      add\n      dup3\n      dup1\n      sload\n      tag_125\n      swap1\n      tag_101\n      jump\t// in\n    tag_125:\n      dup1\n      iszero\n      tag_126\n      jumpi\n      dup1\n      0x1f\n      lt\n      tag_127\n      jumpi\n      0x0100\n      dup1\n      dup4\n      sload\n      div\n      mul\n      dup4\n      mstore\n      swap2\n      0x20\n      add\n      swap2\n      jump(tag_126)\n    tag_127:\n      dup3\n      add\n      swap2\n      swap1\n      0x00\n      mstore\n      keccak256(0x00, 0x20)\n      swap1\n    tag_128:\n      dup2\n      sload\n      dup2\n      mstore\n      swap1\n      0x01\n      add\n      swap1\n      0x20\n      add\n      dup1\n      dup4\n      gt\n      tag_128\n      jumpi\n      dup3\n      swap1\n      sub\n      0x1f\n      and\n      dup3\n      add\n      swap2\n    tag_126:\n      pop\n      pop\n      pop\n      pop\n      pop\n      dup2\n      mstore\n      0x20\n      add\n      0x07\n      dup3\n      add\n      dup1\n      sload\n      tag_129\n      swap1\n      tag_101\n      jump\t// in\n    tag_129:\n      dup1\n      0x1f\n      add\n      0x20\n      dup1\n      swap2\n      div\n      mul\n      0x20\n      add\n      mload(0x40)\n      swap1\n      dup2\n      add\n      0x40\n      mstore\n      dup1\n      swap3\n      swap2\n      swap1\n      dup2\n      dup2\n      mstore\n      0x20\n      add\n      dup3\n      dup1\n      sload\n      tag_130\n      swap1\n      tag_101\n      jump\t// in\n    tag_130:\n      dup1\n      iszero\n      tag_131\n      jumpi\n      dup1\n      0x1f\n      lt\n      tag_132\n      jumpi\n      0x0100\n      dup1\n      dup4\n      sload\n      div\n      mul\n      dup4\n      mstore\n      swap2\n      0x20\n      add\n      swap2\n      jump(tag_131)\n    tag_132:\n      dup3\n      add\n      swap2\n      swap1\n      0x00\n      mstore\n      keccak256(0x00, 0x20)\n      swap1\n    tag_133:\n      dup2\n      sload\n      dup2\n      mstore\n      swap1\n      0x01\n      add\n      swap1\n      0x20\n      add\n      dup1\n      dup4\n      gt\n      tag_133\n      jumpi\n      dup3\n      swap1\n      sub\n      0x1f\n      and\n      dup3\n      add\n      swap2\n    tag_131:\n      pop\n      pop\n      pop\n      pop\n      pop\n      dup2\n      mstore\n      pop\n      pop\n      swap1\n      pop\n        /* \"contracts/transactionData.sol\":1783:1794  transaction */\n      dup1\n        /* \"contracts/transactionData.sol\":1783:1801  transaction.userID */\n      0x20\n      add\n      mload\n        /* \"contracts/transactionData.sol\":1803:1814  transaction */\n      dup2\n        /* \"contracts/transactionData.sol\":1803:1824  transaction.productID */\n      0x40\n      add\n      mload\n        /* \"contracts/transactionData.sol\":1826:1837  transaction */\n      dup3\n        /* \"contracts/transactionData.sol\":1826:1849  transaction.productName */\n      0x60\n      add\n      mload\n        /* \"contracts/transactionData.sol\":1851:1862  transaction */\n      dup4\n        /* \"contracts/transactionData.sol\":1851:1869  transaction.amount */\n      0x80\n      add\n      mload\n        /* \"contracts/transactionData.sol\":1871:1882  transaction */\n      dup5\n        /* \"contracts/transactionData.sol\":1871:1892  transaction.unitPrice */\n      0xa0\n      add\n      mload\n        /* \"contracts/transactionData.sol\":1894:1905  transaction */\n      dup6\n        /* \"contracts/transactionData.sol\":1894:1914  transaction.dateTime */\n      0xc0\n      add\n      mload\n        /* \"contracts/transactionData.sol\":1916:1927  transaction */\n      dup7\n        /* \"contracts/transactionData.sol\":1916:1934  transaction.status */\n      0xe0\n      add\n      mload\n        /* \"contracts/transactionData.sol\":1775:1935  return (transaction.userID, transaction.productID, transaction.productName, transaction.amount, transaction.unitPrice, transaction.dateTime, transaction.status) */\n      swap8\n      pop\n      swap8\n      pop\n      swap8\n      pop\n      swap8\n      pop\n      swap8\n      pop\n      swap8\n      pop\n      swap8\n      pop\n      pop\n        /* \"contracts/transactionData.sol\":1446:1943  function getTransaction(uint256 transactionID) public view returns (uint256, uint256, string memory, uint256, uint256, string memory, string memory) {... */\n      swap2\n      swap4\n      swap6\n      swap8\n      swap1\n      swap3\n      swap5\n      swap7\n      pop\n      jump\t// out\n        /* \"contracts/transactionData.sol\":728:1438  function setTransaction(uint256 transactionID, uint256 userID, uint256 productID, ... */\n    tag_28:\n        /* \"contracts/transactionData.sol\":587:592  owner */\n      0x00\n      dup1\n      sload\n      swap1\n      0x0100\n      exp\n      swap1\n      div\n      0xffffffffffffffffffffffffffffffffffffffff\n      and\n        /* \"contracts/transactionData.sol\":573:592  msg.sender == owner */\n      0xffffffffffffffffffffffffffffffffffffffff\n      and\n        /* \"contracts/transactionData.sol\":573:583  msg.sender */\n      caller\n        /* \"contracts/transactionData.sol\":573:592  msg.sender == owner */\n      0xffffffffffffffffffffffffffffffffffffffff\n      and\n      eq\n        /* \"contracts/transactionData.sol\":565:593  require(msg.sender == owner) */\n      tag_135\n      jumpi\n      0x00\n      dup1\n      revert\n    tag_135:\n        /* \"contracts/transactionData.sol\":1025:1026  0 */\n      0x00\n        /* \"contracts/transactionData.sol\":980:992  transactions */\n      0x01\n        /* \"contracts/transactionData.sol\":980:1007  transactions[transactionID] */\n      0x00\n        /* \"contracts/transactionData.sol\":993:1006  transactionID */\n      dup11\n        /* \"contracts/transactionData.sol\":980:1007  transactions[transactionID] */\n      dup2\n      mstore\n      0x20\n      add\n      swap1\n      dup2\n      mstore\n      0x20\n      add\n      0x00\n      keccak256\n        /* \"contracts/transactionData.sol\":980:1021  transactions[transactionID].transactionID */\n      0x00\n      add\n      sload\n        /* \"contracts/transactionData.sol\":980:1026  transactions[transactionID].transactionID == 0 */\n      sub\n        /* \"contracts/transactionData.sol\":976:1431  if (transactions[transactionID].transactionID == 0) {... */\n      tag_137\n      jumpi\n        /* \"contracts/transactionData.sol\":1043:1073  Transaction memory transaction */\n      0x00\n        /* \"contracts/transactionData.sol\":1076:1171  Transaction(transactionID, userID, productID, productName, amount, unitPrice, dateTime, status) */\n      mload(0x40)\n      dup1\n      0x0100\n      add\n      0x40\n      mstore\n      dup1\n        /* \"contracts/transactionData.sol\":1088:1101  transactionID */\n      dup11\n        /* \"contracts/transactionData.sol\":1076:1171  Transaction(transactionID, userID, productID, productName, amount, unitPrice, dateTime, status) */\n      dup2\n      mstore\n      0x20\n      add\n        /* \"contracts/transactionData.sol\":1103:1109  userID */\n      dup10\n        /* \"contracts/transactionData.sol\":1076:1171  Transaction(transactionID, userID, productID, productName, amount, unitPrice, dateTime, status) */\n      dup2\n      mstore\n      0x20\n      add\n        /* \"contracts/transactionData.sol\":1111:1120  productID */\n      dup9\n        /* \"contracts/transactionData.sol\":1076:1171  Transaction(transactionID, userID, productID, productName, amount, unitPrice, dateTime, status) */\n      dup2\n      mstore\n      0x20\n      add\n        /* \"contracts/transactionData.sol\":1122:1133  productName */\n      dup8\n        /* \"contracts/transactionData.sol\":1076:1171  Transaction(transactionID, userID, productID, productName, amount, unitPrice, dateTime, status) */\n      dup2\n      mstore\n      0x20\n      add\n        /* \"contracts/transactionData.sol\":1135:1141  amount */\n      dup7\n        /* \"contracts/transactionData.sol\":1076:1171  Transaction(transactionID, userID, productID, productName, amount, unitPrice, dateTime, status) */\n      dup2\n      mstore\n      0x20\n      add\n        /* \"contracts/transactionData.sol\":1143:1152  unitPrice */\n      dup6\n        /* \"contracts/transactionData.sol\":1076:1171  Transaction(transactionID, userID, productID, productName, amount, unitPrice, dateTime, status) */\n      dup2\n      mstore\n      0x20\n      add\n        /* \"contracts/transactionData.sol\":1154:1162  dateTime */\n      dup5\n        /* \"contracts/transactionData.sol\":1076:1171  Transaction(transactionID, userID, productID, productName, amount, unitPrice, dateTime, status) */\n      dup2\n      mstore\n      0x20\n      add\n        /* \"contracts/transactionData.sol\":1164:1170  status */\n      dup4\n        /* \"contracts/transactionData.sol\":1076:1171  Transaction(transactionID, userID, productID, productName, amount, unitPrice, dateTime, status) */\n      dup2\n      mstore\n      pop\n        /* \"contracts/transactionData.sol\":1043:1171  Transaction memory transaction = Transaction(transactionID, userID, productID, productName, amount, unitPrice, dateTime, status) */\n      swap1\n      pop\n        /* \"contracts/transactionData.sol\":1216:1227  transaction */\n      dup1\n        /* \"contracts/transactionData.sol\":1186:1198  transactions */\n      0x01\n        /* \"contracts/transactionData.sol\":1186:1213  transactions[transactionID] */\n      0x00\n        /* \"contracts/transactionData.sol\":1199:1212  transactionID */\n      dup12\n        /* \"contracts/transactionData.sol\":1186:1213  transactions[transactionID] */\n      dup2\n      mstore\n      0x20\n      add\n      swap1\n      dup2\n      mstore\n      0x20\n      add\n      0x00\n      keccak256\n        /* \"contracts/transactionData.sol\":1186:1227  transactions[transactionID] = transaction */\n      0x00\n      dup3\n      add\n      mload\n      dup2\n      0x00\n      add\n      sstore\n      0x20\n      dup3\n      add\n      mload\n      dup2\n      0x01\n      add\n      sstore\n      0x40\n      dup3\n      add\n      mload\n      dup2\n      0x02\n      add\n      sstore\n      0x60\n      dup3\n      add\n      mload\n      dup2\n      0x03\n      add\n      swap1\n      dup2\n      tag_138\n      swap2\n      swap1\n      tag_139\n      jump\t// in\n    tag_138:\n      pop\n      0x80\n      dup3\n      add\n      mload\n      dup2\n      0x04\n      add\n      sstore\n      0xa0\n      dup3\n      add\n      mload\n      dup2\n      0x05\n      add\n      sstore\n      0xc0\n      dup3\n      add\n      mload\n      dup2\n      0x06\n      add\n      swap1\n      dup2\n      tag_140\n      swap2\n      swap1\n      tag_139\n      jump\t// in\n    tag_140:\n      pop\n      0xe0\n      dup3\n      add\n      mload\n      dup2\n      0x07\n      add\n      swap1\n      dup2\n      tag_141\n      swap2\n      swap1\n      tag_139\n      jump\t// in\n    tag_141:\n      pop\n      swap1\n      pop\n      pop\n        /* \"contracts/transactionData.sol\":1242:1258  transactionArray */\n      0x02\n        /* \"contracts/transactionData.sol\":1264:1275  transaction */\n      dup2\n        /* \"contracts/transactionData.sol\":1242:1276  transactionArray.push(transaction) */\n      swap1\n      dup1\n      0x01\n      dup2\n      sload\n      add\n      dup1\n      dup3\n      sstore\n      dup1\n      swap2\n      pop\n      pop\n      0x01\n      swap1\n      sub\n      swap1\n      0x00\n      mstore\n      keccak256(0x00, 0x20)\n      swap1\n      0x08\n      mul\n      add\n      0x00\n      swap1\n      swap2\n      swap1\n      swap2\n      swap1\n      swap2\n      pop\n      0x00\n      dup3\n      add\n      mload\n      dup2\n      0x00\n      add\n      sstore\n      0x20\n      dup3\n      add\n      mload\n      dup2\n      0x01\n      add\n      sstore\n      0x40\n      dup3\n      add\n      mload\n      dup2\n      0x02\n      add\n      sstore\n      0x60\n      dup3\n      add\n      mload\n      dup2\n      0x03\n      add\n      swap1\n      dup2\n      tag_143\n      swap2\n      swap1\n      tag_139\n      jump\t// in\n    tag_143:\n      pop\n      0x80\n      dup3\n      add\n      mload\n      dup2\n      0x04\n      add\n      sstore\n      0xa0\n      dup3\n      add\n      mload\n      dup2\n      0x05\n      add\n      sstore\n      0xc0\n      dup3\n      add\n      mload\n      dup2\n      0x06\n      add\n      swap1\n      dup2\n      tag_144\n      swap2\n      swap1\n      tag_139\n      jump\t// in\n    tag_144:\n      pop\n      0xe0\n      dup3\n      add\n      mload\n      dup2\n      0x07\n      add\n      swap1\n      dup2\n      tag_145\n      swap2\n      swap1\n      tag_139\n      jump\t// in\n    tag_145:\n      pop\n      pop\n      pop\n        /* \"contracts/transactionData.sol\":1028:1288  {... */\n      pop\n        /* \"contracts/transactionData.sol\":976:1431  if (transactions[transactionID].transactionID == 0) {... */\n      jump(tag_146)\n    tag_137:\n        /* \"contracts/transactionData.sol\":1318:1419  updateTransaction(transactionID, userID, productID, productName, amount, unitPrice, dateTime, status) */\n      tag_147\n        /* \"contracts/transactionData.sol\":1336:1349  transactionID */\n      dup9\n        /* \"contracts/transactionData.sol\":1351:1357  userID */\n      dup9\n        /* \"contracts/transactionData.sol\":1359:1368  productID */\n      dup9\n        /* \"contracts/transactionData.sol\":1370:1381  productName */\n      dup9\n        /* \"contracts/transactionData.sol\":1383:1389  amount */\n      dup9\n        /* \"contracts/transactionData.sol\":1391:1400  unitPrice */\n      dup9\n        /* \"contracts/transactionData.sol\":1402:1410  dateTime */\n      dup9\n        /* \"contracts/transactionData.sol\":1412:1418  status */\n      dup9\n        /* \"contracts/transactionData.sol\":1318:1335  updateTransaction */\n      tag_43\n        /* \"contracts/transactionData.sol\":1318:1419  updateTransaction(transactionID, userID, productID, productName, amount, unitPrice, dateTime, status) */\n      jump\t// in\n    tag_147:\n        /* \"contracts/transactionData.sol\":976:1431  if (transactions[transactionID].transactionID == 0) {... */\n    tag_146:\n        /* \"contracts/transactionData.sol\":728:1438  function setTransaction(uint256 transactionID, uint256 userID, uint256 productID, ... */\n      pop\n      pop\n      pop\n      pop\n      pop\n      pop\n      pop\n      pop\n      jump\t// out\n        /* \"contracts/transactionData.sol\":374:423  mapping (uint => Transaction) public transactions */\n    tag_31:\n      mstore(0x20, 0x01)\n      dup1\n      0x00\n      mstore\n      keccak256(0x00, 0x40)\n      0x00\n      swap2\n      pop\n      swap1\n      pop\n      dup1\n      0x00\n      add\n      sload\n      swap1\n      dup1\n      0x01\n      add\n      sload\n      swap1\n      dup1\n      0x02\n      add\n      sload\n      swap1\n      dup1\n      0x03\n      add\n      dup1\n      sload\n      tag_148\n      swap1\n      tag_101\n      jump\t// in\n    tag_148:\n      dup1\n      0x1f\n      add\n      0x20\n      dup1\n      swap2\n      div\n      mul\n      0x20\n      add\n      mload(0x40)\n      swap1\n      dup2\n      add\n      0x40\n      mstore\n      dup1\n      swap3\n      swap2\n      swap1\n      dup2\n      dup2\n      mstore\n      0x20\n      add\n      dup3\n      dup1\n      sload\n      tag_149\n      swap1\n      tag_101\n      jump\t// in\n    tag_149:\n      dup1\n      iszero\n      tag_150\n      jumpi\n      dup1\n      0x1f\n      lt\n      tag_151\n      jumpi\n      0x0100\n      dup1\n      dup4\n      sload\n      div\n      mul\n      dup4\n      mstore\n      swap2\n      0x20\n      add\n      swap2\n      jump(tag_150)\n    tag_151:\n      dup3\n      add\n      swap2\n      swap1\n      0x00\n      mstore\n      keccak256(0x00, 0x20)\n      swap1\n    tag_152:\n      dup2\n      sload\n      dup2\n      mstore\n      swap1\n      0x01\n      add\n      swap1\n      0x20\n      add\n      dup1\n      dup4\n      gt\n      tag_152\n      jumpi\n      dup3\n      swap1\n      sub\n      0x1f\n      and\n      dup3\n      add\n      swap2\n    tag_150:\n      pop\n      pop\n      pop\n      pop\n      pop\n      swap1\n      dup1\n      0x04\n      add\n      sload\n      swap1\n      dup1\n      0x05\n      add\n      sload\n      swap1\n      dup1\n      0x06\n      add\n      dup1\n      sload\n      tag_153\n      swap1\n      tag_101\n      jump\t// in\n    tag_153:\n      dup1\n      0x1f\n      add\n      0x20\n      dup1\n      swap2\n      div\n      mul\n      0x20\n      add\n      mload(0x40)\n      swap1\n      dup2\n      add\n      0x40\n      mstore\n      dup1\n      swap3\n      swap2\n      swap1\n      dup2\n      dup2\n      mstore\n      0x20\n      add\n      dup3\n      dup1\n      sload\n      tag_154\n      swap1\n      tag_101\n      jump\t// in\n    tag_154:\n      dup1\n      iszero\n      tag_155\n      jumpi\n      dup1\n      0x1f\n      lt\n      tag_156\n      jumpi\n      0x0100\n      dup1\n      dup4\n      sload\n      div\n      mul\n      dup4\n      mstore\n      swap2\n      0x20\n      add\n      swap2\n      jump(tag_155)\n    tag_156:\n      dup3\n      add\n      swap2\n      swap1\n      0x00\n      mstore\n      keccak256(0x00, 0x20)\n      swap1\n    tag_157:\n      dup2\n      sload\n      dup2\n      mstore\n      swap1\n      0x01\n      add\n      swap1\n      0x20\n      add\n      dup1\n      dup4\n      gt\n      tag_157\n      jumpi\n      dup3\n      swap1\n      sub\n      0x1f\n      and\n      dup3\n      add\n      swap2\n    tag_155:\n      pop\n      pop\n      pop\n      pop\n      pop\n      swap1\n      dup1\n      0x07\n      add\n      dup1\n      sload\n      tag_158\n      swap1\n      tag_101\n      jump\t// in\n    tag_158:\n      dup1\n      0x1f\n      add\n      0x20\n      dup1\n      swap2\n      div\n      mul\n      0x20\n      add\n      mload(0x40)\n      swap1\n      dup2\n      add\n      0x40\n      mstore\n      dup1\n      swap3\n      swap2\n      swap1\n      dup2\n      dup2\n      mstore\n      0x20\n      add\n      dup3\n      dup1\n      sload\n      tag_159\n      swap1\n      tag_101\n      jump\t// in\n    tag_159:\n      dup1\n      iszero\n      tag_160\n      jumpi\n      dup1\n      0x1f\n      lt\n      tag_161\n      jumpi\n      0x0100\n      dup1\n      dup4\n      sload\n      div\n      mul\n      dup4\n      mstore\n      swap2\n      0x20\n      add\n      swap2\n      jump(tag_160)\n    tag_161:\n      dup3\n      add\n      swap2\n      swap1\n      0x00\n      mstore\n      keccak256(0x00, 0x20)\n      swap1\n    tag_162:\n      dup2\n      sload\n      dup2\n      mstore\n      swap1\n      0x01\n      add\n      swap1\n      0x20\n      add\n      dup1\n      dup4\n      gt\n      tag_162\n      jumpi\n      dup3\n      swap1\n      sub\n      0x1f\n      and\n      dup3\n      add\n      swap2\n    tag_160:\n      pop\n      pop\n      pop\n      pop\n      pop\n      swap1\n      pop\n      dup9\n      jump\t// out\n        /* \"contracts/transactionData.sol\":2716:2743  Transaction public removeMe */\n    tag_35:\n      0x03\n      dup1\n      0x00\n      add\n      sload\n      swap1\n      dup1\n      0x01\n      add\n      sload\n      swap1\n      dup1\n      0x02\n      add\n      sload\n      swap1\n      dup1\n      0x03\n      add\n      dup1\n      sload\n      tag_163\n      swap1\n      tag_101\n      jump\t// in\n    tag_163:\n      dup1\n      0x1f\n      add\n      0x20\n      dup1\n      swap2\n      div\n      mul\n      0x20\n      add\n      mload(0x40)\n      swap1\n      dup2\n      add\n      0x40\n      mstore\n      dup1\n      swap3\n      swap2\n      swap1\n      dup2\n      dup2\n      mstore\n      0x20\n      add\n      dup3\n      dup1\n      sload\n      tag_164\n      swap1\n      tag_101\n      jump\t// in\n    tag_164:\n      dup1\n      iszero\n      tag_165\n      jumpi\n      dup1\n      0x1f\n      lt\n      tag_166\n      jumpi\n      0x0100\n      dup1\n      dup4\n      sload\n      div\n      mul\n      dup4\n      mstore\n      swap2\n      0x20\n      add\n      swap2\n      jump(tag_165)\n    tag_166:\n      dup3\n      add\n      swap2\n      swap1\n      0x00\n      mstore\n      keccak256(0x00, 0x20)\n      swap1\n    tag_167:\n      dup2\n      sload\n      dup2\n      mstore\n      swap1\n      0x01\n      add\n      swap1\n      0x20\n      add\n      dup1\n      dup4\n      gt\n      tag_167\n      jumpi\n      dup3\n      swap1\n      sub\n      0x1f\n      and\n      dup3\n      add\n      swap2\n    tag_165:\n      pop\n      pop\n      pop\n      pop\n      pop\n      swap1\n      dup1\n      0x04\n      add\n      sload\n      swap1\n      dup1\n      0x05\n      add\n      sload\n      swap1\n      dup1\n      0x06\n      add\n      dup1\n      sload\n      tag_168\n      swap1\n      tag_101\n      jump\t// in\n    tag_168:\n      dup1\n      0x1f\n      add\n      0x20\n      dup1\n      swap2\n      div\n      mul\n      0x20\n      add\n      mload(0x40)\n      swap1\n      dup2\n      add\n      0x40\n      mstore\n      dup1\n      swap3\n      swap2\n      swap1\n      dup2\n      dup2\n      mstore\n      0x20\n      add\n      dup3\n      dup1\n      sload\n      tag_169\n      swap1\n      tag_101\n      jump\t// in\n    tag_169:\n      dup1\n      iszero\n      tag_170\n      jumpi\n      dup1\n      0x1f\n      lt\n      tag_171\n      jumpi\n      0x0100\n      dup1\n      dup4\n      sload\n      div\n      mul\n      dup4\n      mstore\n      swap2\n      0x20\n      add\n      swap2\n      jump(tag_170)\n    tag_171:\n      dup3\n      add\n      swap2\n      swap1\n      0x00\n      mstore\n      keccak256(0x00, 0x20)\n      swap1\n    tag_172:\n      dup2\n      sload\n      dup2\n      mstore\n      swap1\n      0x01\n      add\n      swap1\n      0x20\n      add\n      dup1\n      dup4\n      gt\n      tag_172\n      jumpi\n      dup3\n      swap1\n      sub\n      0x1f\n      and\n      dup3\n      add\n      swap2\n    tag_170:\n      pop\n      pop\n      pop\n      pop\n      pop\n      swap1\n      dup1\n      0x07\n      add\n      dup1\n      sload\n      tag_173\n      swap1\n      tag_101\n      jump\t// in\n    tag_173:\n      dup1\n      0x1f\n      add\n      0x20\n      dup1\n      swap2\n      div\n      mul\n      0x20\n      add\n      mload(0x40)\n      swap1\n      dup2\n      add\n      0x40\n      mstore\n      dup1\n      swap3\n      swap2\n      swap1\n      dup2\n      dup2\n      mstore\n      0x20\n      add\n      dup3\n      dup1\n      sload\n      tag_174\n      swap1\n      tag_101\n      jump\t// in\n    tag_174:\n      dup1\n      iszero\n      tag_175\n      jumpi\n      dup1\n      0x1f\n      lt\n      tag_176\n      jumpi\n      0x0100\n      dup1\n      dup4\n      sload\n      div\n      mul\n      dup4\n      mstore\n      swap2\n      0x20\n      add\n      swap2\n      jump(tag_175)\n    tag_176:\n      dup3\n      add\n      swap2\n      swap1\n      0x00\n      mstore\n      keccak256(0x00, 0x20)\n      swap1\n    tag_177:\n      dup2\n      sload\n      dup2\n      mstore\n      swap1\n      0x01\n      add\n      swap1\n      0x20\n      add\n      dup1\n      dup4\n      gt\n      tag_177\n      jumpi\n      dup3\n      swap1\n      sub\n      0x1f\n      and\n      dup3\n      add\n      swap2\n    tag_175:\n      pop\n      pop\n      pop\n      pop\n      pop\n      swap1\n      pop\n      dup9\n      jump\t// out\n        /* \"contracts/transactionData.sol\":430:467  Transaction[] public transactionArray */\n    tag_39:\n      0x02\n      dup2\n      dup2\n      sload\n      dup2\n      lt\n      tag_178\n      jumpi\n      0x00\n      dup1\n      revert\n    tag_178:\n      swap1\n      0x00\n      mstore\n      keccak256(0x00, 0x20)\n      swap1\n      0x08\n      mul\n      add\n      0x00\n      swap2\n      pop\n      swap1\n      pop\n      dup1\n      0x00\n      add\n      sload\n      swap1\n      dup1\n      0x01\n      add\n      sload\n      swap1\n      dup1\n      0x02\n      add\n      sload\n      swap1\n      dup1\n      0x03\n      add\n      dup1\n      sload\n      tag_180\n      swap1\n      tag_101\n      jump\t// in\n    tag_180:\n      dup1\n      0x1f\n      add\n      0x20\n      dup1\n      swap2\n      div\n      mul\n      0x20\n      add\n      mload(0x40)\n      swap1\n      dup2\n      add\n      0x40\n      mstore\n      dup1\n      swap3\n      swap2\n      swap1\n      dup2\n      dup2\n      mstore\n      0x20\n      add\n      dup3\n      dup1\n      sload\n      tag_181\n      swap1\n      tag_101\n      jump\t// in\n    tag_181:\n      dup1\n      iszero\n      tag_182\n      jumpi\n      dup1\n      0x1f\n      lt\n      tag_183\n      jumpi\n      0x0100\n      dup1\n      dup4\n      sload\n      div\n      mul\n      dup4\n      mstore\n      swap2\n      0x20\n      add\n      swap2\n      jump(tag_182)\n    tag_183:\n      dup3\n      add\n      swap2\n      swap1\n      0x00\n      mstore\n      keccak256(0x00, 0x20)\n      swap1\n    tag_184:\n      dup2\n      sload\n      dup2\n      mstore\n      swap1\n      0x01\n      add\n      swap1\n      0x20\n      add\n      dup1\n      dup4\n      gt\n      tag_184\n      jumpi\n      dup3\n      swap1\n      sub\n      0x1f\n      and\n      dup3\n      add\n      swap2\n    tag_182:\n      pop\n      pop\n      pop\n      pop\n      pop\n      swap1\n      dup1\n      0x04\n      add\n      sload\n      swap1\n      dup1\n      0x05\n      add\n      sload\n      swap1\n      dup1\n      0x06\n      add\n      dup1\n      sload\n      tag_185\n      swap1\n      tag_101\n      jump\t// in\n    tag_185:\n      dup1\n      0x1f\n      add\n      0x20\n      dup1\n      swap2\n      div\n      mul\n      0x20\n      add\n      mload(0x40)\n      swap1\n      dup2\n      add\n      0x40\n      mstore\n      dup1\n      swap3\n      swap2\n      swap1\n      dup2\n      dup2\n      mstore\n      0x20\n      add\n      dup3\n      dup1\n      sload\n      tag_186\n      swap1\n      tag_101\n      jump\t// in\n    tag_186:\n      dup1\n      iszero\n      tag_187\n      jumpi\n      dup1\n      0x1f\n      lt\n      tag_188\n      jumpi\n      0x0100\n      dup1\n      dup4\n      sload\n      div\n      mul\n      dup4\n      mstore\n      swap2\n      0x20\n      add\n      swap2\n      jump(tag_187)\n    tag_188:\n      dup3\n      add\n      swap2\n      swap1\n      0x00\n      mstore\n      keccak256(0x00, 0x20)\n      swap1\n    tag_189:\n      dup2\n      sload\n      dup2\n      mstore\n      swap1\n      0x01\n      add\n      swap1\n      0x20\n      add\n      dup1\n      dup4\n      gt\n      tag_189\n      jumpi\n      dup3\n      swap1\n      sub\n      0x1f\n      and\n      dup3\n      add\n      swap2\n    tag_187:\n      pop\n      pop\n      pop\n      pop\n      pop\n      swap1\n      dup1\n      0x07\n      add\n      dup1\n      sload\n      tag_190\n      swap1\n      tag_101\n      jump\t// in\n    tag_190:\n      dup1\n      0x1f\n      add\n      0x20\n      dup1\n      swap2\n      div\n      mul\n      0x20\n      add\n      mload(0x40)\n      swap1\n      dup2\n      add\n      0x40\n      mstore\n      dup1\n      swap3\n      swap2\n      swap1\n      dup2\n      dup2\n      mstore\n      0x20\n      add\n      dup3\n      dup1\n      sload\n      tag_191\n      swap1\n      tag_101\n      jump\t// in\n    tag_191:\n      dup1\n      iszero\n      tag_192\n      jumpi\n      dup1\n      0x1f\n      lt\n      tag_193\n      jumpi\n      0x0100\n      dup1\n      dup4\n      sload\n      div\n      mul\n      dup4\n      mstore\n      swap2\n      0x20\n      add\n      swap2\n      jump(tag_192)\n    tag_193:\n      dup3\n      add\n      swap2\n      swap1\n      0x00\n      mstore\n      keccak256(0x00, 0x20)\n      swap1\n    tag_194:\n      dup2\n      sload\n      dup2\n      mstore\n      swap1\n      0x01\n      add\n      swap1\n      0x20\n      add\n      dup1\n      dup4\n      gt\n      tag_194\n      jumpi\n      dup3\n      swap1\n      sub\n      0x1f\n      and\n      dup3\n      add\n      swap2\n    tag_192:\n      pop\n      pop\n      pop\n      pop\n      pop\n      swap1\n      pop\n      dup9\n      jump\t// out\n        /* \"contracts/transactionData.sol\":2074:2708  function updateTransaction(uint256 transactionID, uint256 userID, uint256 productID, ... */\n    tag_43:\n        /* \"contracts/transactionData.sol\":587:592  owner */\n      0x00\n      dup1\n      sload\n      swap1\n      0x0100\n      exp\n      swap1\n      div\n      0xffffffffffffffffffffffffffffffffffffffff\n      and\n        /* \"contracts/transactionData.sol\":573:592  msg.sender == owner */\n      0xffffffffffffffffffffffffffffffffffffffff\n      and\n        /* \"contracts/transactionData.sol\":573:583  msg.sender */\n      caller\n        /* \"contracts/transactionData.sol\":573:592  msg.sender == owner */\n      0xffffffffffffffffffffffffffffffffffffffff\n      and\n      eq\n        /* \"contracts/transactionData.sol\":565:593  require(msg.sender == owner) */\n      tag_196\n      jumpi\n      0x00\n      dup1\n      revert\n    tag_196:\n        /* \"contracts/transactionData.sol\":2383:2384  0 */\n      0x00\n        /* \"contracts/transactionData.sol\":2338:2350  transactions */\n      0x01\n        /* \"contracts/transactionData.sol\":2338:2365  transactions[transactionID] */\n      0x00\n        /* \"contracts/transactionData.sol\":2351:2364  transactionID */\n      dup11\n        /* \"contracts/transactionData.sol\":2338:2365  transactions[transactionID] */\n      dup2\n      mstore\n      0x20\n      add\n      swap1\n      dup2\n      mstore\n      0x20\n      add\n      0x00\n      keccak256\n        /* \"contracts/transactionData.sol\":2338:2379  transactions[transactionID].transactionID */\n      0x00\n      add\n      sload\n        /* \"contracts/transactionData.sol\":2338:2384  transactions[transactionID].transactionID != 0 */\n      sub\n        /* \"contracts/transactionData.sol\":2330:2417  require(transactions[transactionID].transactionID != 0, \"Transaction is not available\") */\n      tag_198\n      jumpi\n      mload(0x40)\n      0x08c379a000000000000000000000000000000000000000000000000000000000\n      dup2\n      mstore\n      0x04\n      add\n      tag_199\n      swap1\n      tag_49\n      jump\t// in\n    tag_199:\n      mload(0x40)\n      dup1\n      swap2\n      sub\n      swap1\n      revert\n    tag_198:\n        /* \"contracts/transactionData.sol\":2430:2462  deleteTransaction(transactionID) */\n      tag_200\n        /* \"contracts/transactionData.sol\":2448:2461  transactionID */\n      dup9\n        /* \"contracts/transactionData.sol\":2430:2447  deleteTransaction */\n      tag_15\n        /* \"contracts/transactionData.sol\":2430:2462  deleteTransaction(transactionID) */\n      jump\t// in\n    tag_200:\n        /* \"contracts/transactionData.sol\":2475:2505  Transaction memory transaction */\n      0x00\n        /* \"contracts/transactionData.sol\":2508:2603  Transaction(transactionID, userID, productID, productName, amount, unitPrice, dateTime, status) */\n      mload(0x40)\n      dup1\n      0x0100\n      add\n      0x40\n      mstore\n      dup1\n        /* \"contracts/transactionData.sol\":2520:2533  transactionID */\n      dup11\n        /* \"contracts/transactionData.sol\":2508:2603  Transaction(transactionID, userID, productID, productName, amount, unitPrice, dateTime, status) */\n      dup2\n      mstore\n      0x20\n      add\n        /* \"contracts/transactionData.sol\":2535:2541  userID */\n      dup10\n        /* \"contracts/transactionData.sol\":2508:2603  Transaction(transactionID, userID, productID, productName, amount, unitPrice, dateTime, status) */\n      dup2\n      mstore\n      0x20\n      add\n        /* \"contracts/transactionData.sol\":2543:2552  productID */\n      dup9\n        /* \"contracts/transactionData.sol\":2508:2603  Transaction(transactionID, userID, productID, productName, amount, unitPrice, dateTime, status) */\n      dup2\n      mstore\n      0x20\n      add\n        /* \"contracts/transactionData.sol\":2554:2565  productName */\n      dup8\n        /* \"contracts/transactionData.sol\":2508:2603  Transaction(transactionID, userID, productID, productName, amount, unitPrice, dateTime, status) */\n      dup2\n      mstore\n      0x20\n      add\n        /* \"contracts/transactionData.sol\":2567:2573  amount */\n      dup7\n        /* \"contracts/transactionData.sol\":2508:2603  Transaction(transactionID, userID, productID, productName, amount, unitPrice, dateTime, status) */\n      dup2\n      mstore\n      0x20\n      add\n        /* \"contracts/transactionData.sol\":2575:2584  unitPrice */\n      dup6\n        /* \"contracts/transactionData.sol\":2508:2603  Transaction(transactionID, userID, productID, productName, amount, unitPrice, dateTime, status) */\n      dup2\n      mstore\n      0x20\n      add\n        /* \"contracts/transactionData.sol\":2586:2594  dateTime */\n      dup5\n        /* \"contracts/transactionData.sol\":2508:2603  Transaction(transactionID, userID, productID, productName, amount, unitPrice, dateTime, status) */\n      dup2\n      mstore\n      0x20\n      add\n        /* \"contracts/transactionData.sol\":2596:2602  status */\n      dup4\n        /* \"contracts/transactionData.sol\":2508:2603  Transaction(transactionID, userID, productID, productName, amount, unitPrice, dateTime, status) */\n      dup2\n      mstore\n      pop\n        /* \"contracts/transactionData.sol\":2475:2603  Transaction memory transaction = Transaction(transactionID, userID, productID, productName, amount, unitPrice, dateTime, status) */\n      swap1\n      pop\n        /* \"contracts/transactionData.sol\":2644:2655  transaction */\n      dup1\n        /* \"contracts/transactionData.sol\":2614:2626  transactions */\n      0x01\n        /* \"contracts/transactionData.sol\":2614:2641  transactions[transactionID] */\n      0x00\n        /* \"contracts/transactionData.sol\":2627:2640  transactionID */\n      dup12\n        /* \"contracts/transactionData.sol\":2614:2641  transactions[transactionID] */\n      dup2\n      mstore\n      0x20\n      add\n      swap1\n      dup2\n      mstore\n      0x20\n      add\n      0x00\n      keccak256\n        /* \"contracts/transactionData.sol\":2614:2655  transactions[transactionID] = transaction */\n      0x00\n      dup3\n      add\n      mload\n      dup2\n      0x00\n      add\n      sstore\n      0x20\n      dup3\n      add\n      mload\n      dup2\n      0x01\n      add\n      sstore\n      0x40\n      dup3\n      add\n      mload\n      dup2\n      0x02\n      add\n      sstore\n      0x60\n      dup3\n      add\n      mload\n      dup2\n      0x03\n      add\n      swap1\n      dup2\n      tag_201\n      swap2\n      swap1\n      tag_139\n      jump\t// in\n    tag_201:\n      pop\n      0x80\n      dup3\n      add\n      mload\n      dup2\n      0x04\n      add\n      sstore\n      0xa0\n      dup3\n      add\n      mload\n      dup2\n      0x05\n      add\n      sstore\n      0xc0\n      dup3\n      add\n      mload\n      dup2\n      0x06\n      add\n      swap1\n      dup2\n      tag_202\n      swap2\n      swap1\n      tag_139\n      jump\t// in\n    tag_202:\n      pop\n      0xe0\n      dup3\n      add\n      mload\n      dup2\n      0x07\n      add\n      swap1\n      dup2\n      tag_203\n      swap2\n      swap1\n      tag_139\n      jump\t// in\n    tag_203:\n      pop\n      swap1\n      pop\n      pop\n        /* \"contracts/transactionData.sol\":2666:2682  transactionArray */\n      0x02\n        /* \"contracts/transactionData.sol\":2688:2699  transaction */\n      dup2\n        /* \"contracts/transactionData.sol\":2666:2700  transactionArray.push(transaction) */\n      swap1\n      dup1\n      0x01\n      dup2\n      sload\n      add\n      dup1\n      dup3\n      sstore\n      dup1\n      swap2\n      pop\n      pop\n      0x01\n      swap1\n      sub\n      swap1\n      0x00\n      mstore\n      keccak256(0x00, 0x20)\n      swap1\n      0x08\n      mul\n      add\n      0x00\n      swap1\n      swap2\n      swap1\n      swap2\n      swap1\n      swap2\n      pop\n      0x00\n      dup3\n      add\n      mload\n      dup2\n      0x00\n      add\n      sstore\n      0x20\n      dup3\n      add\n      mload\n      dup2\n      0x01\n      add\n      sstore\n      0x40\n      dup3\n      add\n      mload\n      dup2\n      0x02\n      add\n      sstore\n      0x60\n      dup3\n      add\n      mload\n      dup2\n      0x03\n      add\n      swap1\n      dup2\n      tag_205\n      swap2\n      swap1\n      tag_139\n      jump\t// in\n    tag_205:\n      pop\n      0x80\n      dup3\n      add\n      mload\n      dup2\n      0x04\n      add\n      sstore\n      0xa0\n      dup3\n      add\n      mload\n      dup2\n      0x05\n      add\n      sstore\n      0xc0\n      dup3\n      add\n      mload\n      dup2\n      0x06\n      add\n      swap1\n      dup2\n      tag_206\n      swap2\n      swap1\n      tag_139\n      jump\t// in\n    tag_206:\n      pop\n      0xe0\n      dup3\n      add\n      mload\n      dup2\n      0x07\n      add\n      swap1\n      dup2\n      tag_207\n      swap2\n      swap1\n      tag_139\n      jump\t// in\n    tag_207:\n      pop\n      pop\n      pop\n        /* \"contracts/transactionData.sol\":2319:2708  {... */\n      pop\n        /* \"contracts/transactionData.sol\":2074:2708  function updateTransaction(uint256 transactionID, uint256 userID, uint256 productID, ... */\n      pop\n      pop\n      pop\n      pop\n      pop\n      pop\n      pop\n      pop\n      jump\t// out\n    tag_51:\n      pop\n      dup1\n      sload\n      tag_208\n      swap1\n      tag_101\n      jump\t// in\n    tag_208:\n      0x00\n      dup3\n      sstore\n      dup1\n      0x1f\n      lt\n      tag_210\n      jumpi\n      pop\n      jump(tag_209)\n    tag_210:\n      0x1f\n      add\n      0x20\n      swap1\n      div\n      swap1\n      0x00\n      mstore\n      keccak256(0x00, 0x20)\n      swap1\n      dup2\n      add\n      swap1\n      tag_211\n      swap2\n      swap1\n      tag_212\n      jump\t// in\n    tag_211:\n    tag_209:\n      pop\n      jump\t// out\n    tag_212:\n    tag_213:\n      dup1\n      dup3\n      gt\n      iszero\n      tag_214\n      jumpi\n      0x00\n      dup2\n      0x00\n      swap1\n      sstore\n      pop\n      0x01\n      add\n      jump(tag_213)\n    tag_214:\n      pop\n      swap1\n      jump\t// out\n        /* \"#utility.yul\":7:82   */\n    tag_215:\n        /* \"#utility.yul\":40:46   */\n      0x00\n        /* \"#utility.yul\":73:75   */\n      0x40\n        /* \"#utility.yul\":67:76   */\n      mload\n        /* \"#utility.yul\":57:76   */\n      swap1\n      pop\n        /* \"#utility.yul\":7:82   */\n      swap1\n      jump\t// out\n        /* \"#utility.yul\":88:205   */\n    tag_216:\n        /* \"#utility.yul\":197:198   */\n      0x00\n        /* \"#utility.yul\":194:195   */\n      dup1\n        /* \"#utility.yul\":187:199   */\n      revert\n        /* \"#utility.yul\":211:328   */\n    tag_217:\n        /* \"#utility.yul\":320:321   */\n      0x00\n        /* \"#utility.yul\":317:318   */\n      dup1\n        /* \"#utility.yul\":310:322   */\n      revert\n        /* \"#utility.yul\":334:411   */\n    tag_218:\n        /* \"#utility.yul\":371:378   */\n      0x00\n        /* \"#utility.yul\":400:405   */\n      dup2\n        /* \"#utility.yul\":389:405   */\n      swap1\n      pop\n        /* \"#utility.yul\":334:411   */\n      swap2\n      swap1\n      pop\n      jump\t// out\n        /* \"#utility.yul\":417:539   */\n    tag_219:\n        /* \"#utility.yul\":490:514   */\n      tag_272\n        /* \"#utility.yul\":508:513   */\n      dup2\n        /* \"#utility.yul\":490:514   */\n      tag_218\n      jump\t// in\n    tag_272:\n        /* \"#utility.yul\":483:488   */\n      dup2\n        /* \"#utility.yul\":480:515   */\n      eq\n        /* \"#utility.yul\":470:533   */\n      tag_273\n      jumpi\n        /* \"#utility.yul\":529:530   */\n      0x00\n        /* \"#utility.yul\":526:527   */\n      dup1\n        /* \"#utility.yul\":519:531   */\n      revert\n        /* \"#utility.yul\":470:533   */\n    tag_273:\n        /* \"#utility.yul\":417:539   */\n      pop\n      jump\t// out\n        /* \"#utility.yul\":545:684   */\n    tag_220:\n        /* \"#utility.yul\":591:596   */\n      0x00\n        /* \"#utility.yul\":629:635   */\n      dup2\n        /* \"#utility.yul\":616:636   */\n      calldataload\n        /* \"#utility.yul\":607:636   */\n      swap1\n      pop\n        /* \"#utility.yul\":645:678   */\n      tag_275\n        /* \"#utility.yul\":672:677   */\n      dup2\n        /* \"#utility.yul\":645:678   */\n      tag_219\n      jump\t// in\n    tag_275:\n        /* \"#utility.yul\":545:684   */\n      swap3\n      swap2\n      pop\n      pop\n      jump\t// out\n        /* \"#utility.yul\":690:1019   */\n    tag_14:\n        /* \"#utility.yul\":749:755   */\n      0x00\n        /* \"#utility.yul\":798:800   */\n      0x20\n        /* \"#utility.yul\":786:795   */\n      dup3\n        /* \"#utility.yul\":777:784   */\n      dup5\n        /* \"#utility.yul\":773:796   */\n      sub\n        /* \"#utility.yul\":769:801   */\n      slt\n        /* \"#utility.yul\":766:885   */\n      iszero\n      tag_277\n      jumpi\n        /* \"#utility.yul\":804:883   */\n      tag_278\n      tag_216\n      jump\t// in\n    tag_278:\n        /* \"#utility.yul\":766:885   */\n    tag_277:\n        /* \"#utility.yul\":924:925   */\n      0x00\n        /* \"#utility.yul\":949:1002   */\n      tag_279\n        /* \"#utility.yul\":994:1001   */\n      dup5\n        /* \"#utility.yul\":985:991   */\n      dup3\n        /* \"#utility.yul\":974:983   */\n      dup6\n        /* \"#utility.yul\":970:992   */\n      add\n        /* \"#utility.yul\":949:1002   */\n      tag_220\n      jump\t// in\n    tag_279:\n        /* \"#utility.yul\":939:1002   */\n      swap2\n      pop\n        /* \"#utility.yul\":895:1012   */\n      pop\n        /* \"#utility.yul\":690:1019   */\n      swap3\n      swap2\n      pop\n      pop\n      jump\t// out\n        /* \"#utility.yul\":1025:1166   */\n    tag_221:\n        /* \"#utility.yul\":1119:1125   */\n      0x00\n        /* \"#utility.yul\":1153:1158   */\n      dup2\n        /* \"#utility.yul\":1147:1159   */\n      mload\n        /* \"#utility.yul\":1137:1159   */\n      swap1\n      pop\n        /* \"#utility.yul\":1025:1166   */\n      swap2\n      swap1\n      pop\n      jump\t// out\n        /* \"#utility.yul\":1172:1383   */\n    tag_222:\n        /* \"#utility.yul\":1298:1309   */\n      0x00\n        /* \"#utility.yul\":1332:1338   */\n      dup3\n        /* \"#utility.yul\":1327:1330   */\n      dup3\n        /* \"#utility.yul\":1320:1339   */\n      mstore\n        /* \"#utility.yul\":1372:1376   */\n      0x20\n        /* \"#utility.yul\":1367:1370   */\n      dup3\n        /* \"#utility.yul\":1363:1377   */\n      add\n        /* \"#utility.yul\":1348:1377   */\n      swap1\n      pop\n        /* \"#utility.yul\":1172:1383   */\n      swap3\n      swap2\n      pop\n      pop\n      jump\t// out\n        /* \"#utility.yul\":1389:1548   */\n    tag_223:\n        /* \"#utility.yul\":1483:1487   */\n      0x00\n        /* \"#utility.yul\":1506:1509   */\n      dup2\n        /* \"#utility.yul\":1498:1509   */\n      swap1\n      pop\n        /* \"#utility.yul\":1536:1540   */\n      0x20\n        /* \"#utility.yul\":1531:1534   */\n      dup3\n        /* \"#utility.yul\":1527:1541   */\n      add\n        /* \"#utility.yul\":1519:1541   */\n      swap1\n      pop\n        /* \"#utility.yul\":1389:1548   */\n      swap2\n      swap1\n      pop\n      jump\t// out\n        /* \"#utility.yul\":1554:1662   */\n    tag_224:\n        /* \"#utility.yul\":1631:1655   */\n      tag_284\n        /* \"#utility.yul\":1649:1654   */\n      dup2\n        /* \"#utility.yul\":1631:1655   */\n      tag_218\n      jump\t// in\n    tag_284:\n        /* \"#utility.yul\":1626:1629   */\n      dup3\n        /* \"#utility.yul\":1619:1656   */\n      mstore\n        /* \"#utility.yul\":1554:1662   */\n      pop\n      pop\n      jump\t// out\n        /* \"#utility.yul\":1668:1767   */\n    tag_225:\n        /* \"#utility.yul\":1720:1726   */\n      0x00\n        /* \"#utility.yul\":1754:1759   */\n      dup2\n        /* \"#utility.yul\":1748:1760   */\n      mload\n        /* \"#utility.yul\":1738:1760   */\n      swap1\n      pop\n        /* \"#utility.yul\":1668:1767   */\n      swap2\n      swap1\n      pop\n      jump\t// out\n        /* \"#utility.yul\":1773:1932   */\n    tag_226:\n        /* \"#utility.yul\":1847:1858   */\n      0x00\n        /* \"#utility.yul\":1881:1887   */\n      dup3\n        /* \"#utility.yul\":1876:1879   */\n      dup3\n        /* \"#utility.yul\":1869:1888   */\n      mstore\n        /* \"#utility.yul\":1921:1925   */\n      0x20\n        /* \"#utility.yul\":1916:1919   */\n      dup3\n        /* \"#utility.yul\":1912:1926   */\n      add\n        /* \"#utility.yul\":1897:1926   */\n      swap1\n      pop\n        /* \"#utility.yul\":1773:1932   */\n      swap3\n      swap2\n      pop\n      pop\n      jump\t// out\n        /* \"#utility.yul\":1938:2184   */\n    tag_227:\n        /* \"#utility.yul\":2019:2020   */\n      0x00\n        /* \"#utility.yul\":2029:2142   */\n    tag_288:\n        /* \"#utility.yul\":2043:2049   */\n      dup4\n        /* \"#utility.yul\":2040:2041   */\n      dup2\n        /* \"#utility.yul\":2037:2050   */\n      lt\n        /* \"#utility.yul\":2029:2142   */\n      iszero\n      tag_290\n      jumpi\n        /* \"#utility.yul\":2128:2129   */\n      dup1\n        /* \"#utility.yul\":2123:2126   */\n      dup3\n        /* \"#utility.yul\":2119:2130   */\n      add\n        /* \"#utility.yul\":2113:2131   */\n      mload\n        /* \"#utility.yul\":2109:2110   */\n      dup2\n        /* \"#utility.yul\":2104:2107   */\n      dup5\n        /* \"#utility.yul\":2100:2111   */\n      add\n        /* \"#utility.yul\":2093:2132   */\n      mstore\n        /* \"#utility.yul\":2065:2067   */\n      0x20\n        /* \"#utility.yul\":2062:2063   */\n      dup2\n        /* \"#utility.yul\":2058:2068   */\n      add\n        /* \"#utility.yul\":2053:2068   */\n      swap1\n      pop\n        /* \"#utility.yul\":2029:2142   */\n      jump(tag_288)\n    tag_290:\n        /* \"#utility.yul\":2176:2177   */\n      0x00\n        /* \"#utility.yul\":2167:2173   */\n      dup5\n        /* \"#utility.yul\":2162:2165   */\n      dup5\n        /* \"#utility.yul\":2158:2174   */\n      add\n        /* \"#utility.yul\":2151:2178   */\n      mstore\n        /* \"#utility.yul\":2000:2184   */\n      pop\n        /* \"#utility.yul\":1938:2184   */\n      pop\n      pop\n      pop\n      jump\t// out\n        /* \"#utility.yul\":2190:2292   */\n    tag_228:\n        /* \"#utility.yul\":2231:2237   */\n      0x00\n        /* \"#utility.yul\":2282:2284   */\n      0x1f\n        /* \"#utility.yul\":2278:2285   */\n      not\n        /* \"#utility.yul\":2273:2275   */\n      0x1f\n        /* \"#utility.yul\":2266:2271   */\n      dup4\n        /* \"#utility.yul\":2262:2276   */\n      add\n        /* \"#utility.yul\":2258:2286   */\n      and\n        /* \"#utility.yul\":2248:2286   */\n      swap1\n      pop\n        /* \"#utility.yul\":2190:2292   */\n      swap2\n      swap1\n      pop\n      jump\t// out\n        /* \"#utility.yul\":2298:2655   */\n    tag_229:\n        /* \"#utility.yul\":2376:2379   */\n      0x00\n        /* \"#utility.yul\":2404:2443   */\n      tag_293\n        /* \"#utility.yul\":2437:2442   */\n      dup3\n        /* \"#utility.yul\":2404:2443   */\n      tag_225\n      jump\t// in\n    tag_293:\n        /* \"#utility.yul\":2459:2520   */\n      tag_294\n        /* \"#utility.yul\":2513:2519   */\n      dup2\n        /* \"#utility.yul\":2508:2511   */\n      dup6\n        /* \"#utility.yul\":2459:2520   */\n      tag_226\n      jump\t// in\n    tag_294:\n        /* \"#utility.yul\":2452:2520   */\n      swap4\n      pop\n        /* \"#utility.yul\":2529:2594   */\n      tag_295\n        /* \"#utility.yul\":2587:2593   */\n      dup2\n        /* \"#utility.yul\":2582:2585   */\n      dup6\n        /* \"#utility.yul\":2575:2579   */\n      0x20\n        /* \"#utility.yul\":2568:2573   */\n      dup7\n        /* \"#utility.yul\":2564:2580   */\n      add\n        /* \"#utility.yul\":2529:2594   */\n      tag_227\n      jump\t// in\n    tag_295:\n        /* \"#utility.yul\":2619:2648   */\n      tag_296\n        /* \"#utility.yul\":2641:2647   */\n      dup2\n        /* \"#utility.yul\":2619:2648   */\n      tag_228\n      jump\t// in\n    tag_296:\n        /* \"#utility.yul\":2614:2617   */\n      dup5\n        /* \"#utility.yul\":2610:2649   */\n      add\n        /* \"#utility.yul\":2603:2649   */\n      swap2\n      pop\n        /* \"#utility.yul\":2380:2655   */\n      pop\n        /* \"#utility.yul\":2298:2655   */\n      swap3\n      swap2\n      pop\n      pop\n      jump\t// out\n        /* \"#utility.yul\":2741:4565   */\n    tag_230:\n        /* \"#utility.yul\":2854:2857   */\n      0x00\n        /* \"#utility.yul\":2890:2896   */\n      0x0100\n        /* \"#utility.yul\":2885:2888   */\n      dup4\n        /* \"#utility.yul\":2881:2897   */\n      add\n        /* \"#utility.yul\":2988:2992   */\n      0x00\n        /* \"#utility.yul\":2981:2986   */\n      dup4\n        /* \"#utility.yul\":2977:2993   */\n      add\n        /* \"#utility.yul\":2971:2994   */\n      mload\n        /* \"#utility.yul\":3007:3070   */\n      tag_298\n        /* \"#utility.yul\":3064:3068   */\n      0x00\n        /* \"#utility.yul\":3059:3062   */\n      dup7\n        /* \"#utility.yul\":3055:3069   */\n      add\n        /* \"#utility.yul\":3041:3053   */\n      dup3\n        /* \"#utility.yul\":3007:3070   */\n      tag_224\n      jump\t// in\n    tag_298:\n        /* \"#utility.yul\":2907:3080   */\n      pop\n        /* \"#utility.yul\":3164:3168   */\n      0x20\n        /* \"#utility.yul\":3157:3162   */\n      dup4\n        /* \"#utility.yul\":3153:3169   */\n      add\n        /* \"#utility.yul\":3147:3170   */\n      mload\n        /* \"#utility.yul\":3183:3246   */\n      tag_299\n        /* \"#utility.yul\":3240:3244   */\n      0x20\n        /* \"#utility.yul\":3235:3238   */\n      dup7\n        /* \"#utility.yul\":3231:3245   */\n      add\n        /* \"#utility.yul\":3217:3229   */\n      dup3\n        /* \"#utility.yul\":3183:3246   */\n      tag_224\n      jump\t// in\n    tag_299:\n        /* \"#utility.yul\":3090:3256   */\n      pop\n        /* \"#utility.yul\":3343:3347   */\n      0x40\n        /* \"#utility.yul\":3336:3341   */\n      dup4\n        /* \"#utility.yul\":3332:3348   */\n      add\n        /* \"#utility.yul\":3326:3349   */\n      mload\n        /* \"#utility.yul\":3362:3425   */\n      tag_300\n        /* \"#utility.yul\":3419:3423   */\n      0x40\n        /* \"#utility.yul\":3414:3417   */\n      dup7\n        /* \"#utility.yul\":3410:3424   */\n      add\n        /* \"#utility.yul\":3396:3408   */\n      dup3\n        /* \"#utility.yul\":3362:3425   */\n      tag_224\n      jump\t// in\n    tag_300:\n        /* \"#utility.yul\":3266:3435   */\n      pop\n        /* \"#utility.yul\":3524:3528   */\n      0x60\n        /* \"#utility.yul\":3517:3522   */\n      dup4\n        /* \"#utility.yul\":3513:3529   */\n      add\n        /* \"#utility.yul\":3507:3530   */\n      mload\n        /* \"#utility.yul\":3577:3580   */\n      dup5\n        /* \"#utility.yul\":3571:3575   */\n      dup3\n        /* \"#utility.yul\":3567:3581   */\n      sub\n        /* \"#utility.yul\":3560:3564   */\n      0x60\n        /* \"#utility.yul\":3555:3558   */\n      dup7\n        /* \"#utility.yul\":3551:3565   */\n      add\n        /* \"#utility.yul\":3544:3582   */\n      mstore\n        /* \"#utility.yul\":3603:3676   */\n      tag_301\n        /* \"#utility.yul\":3671:3675   */\n      dup3\n        /* \"#utility.yul\":3657:3669   */\n      dup3\n        /* \"#utility.yul\":3603:3676   */\n      tag_229\n      jump\t// in\n    tag_301:\n        /* \"#utility.yul\":3595:3676   */\n      swap2\n      pop\n        /* \"#utility.yul\":3445:3687   */\n      pop\n        /* \"#utility.yul\":3771:3775   */\n      0x80\n        /* \"#utility.yul\":3764:3769   */\n      dup4\n        /* \"#utility.yul\":3760:3776   */\n      add\n        /* \"#utility.yul\":3754:3777   */\n      mload\n        /* \"#utility.yul\":3790:3853   */\n      tag_302\n        /* \"#utility.yul\":3847:3851   */\n      0x80\n        /* \"#utility.yul\":3842:3845   */\n      dup7\n        /* \"#utility.yul\":3838:3852   */\n      add\n        /* \"#utility.yul\":3824:3836   */\n      dup3\n        /* \"#utility.yul\":3790:3853   */\n      tag_224\n      jump\t// in\n    tag_302:\n        /* \"#utility.yul\":3697:3863   */\n      pop\n        /* \"#utility.yul\":3950:3954   */\n      0xa0\n        /* \"#utility.yul\":3943:3948   */\n      dup4\n        /* \"#utility.yul\":3939:3955   */\n      add\n        /* \"#utility.yul\":3933:3956   */\n      mload\n        /* \"#utility.yul\":3969:4032   */\n      tag_303\n        /* \"#utility.yul\":4026:4030   */\n      0xa0\n        /* \"#utility.yul\":4021:4024   */\n      dup7\n        /* \"#utility.yul\":4017:4031   */\n      add\n        /* \"#utility.yul\":4003:4015   */\n      dup3\n        /* \"#utility.yul\":3969:4032   */\n      tag_224\n      jump\t// in\n    tag_303:\n        /* \"#utility.yul\":3873:4042   */\n      pop\n        /* \"#utility.yul\":4128:4132   */\n      0xc0\n        /* \"#utility.yul\":4121:4126   */\n      dup4\n        /* \"#utility.yul\":4117:4133   */\n      add\n        /* \"#utility.yul\":4111:4134   */\n      mload\n        /* \"#utility.yul\":4181:4184   */\n      dup5\n        /* \"#utility.yul\":4175:4179   */\n      dup3\n        /* \"#utility.yul\":4171:4185   */\n      sub\n        /* \"#utility.yul\":4164:4168   */\n      0xc0\n        /* \"#utility.yul\":4159:4162   */\n      dup7\n        /* \"#utility.yul\":4155:4169   */\n      add\n        /* \"#utility.yul\":4148:4186   */\n      mstore\n        /* \"#utility.yul\":4207:4280   */\n      tag_304\n        /* \"#utility.yul\":4275:4279   */\n      dup3\n        /* \"#utility.yul\":4261:4273   */\n      dup3\n        /* \"#utility.yul\":4207:4280   */\n      tag_229\n      jump\t// in\n    tag_304:\n        /* \"#utility.yul\":4199:4280   */\n      swap2\n      pop\n        /* \"#utility.yul\":4052:4291   */\n      pop\n        /* \"#utility.yul\":4375:4379   */\n      0xe0\n        /* \"#utility.yul\":4368:4373   */\n      dup4\n        /* \"#utility.yul\":4364:4380   */\n      add\n        /* \"#utility.yul\":4358:4381   */\n      mload\n        /* \"#utility.yul\":4428:4431   */\n      dup5\n        /* \"#utility.yul\":4422:4426   */\n      dup3\n        /* \"#utility.yul\":4418:4432   */\n      sub\n        /* \"#utility.yul\":4411:4415   */\n      0xe0\n        /* \"#utility.yul\":4406:4409   */\n      dup7\n        /* \"#utility.yul\":4402:4416   */\n      add\n        /* \"#utility.yul\":4395:4433   */\n      mstore\n        /* \"#utility.yul\":4454:4527   */\n      tag_305\n        /* \"#utility.yul\":4522:4526   */\n      dup3\n        /* \"#utility.yul\":4508:4520   */\n      dup3\n        /* \"#utility.yul\":4454:4527   */\n      tag_229\n      jump\t// in\n    tag_305:\n        /* \"#utility.yul\":4446:4527   */\n      swap2\n      pop\n        /* \"#utility.yul\":4301:4538   */\n      pop\n        /* \"#utility.yul\":4555:4559   */\n      dup1\n        /* \"#utility.yul\":4548:4559   */\n      swap2\n      pop\n        /* \"#utility.yul\":2859:4565   */\n      pop\n        /* \"#utility.yul\":2741:4565   */\n      swap3\n      swap2\n      pop\n      pop\n      jump\t// out\n        /* \"#utility.yul\":4571:4835   */\n    tag_231:\n        /* \"#utility.yul\":4694:4704   */\n      0x00\n        /* \"#utility.yul\":4729:4829   */\n      tag_307\n        /* \"#utility.yul\":4825:4828   */\n      dup4\n        /* \"#utility.yul\":4817:4823   */\n      dup4\n        /* \"#utility.yul\":4729:4829   */\n      tag_230\n      jump\t// in\n    tag_307:\n        /* \"#utility.yul\":4715:4829   */\n      swap1\n      pop\n        /* \"#utility.yul\":4571:4835   */\n      swap3\n      swap2\n      pop\n      pop\n      jump\t// out\n        /* \"#utility.yul\":4841:4981   */\n    tag_232:\n        /* \"#utility.yul\":4938:4942   */\n      0x00\n        /* \"#utility.yul\":4970:4974   */\n      0x20\n        /* \"#utility.yul\":4965:4968   */\n      dup3\n        /* \"#utility.yul\":4961:4975   */\n      add\n        /* \"#utility.yul\":4953:4975   */\n      swap1\n      pop\n        /* \"#utility.yul\":4841:4981   */\n      swap2\n      swap1\n      pop\n      jump\t// out\n        /* \"#utility.yul\":5071:6198   */\n    tag_233:\n        /* \"#utility.yul\":5244:5247   */\n      0x00\n        /* \"#utility.yul\":5273:5354   */\n      tag_310\n        /* \"#utility.yul\":5348:5353   */\n      dup3\n        /* \"#utility.yul\":5273:5354   */\n      tag_221\n      jump\t// in\n    tag_310:\n        /* \"#utility.yul\":5370:5483   */\n      tag_311\n        /* \"#utility.yul\":5476:5482   */\n      dup2\n        /* \"#utility.yul\":5471:5474   */\n      dup6\n        /* \"#utility.yul\":5370:5483   */\n      tag_222\n      jump\t// in\n    tag_311:\n        /* \"#utility.yul\":5363:5483   */\n      swap4\n      pop\n        /* \"#utility.yul\":5509:5512   */\n      dup4\n        /* \"#utility.yul\":5554:5558   */\n      0x20\n        /* \"#utility.yul\":5546:5552   */\n      dup3\n        /* \"#utility.yul\":5542:5559   */\n      mul\n        /* \"#utility.yul\":5537:5540   */\n      dup6\n        /* \"#utility.yul\":5533:5560   */\n      add\n        /* \"#utility.yul\":5584:5667   */\n      tag_312\n        /* \"#utility.yul\":5661:5666   */\n      dup6\n        /* \"#utility.yul\":5584:5667   */\n      tag_223\n      jump\t// in\n    tag_312:\n        /* \"#utility.yul\":5690:5697   */\n      dup1\n        /* \"#utility.yul\":5721:5722   */\n      0x00\n        /* \"#utility.yul\":5706:6153   */\n    tag_313:\n        /* \"#utility.yul\":5731:5737   */\n      dup6\n        /* \"#utility.yul\":5728:5729   */\n      dup2\n        /* \"#utility.yul\":5725:5738   */\n      lt\n        /* \"#utility.yul\":5706:6153   */\n      iszero\n      tag_315\n      jumpi\n        /* \"#utility.yul\":5802:5811   */\n      dup5\n        /* \"#utility.yul\":5796:5800   */\n      dup5\n        /* \"#utility.yul\":5792:5812   */\n      sub\n        /* \"#utility.yul\":5787:5790   */\n      dup10\n        /* \"#utility.yul\":5780:5813   */\n      mstore\n        /* \"#utility.yul\":5853:5859   */\n      dup2\n        /* \"#utility.yul\":5847:5860   */\n      mload\n        /* \"#utility.yul\":5881:5999   */\n      tag_316\n        /* \"#utility.yul\":5994:5998   */\n      dup6\n        /* \"#utility.yul\":5979:5992   */\n      dup3\n        /* \"#utility.yul\":5881:5999   */\n      tag_231\n      jump\t// in\n    tag_316:\n        /* \"#utility.yul\":5873:5999   */\n      swap5\n      pop\n        /* \"#utility.yul\":6022:6109   */\n      tag_317\n        /* \"#utility.yul\":6102:6108   */\n      dup4\n        /* \"#utility.yul\":6022:6109   */\n      tag_232\n      jump\t// in\n    tag_317:\n        /* \"#utility.yul\":6012:6109   */\n      swap3\n      pop\n        /* \"#utility.yul\":6138:6142   */\n      0x20\n        /* \"#utility.yul\":6133:6136   */\n      dup11\n        /* \"#utility.yul\":6129:6143   */\n      add\n        /* \"#utility.yul\":6122:6143   */\n      swap10\n      pop\n        /* \"#utility.yul\":5766:6153   */\n      pop\n        /* \"#utility.yul\":5753:5754   */\n      0x01\n        /* \"#utility.yul\":5750:5751   */\n      dup2\n        /* \"#utility.yul\":5746:5755   */\n      add\n        /* \"#utility.yul\":5741:5755   */\n      swap1\n      pop\n        /* \"#utility.yul\":5706:6153   */\n      jump(tag_313)\n    tag_315:\n        /* \"#utility.yul\":5710:5724   */\n      pop\n        /* \"#utility.yul\":6169:6173   */\n      dup3\n        /* \"#utility.yul\":6162:6173   */\n      swap8\n      pop\n        /* \"#utility.yul\":6189:6192   */\n      dup8\n        /* \"#utility.yul\":6182:6192   */\n      swap6\n      pop\n        /* \"#utility.yul\":5249:6198   */\n      pop\n      pop\n      pop\n      pop\n      pop\n        /* \"#utility.yul\":5071:6198   */\n      swap3\n      swap2\n      pop\n      pop\n      jump\t// out\n        /* \"#utility.yul\":6204:6685   */\n    tag_19:\n        /* \"#utility.yul\":6401:6405   */\n      0x00\n        /* \"#utility.yul\":6439:6441   */\n      0x20\n        /* \"#utility.yul\":6428:6437   */\n      dup3\n        /* \"#utility.yul\":6424:6442   */\n      add\n        /* \"#utility.yul\":6416:6442   */\n      swap1\n      pop\n        /* \"#utility.yul\":6488:6497   */\n      dup2\n        /* \"#utility.yul\":6482:6486   */\n      dup2\n        /* \"#utility.yul\":6478:6498   */\n      sub\n        /* \"#utility.yul\":6474:6475   */\n      0x00\n        /* \"#utility.yul\":6463:6472   */\n      dup4\n        /* \"#utility.yul\":6459:6476   */\n      add\n        /* \"#utility.yul\":6452:6499   */\n      mstore\n        /* \"#utility.yul\":6516:6678   */\n      tag_319\n        /* \"#utility.yul\":6673:6677   */\n      dup2\n        /* \"#utility.yul\":6664:6670   */\n      dup5\n        /* \"#utility.yul\":6516:6678   */\n      tag_233\n      jump\t// in\n    tag_319:\n        /* \"#utility.yul\":6508:6678   */\n      swap1\n      pop\n        /* \"#utility.yul\":6204:6685   */\n      swap3\n      swap2\n      pop\n      pop\n      jump\t// out\n        /* \"#utility.yul\":6691:6809   */\n    tag_234:\n        /* \"#utility.yul\":6778:6802   */\n      tag_321\n        /* \"#utility.yul\":6796:6801   */\n      dup2\n        /* \"#utility.yul\":6778:6802   */\n      tag_218\n      jump\t// in\n    tag_321:\n        /* \"#utility.yul\":6773:6776   */\n      dup3\n        /* \"#utility.yul\":6766:6803   */\n      mstore\n        /* \"#utility.yul\":6691:6809   */\n      pop\n      pop\n      jump\t// out\n        /* \"#utility.yul\":6815:6984   */\n    tag_235:\n        /* \"#utility.yul\":6899:6910   */\n      0x00\n        /* \"#utility.yul\":6933:6939   */\n      dup3\n        /* \"#utility.yul\":6928:6931   */\n      dup3\n        /* \"#utility.yul\":6921:6940   */\n      mstore\n        /* \"#utility.yul\":6973:6977   */\n      0x20\n        /* \"#utility.yul\":6968:6971   */\n      dup3\n        /* \"#utility.yul\":6964:6978   */\n      add\n        /* \"#utility.yul\":6949:6978   */\n      swap1\n      pop\n        /* \"#utility.yul\":6815:6984   */\n      swap3\n      swap2\n      pop\n      pop\n      jump\t// out\n        /* \"#utility.yul\":6990:7367   */\n    tag_236:\n        /* \"#utility.yul\":7078:7081   */\n      0x00\n        /* \"#utility.yul\":7106:7145   */\n      tag_324\n        /* \"#utility.yul\":7139:7144   */\n      dup3\n        /* \"#utility.yul\":7106:7145   */\n      tag_225\n      jump\t// in\n    tag_324:\n        /* \"#utility.yul\":7161:7232   */\n      tag_325\n        /* \"#utility.yul\":7225:7231   */\n      dup2\n        /* \"#utility.yul\":7220:7223   */\n      dup6\n        /* \"#utility.yul\":7161:7232   */\n      tag_235\n      jump\t// in\n    tag_325:\n        /* \"#utility.yul\":7154:7232   */\n      swap4\n      pop\n        /* \"#utility.yul\":7241:7306   */\n      tag_326\n        /* \"#utility.yul\":7299:7305   */\n      dup2\n        /* \"#utility.yul\":7294:7297   */\n      dup6\n        /* \"#utility.yul\":7287:7291   */\n      0x20\n        /* \"#utility.yul\":7280:7285   */\n      dup7\n        /* \"#utility.yul\":7276:7292   */\n      add\n        /* \"#utility.yul\":7241:7306   */\n      tag_227\n      jump\t// in\n    tag_326:\n        /* \"#utility.yul\":7331:7360   */\n      tag_327\n        /* \"#utility.yul\":7353:7359   */\n      dup2\n        /* \"#utility.yul\":7331:7360   */\n      tag_228\n      jump\t// in\n    tag_327:\n        /* \"#utility.yul\":7326:7329   */\n      dup5\n        /* \"#utility.yul\":7322:7361   */\n      add\n        /* \"#utility.yul\":7315:7361   */\n      swap2\n      pop\n        /* \"#utility.yul\":7082:7367   */\n      pop\n        /* \"#utility.yul\":6990:7367   */\n      swap3\n      swap2\n      pop\n      pop\n      jump\t// out\n        /* \"#utility.yul\":7373:8532   */\n    tag_24:\n        /* \"#utility.yul\":7694:7698   */\n      0x00\n        /* \"#utility.yul\":7732:7735   */\n      0xe0\n        /* \"#utility.yul\":7721:7730   */\n      dup3\n        /* \"#utility.yul\":7717:7736   */\n      add\n        /* \"#utility.yul\":7709:7736   */\n      swap1\n      pop\n        /* \"#utility.yul\":7746:7817   */\n      tag_329\n        /* \"#utility.yul\":7814:7815   */\n      0x00\n        /* \"#utility.yul\":7803:7812   */\n      dup4\n        /* \"#utility.yul\":7799:7816   */\n      add\n        /* \"#utility.yul\":7790:7796   */\n      dup11\n        /* \"#utility.yul\":7746:7817   */\n      tag_234\n      jump\t// in\n    tag_329:\n        /* \"#utility.yul\":7827:7899   */\n      tag_330\n        /* \"#utility.yul\":7895:7897   */\n      0x20\n        /* \"#utility.yul\":7884:7893   */\n      dup4\n        /* \"#utility.yul\":7880:7898   */\n      add\n        /* \"#utility.yul\":7871:7877   */\n      dup10\n        /* \"#utility.yul\":7827:7899   */\n      tag_234\n      jump\t// in\n    tag_330:\n        /* \"#utility.yul\":7946:7955   */\n      dup2\n        /* \"#utility.yul\":7940:7944   */\n      dup2\n        /* \"#utility.yul\":7936:7956   */\n      sub\n        /* \"#utility.yul\":7931:7933   */\n      0x40\n        /* \"#utility.yul\":7920:7929   */\n      dup4\n        /* \"#utility.yul\":7916:7934   */\n      add\n        /* \"#utility.yul\":7909:7957   */\n      mstore\n        /* \"#utility.yul\":7974:8052   */\n      tag_331\n        /* \"#utility.yul\":8047:8051   */\n      dup2\n        /* \"#utility.yul\":8038:8044   */\n      dup9\n        /* \"#utility.yul\":7974:8052   */\n      tag_236\n      jump\t// in\n    tag_331:\n        /* \"#utility.yul\":7966:8052   */\n      swap1\n      pop\n        /* \"#utility.yul\":8062:8134   */\n      tag_332\n        /* \"#utility.yul\":8130:8132   */\n      0x60\n        /* \"#utility.yul\":8119:8128   */\n      dup4\n        /* \"#utility.yul\":8115:8133   */\n      add\n        /* \"#utility.yul\":8106:8112   */\n      dup8\n        /* \"#utility.yul\":8062:8134   */\n      tag_234\n      jump\t// in\n    tag_332:\n        /* \"#utility.yul\":8144:8217   */\n      tag_333\n        /* \"#utility.yul\":8212:8215   */\n      0x80\n        /* \"#utility.yul\":8201:8210   */\n      dup4\n        /* \"#utility.yul\":8197:8216   */\n      add\n        /* \"#utility.yul\":8188:8194   */\n      dup7\n        /* \"#utility.yul\":8144:8217   */\n      tag_234\n      jump\t// in\n    tag_333:\n        /* \"#utility.yul\":8265:8274   */\n      dup2\n        /* \"#utility.yul\":8259:8263   */\n      dup2\n        /* \"#utility.yul\":8255:8275   */\n      sub\n        /* \"#utility.yul\":8249:8252   */\n      0xa0\n        /* \"#utility.yul\":8238:8247   */\n      dup4\n        /* \"#utility.yul\":8234:8253   */\n      add\n        /* \"#utility.yul\":8227:8276   */\n      mstore\n        /* \"#utility.yul\":8293:8371   */\n      tag_334\n        /* \"#utility.yul\":8366:8370   */\n      dup2\n        /* \"#utility.yul\":8357:8363   */\n      dup6\n        /* \"#utility.yul\":8293:8371   */\n      tag_236\n      jump\t// in\n    tag_334:\n        /* \"#utility.yul\":8285:8371   */\n      swap1\n      pop\n        /* \"#utility.yul\":8419:8428   */\n      dup2\n        /* \"#utility.yul\":8413:8417   */\n      dup2\n        /* \"#utility.yul\":8409:8429   */\n      sub\n        /* \"#utility.yul\":8403:8406   */\n      0xc0\n        /* \"#utility.yul\":8392:8401   */\n      dup4\n        /* \"#utility.yul\":8388:8407   */\n      add\n        /* \"#utility.yul\":8381:8430   */\n      mstore\n        /* \"#utility.yul\":8447:8525   */\n      tag_335\n        /* \"#utility.yul\":8520:8524   */\n      dup2\n        /* \"#utility.yul\":8511:8517   */\n      dup5\n        /* \"#utility.yul\":8447:8525   */\n      tag_236\n      jump\t// in\n    tag_335:\n        /* \"#utility.yul\":8439:8525   */\n      swap1\n      pop\n        /* \"#utility.yul\":7373:8532   */\n      swap9\n      swap8\n      pop\n      pop\n      pop\n      pop\n      pop\n      pop\n      pop\n      pop\n      jump\t// out\n        /* \"#utility.yul\":8538:8655   */\n    tag_237:\n        /* \"#utility.yul\":8647:8648   */\n      0x00\n        /* \"#utility.yul\":8644:8645   */\n      dup1\n        /* \"#utility.yul\":8637:8649   */\n      revert\n        /* \"#utility.yul\":8661:8778   */\n    tag_238:\n        /* \"#utility.yul\":8770:8771   */\n      0x00\n        /* \"#utility.yul\":8767:8768   */\n      dup1\n        /* \"#utility.yul\":8760:8772   */\n      revert\n        /* \"#utility.yul\":8784:8964   */\n    tag_239:\n        /* \"#utility.yul\":8832:8909   */\n      0x4e487b7100000000000000000000000000000000000000000000000000000000\n        /* \"#utility.yul\":8829:8830   */\n      0x00\n        /* \"#utility.yul\":8822:8910   */\n      mstore\n        /* \"#utility.yul\":8929:8933   */\n      0x41\n        /* \"#utility.yul\":8926:8927   */\n      0x04\n        /* \"#utility.yul\":8919:8934   */\n      mstore\n        /* \"#utility.yul\":8953:8957   */\n      0x24\n        /* \"#utility.yul\":8950:8951   */\n      0x00\n        /* \"#utility.yul\":8943:8958   */\n      revert\n        /* \"#utility.yul\":8970:9251   */\n    tag_240:\n        /* \"#utility.yul\":9053:9080   */\n      tag_340\n        /* \"#utility.yul\":9075:9079   */\n      dup3\n        /* \"#utility.yul\":9053:9080   */\n      tag_228\n      jump\t// in\n    tag_340:\n        /* \"#utility.yul\":9045:9051   */\n      dup2\n        /* \"#utility.yul\":9041:9081   */\n      add\n        /* \"#utility.yul\":9183:9189   */\n      dup2\n        /* \"#utility.yul\":9171:9181   */\n      dup2\n        /* \"#utility.yul\":9168:9190   */\n      lt\n        /* \"#utility.yul\":9147:9165   */\n      0xffffffffffffffff\n        /* \"#utility.yul\":9135:9145   */\n      dup3\n        /* \"#utility.yul\":9132:9166   */\n      gt\n        /* \"#utility.yul\":9129:9191   */\n      or\n        /* \"#utility.yul\":9126:9214   */\n      iszero\n      tag_341\n      jumpi\n        /* \"#utility.yul\":9194:9212   */\n      tag_342\n      tag_239\n      jump\t// in\n    tag_342:\n        /* \"#utility.yul\":9126:9214   */\n    tag_341:\n        /* \"#utility.yul\":9234:9244   */\n      dup1\n        /* \"#utility.yul\":9230:9232   */\n      0x40\n        /* \"#utility.yul\":9223:9245   */\n      mstore\n        /* \"#utility.yul\":9013:9251   */\n      pop\n        /* \"#utility.yul\":8970:9251   */\n      pop\n      pop\n      jump\t// out\n        /* \"#utility.yul\":9257:9386   */\n    tag_241:\n        /* \"#utility.yul\":9291:9297   */\n      0x00\n        /* \"#utility.yul\":9318:9338   */\n      tag_344\n      tag_215\n      jump\t// in\n    tag_344:\n        /* \"#utility.yul\":9308:9338   */\n      swap1\n      pop\n        /* \"#utility.yul\":9347:9380   */\n      tag_345\n        /* \"#utility.yul\":9375:9379   */\n      dup3\n        /* \"#utility.yul\":9367:9373   */\n      dup3\n        /* \"#utility.yul\":9347:9380   */\n      tag_240\n      jump\t// in\n    tag_345:\n        /* \"#utility.yul\":9257:9386   */\n      swap2\n      swap1\n      pop\n      jump\t// out\n        /* \"#utility.yul\":9392:9700   */\n    tag_242:\n        /* \"#utility.yul\":9454:9458   */\n      0x00\n        /* \"#utility.yul\":9544:9562   */\n      0xffffffffffffffff\n        /* \"#utility.yul\":9536:9542   */\n      dup3\n        /* \"#utility.yul\":9533:9563   */\n      gt\n        /* \"#utility.yul\":9530:9586   */\n      iszero\n      tag_347\n      jumpi\n        /* \"#utility.yul\":9566:9584   */\n      tag_348\n      tag_239\n      jump\t// in\n    tag_348:\n        /* \"#utility.yul\":9530:9586   */\n    tag_347:\n        /* \"#utility.yul\":9604:9633   */\n      tag_349\n        /* \"#utility.yul\":9626:9632   */\n      dup3\n        /* \"#utility.yul\":9604:9633   */\n      tag_228\n      jump\t// in\n    tag_349:\n        /* \"#utility.yul\":9596:9633   */\n      swap1\n      pop\n        /* \"#utility.yul\":9688:9692   */\n      0x20\n        /* \"#utility.yul\":9682:9686   */\n      dup2\n        /* \"#utility.yul\":9678:9693   */\n      add\n        /* \"#utility.yul\":9670:9693   */\n      swap1\n      pop\n        /* \"#utility.yul\":9392:9700   */\n      swap2\n      swap1\n      pop\n      jump\t// out\n        /* \"#utility.yul\":9706:9852   */\n    tag_243:\n        /* \"#utility.yul\":9803:9809   */\n      dup3\n        /* \"#utility.yul\":9798:9801   */\n      dup2\n        /* \"#utility.yul\":9793:9796   */\n      dup4\n        /* \"#utility.yul\":9780:9810   */\n      calldatacopy\n        /* \"#utility.yul\":9844:9845   */\n      0x00\n        /* \"#utility.yul\":9835:9841   */\n      dup4\n        /* \"#utility.yul\":9830:9833   */\n      dup4\n        /* \"#utility.yul\":9826:9842   */\n      add\n        /* \"#utility.yul\":9819:9846   */\n      mstore\n        /* \"#utility.yul\":9706:9852   */\n      pop\n      pop\n      pop\n      jump\t// out\n        /* \"#utility.yul\":9858:10283   */\n    tag_244:\n        /* \"#utility.yul\":9936:9941   */\n      0x00\n        /* \"#utility.yul\":9961:10027   */\n      tag_352\n        /* \"#utility.yul\":9977:10026   */\n      tag_353\n        /* \"#utility.yul\":10019:10025   */\n      dup5\n        /* \"#utility.yul\":9977:10026   */\n      tag_242\n      jump\t// in\n    tag_353:\n        /* \"#utility.yul\":9961:10027   */\n      tag_241\n      jump\t// in\n    tag_352:\n        /* \"#utility.yul\":9952:10027   */\n      swap1\n      pop\n        /* \"#utility.yul\":10050:10056   */\n      dup3\n        /* \"#utility.yul\":10043:10048   */\n      dup2\n        /* \"#utility.yul\":10036:10057   */\n      mstore\n        /* \"#utility.yul\":10088:10092   */\n      0x20\n        /* \"#utility.yul\":10081:10086   */\n      dup2\n        /* \"#utility.yul\":10077:10093   */\n      add\n        /* \"#utility.yul\":10126:10129   */\n      dup5\n        /* \"#utility.yul\":10117:10123   */\n      dup5\n        /* \"#utility.yul\":10112:10115   */\n      dup5\n        /* \"#utility.yul\":10108:10124   */\n      add\n        /* \"#utility.yul\":10105:10130   */\n      gt\n        /* \"#utility.yul\":10102:10214   */\n      iszero\n      tag_354\n      jumpi\n        /* \"#utility.yul\":10133:10212   */\n      tag_355\n      tag_238\n      jump\t// in\n    tag_355:\n        /* \"#utility.yul\":10102:10214   */\n    tag_354:\n        /* \"#utility.yul\":10223:10277   */\n      tag_356\n        /* \"#utility.yul\":10270:10276   */\n      dup5\n        /* \"#utility.yul\":10265:10268   */\n      dup3\n        /* \"#utility.yul\":10260:10263   */\n      dup6\n        /* \"#utility.yul\":10223:10277   */\n      tag_243\n      jump\t// in\n    tag_356:\n        /* \"#utility.yul\":9942:10283   */\n      pop\n        /* \"#utility.yul\":9858:10283   */\n      swap4\n      swap3\n      pop\n      pop\n      pop\n      jump\t// out\n        /* \"#utility.yul\":10303:10643   */\n    tag_245:\n        /* \"#utility.yul\":10359:10364   */\n      0x00\n        /* \"#utility.yul\":10408:10411   */\n      dup3\n        /* \"#utility.yul\":10401:10405   */\n      0x1f\n        /* \"#utility.yul\":10393:10399   */\n      dup4\n        /* \"#utility.yul\":10389:10406   */\n      add\n        /* \"#utility.yul\":10385:10412   */\n      slt\n        /* \"#utility.yul\":10375:10497   */\n      tag_358\n      jumpi\n        /* \"#utility.yul\":10416:10495   */\n      tag_359\n      tag_237\n      jump\t// in\n    tag_359:\n        /* \"#utility.yul\":10375:10497   */\n    tag_358:\n        /* \"#utility.yul\":10533:10539   */\n      dup2\n        /* \"#utility.yul\":10520:10540   */\n      calldataload\n        /* \"#utility.yul\":10558:10637   */\n      tag_360\n        /* \"#utility.yul\":10633:10636   */\n      dup5\n        /* \"#utility.yul\":10625:10631   */\n      dup3\n        /* \"#utility.yul\":10618:10622   */\n      0x20\n        /* \"#utility.yul\":10610:10616   */\n      dup7\n        /* \"#utility.yul\":10606:10623   */\n      add\n        /* \"#utility.yul\":10558:10637   */\n      tag_244\n      jump\t// in\n    tag_360:\n        /* \"#utility.yul\":10549:10637   */\n      swap2\n      pop\n        /* \"#utility.yul\":10365:10643   */\n      pop\n        /* \"#utility.yul\":10303:10643   */\n      swap3\n      swap2\n      pop\n      pop\n      jump\t// out\n        /* \"#utility.yul\":10649:12538   */\n    tag_27:\n        /* \"#utility.yul\":10801:10807   */\n      0x00\n        /* \"#utility.yul\":10809:10815   */\n      dup1\n        /* \"#utility.yul\":10817:10823   */\n      0x00\n        /* \"#utility.yul\":10825:10831   */\n      dup1\n        /* \"#utility.yul\":10833:10839   */\n      0x00\n        /* \"#utility.yul\":10841:10847   */\n      dup1\n        /* \"#utility.yul\":10849:10855   */\n      0x00\n        /* \"#utility.yul\":10857:10863   */\n      dup1\n        /* \"#utility.yul\":10906:10909   */\n      0x0100\n        /* \"#utility.yul\":10894:10903   */\n      dup10\n        /* \"#utility.yul\":10885:10892   */\n      dup12\n        /* \"#utility.yul\":10881:10904   */\n      sub\n        /* \"#utility.yul\":10877:10910   */\n      slt\n        /* \"#utility.yul\":10874:10994   */\n      iszero\n      tag_362\n      jumpi\n        /* \"#utility.yul\":10913:10992   */\n      tag_363\n      tag_216\n      jump\t// in\n    tag_363:\n        /* \"#utility.yul\":10874:10994   */\n    tag_362:\n        /* \"#utility.yul\":11033:11034   */\n      0x00\n        /* \"#utility.yul\":11058:11111   */\n      tag_364\n        /* \"#utility.yul\":11103:11110   */\n      dup12\n        /* \"#utility.yul\":11094:11100   */\n      dup3\n        /* \"#utility.yul\":11083:11092   */\n      dup13\n        /* \"#utility.yul\":11079:11101   */\n      add\n        /* \"#utility.yul\":11058:11111   */\n      tag_220\n      jump\t// in\n    tag_364:\n        /* \"#utility.yul\":11048:11111   */\n      swap9\n      pop\n        /* \"#utility.yul\":11004:11121   */\n      pop\n        /* \"#utility.yul\":11160:11162   */\n      0x20\n        /* \"#utility.yul\":11186:11239   */\n      tag_365\n        /* \"#utility.yul\":11231:11238   */\n      dup12\n        /* \"#utility.yul\":11222:11228   */\n      dup3\n        /* \"#utility.yul\":11211:11220   */\n      dup13\n        /* \"#utility.yul\":11207:11229   */\n      add\n        /* \"#utility.yul\":11186:11239   */\n      tag_220\n      jump\t// in\n    tag_365:\n        /* \"#utility.yul\":11176:11239   */\n      swap8\n      pop\n        /* \"#utility.yul\":11131:11249   */\n      pop\n        /* \"#utility.yul\":11288:11290   */\n      0x40\n        /* \"#utility.yul\":11314:11367   */\n      tag_366\n        /* \"#utility.yul\":11359:11366   */\n      dup12\n        /* \"#utility.yul\":11350:11356   */\n      dup3\n        /* \"#utility.yul\":11339:11348   */\n      dup13\n        /* \"#utility.yul\":11335:11357   */\n      add\n        /* \"#utility.yul\":11314:11367   */\n      tag_220\n      jump\t// in\n    tag_366:\n        /* \"#utility.yul\":11304:11367   */\n      swap7\n      pop\n        /* \"#utility.yul\":11259:11377   */\n      pop\n        /* \"#utility.yul\":11444:11446   */\n      0x60\n        /* \"#utility.yul\":11433:11442   */\n      dup10\n        /* \"#utility.yul\":11429:11447   */\n      add\n        /* \"#utility.yul\":11416:11448   */\n      calldataload\n        /* \"#utility.yul\":11475:11493   */\n      0xffffffffffffffff\n        /* \"#utility.yul\":11467:11473   */\n      dup2\n        /* \"#utility.yul\":11464:11494   */\n      gt\n        /* \"#utility.yul\":11461:11578   */\n      iszero\n      tag_367\n      jumpi\n        /* \"#utility.yul\":11497:11576   */\n      tag_368\n      tag_217\n      jump\t// in\n    tag_368:\n        /* \"#utility.yul\":11461:11578   */\n    tag_367:\n        /* \"#utility.yul\":11602:11665   */\n      tag_369\n        /* \"#utility.yul\":11657:11664   */\n      dup12\n        /* \"#utility.yul\":11648:11654   */\n      dup3\n        /* \"#utility.yul\":11637:11646   */\n      dup13\n        /* \"#utility.yul\":11633:11655   */\n      add\n        /* \"#utility.yul\":11602:11665   */\n      tag_245\n      jump\t// in\n    tag_369:\n        /* \"#utility.yul\":11592:11665   */\n      swap6\n      pop\n        /* \"#utility.yul\":11387:11675   */\n      pop\n        /* \"#utility.yul\":11714:11717   */\n      0x80\n        /* \"#utility.yul\":11741:11794   */\n      tag_370\n        /* \"#utility.yul\":11786:11793   */\n      dup12\n        /* \"#utility.yul\":11777:11783   */\n      dup3\n        /* \"#utility.yul\":11766:11775   */\n      dup13\n        /* \"#utility.yul\":11762:11784   */\n      add\n        /* \"#utility.yul\":11741:11794   */\n      tag_220\n      jump\t// in\n    tag_370:\n        /* \"#utility.yul\":11731:11794   */\n      swap5\n      pop\n        /* \"#utility.yul\":11685:11804   */\n      pop\n        /* \"#utility.yul\":11843:11846   */\n      0xa0\n        /* \"#utility.yul\":11870:11923   */\n      tag_371\n        /* \"#utility.yul\":11915:11922   */\n      dup12\n        /* \"#utility.yul\":11906:11912   */\n      dup3\n        /* \"#utility.yul\":11895:11904   */\n      dup13\n        /* \"#utility.yul\":11891:11913   */\n      add\n        /* \"#utility.yul\":11870:11923   */\n      tag_220\n      jump\t// in\n    tag_371:\n        /* \"#utility.yul\":11860:11923   */\n      swap4\n      pop\n        /* \"#utility.yul\":11814:11933   */\n      pop\n        /* \"#utility.yul\":12000:12003   */\n      0xc0\n        /* \"#utility.yul\":11989:11998   */\n      dup10\n        /* \"#utility.yul\":11985:12004   */\n      add\n        /* \"#utility.yul\":11972:12005   */\n      calldataload\n        /* \"#utility.yul\":12032:12050   */\n      0xffffffffffffffff\n        /* \"#utility.yul\":12024:12030   */\n      dup2\n        /* \"#utility.yul\":12021:12051   */\n      gt\n        /* \"#utility.yul\":12018:12135   */\n      iszero\n      tag_372\n      jumpi\n        /* \"#utility.yul\":12054:12133   */\n      tag_373\n      tag_217\n      jump\t// in\n    tag_373:\n        /* \"#utility.yul\":12018:12135   */\n    tag_372:\n        /* \"#utility.yul\":12159:12222   */\n      tag_374\n        /* \"#utility.yul\":12214:12221   */\n      dup12\n        /* \"#utility.yul\":12205:12211   */\n      dup3\n        /* \"#utility.yul\":12194:12203   */\n      dup13\n        /* \"#utility.yul\":12190:12212   */\n      add\n        /* \"#utility.yul\":12159:12222   */\n      tag_245\n      jump\t// in\n    tag_374:\n        /* \"#utility.yul\":12149:12222   */\n      swap3\n      pop\n        /* \"#utility.yul\":11943:12232   */\n      pop\n        /* \"#utility.yul\":12299:12302   */\n      0xe0\n        /* \"#utility.yul\":12288:12297   */\n      dup10\n        /* \"#utility.yul\":12284:12303   */\n      add\n        /* \"#utility.yul\":12271:12304   */\n      calldataload\n        /* \"#utility.yul\":12331:12349   */\n      0xffffffffffffffff\n        /* \"#utility.yul\":12323:12329   */\n      dup2\n        /* \"#utility.yul\":12320:12350   */\n      gt\n        /* \"#utility.yul\":12317:12434   */\n      iszero\n      tag_375\n      jumpi\n        /* \"#utility.yul\":12353:12432   */\n      tag_376\n      tag_217\n      jump\t// in\n    tag_376:\n        /* \"#utility.yul\":12317:12434   */\n    tag_375:\n        /* \"#utility.yul\":12458:12521   */\n      tag_377\n        /* \"#utility.yul\":12513:12520   */\n      dup12\n        /* \"#utility.yul\":12504:12510   */\n      dup3\n        /* \"#utility.yul\":12493:12502   */\n      dup13\n        /* \"#utility.yul\":12489:12511   */\n      add\n        /* \"#utility.yul\":12458:12521   */\n      tag_245\n      jump\t// in\n    tag_377:\n        /* \"#utility.yul\":12448:12521   */\n      swap2\n      pop\n        /* \"#utility.yul\":12242:12531   */\n      pop\n        /* \"#utility.yul\":10649:12538   */\n      swap3\n      swap6\n      swap9\n      pop\n      swap3\n      swap6\n      swap9\n      swap1\n      swap4\n      swap7\n      pop\n      jump\t// out\n        /* \"#utility.yul\":12544:13814   */\n    tag_33:\n        /* \"#utility.yul\":12893:12897   */\n      0x00\n        /* \"#utility.yul\":12931:12934   */\n      0x0100\n        /* \"#utility.yul\":12920:12929   */\n      dup3\n        /* \"#utility.yul\":12916:12935   */\n      add\n        /* \"#utility.yul\":12908:12935   */\n      swap1\n      pop\n        /* \"#utility.yul\":12945:13016   */\n      tag_379\n        /* \"#utility.yul\":13013:13014   */\n      0x00\n        /* \"#utility.yul\":13002:13011   */\n      dup4\n        /* \"#utility.yul\":12998:13015   */\n      add\n        /* \"#utility.yul\":12989:12995   */\n      dup12\n        /* \"#utility.yul\":12945:13016   */\n      tag_234\n      jump\t// in\n    tag_379:\n        /* \"#utility.yul\":13026:13098   */\n      tag_380\n        /* \"#utility.yul\":13094:13096   */\n      0x20\n        /* \"#utility.yul\":13083:13092   */\n      dup4\n        /* \"#utility.yul\":13079:13097   */\n      add\n        /* \"#utility.yul\":13070:13076   */\n      dup11\n        /* \"#utility.yul\":13026:13098   */\n      tag_234\n      jump\t// in\n    tag_380:\n        /* \"#utility.yul\":13108:13180   */\n      tag_381\n        /* \"#utility.yul\":13176:13178   */\n      0x40\n        /* \"#utility.yul\":13165:13174   */\n      dup4\n        /* \"#utility.yul\":13161:13179   */\n      add\n        /* \"#utility.yul\":13152:13158   */\n      dup10\n        /* \"#utility.yul\":13108:13180   */\n      tag_234\n      jump\t// in\n    tag_381:\n        /* \"#utility.yul\":13227:13236   */\n      dup2\n        /* \"#utility.yul\":13221:13225   */\n      dup2\n        /* \"#utility.yul\":13217:13237   */\n      sub\n        /* \"#utility.yul\":13212:13214   */\n      0x60\n        /* \"#utility.yul\":13201:13210   */\n      dup4\n        /* \"#utility.yul\":13197:13215   */\n      add\n        /* \"#utility.yul\":13190:13238   */\n      mstore\n        /* \"#utility.yul\":13255:13333   */\n      tag_382\n        /* \"#utility.yul\":13328:13332   */\n      dup2\n        /* \"#utility.yul\":13319:13325   */\n      dup9\n        /* \"#utility.yul\":13255:13333   */\n      tag_236\n      jump\t// in\n    tag_382:\n        /* \"#utility.yul\":13247:13333   */\n      swap1\n      pop\n        /* \"#utility.yul\":13343:13416   */\n      tag_383\n        /* \"#utility.yul\":13411:13414   */\n      0x80\n        /* \"#utility.yul\":13400:13409   */\n      dup4\n        /* \"#utility.yul\":13396:13415   */\n      add\n        /* \"#utility.yul\":13387:13393   */\n      dup8\n        /* \"#utility.yul\":13343:13416   */\n      tag_234\n      jump\t// in\n    tag_383:\n        /* \"#utility.yul\":13426:13499   */\n      tag_384\n        /* \"#utility.yul\":13494:13497   */\n      0xa0\n        /* \"#utility.yul\":13483:13492   */\n      dup4\n        /* \"#utility.yul\":13479:13498   */\n      add\n        /* \"#utility.yul\":13470:13476   */\n      dup7\n        /* \"#utility.yul\":13426:13499   */\n      tag_234\n      jump\t// in\n    tag_384:\n        /* \"#utility.yul\":13547:13556   */\n      dup2\n        /* \"#utility.yul\":13541:13545   */\n      dup2\n        /* \"#utility.yul\":13537:13557   */\n      sub\n        /* \"#utility.yul\":13531:13534   */\n      0xc0\n        /* \"#utility.yul\":13520:13529   */\n      dup4\n        /* \"#utility.yul\":13516:13535   */\n      add\n        /* \"#utility.yul\":13509:13558   */\n      mstore\n        /* \"#utility.yul\":13575:13653   */\n      tag_385\n        /* \"#utility.yul\":13648:13652   */\n      dup2\n        /* \"#utility.yul\":13639:13645   */\n      dup6\n        /* \"#utility.yul\":13575:13653   */\n      tag_236\n      jump\t// in\n    tag_385:\n        /* \"#utility.yul\":13567:13653   */\n      swap1\n      pop\n        /* \"#utility.yul\":13701:13710   */\n      dup2\n        /* \"#utility.yul\":13695:13699   */\n      dup2\n        /* \"#utility.yul\":13691:13711   */\n      sub\n        /* \"#utility.yul\":13685:13688   */\n      0xe0\n        /* \"#utility.yul\":13674:13683   */\n      dup4\n        /* \"#utility.yul\":13670:13689   */\n      add\n        /* \"#utility.yul\":13663:13712   */\n      mstore\n        /* \"#utility.yul\":13729:13807   */\n      tag_386\n        /* \"#utility.yul\":13802:13806   */\n      dup2\n        /* \"#utility.yul\":13793:13799   */\n      dup5\n        /* \"#utility.yul\":13729:13807   */\n      tag_236\n      jump\t// in\n    tag_386:\n        /* \"#utility.yul\":13721:13807   */\n      swap1\n      pop\n        /* \"#utility.yul\":12544:13814   */\n      swap10\n      swap9\n      pop\n      pop\n      pop\n      pop\n      pop\n      pop\n      pop\n      pop\n      pop\n      jump\t// out\n        /* \"#utility.yul\":13820:13998   */\n    tag_246:\n        /* \"#utility.yul\":13960:13990   */\n      0x5472616e73616374696f6e206973206e6f7420617661696c61626c6500000000\n        /* \"#utility.yul\":13956:13957   */\n      0x00\n        /* \"#utility.yul\":13948:13954   */\n      dup3\n        /* \"#utility.yul\":13944:13958   */\n      add\n        /* \"#utility.yul\":13937:13991   */\n      mstore\n        /* \"#utility.yul\":13820:13998   */\n      pop\n      jump\t// out\n        /* \"#utility.yul\":14004:14370   */\n    tag_247:\n        /* \"#utility.yul\":14146:14149   */\n      0x00\n        /* \"#utility.yul\":14167:14234   */\n      tag_389\n        /* \"#utility.yul\":14231:14233   */\n      0x1c\n        /* \"#utility.yul\":14226:14229   */\n      dup4\n        /* \"#utility.yul\":14167:14234   */\n      tag_235\n      jump\t// in\n    tag_389:\n        /* \"#utility.yul\":14160:14234   */\n      swap2\n      pop\n        /* \"#utility.yul\":14243:14336   */\n      tag_390\n        /* \"#utility.yul\":14332:14335   */\n      dup3\n        /* \"#utility.yul\":14243:14336   */\n      tag_246\n      jump\t// in\n    tag_390:\n        /* \"#utility.yul\":14361:14363   */\n      0x20\n        /* \"#utility.yul\":14356:14359   */\n      dup3\n        /* \"#utility.yul\":14352:14364   */\n      add\n        /* \"#utility.yul\":14345:14364   */\n      swap1\n      pop\n        /* \"#utility.yul\":14004:14370   */\n      swap2\n      swap1\n      pop\n      jump\t// out\n        /* \"#utility.yul\":14376:14795   */\n    tag_49:\n        /* \"#utility.yul\":14542:14546   */\n      0x00\n        /* \"#utility.yul\":14580:14582   */\n      0x20\n        /* \"#utility.yul\":14569:14578   */\n      dup3\n        /* \"#utility.yul\":14565:14583   */\n      add\n        /* \"#utility.yul\":14557:14583   */\n      swap1\n      pop\n        /* \"#utility.yul\":14629:14638   */\n      dup2\n        /* \"#utility.yul\":14623:14627   */\n      dup2\n        /* \"#utility.yul\":14619:14639   */\n      sub\n        /* \"#utility.yul\":14615:14616   */\n      0x00\n        /* \"#utility.yul\":14604:14613   */\n      dup4\n        /* \"#utility.yul\":14600:14617   */\n      add\n        /* \"#utility.yul\":14593:14640   */\n      mstore\n        /* \"#utility.yul\":14657:14788   */\n      tag_392\n        /* \"#utility.yul\":14783:14787   */\n      dup2\n        /* \"#utility.yul\":14657:14788   */\n      tag_247\n      jump\t// in\n    tag_392:\n        /* \"#utility.yul\":14649:14788   */\n      swap1\n      pop\n        /* \"#utility.yul\":14376:14795   */\n      swap2\n      swap1\n      pop\n      jump\t// out\n        /* \"#utility.yul\":14801:14981   */\n    tag_59:\n        /* \"#utility.yul\":14849:14926   */\n      0x4e487b7100000000000000000000000000000000000000000000000000000000\n        /* \"#utility.yul\":14846:14847   */\n      0x00\n        /* \"#utility.yul\":14839:14927   */\n      mstore\n        /* \"#utility.yul\":14946:14950   */\n      0x32\n        /* \"#utility.yul\":14943:14944   */\n      0x04\n        /* \"#utility.yul\":14936:14951   */\n      mstore\n        /* \"#utility.yul\":14970:14974   */\n      0x24\n        /* \"#utility.yul\":14967:14968   */\n      0x00\n        /* \"#utility.yul\":14960:14975   */\n      revert\n        /* \"#utility.yul\":14987:15167   */\n    tag_248:\n        /* \"#utility.yul\":15035:15112   */\n      0x4e487b7100000000000000000000000000000000000000000000000000000000\n        /* \"#utility.yul\":15032:15033   */\n      0x00\n        /* \"#utility.yul\":15025:15113   */\n      mstore\n        /* \"#utility.yul\":15132:15136   */\n      0x22\n        /* \"#utility.yul\":15129:15130   */\n      0x04\n        /* \"#utility.yul\":15122:15137   */\n      mstore\n        /* \"#utility.yul\":15156:15160   */\n      0x24\n        /* \"#utility.yul\":15153:15154   */\n      0x00\n        /* \"#utility.yul\":15146:15161   */\n      revert\n        /* \"#utility.yul\":15173:15493   */\n    tag_101:\n        /* \"#utility.yul\":15217:15223   */\n      0x00\n        /* \"#utility.yul\":15254:15255   */\n      0x02\n        /* \"#utility.yul\":15248:15252   */\n      dup3\n        /* \"#utility.yul\":15244:15256   */\n      div\n        /* \"#utility.yul\":15234:15256   */\n      swap1\n      pop\n        /* \"#utility.yul\":15301:15302   */\n      0x01\n        /* \"#utility.yul\":15295:15299   */\n      dup3\n        /* \"#utility.yul\":15291:15303   */\n      and\n        /* \"#utility.yul\":15322:15340   */\n      dup1\n        /* \"#utility.yul\":15312:15393   */\n      tag_396\n      jumpi\n        /* \"#utility.yul\":15378:15382   */\n      0x7f\n        /* \"#utility.yul\":15370:15376   */\n      dup3\n        /* \"#utility.yul\":15366:15383   */\n      and\n        /* \"#utility.yul\":15356:15383   */\n      swap2\n      pop\n        /* \"#utility.yul\":15312:15393   */\n    tag_396:\n        /* \"#utility.yul\":15440:15442   */\n      0x20\n        /* \"#utility.yul\":15432:15438   */\n      dup3\n        /* \"#utility.yul\":15429:15443   */\n      lt\n        /* \"#utility.yul\":15409:15427   */\n      dup2\n        /* \"#utility.yul\":15406:15444   */\n      sub\n        /* \"#utility.yul\":15403:15487   */\n      tag_397\n      jumpi\n        /* \"#utility.yul\":15459:15477   */\n      tag_398\n      tag_248\n      jump\t// in\n    tag_398:\n        /* \"#utility.yul\":15403:15487   */\n    tag_397:\n        /* \"#utility.yul\":15224:15493   */\n      pop\n        /* \"#utility.yul\":15173:15493   */\n      swap2\n      swap1\n      pop\n      jump\t// out\n        /* \"#utility.yul\":15499:15648   */\n    tag_249:\n        /* \"#utility.yul\":15548:15554   */\n      0x00\n        /* \"#utility.yul\":15582:15587   */\n      dup2\n        /* \"#utility.yul\":15576:15588   */\n      sload\n        /* \"#utility.yul\":15566:15588   */\n      swap1\n      pop\n        /* \"#utility.yul\":15608:15641   */\n      tag_400\n        /* \"#utility.yul\":15634:15640   */\n      dup2\n        /* \"#utility.yul\":15608:15641   */\n      tag_101\n      jump\t// in\n    tag_400:\n        /* \"#utility.yul\":15598:15641   */\n      swap1\n      pop\n        /* \"#utility.yul\":15499:15648   */\n      swap2\n      swap1\n      pop\n      jump\t// out\n        /* \"#utility.yul\":15654:15795   */\n    tag_250:\n        /* \"#utility.yul\":15703:15707   */\n      0x00\n        /* \"#utility.yul\":15726:15729   */\n      dup2\n        /* \"#utility.yul\":15718:15729   */\n      swap1\n      pop\n        /* \"#utility.yul\":15749:15752   */\n      dup2\n        /* \"#utility.yul\":15746:15747   */\n      0x00\n        /* \"#utility.yul\":15739:15753   */\n      mstore\n        /* \"#utility.yul\":15783:15787   */\n      0x20\n        /* \"#utility.yul\":15780:15781   */\n      0x00\n        /* \"#utility.yul\":15770:15788   */\n      keccak256\n        /* \"#utility.yul\":15762:15788   */\n      swap1\n      pop\n        /* \"#utility.yul\":15654:15795   */\n      swap2\n      swap1\n      pop\n      jump\t// out\n        /* \"#utility.yul\":15801:15894   */\n    tag_251:\n        /* \"#utility.yul\":15838:15844   */\n      0x00\n        /* \"#utility.yul\":15885:15887   */\n      0x20\n        /* \"#utility.yul\":15880:15882   */\n      0x1f\n        /* \"#utility.yul\":15873:15878   */\n      dup4\n        /* \"#utility.yul\":15869:15883   */\n      add\n        /* \"#utility.yul\":15865:15888   */\n      div\n        /* \"#utility.yul\":15855:15888   */\n      swap1\n      pop\n        /* \"#utility.yul\":15801:15894   */\n      swap2\n      swap1\n      pop\n      jump\t// out\n        /* \"#utility.yul\":15900:16007   */\n    tag_252:\n        /* \"#utility.yul\":15944:15952   */\n      0x00\n        /* \"#utility.yul\":15994:15999   */\n      dup3\n        /* \"#utility.yul\":15988:15992   */\n      dup3\n        /* \"#utility.yul\":15984:16000   */\n      shl\n        /* \"#utility.yul\":15963:16000   */\n      swap1\n      pop\n        /* \"#utility.yul\":15900:16007   */\n      swap3\n      swap2\n      pop\n      pop\n      jump\t// out\n        /* \"#utility.yul\":16013:16406   */\n    tag_253:\n        /* \"#utility.yul\":16082:16088   */\n      0x00\n        /* \"#utility.yul\":16132:16133   */\n      0x08\n        /* \"#utility.yul\":16120:16130   */\n      dup4\n        /* \"#utility.yul\":16116:16134   */\n      mul\n        /* \"#utility.yul\":16155:16252   */\n      tag_405\n        /* \"#utility.yul\":16185:16251   */\n      0xffffffffffffffffffffffffffffffffffffffffffffffffffffffffffffffff\n        /* \"#utility.yul\":16174:16183   */\n      dup3\n        /* \"#utility.yul\":16155:16252   */\n      tag_252\n      jump\t// in\n    tag_405:\n        /* \"#utility.yul\":16273:16312   */\n      tag_406\n        /* \"#utility.yul\":16303:16311   */\n      dup7\n        /* \"#utility.yul\":16292:16301   */\n      dup4\n        /* \"#utility.yul\":16273:16312   */\n      tag_252\n      jump\t// in\n    tag_406:\n        /* \"#utility.yul\":16261:16312   */\n      swap6\n      pop\n        /* \"#utility.yul\":16345:16349   */\n      dup1\n        /* \"#utility.yul\":16341:16350   */\n      not\n        /* \"#utility.yul\":16334:16339   */\n      dup5\n        /* \"#utility.yul\":16330:16351   */\n      and\n        /* \"#utility.yul\":16321:16351   */\n      swap4\n      pop\n        /* \"#utility.yul\":16394:16398   */\n      dup1\n        /* \"#utility.yul\":16384:16392   */\n      dup7\n        /* \"#utility.yul\":16380:16399   */\n      and\n        /* \"#utility.yul\":16373:16378   */\n      dup5\n        /* \"#utility.yul\":16370:16400   */\n      or\n        /* \"#utility.yul\":16360:16400   */\n      swap3\n      pop\n        /* \"#utility.yul\":16089:16406   */\n      pop\n      pop\n        /* \"#utility.yul\":16013:16406   */\n      swap4\n      swap3\n      pop\n      pop\n      pop\n      jump\t// out\n        /* \"#utility.yul\":16412:16472   */\n    tag_254:\n        /* \"#utility.yul\":16440:16443   */\n      0x00\n        /* \"#utility.yul\":16461:16466   */\n      dup2\n        /* \"#utility.yul\":16454:16466   */\n      swap1\n      pop\n        /* \"#utility.yul\":16412:16472   */\n      swap2\n      swap1\n      pop\n      jump\t// out\n        /* \"#utility.yul\":16478:16620   */\n    tag_255:\n        /* \"#utility.yul\":16528:16537   */\n      0x00\n        /* \"#utility.yul\":16561:16614   */\n      tag_409\n        /* \"#utility.yul\":16579:16613   */\n      tag_410\n        /* \"#utility.yul\":16588:16612   */\n      tag_411\n        /* \"#utility.yul\":16606:16611   */\n      dup5\n        /* \"#utility.yul\":16588:16612   */\n      tag_218\n      jump\t// in\n    tag_411:\n        /* \"#utility.yul\":16579:16613   */\n      tag_254\n      jump\t// in\n    tag_410:\n        /* \"#utility.yul\":16561:16614   */\n      tag_218\n      jump\t// in\n    tag_409:\n        /* \"#utility.yul\":16548:16614   */\n      swap1\n      pop\n        /* \"#utility.yul\":16478:16620   */\n      swap2\n      swap1\n      pop\n      jump\t// out\n        /* \"#utility.yul\":16626:16701   */\n    tag_256:\n        /* \"#utility.yul\":16669:16672   */\n      0x00\n        /* \"#utility.yul\":16690:16695   */\n      dup2\n        /* \"#utility.yul\":16683:16695   */\n      swap1\n      pop\n        /* \"#utility.yul\":16626:16701   */\n      swap2\n      swap1\n      pop\n      jump\t// out\n        /* \"#utility.yul\":16707:16976   */\n    tag_257:\n        /* \"#utility.yul\":16817:16856   */\n      tag_414\n        /* \"#utility.yul\":16848:16855   */\n      dup4\n        /* \"#utility.yul\":16817:16856   */\n      tag_255\n      jump\t// in\n    tag_414:\n        /* \"#utility.yul\":16878:16969   */\n      tag_415\n        /* \"#utility.yul\":16927:16968   */\n      tag_416\n        /* \"#utility.yul\":16951:16967   */\n      dup3\n        /* \"#utility.yul\":16927:16968   */\n      tag_256\n      jump\t// in\n    tag_416:\n        /* \"#utility.yul\":16919:16925   */\n      dup5\n        /* \"#utility.yul\":16912:16916   */\n      dup5\n        /* \"#utility.yul\":16906:16917   */\n      sload\n        /* \"#utility.yul\":16878:16969   */\n      tag_253\n      jump\t// in\n    tag_415:\n        /* \"#utility.yul\":16872:16876   */\n      dup3\n        /* \"#utility.yul\":16865:16970   */\n      sstore\n        /* \"#utility.yul\":16783:16976   */\n      pop\n        /* \"#utility.yul\":16707:16976   */\n      pop\n      pop\n      pop\n      jump\t// out\n        /* \"#utility.yul\":16982:17055   */\n    tag_258:\n        /* \"#utility.yul\":17027:17030   */\n      0x00\n        /* \"#utility.yul\":16982:17055   */\n      swap1\n      jump\t// out\n        /* \"#utility.yul\":17061:17250   */\n    tag_259:\n        /* \"#utility.yul\":17138:17170   */\n      tag_419\n      tag_258\n      jump\t// in\n    tag_419:\n        /* \"#utility.yul\":17179:17244   */\n      tag_420\n        /* \"#utility.yul\":17237:17243   */\n      dup2\n        /* \"#utility.yul\":17229:17235   */\n      dup5\n        /* \"#utility.yul\":17223:17227   */\n      dup5\n        /* \"#utility.yul\":17179:17244   */\n      tag_257\n      jump\t// in\n    tag_420:\n        /* \"#utility.yul\":17114:17250   */\n      pop\n        /* \"#utility.yul\":17061:17250   */\n      pop\n      pop\n      jump\t// out\n        /* \"#utility.yul\":17256:17442   */\n    tag_260:\n        /* \"#utility.yul\":17316:17436   */\n    tag_422:\n        /* \"#utility.yul\":17333:17336   */\n      dup2\n        /* \"#utility.yul\":17326:17331   */\n      dup2\n        /* \"#utility.yul\":17323:17337   */\n      lt\n        /* \"#utility.yul\":17316:17436   */\n      iszero\n      tag_424\n      jumpi\n        /* \"#utility.yul\":17387:17426   */\n      tag_425\n        /* \"#utility.yul\":17424:17425   */\n      0x00\n        /* \"#utility.yul\":17417:17422   */\n      dup3\n        /* \"#utility.yul\":17387:17426   */\n      tag_259\n      jump\t// in\n    tag_425:\n        /* \"#utility.yul\":17360:17361   */\n      0x01\n        /* \"#utility.yul\":17353:17358   */\n      dup2\n        /* \"#utility.yul\":17349:17362   */\n      add\n        /* \"#utility.yul\":17340:17362   */\n      swap1\n      pop\n        /* \"#utility.yul\":17316:17436   */\n      jump(tag_422)\n    tag_424:\n        /* \"#utility.yul\":17256:17442   */\n      pop\n      pop\n      jump\t// out\n        /* \"#utility.yul\":17448:17991   */\n    tag_261:\n        /* \"#utility.yul\":17549:17551   */\n      0x1f\n        /* \"#utility.yul\":17544:17547   */\n      dup3\n        /* \"#utility.yul\":17541:17552   */\n      gt\n        /* \"#utility.yul\":17538:17984   */\n      iszero\n      tag_427\n      jumpi\n        /* \"#utility.yul\":17583:17621   */\n      tag_428\n        /* \"#utility.yul\":17615:17620   */\n      dup2\n        /* \"#utility.yul\":17583:17621   */\n      tag_250\n      jump\t// in\n    tag_428:\n        /* \"#utility.yul\":17667:17696   */\n      tag_429\n        /* \"#utility.yul\":17685:17695   */\n      dup5\n        /* \"#utility.yul\":17667:17696   */\n      tag_251\n      jump\t// in\n    tag_429:\n        /* \"#utility.yul\":17657:17665   */\n      dup2\n        /* \"#utility.yul\":17653:17697   */\n      add\n        /* \"#utility.yul\":17850:17852   */\n      0x20\n        /* \"#utility.yul\":17838:17848   */\n      dup6\n        /* \"#utility.yul\":17835:17853   */\n      lt\n        /* \"#utility.yul\":17832:17881   */\n      iszero\n      tag_430\n      jumpi\n        /* \"#utility.yul\":17871:17879   */\n      dup2\n        /* \"#utility.yul\":17856:17879   */\n      swap1\n      pop\n        /* \"#utility.yul\":17832:17881   */\n    tag_430:\n        /* \"#utility.yul\":17894:17974   */\n      tag_431\n        /* \"#utility.yul\":17950:17972   */\n      tag_432\n        /* \"#utility.yul\":17968:17971   */\n      dup6\n        /* \"#utility.yul\":17950:17972   */\n      tag_251\n      jump\t// in\n    tag_432:\n        /* \"#utility.yul\":17940:17948   */\n      dup4\n        /* \"#utility.yul\":17936:17973   */\n      add\n        /* \"#utility.yul\":17923:17934   */\n      dup3\n        /* \"#utility.yul\":17894:17974   */\n      tag_260\n      jump\t// in\n    tag_431:\n        /* \"#utility.yul\":17553:17984   */\n      pop\n      pop\n        /* \"#utility.yul\":17538:17984   */\n    tag_427:\n        /* \"#utility.yul\":17448:17991   */\n      pop\n      pop\n      pop\n      jump\t// out\n        /* \"#utility.yul\":17997:18114   */\n    tag_262:\n        /* \"#utility.yul\":18051:18059   */\n      0x00\n        /* \"#utility.yul\":18101:18106   */\n      dup3\n        /* \"#utility.yul\":18095:18099   */\n      dup3\n        /* \"#utility.yul\":18091:18107   */\n      shr\n        /* \"#utility.yul\":18070:18107   */\n      swap1\n      pop\n        /* \"#utility.yul\":17997:18114   */\n      swap3\n      swap2\n      pop\n      pop\n      jump\t// out\n        /* \"#utility.yul\":18120:18289   */\n    tag_263:\n        /* \"#utility.yul\":18164:18170   */\n      0x00\n        /* \"#utility.yul\":18197:18248   */\n      tag_435\n        /* \"#utility.yul\":18245:18246   */\n      0x00\n        /* \"#utility.yul\":18241:18247   */\n      not\n        /* \"#utility.yul\":18233:18238   */\n      dup5\n        /* \"#utility.yul\":18230:18231   */\n      0x08\n        /* \"#utility.yul\":18226:18239   */\n      mul\n        /* \"#utility.yul\":18197:18248   */\n      tag_262\n      jump\t// in\n    tag_435:\n        /* \"#utility.yul\":18193:18249   */\n      not\n        /* \"#utility.yul\":18278:18282   */\n      dup1\n        /* \"#utility.yul\":18272:18276   */\n      dup4\n        /* \"#utility.yul\":18268:18283   */\n      and\n        /* \"#utility.yul\":18258:18283   */\n      swap2\n      pop\n        /* \"#utility.yul\":18171:18289   */\n      pop\n        /* \"#utility.yul\":18120:18289   */\n      swap3\n      swap2\n      pop\n      pop\n      jump\t// out\n        /* \"#utility.yul\":18294:18589   */\n    tag_264:\n        /* \"#utility.yul\":18370:18374   */\n      0x00\n        /* \"#utility.yul\":18516:18545   */\n      tag_437\n        /* \"#utility.yul\":18541:18544   */\n      dup4\n        /* \"#utility.yul\":18535:18539   */\n      dup4\n        /* \"#utility.yul\":18516:18545   */\n      tag_263\n      jump\t// in\n    tag_437:\n        /* \"#utility.yul\":18508:18545   */\n      swap2\n      pop\n        /* \"#utility.yul\":18578:18581   */\n      dup3\n        /* \"#utility.yul\":18575:18576   */\n      0x02\n        /* \"#utility.yul\":18571:18582   */\n      mul\n        /* \"#utility.yul\":18565:18569   */\n      dup3\n        /* \"#utility.yul\":18562:18583   */\n      or\n        /* \"#utility.yul\":18554:18583   */\n      swap1\n      pop\n        /* \"#utility.yul\":18294:18589   */\n      swap3\n      swap2\n      pop\n      pop\n      jump\t// out\n        /* \"#utility.yul\":18594:20045   */\n    tag_66:\n        /* \"#utility.yul\":18705:18708   */\n      dup2\n        /* \"#utility.yul\":18699:18703   */\n      dup2\n        /* \"#utility.yul\":18696:18709   */\n      sub\n        /* \"#utility.yul\":18693:18719   */\n      tag_439\n      jumpi\n        /* \"#utility.yul\":18712:18717   */\n      pop\n      pop\n      jump(tag_438)\n        /* \"#utility.yul\":18693:18719   */\n    tag_439:\n        /* \"#utility.yul\":18743:18777   */\n      tag_440\n        /* \"#utility.yul\":18773:18776   */\n      dup3\n        /* \"#utility.yul\":18743:18777   */\n      tag_249\n      jump\t// in\n    tag_440:\n        /* \"#utility.yul\":18842:18860   */\n      0xffffffffffffffff\n        /* \"#utility.yul\":18834:18840   */\n      dup2\n        /* \"#utility.yul\":18831:18861   */\n      gt\n        /* \"#utility.yul\":18828:18884   */\n      iszero\n      tag_441\n      jumpi\n        /* \"#utility.yul\":18864:18882   */\n      tag_442\n      tag_239\n      jump\t// in\n    tag_442:\n        /* \"#utility.yul\":18828:18884   */\n    tag_441:\n        /* \"#utility.yul\":18908:18946   */\n      tag_443\n        /* \"#utility.yul\":18940:18944   */\n      dup3\n        /* \"#utility.yul\":18934:18945   */\n      sload\n        /* \"#utility.yul\":18908:18946   */\n      tag_101\n      jump\t// in\n    tag_443:\n        /* \"#utility.yul\":18993:19060   */\n      tag_444\n        /* \"#utility.yul\":19053:19059   */\n      dup3\n        /* \"#utility.yul\":19045:19051   */\n      dup3\n        /* \"#utility.yul\":19039:19043   */\n      dup6\n        /* \"#utility.yul\":18993:19060   */\n      tag_261\n      jump\t// in\n    tag_444:\n        /* \"#utility.yul\":19087:19088   */\n      0x00\n        /* \"#utility.yul\":19116:19118   */\n      0x1f\n        /* \"#utility.yul\":19108:19114   */\n      dup4\n        /* \"#utility.yul\":19105:19119   */\n      gt\n        /* \"#utility.yul\":19133:19134   */\n      0x01\n        /* \"#utility.yul\":19128:19800   */\n      dup2\n      eq\n      tag_446\n      jumpi\n        /* \"#utility.yul\":19844:19845   */\n      0x00\n        /* \"#utility.yul\":19861:19867   */\n      dup5\n        /* \"#utility.yul\":19858:19935   */\n      iszero\n      tag_447\n      jumpi\n        /* \"#utility.yul\":19910:19919   */\n      dup3\n        /* \"#utility.yul\":19905:19908   */\n      dup8\n        /* \"#utility.yul\":19901:19920   */\n      add\n        /* \"#utility.yul\":19895:19921   */\n      sload\n        /* \"#utility.yul\":19886:19921   */\n      swap1\n      pop\n        /* \"#utility.yul\":19858:19935   */\n    tag_447:\n        /* \"#utility.yul\":19961:20028   */\n      tag_448\n        /* \"#utility.yul\":20021:20027   */\n      dup6\n        /* \"#utility.yul\":20014:20019   */\n      dup3\n        /* \"#utility.yul\":19961:20028   */\n      tag_264\n      jump\t// in\n    tag_448:\n        /* \"#utility.yul\":19955:19959   */\n      dup7\n        /* \"#utility.yul\":19948:20029   */\n      sstore\n        /* \"#utility.yul\":19817:20039   */\n      pop\n        /* \"#utility.yul\":19098:20039   */\n      jump(tag_445)\n        /* \"#utility.yul\":19128:19800   */\n    tag_446:\n        /* \"#utility.yul\":19180:19184   */\n      0x1f\n        /* \"#utility.yul\":19176:19185   */\n      not\n        /* \"#utility.yul\":19168:19174   */\n      dup5\n        /* \"#utility.yul\":19164:19186   */\n      and\n        /* \"#utility.yul\":19206:19242   */\n      tag_449\n        /* \"#utility.yul\":19238:19241   */\n      dup8\n        /* \"#utility.yul\":19206:19242   */\n      tag_250\n      jump\t// in\n    tag_449:\n        /* \"#utility.yul\":19199:19242   */\n      swap7\n      pop\n        /* \"#utility.yul\":19269:19306   */\n      tag_450\n        /* \"#utility.yul\":19301:19305   */\n      dup7\n        /* \"#utility.yul\":19269:19306   */\n      tag_250\n      jump\t// in\n    tag_450:\n        /* \"#utility.yul\":19328:19329   */\n      0x00\n        /* \"#utility.yul\":19342:19549   */\n    tag_451:\n        /* \"#utility.yul\":19356:19363   */\n      dup3\n        /* \"#utility.yul\":19353:19354   */\n      dup2\n        /* \"#utility.yul\":19350:19364   */\n      lt\n        /* \"#utility.yul\":19342:19549   */\n      iszero\n      tag_453\n      jumpi\n        /* \"#utility.yul\":19435:19444   */\n      dup5\n        /* \"#utility.yul\":19430:19433   */\n      dup10\n        /* \"#utility.yul\":19426:19445   */\n      add\n        /* \"#utility.yul\":19420:19446   */\n      sload\n        /* \"#utility.yul\":19412:19418   */\n      dup3\n        /* \"#utility.yul\":19405:19447   */\n      sstore\n        /* \"#utility.yul\":19486:19487   */\n      0x01\n        /* \"#utility.yul\":19478:19484   */\n      dup3\n        /* \"#utility.yul\":19474:19488   */\n      add\n        /* \"#utility.yul\":19464:19488   */\n      swap2\n      pop\n        /* \"#utility.yul\":19533:19534   */\n      0x01\n        /* \"#utility.yul\":19522:19531   */\n      dup6\n        /* \"#utility.yul\":19518:19535   */\n      add\n        /* \"#utility.yul\":19505:19535   */\n      swap5\n      pop\n        /* \"#utility.yul\":19379:19383   */\n      0x20\n        /* \"#utility.yul\":19376:19377   */\n      dup2\n        /* \"#utility.yul\":19372:19384   */\n      add\n        /* \"#utility.yul\":19367:19384   */\n      swap1\n      pop\n        /* \"#utility.yul\":19342:19549   */\n      jump(tag_451)\n    tag_453:\n        /* \"#utility.yul\":19577:19583   */\n      dup7\n        /* \"#utility.yul\":19568:19575   */\n      dup4\n        /* \"#utility.yul\":19565:19584   */\n      lt\n        /* \"#utility.yul\":19562:19741   */\n      iszero\n      tag_454\n      jumpi\n        /* \"#utility.yul\":19635:19644   */\n      dup5\n        /* \"#utility.yul\":19630:19633   */\n      dup10\n        /* \"#utility.yul\":19626:19645   */\n      add\n        /* \"#utility.yul\":19620:19646   */\n      sload\n        /* \"#utility.yul\":19678:19726   */\n      tag_455\n        /* \"#utility.yul\":19720:19724   */\n      0x1f\n        /* \"#utility.yul\":19712:19718   */\n      dup10\n        /* \"#utility.yul\":19708:19725   */\n      and\n        /* \"#utility.yul\":19697:19706   */\n      dup3\n        /* \"#utility.yul\":19678:19726   */\n      tag_263\n      jump\t// in\n    tag_455:\n        /* \"#utility.yul\":19670:19676   */\n      dup4\n        /* \"#utility.yul\":19663:19727   */\n      sstore\n        /* \"#utility.yul\":19585:19741   */\n      pop\n        /* \"#utility.yul\":19562:19741   */\n    tag_454:\n        /* \"#utility.yul\":19787:19788   */\n      0x01\n        /* \"#utility.yul\":19783:19784   */\n      0x02\n        /* \"#utility.yul\":19775:19781   */\n      dup9\n        /* \"#utility.yul\":19771:19785   */\n      mul\n        /* \"#utility.yul\":19767:19789   */\n      add\n        /* \"#utility.yul\":19761:19765   */\n      dup9\n        /* \"#utility.yul\":19754:19790   */\n      sstore\n        /* \"#utility.yul\":19135:19800   */\n      pop\n      pop\n      pop\n        /* \"#utility.yul\":19098:20039   */\n    tag_445:\n      pop\n        /* \"#utility.yul\":18683:20045   */\n      pop\n      pop\n      pop\n        /* \"#utility.yul\":18594:20045   */\n      pop\n      pop\n    tag_438:\n      jump\t// out\n        /* \"#utility.yul\":20051:20231   */\n    tag_265:\n        /* \"#utility.yul\":20099:20176   */\n      0x4e487b7100000000000000000000000000000000000000000000000000000000\n        /* \"#utility.yul\":20096:20097   */\n      0x00\n        /* \"#utility.yul\":20089:20177   */\n      mstore\n        /* \"#utility.yul\":20196:20200   */\n      0x11\n        /* \"#utility.yul\":20193:20194   */\n      0x04\n        /* \"#utility.yul\":20186:20201   */\n      mstore\n        /* \"#utility.yul\":20220:20224   */\n      0x24\n        /* \"#utility.yul\":20217:20218   */\n      0x00\n        /* \"#utility.yul\":20210:20225   */\n      revert\n        /* \"#utility.yul\":20237:20431   */\n    tag_70:\n        /* \"#utility.yul\":20277:20281   */\n      0x00\n        /* \"#utility.yul\":20297:20317   */\n      tag_458\n        /* \"#utility.yul\":20315:20316   */\n      dup3\n        /* \"#utility.yul\":20297:20317   */\n      tag_218\n      jump\t// in\n    tag_458:\n        /* \"#utility.yul\":20292:20317   */\n      swap2\n      pop\n        /* \"#utility.yul\":20331:20351   */\n      tag_459\n        /* \"#utility.yul\":20349:20350   */\n      dup4\n        /* \"#utility.yul\":20331:20351   */\n      tag_218\n      jump\t// in\n    tag_459:\n        /* \"#utility.yul\":20326:20351   */\n      swap3\n      pop\n        /* \"#utility.yul\":20375:20376   */\n      dup3\n        /* \"#utility.yul\":20372:20373   */\n      dup3\n        /* \"#utility.yul\":20368:20377   */\n      sub\n        /* \"#utility.yul\":20360:20377   */\n      swap1\n      pop\n        /* \"#utility.yul\":20399:20400   */\n      dup2\n        /* \"#utility.yul\":20393:20397   */\n      dup2\n        /* \"#utility.yul\":20390:20401   */\n      gt\n        /* \"#utility.yul\":20387:20424   */\n      iszero\n      tag_460\n      jumpi\n        /* \"#utility.yul\":20404:20422   */\n      tag_461\n      tag_265\n      jump\t// in\n    tag_461:\n        /* \"#utility.yul\":20387:20424   */\n    tag_460:\n        /* \"#utility.yul\":20237:20431   */\n      swap3\n      swap2\n      pop\n      pop\n      jump\t// out\n        /* \"#utility.yul\":20437:20670   */\n    tag_88:\n        /* \"#utility.yul\":20476:20479   */\n      0x00\n        /* \"#utility.yul\":20499:20523   */\n      tag_463\n        /* \"#utility.yul\":20517:20522   */\n      dup3\n        /* \"#utility.yul\":20499:20523   */\n      tag_218\n      jump\t// in\n    tag_463:\n        /* \"#utility.yul\":20490:20523   */\n      swap2\n      pop\n        /* \"#utility.yul\":20545:20611   */\n      0xffffffffffffffffffffffffffffffffffffffffffffffffffffffffffffffff\n        /* \"#utility.yul\":20538:20543   */\n      dup3\n        /* \"#utility.yul\":20535:20612   */\n      sub\n        /* \"#utility.yul\":20532:20635   */\n      tag_464\n      jumpi\n        /* \"#utility.yul\":20615:20633   */\n      tag_465\n      tag_265\n      jump\t// in\n    tag_465:\n        /* \"#utility.yul\":20532:20635   */\n    tag_464:\n        /* \"#utility.yul\":20662:20663   */\n      0x01\n        /* \"#utility.yul\":20655:20660   */\n      dup3\n        /* \"#utility.yul\":20651:20664   */\n      add\n        /* \"#utility.yul\":20644:20664   */\n      swap1\n      pop\n        /* \"#utility.yul\":20437:20670   */\n      swap2\n      swap1\n      pop\n      jump\t// out\n        /* \"#utility.yul\":20676:20856   */\n    tag_91:\n        /* \"#utility.yul\":20724:20801   */\n      0x4e487b7100000000000000000000000000000000000000000000000000000000\n        /* \"#utility.yul\":20721:20722   */\n      0x00\n        /* \"#utility.yul\":20714:20802   */\n      mstore\n        /* \"#utility.yul\":20821:20825   */\n      0x31\n        /* \"#utility.yul\":20818:20819   */\n      0x04\n        /* \"#utility.yul\":20811:20826   */\n      mstore\n        /* \"#utility.yul\":20845:20849   */\n      0x24\n        /* \"#utility.yul\":20842:20843   */\n      0x00\n        /* \"#utility.yul\":20835:20850   */\n      revert\n        /* \"#utility.yul\":20862:22257   */\n    tag_139:\n        /* \"#utility.yul\":20979:21016   */\n      tag_468\n        /* \"#utility.yul\":21012:21015   */\n      dup3\n        /* \"#utility.yul\":20979:21016   */\n      tag_225\n      jump\t// in\n    tag_468:\n        /* \"#utility.yul\":21081:21099   */\n      0xffffffffffffffff\n        /* \"#utility.yul\":21073:21079   */\n      dup2\n        /* \"#utility.yul\":21070:21100   */\n      gt\n        /* \"#utility.yul\":21067:21123   */\n      iszero\n      tag_469\n      jumpi\n        /* \"#utility.yul\":21103:21121   */\n      tag_470\n      tag_239\n      jump\t// in\n    tag_470:\n        /* \"#utility.yul\":21067:21123   */\n    tag_469:\n        /* \"#utility.yul\":21147:21185   */\n      tag_471\n        /* \"#utility.yul\":21179:21183   */\n      dup3\n        /* \"#utility.yul\":21173:21184   */\n      sload\n        /* \"#utility.yul\":21147:21185   */\n      tag_101\n      jump\t// in\n    tag_471:\n        /* \"#utility.yul\":21232:21299   */\n      tag_472\n        /* \"#utility.yul\":21292:21298   */\n      dup3\n        /* \"#utility.yul\":21284:21290   */\n      dup3\n        /* \"#utility.yul\":21278:21282   */\n      dup6\n        /* \"#utility.yul\":21232:21299   */\n      tag_261\n      jump\t// in\n    tag_472:\n        /* \"#utility.yul\":21326:21327   */\n      0x00\n        /* \"#utility.yul\":21350:21354   */\n      0x20\n        /* \"#utility.yul\":21337:21354   */\n      swap1\n      pop\n        /* \"#utility.yul\":21382:21384   */\n      0x1f\n        /* \"#utility.yul\":21374:21380   */\n      dup4\n        /* \"#utility.yul\":21371:21385   */\n      gt\n        /* \"#utility.yul\":21399:21400   */\n      0x01\n        /* \"#utility.yul\":21394:22012   */\n      dup2\n      eq\n      tag_474\n      jumpi\n        /* \"#utility.yul\":22056:22057   */\n      0x00\n        /* \"#utility.yul\":22073:22079   */\n      dup5\n        /* \"#utility.yul\":22070:22147   */\n      iszero\n      tag_475\n      jumpi\n        /* \"#utility.yul\":22122:22131   */\n      dup3\n        /* \"#utility.yul\":22117:22120   */\n      dup8\n        /* \"#utility.yul\":22113:22132   */\n      add\n        /* \"#utility.yul\":22107:22133   */\n      mload\n        /* \"#utility.yul\":22098:22133   */\n      swap1\n      pop\n        /* \"#utility.yul\":22070:22147   */\n    tag_475:\n        /* \"#utility.yul\":22173:22240   */\n      tag_476\n        /* \"#utility.yul\":22233:22239   */\n      dup6\n        /* \"#utility.yul\":22226:22231   */\n      dup3\n        /* \"#utility.yul\":22173:22240   */\n      tag_264\n      jump\t// in\n    tag_476:\n        /* \"#utility.yul\":22167:22171   */\n      dup7\n        /* \"#utility.yul\":22160:22241   */\n      sstore\n        /* \"#utility.yul\":22029:22251   */\n      pop\n        /* \"#utility.yul\":21364:22251   */\n      jump(tag_473)\n        /* \"#utility.yul\":21394:22012   */\n    tag_474:\n        /* \"#utility.yul\":21446:21450   */\n      0x1f\n        /* \"#utility.yul\":21442:21451   */\n      not\n        /* \"#utility.yul\":21434:21440   */\n      dup5\n        /* \"#utility.yul\":21430:21452   */\n      and\n        /* \"#utility.yul\":21480:21517   */\n      tag_477\n        /* \"#utility.yul\":21512:21516   */\n      dup7\n        /* \"#utility.yul\":21480:21517   */\n      tag_250\n      jump\t// in\n    tag_477:\n        /* \"#utility.yul\":21539:21540   */\n      0x00\n        /* \"#utility.yul\":21553:21761   */\n    tag_478:\n        /* \"#utility.yul\":21567:21574   */\n      dup3\n        /* \"#utility.yul\":21564:21565   */\n      dup2\n        /* \"#utility.yul\":21561:21575   */\n      lt\n        /* \"#utility.yul\":21553:21761   */\n      iszero\n      tag_480\n      jumpi\n        /* \"#utility.yul\":21646:21655   */\n      dup5\n        /* \"#utility.yul\":21641:21644   */\n      dup10\n        /* \"#utility.yul\":21637:21656   */\n      add\n        /* \"#utility.yul\":21631:21657   */\n      mload\n        /* \"#utility.yul\":21623:21629   */\n      dup3\n        /* \"#utility.yul\":21616:21658   */\n      sstore\n        /* \"#utility.yul\":21697:21698   */\n      0x01\n        /* \"#utility.yul\":21689:21695   */\n      dup3\n        /* \"#utility.yul\":21685:21699   */\n      add\n        /* \"#utility.yul\":21675:21699   */\n      swap2\n      pop\n        /* \"#utility.yul\":21744:21746   */\n      0x20\n        /* \"#utility.yul\":21733:21742   */\n      dup6\n        /* \"#utility.yul\":21729:21747   */\n      add\n        /* \"#utility.yul\":21716:21747   */\n      swap5\n      pop\n        /* \"#utility.yul\":21590:21594   */\n      0x20\n        /* \"#utility.yul\":21587:21588   */\n      dup2\n        /* \"#utility.yul\":21583:21595   */\n      add\n        /* \"#utility.yul\":21578:21595   */\n      swap1\n      pop\n        /* \"#utility.yul\":21553:21761   */\n      jump(tag_478)\n    tag_480:\n        /* \"#utility.yul\":21789:21795   */\n      dup7\n        /* \"#utility.yul\":21780:21787   */\n      dup4\n        /* \"#utility.yul\":21777:21796   */\n      lt\n        /* \"#utility.yul\":21774:21953   */\n      iszero\n      tag_481\n      jumpi\n        /* \"#utility.yul\":21847:21856   */\n      dup5\n        /* \"#utility.yul\":21842:21845   */\n      dup10\n        /* \"#utility.yul\":21838:21857   */\n      add\n        /* \"#utility.yul\":21832:21858   */\n      mload\n        /* \"#utility.yul\":21890:21938   */\n      tag_482\n        /* \"#utility.yul\":21932:21936   */\n      0x1f\n        /* \"#utility.yul\":21924:21930   */\n      dup10\n        /* \"#utility.yul\":21920:21937   */\n      and\n        /* \"#utility.yul\":21909:21918   */\n      dup3\n        /* \"#utility.yul\":21890:21938   */\n      tag_263\n      jump\t// in\n    tag_482:\n        /* \"#utility.yul\":21882:21888   */\n      dup4\n        /* \"#utility.yul\":21875:21939   */\n      sstore\n        /* \"#utility.yul\":21797:21953   */\n      pop\n        /* \"#utility.yul\":21774:21953   */\n    tag_481:\n        /* \"#utility.yul\":21999:22000   */\n      0x01\n        /* \"#utility.yul\":21995:21996   */\n      0x02\n        /* \"#utility.yul\":21987:21993   */\n      dup9\n        /* \"#utility.yul\":21983:21997   */\n      mul\n        /* \"#utility.yul\":21979:22001   */\n      add\n        /* \"#utility.yul\":21973:21977   */\n      dup9\n        /* \"#utility.yul\":21966:22002   */\n      sstore\n        /* \"#utility.yul\":21401:22012   */\n      pop\n      pop\n      pop\n        /* \"#utility.yul\":21364:22251   */\n    tag_473:\n      pop\n        /* \"#utility.yul\":20954:22257   */\n      pop\n      pop\n      pop\n        /* \"#utility.yul\":20862:22257   */\n      pop\n      pop\n      jump\t// out\n\n    auxdata: 0xa26469706673582212209ca599ba84e42e98395091df579cd574cfa4bfbbf9ca553d92213c033f1fd50e64736f6c63430008120033\n}\n",
				"bytecode": {
					"linkReferences": {},
					"object": "608060405234801561001057600080fd5b50336000806101000a81548173ffffffffffffffffffffffffffffffffffffffff021916908373ffffffffffffffffffffffffffffffffffffffff1602179055506120d6806100606000396000f3fe608060405234801561001057600080fd5b50600436106100875760003560e01c80639ace38c21161005b5780639ace38c2146101185780639d08f4a91461014f578063c82ef8fb14610174578063f80ad0b6146101ab57610087565b8062e9c0061461008c57806327506f53146100a857806333ea3dc8146100c657806393691e0a146100fc575b600080fd5b6100a660048036038101906100a19190611532565b6101c7565b005b6100b06105c7565b6040516100bd919061177e565b60405180910390f35b6100e060048036038101906100db9190611532565b61080f565b6040516100f397969594939291906117f9565b60405180910390f35b610116600480360381019061011191906119b2565b610abb565b005b610132600480360381019061012d9190611532565b610cbd565b604051610146989796959493929190611abc565b60405180910390f35b610157610e9d565b60405161016b989796959493929190611abc565b60405180910390f35b61018e60048036038101906101899190611532565b61106b565b6040516101a2989796959493929190611abc565b60405180910390f35b6101c560048036038101906101c091906119b2565b61125b565b005b60008054906101000a900473ffffffffffffffffffffffffffffffffffffffff1673ffffffffffffffffffffffffffffffffffffffff163373ffffffffffffffffffffffffffffffffffffffff161461021f57600080fd5b6000600160008381526020019081526020016000206000015403610278576040517f08c379a000000000000000000000000000000000000000000000000000000000815260040161026f90611b9b565b60405180910390fd5b60016000828152602001908152602001600020600080820160009055600182016000905560028201600090556003820160006102b4919061148b565b600482016000905560058201600090556006820160006102d4919061148b565b6007820160006102e4919061148b565b505060005b60028054905081101561054057816002828154811061030b5761030a611bbb565b5b9060005260206000209060080201600001540361052d576002818154811061033657610335611bbb565b5b90600052602060002090600802016003600082015481600001556001820154816001015560028201548160020155600382018160030190816103789190611e0c565b506004820154816004015560058201548160050155600682018160060190816103a19190611e0c565b50600782018160070190816103b69190611e0c565b50905050600260016002805490506103ce9190611f23565b815481106103df576103de611bbb565b5b90600052602060002090600802016002828154811061040157610400611bbb565b5b9060005260206000209060080201600082015481600001556001820154816001015560028201548160020155600382018160030190816104419190611e0c565b5060048201548160040155600582015481600501556006820181600601908161046a9190611e0c565b506007820181600701908161047f9190611e0c565b509050506003600260016002805490506104999190611f23565b815481106104aa576104a9611bbb565b5b9060005260206000209060080201600082015481600001556001820154816001015560028201548160020155600382018160030190816104ea9190611e0c565b506004820154816004015560058201548160050155600682018160060190816105139190611e0c565b50600782018160070190816105289190611e0c565b509050505b808061053890611f57565b9150506102e9565b50600280548061055357610552611f9f565b5b600190038181906000526020600020906008020160008082016000905560018201600090556002820160009055600382016000610590919061148b565b600482016000905560058201600090556006820160006105b0919061148b565b6007820160006105c0919061148b565b5050905550565b60606002805480602002602001604051908101604052809291908181526020016000905b8282101561080657838290600052602060002090600802016040518061010001604052908160008201548152602001600182015481526020016002820154815260200160038201805461063d90611c19565b80601f016020809104026020016040519081016040528092919081815260200182805461066990611c19565b80156106b65780601f1061068b576101008083540402835291602001916106b6565b820191906000526020600020905b81548152906001019060200180831161069957829003601f168201915b5050505050815260200160048201548152602001600582015481526020016006820180546106e390611c19565b80601f016020809104026020016040519081016040528092919081815260200182805461070f90611c19565b801561075c5780601f106107315761010080835404028352916020019161075c565b820191906000526020600020905b81548152906001019060200180831161073f57829003601f168201915b5050505050815260200160078201805461077590611c19565b80601f01602080910402602001604051908101604052809291908181526020018280546107a190611c19565b80156107ee5780601f106107c3576101008083540402835291602001916107ee565b820191906000526020600020905b8154815290600101906020018083116107d157829003601f168201915b505050505081525050815260200190600101906105eb565b50505050905090565b60008060606000806060806000600160008a81526020019081526020016000206000015403610873576040517f08c379a000000000000000000000000000000000000000000000000000000000815260040161086a90611b9b565b60405180910390fd5b6000600160008a8152602001908152602001600020604051806101000160405290816000820154815260200160018201548152602001600282015481526020016003820180546108c290611c19565b80601f01602080910402602001604051908101604052809291908181526020018280546108ee90611c19565b801561093b5780601f106109105761010080835404028352916020019161093b565b820191906000526020600020905b81548152906001019060200180831161091e57829003601f168201915b50505050508152602001600482015481526020016005820154815260200160068201805461096890611c19565b80601f016020809104026020016040519081016040528092919081815260200182805461099490611c19565b80156109e15780601f106109b6576101008083540402835291602001916109e1565b820191906000526020600020905b8154815290600101906020018083116109c457829003601f168201915b505050505081526020016007820180546109fa90611c19565b80601f0160208091040260200160405190810160405280929190818152602001828054610a2690611c19565b8015610a735780601f10610a4857610100808354040283529160200191610a73565b820191906000526020600020905b815481529060010190602001808311610a5657829003601f168201915b505050505081525050905080602001518160400151826060015183608001518460a001518560c001518660e00151975097509750975097509750975050919395979092949650565b60008054906101000a900473ffffffffffffffffffffffffffffffffffffffff1673ffffffffffffffffffffffffffffffffffffffff163373ffffffffffffffffffffffffffffffffffffffff1614610b1357600080fd5b6000600160008a81526020019081526020016000206000015403610ca25760006040518061010001604052808a815260200189815260200188815260200187815260200186815260200185815260200184815260200183815250905080600160008b81526020019081526020016000206000820151816000015560208201518160010155604082015181600201556060820151816003019081610bb69190611fce565b506080820151816004015560a0820151816005015560c0820151816006019081610be09190611fce565b5060e0820151816007019081610bf69190611fce565b5090505060028190806001815401808255809150506001900390600052602060002090600802016000909190919091506000820151816000015560208201518160010155604082015181600201556060820151816003019081610c599190611fce565b506080820151816004015560a0820151816005015560c0820151816006019081610c839190611fce565b5060e0820151816007019081610c999190611fce565b50505050610cb3565b610cb2888888888888888861125b565b5b5050505050505050565b6001602052806000526040600020600091509050806000015490806001015490806002015490806003018054610cf290611c19565b80601f0160208091040260200160405190810160405280929190818152602001828054610d1e90611c19565b8015610d6b5780601f10610d4057610100808354040283529160200191610d6b565b820191906000526020600020905b815481529060010190602001808311610d4e57829003601f168201915b505050505090806004015490806005015490806006018054610d8c90611c19565b80601f0160208091040260200160405190810160405280929190818152602001828054610db890611c19565b8015610e055780601f10610dda57610100808354040283529160200191610e05565b820191906000526020600020905b815481529060010190602001808311610de857829003601f168201915b505050505090806007018054610e1a90611c19565b80601f0160208091040260200160405190810160405280929190818152602001828054610e4690611c19565b8015610e935780601f10610e6857610100808354040283529160200191610e93565b820191906000526020600020905b815481529060010190602001808311610e7657829003601f168201915b5050505050905088565b6003806000015490806001015490806002015490806003018054610ec090611c19565b80601f0160208091040260200160405190810160405280929190818152602001828054610eec90611c19565b8015610f395780601f10610f0e57610100808354040283529160200191610f39565b820191906000526020600020905b815481529060010190602001808311610f1c57829003601f168201915b505050505090806004015490806005015490806006018054610f5a90611c19565b80601f0160208091040260200160405190810160405280929190818152602001828054610f8690611c19565b8015610fd35780601f10610fa857610100808354040283529160200191610fd3565b820191906000526020600020905b815481529060010190602001808311610fb657829003601f168201915b505050505090806007018054610fe890611c19565b80601f016020809104026020016040519081016040528092919081815260200182805461101490611c19565b80156110615780601f1061103657610100808354040283529160200191611061565b820191906000526020600020905b81548152906001019060200180831161104457829003601f168201915b5050505050905088565b6002818154811061107b57600080fd5b90600052602060002090600802016000915090508060000154908060010154908060020154908060030180546110b090611c19565b80601f01602080910402602001604051908101604052809291908181526020018280546110dc90611c19565b80156111295780601f106110fe57610100808354040283529160200191611129565b820191906000526020600020905b81548152906001019060200180831161110c57829003601f168201915b50505050509080600401549080600501549080600601805461114a90611c19565b80601f016020809104026020016040519081016040528092919081815260200182805461117690611c19565b80156111c35780601f10611198576101008083540402835291602001916111c3565b820191906000526020600020905b8154815290600101906020018083116111a657829003601f168201915b5050505050908060070180546111d890611c19565b80601f016020809104026020016040519081016040528092919081815260200182805461120490611c19565b80156112515780601f1061122657610100808354040283529160200191611251565b820191906000526020600020905b81548152906001019060200180831161123457829003601f168201915b5050505050905088565b60008054906101000a900473ffffffffffffffffffffffffffffffffffffffff1673ffffffffffffffffffffffffffffffffffffffff163373ffffffffffffffffffffffffffffffffffffffff16146112b357600080fd5b6000600160008a8152602001908152602001600020600001540361130c576040517f08c379a000000000000000000000000000000000000000000000000000000000815260040161130390611b9b565b60405180910390fd5b611315886101c7565b60006040518061010001604052808a815260200189815260200188815260200187815260200186815260200185815260200184815260200183815250905080600160008b8152602001908152602001600020600082015181600001556020820151816001015560408201518160020155606082015181600301908161139a9190611fce565b506080820151816004015560a0820151816005015560c08201518160060190816113c49190611fce565b5060e08201518160070190816113da9190611fce565b509050506002819080600181540180825580915050600190039060005260206000209060080201600090919091909150600082015181600001556020820151816001015560408201518160020155606082015181600301908161143d9190611fce565b506080820151816004015560a0820151816005015560c08201518160060190816114679190611fce565b5060e082015181600701908161147d9190611fce565b505050505050505050505050565b50805461149790611c19565b6000825580601f106114a957506114c8565b601f0160209004906000526020600020908101906114c791906114cb565b5b50565b5b808211156114e45760008160009055506001016114cc565b5090565b6000604051905090565b600080fd5b600080fd5b6000819050919050565b61150f816114fc565b811461151a57600080fd5b50565b60008135905061152c81611506565b92915050565b600060208284031215611548576115476114f2565b5b60006115568482850161151d565b91505092915050565b600081519050919050565b600082825260208201905092915050565b6000819050602082019050919050565b611594816114fc565b82525050565b600081519050919050565b600082825260208201905092915050565b60005b838110156115d45780820151818401526020810190506115b9565b60008484015250505050565b6000601f19601f8301169050919050565b60006115fc8261159a565b61160681856115a5565b93506116168185602086016115b6565b61161f816115e0565b840191505092915050565b600061010083016000830151611643600086018261158b565b506020830151611656602086018261158b565b506040830151611669604086018261158b565b506060830151848203606086015261168182826115f1565b9150506080830151611696608086018261158b565b5060a08301516116a960a086018261158b565b5060c083015184820360c08601526116c182826115f1565b91505060e083015184820360e08601526116db82826115f1565b9150508091505092915050565b60006116f4838361162a565b905092915050565b6000602082019050919050565b60006117148261155f565b61171e818561156a565b9350836020820285016117308561157b565b8060005b8581101561176c578484038952815161174d85826116e8565b9450611758836116fc565b925060208a01995050600181019050611734565b50829750879550505050505092915050565b600060208201905081810360008301526117988184611709565b905092915050565b6117a9816114fc565b82525050565b600082825260208201905092915050565b60006117cb8261159a565b6117d581856117af565b93506117e58185602086016115b6565b6117ee816115e0565b840191505092915050565b600060e08201905061180e600083018a6117a0565b61181b60208301896117a0565b818103604083015261182d81886117c0565b905061183c60608301876117a0565b61184960808301866117a0565b81810360a083015261185b81856117c0565b905081810360c083015261186f81846117c0565b905098975050505050505050565b600080fd5b600080fd5b7f4e487b7100000000000000000000000000000000000000000000000000000000600052604160045260246000fd5b6118bf826115e0565b810181811067ffffffffffffffff821117156118de576118dd611887565b5b80604052505050565b60006118f16114e8565b90506118fd82826118b6565b919050565b600067ffffffffffffffff82111561191d5761191c611887565b5b611926826115e0565b9050602081019050919050565b82818337600083830152505050565b600061195561195084611902565b6118e7565b90508281526020810184848401111561197157611970611882565b5b61197c848285611933565b509392505050565b600082601f8301126119995761199861187d565b5b81356119a9848260208601611942565b91505092915050565b600080600080600080600080610100898b0312156119d3576119d26114f2565b5b60006119e18b828c0161151d565b98505060206119f28b828c0161151d565b9750506040611a038b828c0161151d565b965050606089013567ffffffffffffffff811115611a2457611a236114f7565b5b611a308b828c01611984565b9550506080611a418b828c0161151d565b94505060a0611a528b828c0161151d565b93505060c089013567ffffffffffffffff811115611a7357611a726114f7565b5b611a7f8b828c01611984565b92505060e089013567ffffffffffffffff811115611aa057611a9f6114f7565b5b611aac8b828c01611984565b9150509295985092959890939650565b600061010082019050611ad2600083018b6117a0565b611adf602083018a6117a0565b611aec60408301896117a0565b8181036060830152611afe81886117c0565b9050611b0d60808301876117a0565b611b1a60a08301866117a0565b81810360c0830152611b2c81856117c0565b905081810360e0830152611b4081846117c0565b90509998505050505050505050565b7f5472616e73616374696f6e206973206e6f7420617661696c61626c6500000000600082015250565b6000611b85601c836117af565b9150611b9082611b4f565b602082019050919050565b60006020820190508181036000830152611bb481611b78565b9050919050565b7f4e487b7100000000000000000000000000000000000000000000000000000000600052603260045260246000fd5b7f4e487b7100000000000000000000000000000000000000000000000000000000600052602260045260246000fd5b60006002820490506001821680611c3157607f821691505b602082108103611c4457611c43611bea565b5b50919050565b600081549050611c5981611c19565b9050919050565b60008190508160005260206000209050919050565b60006020601f8301049050919050565b600082821b905092915050565b600060088302611cc27fffffffffffffffffffffffffffffffffffffffffffffffffffffffffffffffff82611c85565b611ccc8683611c85565b95508019841693508086168417925050509392505050565b6000819050919050565b6000611d09611d04611cff846114fc565b611ce4565b6114fc565b9050919050565b6000819050919050565b611d2383611cee565b611d37611d2f82611d10565b848454611c92565b825550505050565b600090565b611d4c611d3f565b611d57818484611d1a565b505050565b5b81811015611d7b57611d70600082611d44565b600181019050611d5d565b5050565b601f821115611dc057611d9181611c60565b611d9a84611c75565b81016020851015611da9578190505b611dbd611db585611c75565b830182611d5c565b50505b505050565b600082821c905092915050565b6000611de360001984600802611dc5565b1980831691505092915050565b6000611dfc8383611dd2565b9150826002028217905092915050565b818103611e1a575050611ef2565b611e2382611c4a565b67ffffffffffffffff811115611e3c57611e3b611887565b5b611e468254611c19565b611e51828285611d7f565b6000601f831160018114611e805760008415611e6e578287015490505b611e788582611df0565b865550611eeb565b601f198416611e8e87611c60565b9650611e9986611c60565b60005b82811015611ec157848901548255600182019150600185019450602081019050611e9c565b86831015611ede5784890154611eda601f891682611dd2565b8355505b6001600288020188555050505b5050505050505b565b7f4e487b7100000000000000000000000000000000000000000000000000000000600052601160045260246000fd5b6000611f2e826114fc565b9150611f39836114fc565b9250828203905081811115611f5157611f50611ef4565b5b92915050565b6000611f62826114fc565b91507fffffffffffffffffffffffffffffffffffffffffffffffffffffffffffffffff8203611f9457611f93611ef4565b5b600182019050919050565b7f4e487b7100000000000000000000000000000000000000000000000000000000600052603160045260246000fd5b611fd78261159a565b67ffffffffffffffff811115611ff057611fef611887565b5b611ffa8254611c19565b612005828285611d7f565b600060209050601f8311600181146120385760008415612026578287015190505b6120308582611df0565b865550612098565b601f19841661204686611c60565b60005b8281101561206e57848901518255600182019150602085019450602081019050612049565b8683101561208b5784890151612087601f891682611dd2565b8355505b6001600288020188555050505b50505050505056fea26469706673582212209ca599ba84e42e98395091df579cd574cfa4bfbbf9ca553d92213c033f1fd50e64736f6c63430008120033",
					"opcodes": "PUSH1 0x80 PUSH1 0x40 MSTORE CALLVALUE DUP1 ISZERO PUSH2 0x10 JUMPI PUSH1 0x0 DUP1 REVERT JUMPDEST POP CALLER PUSH1 0x0 DUP1 PUSH2 0x100 EXP DUP2 SLOAD DUP2 PUSH20 0xFFFFFFFFFFFFFFFFFFFFFFFFFFFFFFFFFFFFFFFF MUL NOT AND SWAP1 DUP4 PUSH20 0xFFFFFFFFFFFFFFFFFFFFFFFFFFFFFFFFFFFFFFFF AND MUL OR SWAP1 SSTORE POP PUSH2 0x20D6 DUP1 PUSH2 0x60 PUSH1 0x0 CODECOPY PUSH1 0x0 RETURN INVALID PUSH1 0x80 PUSH1 0x40 MSTORE CALLVALUE DUP1 ISZERO PUSH2 0x10 JUMPI PUSH1 0x0 DUP1 REVERT JUMPDEST POP PUSH1 0x4 CALLDATASIZE LT PUSH2 0x87 JUMPI PUSH1 0x0 CALLDATALOAD PUSH1 0xE0 SHR DUP1 PUSH4 0x9ACE38C2 GT PUSH2 0x5B JUMPI DUP1 PUSH4 0x9ACE38C2 EQ PUSH2 0x118 JUMPI DUP1 PUSH4 0x9D08F4A9 EQ PUSH2 0x14F JUMPI DUP1 PUSH4 0xC82EF8FB EQ PUSH2 0x174 JUMPI DUP1 PUSH4 0xF80AD0B6 EQ PUSH2 0x1AB JUMPI PUSH2 0x87 JUMP JUMPDEST DUP1 PUSH3 0xE9C006 EQ PUSH2 0x8C JUMPI DUP1 PUSH4 0x27506F53 EQ PUSH2 0xA8 JUMPI DUP1 PUSH4 0x33EA3DC8 EQ PUSH2 0xC6 JUMPI DUP1 PUSH4 0x93691E0A EQ PUSH2 0xFC JUMPI JUMPDEST PUSH1 0x0 DUP1 REVERT JUMPDEST PUSH2 0xA6 PUSH1 0x4 DUP1 CALLDATASIZE SUB DUP2 ADD SWAP1 PUSH2 0xA1 SWAP2 SWAP1 PUSH2 0x1532 JUMP JUMPDEST PUSH2 0x1C7 JUMP JUMPDEST STOP JUMPDEST PUSH2 0xB0 PUSH2 0x5C7 JUMP JUMPDEST PUSH1 0x40 MLOAD PUSH2 0xBD SWAP2 SWAP1 PUSH2 0x177E JUMP JUMPDEST PUSH1 0x40 MLOAD DUP1 SWAP2 SUB SWAP1 RETURN JUMPDEST PUSH2 0xE0 PUSH1 0x4 DUP1 CALLDATASIZE SUB DUP2 ADD SWAP1 PUSH2 0xDB SWAP2 SWAP1 PUSH2 0x1532 JUMP JUMPDEST PUSH2 0x80F JUMP JUMPDEST PUSH1 0x40 MLOAD PUSH2 0xF3 SWAP8 SWAP7 SWAP6 SWAP5 SWAP4 SWAP3 SWAP2 SWAP1 PUSH2 0x17F9 JUMP JUMPDEST PUSH1 0x40 MLOAD DUP1 SWAP2 SUB SWAP1 RETURN JUMPDEST PUSH2 0x116 PUSH1 0x4 DUP1 CALLDATASIZE SUB DUP2 ADD SWAP1 PUSH2 0x111 SWAP2 SWAP1 PUSH2 0x19B2 JUMP JUMPDEST PUSH2 0xABB JUMP JUMPDEST STOP JUMPDEST PUSH2 0x132 PUSH1 0x4 DUP1 CALLDATASIZE SUB DUP2 ADD SWAP1 PUSH2 0x12D SWAP2 SWAP1 PUSH2 0x1532 JUMP JUMPDEST PUSH2 0xCBD JUMP JUMPDEST PUSH1 0x40 MLOAD PUSH2 0x146 SWAP9 SWAP8 SWAP7 SWAP6 SWAP5 SWAP4 SWAP3 SWAP2 SWAP1 PUSH2 0x1ABC JUMP JUMPDEST PUSH1 0x40 MLOAD DUP1 SWAP2 SUB SWAP1 RETURN JUMPDEST PUSH2 0x157 PUSH2 0xE9D JUMP JUMPDEST PUSH1 0x40 MLOAD PUSH2 0x16B SWAP9 SWAP8 SWAP7 SWAP6 SWAP5 SWAP4 SWAP3 SWAP2 SWAP1 PUSH2 0x1ABC JUMP JUMPDEST PUSH1 0x40 MLOAD DUP1 SWAP2 SUB SWAP1 RETURN JUMPDEST PUSH2 0x18E PUSH1 0x4 DUP1 CALLDATASIZE SUB DUP2 ADD SWAP1 PUSH2 0x189 SWAP2 SWAP1 PUSH2 0x1532 JUMP JUMPDEST PUSH2 0x106B JUMP JUMPDEST PUSH1 0x40 MLOAD PUSH2 0x1A2 SWAP9 SWAP8 SWAP7 SWAP6 SWAP5 SWAP4 SWAP3 SWAP2 SWAP1 PUSH2 0x1ABC JUMP JUMPDEST PUSH1 0x40 MLOAD DUP1 SWAP2 SUB SWAP1 RETURN JUMPDEST PUSH2 0x1C5 PUSH1 0x4 DUP1 CALLDATASIZE SUB DUP2 ADD SWAP1 PUSH2 0x1C0 SWAP2 SWAP1 PUSH2 0x19B2 JUMP JUMPDEST PUSH2 0x125B JUMP JUMPDEST STOP JUMPDEST PUSH1 0x0 DUP1 SLOAD SWAP1 PUSH2 0x100 EXP SWAP1 DIV PUSH20 0xFFFFFFFFFFFFFFFFFFFFFFFFFFFFFFFFFFFFFFFF AND PUSH20 0xFFFFFFFFFFFFFFFFFFFFFFFFFFFFFFFFFFFFFFFF AND CALLER PUSH20 0xFFFFFFFFFFFFFFFFFFFFFFFFFFFFFFFFFFFFFFFF AND EQ PUSH2 0x21F JUMPI PUSH1 0x0 DUP1 REVERT JUMPDEST PUSH1 0x0 PUSH1 0x1 PUSH1 0x0 DUP4 DUP2 MSTORE PUSH1 0x20 ADD SWAP1 DUP2 MSTORE PUSH1 0x20 ADD PUSH1 0x0 KECCAK256 PUSH1 0x0 ADD SLOAD SUB PUSH2 0x278 JUMPI PUSH1 0x40 MLOAD PUSH32 0x8C379A000000000000000000000000000000000000000000000000000000000 DUP2 MSTORE PUSH1 0x4 ADD PUSH2 0x26F SWAP1 PUSH2 0x1B9B JUMP JUMPDEST PUSH1 0x40 MLOAD DUP1 SWAP2 SUB SWAP1 REVERT JUMPDEST PUSH1 0x1 PUSH1 0x0 DUP3 DUP2 MSTORE PUSH1 0x20 ADD SWAP1 DUP2 MSTORE PUSH1 0x20 ADD PUSH1 0x0 KECCAK256 PUSH1 0x0 DUP1 DUP3 ADD PUSH1 0x0 SWAP1 SSTORE PUSH1 0x1 DUP3 ADD PUSH1 0x0 SWAP1 SSTORE PUSH1 0x2 DUP3 ADD PUSH1 0x0 SWAP1 SSTORE PUSH1 0x3 DUP3 ADD PUSH1 0x0 PUSH2 0x2B4 SWAP2 SWAP1 PUSH2 0x148B JUMP JUMPDEST PUSH1 0x4 DUP3 ADD PUSH1 0x0 SWAP1 SSTORE PUSH1 0x5 DUP3 ADD PUSH1 0x0 SWAP1 SSTORE PUSH1 0x6 DUP3 ADD PUSH1 0x0 PUSH2 0x2D4 SWAP2 SWAP1 PUSH2 0x148B JUMP JUMPDEST PUSH1 0x7 DUP3 ADD PUSH1 0x0 PUSH2 0x2E4 SWAP2 SWAP1 PUSH2 0x148B JUMP JUMPDEST POP POP PUSH1 0x0 JUMPDEST PUSH1 0x2 DUP1 SLOAD SWAP1 POP DUP2 LT ISZERO PUSH2 0x540 JUMPI DUP2 PUSH1 0x2 DUP3 DUP2 SLOAD DUP2 LT PUSH2 0x30B JUMPI PUSH2 0x30A PUSH2 0x1BBB JUMP JUMPDEST JUMPDEST SWAP1 PUSH1 0x0 MSTORE PUSH1 0x20 PUSH1 0x0 KECCAK256 SWAP1 PUSH1 0x8 MUL ADD PUSH1 0x0 ADD SLOAD SUB PUSH2 0x52D JUMPI PUSH1 0x2 DUP2 DUP2 SLOAD DUP2 LT PUSH2 0x336 JUMPI PUSH2 0x335 PUSH2 0x1BBB JUMP JUMPDEST JUMPDEST SWAP1 PUSH1 0x0 MSTORE PUSH1 0x20 PUSH1 0x0 KECCAK256 SWAP1 PUSH1 0x8 MUL ADD PUSH1 0x3 PUSH1 0x0 DUP3 ADD SLOAD DUP2 PUSH1 0x0 ADD SSTORE PUSH1 0x1 DUP3 ADD SLOAD DUP2 PUSH1 0x1 ADD SSTORE PUSH1 0x2 DUP3 ADD SLOAD DUP2 PUSH1 0x2 ADD SSTORE PUSH1 0x3 DUP3 ADD DUP2 PUSH1 0x3 ADD SWAP1 DUP2 PUSH2 0x378 SWAP2 SWAP1 PUSH2 0x1E0C JUMP JUMPDEST POP PUSH1 0x4 DUP3 ADD SLOAD DUP2 PUSH1 0x4 ADD SSTORE PUSH1 0x5 DUP3 ADD SLOAD DUP2 PUSH1 0x5 ADD SSTORE PUSH1 0x6 DUP3 ADD DUP2 PUSH1 0x6 ADD SWAP1 DUP2 PUSH2 0x3A1 SWAP2 SWAP1 PUSH2 0x1E0C JUMP JUMPDEST POP PUSH1 0x7 DUP3 ADD DUP2 PUSH1 0x7 ADD SWAP1 DUP2 PUSH2 0x3B6 SWAP2 SWAP1 PUSH2 0x1E0C JUMP JUMPDEST POP SWAP1 POP POP PUSH1 0x2 PUSH1 0x1 PUSH1 0x2 DUP1 SLOAD SWAP1 POP PUSH2 0x3CE SWAP2 SWAP1 PUSH2 0x1F23 JUMP JUMPDEST DUP2 SLOAD DUP2 LT PUSH2 0x3DF JUMPI PUSH2 0x3DE PUSH2 0x1BBB JUMP JUMPDEST JUMPDEST SWAP1 PUSH1 0x0 MSTORE PUSH1 0x20 PUSH1 0x0 KECCAK256 SWAP1 PUSH1 0x8 MUL ADD PUSH1 0x2 DUP3 DUP2 SLOAD DUP2 LT PUSH2 0x401 JUMPI PUSH2 0x400 PUSH2 0x1BBB JUMP JUMPDEST JUMPDEST SWAP1 PUSH1 0x0 MSTORE PUSH1 0x20 PUSH1 0x0 KECCAK256 SWAP1 PUSH1 0x8 MUL ADD PUSH1 0x0 DUP3 ADD SLOAD DUP2 PUSH1 0x0 ADD SSTORE PUSH1 0x1 DUP3 ADD SLOAD DUP2 PUSH1 0x1 ADD SSTORE PUSH1 0x2 DUP3 ADD SLOAD DUP2 PUSH1 0x2 ADD SSTORE PUSH1 0x3 DUP3 ADD DUP2 PUSH1 0x3 ADD SWAP1 DUP2 PUSH2 0x441 SWAP2 SWAP1 PUSH2 0x1E0C JUMP JUMPDEST POP PUSH1 0x4 DUP3 ADD SLOAD DUP2 PUSH1 0x4 ADD SSTORE PUSH1 0x5 DUP3 ADD SLOAD DUP2 PUSH1 0x5 ADD SSTORE PUSH1 0x6 DUP3 ADD DUP2 PUSH1 0x6 ADD SWAP1 DUP2 PUSH2 0x46A SWAP2 SWAP1 PUSH2 0x1E0C JUMP JUMPDEST POP PUSH1 0x7 DUP3 ADD DUP2 PUSH1 0x7 ADD SWAP1 DUP2 PUSH2 0x47F SWAP2 SWAP1 PUSH2 0x1E0C JUMP JUMPDEST POP SWAP1 POP POP PUSH1 0x3 PUSH1 0x2 PUSH1 0x1 PUSH1 0x2 DUP1 SLOAD SWAP1 POP PUSH2 0x499 SWAP2 SWAP1 PUSH2 0x1F23 JUMP JUMPDEST DUP2 SLOAD DUP2 LT PUSH2 0x4AA JUMPI PUSH2 0x4A9 PUSH2 0x1BBB JUMP JUMPDEST JUMPDEST SWAP1 PUSH1 0x0 MSTORE PUSH1 0x20 PUSH1 0x0 KECCAK256 SWAP1 PUSH1 0x8 MUL ADD PUSH1 0x0 DUP3 ADD SLOAD DUP2 PUSH1 0x0 ADD SSTORE PUSH1 0x1 DUP3 ADD SLOAD DUP2 PUSH1 0x1 ADD SSTORE PUSH1 0x2 DUP3 ADD SLOAD DUP2 PUSH1 0x2 ADD SSTORE PUSH1 0x3 DUP3 ADD DUP2 PUSH1 0x3 ADD SWAP1 DUP2 PUSH2 0x4EA SWAP2 SWAP1 PUSH2 0x1E0C JUMP JUMPDEST POP PUSH1 0x4 DUP3 ADD SLOAD DUP2 PUSH1 0x4 ADD SSTORE PUSH1 0x5 DUP3 ADD SLOAD DUP2 PUSH1 0x5 ADD SSTORE PUSH1 0x6 DUP3 ADD DUP2 PUSH1 0x6 ADD SWAP1 DUP2 PUSH2 0x513 SWAP2 SWAP1 PUSH2 0x1E0C JUMP JUMPDEST POP PUSH1 0x7 DUP3 ADD DUP2 PUSH1 0x7 ADD SWAP1 DUP2 PUSH2 0x528 SWAP2 SWAP1 PUSH2 0x1E0C JUMP JUMPDEST POP SWAP1 POP POP JUMPDEST DUP1 DUP1 PUSH2 0x538 SWAP1 PUSH2 0x1F57 JUMP JUMPDEST SWAP2 POP POP PUSH2 0x2E9 JUMP JUMPDEST POP PUSH1 0x2 DUP1 SLOAD DUP1 PUSH2 0x553 JUMPI PUSH2 0x552 PUSH2 0x1F9F JUMP JUMPDEST JUMPDEST PUSH1 0x1 SWAP1 SUB DUP2 DUP2 SWAP1 PUSH1 0x0 MSTORE PUSH1 0x20 PUSH1 0x0 KECCAK256 SWAP1 PUSH1 0x8 MUL ADD PUSH1 0x0 DUP1 DUP3 ADD PUSH1 0x0 SWAP1 SSTORE PUSH1 0x1 DUP3 ADD PUSH1 0x0 SWAP1 SSTORE PUSH1 0x2 DUP3 ADD PUSH1 0x0 SWAP1 SSTORE PUSH1 0x3 DUP3 ADD PUSH1 0x0 PUSH2 0x590 SWAP2 SWAP1 PUSH2 0x148B JUMP JUMPDEST PUSH1 0x4 DUP3 ADD PUSH1 0x0 SWAP1 SSTORE PUSH1 0x5 DUP3 ADD PUSH1 0x0 SWAP1 SSTORE PUSH1 0x6 DUP3 ADD PUSH1 0x0 PUSH2 0x5B0 SWAP2 SWAP1 PUSH2 0x148B JUMP JUMPDEST PUSH1 0x7 DUP3 ADD PUSH1 0x0 PUSH2 0x5C0 SWAP2 SWAP1 PUSH2 0x148B JUMP JUMPDEST POP POP SWAP1 SSTORE POP JUMP JUMPDEST PUSH1 0x60 PUSH1 0x2 DUP1 SLOAD DUP1 PUSH1 0x20 MUL PUSH1 0x20 ADD PUSH1 0x40 MLOAD SWAP1 DUP2 ADD PUSH1 0x40 MSTORE DUP1 SWAP3 SWAP2 SWAP1 DUP2 DUP2 MSTORE PUSH1 0x20 ADD PUSH1 0x0 SWAP1 JUMPDEST DUP3 DUP3 LT ISZERO PUSH2 0x806 JUMPI DUP4 DUP3 SWAP1 PUSH1 0x0 MSTORE PUSH1 0x20 PUSH1 0x0 KECCAK256 SWAP1 PUSH1 0x8 MUL ADD PUSH1 0x40 MLOAD DUP1 PUSH2 0x100 ADD PUSH1 0x40 MSTORE SWAP1 DUP2 PUSH1 0x0 DUP3 ADD SLOAD DUP2 MSTORE PUSH1 0x20 ADD PUSH1 0x1 DUP3 ADD SLOAD DUP2 MSTORE PUSH1 0x20 ADD PUSH1 0x2 DUP3 ADD SLOAD DUP2 MSTORE PUSH1 0x20 ADD PUSH1 0x3 DUP3 ADD DUP1 SLOAD PUSH2 0x63D SWAP1 PUSH2 0x1C19 JUMP JUMPDEST DUP1 PUSH1 0x1F ADD PUSH1 0x20 DUP1 SWAP2 DIV MUL PUSH1 0x20 ADD PUSH1 0x40 MLOAD SWAP1 DUP2 ADD PUSH1 0x40 MSTORE DUP1 SWAP3 SWAP2 SWAP1 DUP2 DUP2 MSTORE PUSH1 0x20 ADD DUP3 DUP1 SLOAD PUSH2 0x669 SWAP1 PUSH2 0x1C19 JUMP JUMPDEST DUP1 ISZERO PUSH2 0x6B6 JUMPI DUP1 PUSH1 0x1F LT PUSH2 0x68B JUMPI PUSH2 0x100 DUP1 DUP4 SLOAD DIV MUL DUP4 MSTORE SWAP2 PUSH1 0x20 ADD SWAP2 PUSH2 0x6B6 JUMP JUMPDEST DUP3 ADD SWAP2 SWAP1 PUSH1 0x0 MSTORE PUSH1 0x20 PUSH1 0x0 KECCAK256 SWAP1 JUMPDEST DUP2 SLOAD DUP2 MSTORE SWAP1 PUSH1 0x1 ADD SWAP1 PUSH1 0x20 ADD DUP1 DUP4 GT PUSH2 0x699 JUMPI DUP3 SWAP1 SUB PUSH1 0x1F AND DUP3 ADD SWAP2 JUMPDEST POP POP POP POP POP DUP2 MSTORE PUSH1 0x20 ADD PUSH1 0x4 DUP3 ADD SLOAD DUP2 MSTORE PUSH1 0x20 ADD PUSH1 0x5 DUP3 ADD SLOAD DUP2 MSTORE PUSH1 0x20 ADD PUSH1 0x6 DUP3 ADD DUP1 SLOAD PUSH2 0x6E3 SWAP1 PUSH2 0x1C19 JUMP JUMPDEST DUP1 PUSH1 0x1F ADD PUSH1 0x20 DUP1 SWAP2 DIV MUL PUSH1 0x20 ADD PUSH1 0x40 MLOAD SWAP1 DUP2 ADD PUSH1 0x40 MSTORE DUP1 SWAP3 SWAP2 SWAP1 DUP2 DUP2 MSTORE PUSH1 0x20 ADD DUP3 DUP1 SLOAD PUSH2 0x70F SWAP1 PUSH2 0x1C19 JUMP JUMPDEST DUP1 ISZERO PUSH2 0x75C JUMPI DUP1 PUSH1 0x1F LT PUSH2 0x731 JUMPI PUSH2 0x100 DUP1 DUP4 SLOAD DIV MUL DUP4 MSTORE SWAP2 PUSH1 0x20 ADD SWAP2 PUSH2 0x75C JUMP JUMPDEST DUP3 ADD SWAP2 SWAP1 PUSH1 0x0 MSTORE PUSH1 0x20 PUSH1 0x0 KECCAK256 SWAP1 JUMPDEST DUP2 SLOAD DUP2 MSTORE SWAP1 PUSH1 0x1 ADD SWAP1 PUSH1 0x20 ADD DUP1 DUP4 GT PUSH2 0x73F JUMPI DUP3 SWAP1 SUB PUSH1 0x1F AND DUP3 ADD SWAP2 JUMPDEST POP POP POP POP POP DUP2 MSTORE PUSH1 0x20 ADD PUSH1 0x7 DUP3 ADD DUP1 SLOAD PUSH2 0x775 SWAP1 PUSH2 0x1C19 JUMP JUMPDEST DUP1 PUSH1 0x1F ADD PUSH1 0x20 DUP1 SWAP2 DIV MUL PUSH1 0x20 ADD PUSH1 0x40 MLOAD SWAP1 DUP2 ADD PUSH1 0x40 MSTORE DUP1 SWAP3 SWAP2 SWAP1 DUP2 DUP2 MSTORE PUSH1 0x20 ADD DUP3 DUP1 SLOAD PUSH2 0x7A1 SWAP1 PUSH2 0x1C19 JUMP JUMPDEST DUP1 ISZERO PUSH2 0x7EE JUMPI DUP1 PUSH1 0x1F LT PUSH2 0x7C3 JUMPI PUSH2 0x100 DUP1 DUP4 SLOAD DIV MUL DUP4 MSTORE SWAP2 PUSH1 0x20 ADD SWAP2 PUSH2 0x7EE JUMP JUMPDEST DUP3 ADD SWAP2 SWAP1 PUSH1 0x0 MSTORE PUSH1 0x20 PUSH1 0x0 KECCAK256 SWAP1 JUMPDEST DUP2 SLOAD DUP2 MSTORE SWAP1 PUSH1 0x1 ADD SWAP1 PUSH1 0x20 ADD DUP1 DUP4 GT PUSH2 0x7D1 JUMPI DUP3 SWAP1 SUB PUSH1 0x1F AND DUP3 ADD SWAP2 JUMPDEST POP POP POP POP POP DUP2 MSTORE POP POP DUP2 MSTORE PUSH1 0x20 ADD SWAP1 PUSH1 0x1 ADD SWAP1 PUSH2 0x5EB JUMP JUMPDEST POP POP POP POP SWAP1 POP SWAP1 JUMP JUMPDEST PUSH1 0x0 DUP1 PUSH1 0x60 PUSH1 0x0 DUP1 PUSH1 0x60 DUP1 PUSH1 0x0 PUSH1 0x1 PUSH1 0x0 DUP11 DUP2 MSTORE PUSH1 0x20 ADD SWAP1 DUP2 MSTORE PUSH1 0x20 ADD PUSH1 0x0 KECCAK256 PUSH1 0x0 ADD SLOAD SUB PUSH2 0x873 JUMPI PUSH1 0x40 MLOAD PUSH32 0x8C379A000000000000000000000000000000000000000000000000000000000 DUP2 MSTORE PUSH1 0x4 ADD PUSH2 0x86A SWAP1 PUSH2 0x1B9B JUMP JUMPDEST PUSH1 0x40 MLOAD DUP1 SWAP2 SUB SWAP1 REVERT JUMPDEST PUSH1 0x0 PUSH1 0x1 PUSH1 0x0 DUP11 DUP2 MSTORE PUSH1 0x20 ADD SWAP1 DUP2 MSTORE PUSH1 0x20 ADD PUSH1 0x0 KECCAK256 PUSH1 0x40 MLOAD DUP1 PUSH2 0x100 ADD PUSH1 0x40 MSTORE SWAP1 DUP2 PUSH1 0x0 DUP3 ADD SLOAD DUP2 MSTORE PUSH1 0x20 ADD PUSH1 0x1 DUP3 ADD SLOAD DUP2 MSTORE PUSH1 0x20 ADD PUSH1 0x2 DUP3 ADD SLOAD DUP2 MSTORE PUSH1 0x20 ADD PUSH1 0x3 DUP3 ADD DUP1 SLOAD PUSH2 0x8C2 SWAP1 PUSH2 0x1C19 JUMP JUMPDEST DUP1 PUSH1 0x1F ADD PUSH1 0x20 DUP1 SWAP2 DIV MUL PUSH1 0x20 ADD PUSH1 0x40 MLOAD SWAP1 DUP2 ADD PUSH1 0x40 MSTORE DUP1 SWAP3 SWAP2 SWAP1 DUP2 DUP2 MSTORE PUSH1 0x20 ADD DUP3 DUP1 SLOAD PUSH2 0x8EE SWAP1 PUSH2 0x1C19 JUMP JUMPDEST DUP1 ISZERO PUSH2 0x93B JUMPI DUP1 PUSH1 0x1F LT PUSH2 0x910 JUMPI PUSH2 0x100 DUP1 DUP4 SLOAD DIV MUL DUP4 MSTORE SWAP2 PUSH1 0x20 ADD SWAP2 PUSH2 0x93B JUMP JUMPDEST DUP3 ADD SWAP2 SWAP1 PUSH1 0x0 MSTORE PUSH1 0x20 PUSH1 0x0 KECCAK256 SWAP1 JUMPDEST DUP2 SLOAD DUP2 MSTORE SWAP1 PUSH1 0x1 ADD SWAP1 PUSH1 0x20 ADD DUP1 DUP4 GT PUSH2 0x91E JUMPI DUP3 SWAP1 SUB PUSH1 0x1F AND DUP3 ADD SWAP2 JUMPDEST POP POP POP POP POP DUP2 MSTORE PUSH1 0x20 ADD PUSH1 0x4 DUP3 ADD SLOAD DUP2 MSTORE PUSH1 0x20 ADD PUSH1 0x5 DUP3 ADD SLOAD DUP2 MSTORE PUSH1 0x20 ADD PUSH1 0x6 DUP3 ADD DUP1 SLOAD PUSH2 0x968 SWAP1 PUSH2 0x1C19 JUMP JUMPDEST DUP1 PUSH1 0x1F ADD PUSH1 0x20 DUP1 SWAP2 DIV MUL PUSH1 0x20 ADD PUSH1 0x40 MLOAD SWAP1 DUP2 ADD PUSH1 0x40 MSTORE DUP1 SWAP3 SWAP2 SWAP1 DUP2 DUP2 MSTORE PUSH1 0x20 ADD DUP3 DUP1 SLOAD PUSH2 0x994 SWAP1 PUSH2 0x1C19 JUMP JUMPDEST DUP1 ISZERO PUSH2 0x9E1 JUMPI DUP1 PUSH1 0x1F LT PUSH2 0x9B6 JUMPI PUSH2 0x100 DUP1 DUP4 SLOAD DIV MUL DUP4 MSTORE SWAP2 PUSH1 0x20 ADD SWAP2 PUSH2 0x9E1 JUMP JUMPDEST DUP3 ADD SWAP2 SWAP1 PUSH1 0x0 MSTORE PUSH1 0x20 PUSH1 0x0 KECCAK256 SWAP1 JUMPDEST DUP2 SLOAD DUP2 MSTORE SWAP1 PUSH1 0x1 ADD SWAP1 PUSH1 0x20 ADD DUP1 DUP4 GT PUSH2 0x9C4 JUMPI DUP3 SWAP1 SUB PUSH1 0x1F AND DUP3 ADD SWAP2 JUMPDEST POP POP POP POP POP DUP2 MSTORE PUSH1 0x20 ADD PUSH1 0x7 DUP3 ADD DUP1 SLOAD PUSH2 0x9FA SWAP1 PUSH2 0x1C19 JUMP JUMPDEST DUP1 PUSH1 0x1F ADD PUSH1 0x20 DUP1 SWAP2 DIV MUL PUSH1 0x20 ADD PUSH1 0x40 MLOAD SWAP1 DUP2 ADD PUSH1 0x40 MSTORE DUP1 SWAP3 SWAP2 SWAP1 DUP2 DUP2 MSTORE PUSH1 0x20 ADD DUP3 DUP1 SLOAD PUSH2 0xA26 SWAP1 PUSH2 0x1C19 JUMP JUMPDEST DUP1 ISZERO PUSH2 0xA73 JUMPI DUP1 PUSH1 0x1F LT PUSH2 0xA48 JUMPI PUSH2 0x100 DUP1 DUP4 SLOAD DIV MUL DUP4 MSTORE SWAP2 PUSH1 0x20 ADD SWAP2 PUSH2 0xA73 JUMP JUMPDEST DUP3 ADD SWAP2 SWAP1 PUSH1 0x0 MSTORE PUSH1 0x20 PUSH1 0x0 KECCAK256 SWAP1 JUMPDEST DUP2 SLOAD DUP2 MSTORE SWAP1 PUSH1 0x1 ADD SWAP1 PUSH1 0x20 ADD DUP1 DUP4 GT PUSH2 0xA56 JUMPI DUP3 SWAP1 SUB PUSH1 0x1F AND DUP3 ADD SWAP2 JUMPDEST POP POP POP POP POP DUP2 MSTORE POP POP SWAP1 POP DUP1 PUSH1 0x20 ADD MLOAD DUP2 PUSH1 0x40 ADD MLOAD DUP3 PUSH1 0x60 ADD MLOAD DUP4 PUSH1 0x80 ADD MLOAD DUP5 PUSH1 0xA0 ADD MLOAD DUP6 PUSH1 0xC0 ADD MLOAD DUP7 PUSH1 0xE0 ADD MLOAD SWAP8 POP SWAP8 POP SWAP8 POP SWAP8 POP SWAP8 POP SWAP8 POP SWAP8 POP POP SWAP2 SWAP4 SWAP6 SWAP8 SWAP1 SWAP3 SWAP5 SWAP7 POP JUMP JUMPDEST PUSH1 0x0 DUP1 SLOAD SWAP1 PUSH2 0x100 EXP SWAP1 DIV PUSH20 0xFFFFFFFFFFFFFFFFFFFFFFFFFFFFFFFFFFFFFFFF AND PUSH20 0xFFFFFFFFFFFFFFFFFFFFFFFFFFFFFFFFFFFFFFFF AND CALLER PUSH20 0xFFFFFFFFFFFFFFFFFFFFFFFFFFFFFFFFFFFFFFFF AND EQ PUSH2 0xB13 JUMPI PUSH1 0x0 DUP1 REVERT JUMPDEST PUSH1 0x0 PUSH1 0x1 PUSH1 0x0 DUP11 DUP2 MSTORE PUSH1 0x20 ADD SWAP1 DUP2 MSTORE PUSH1 0x20 ADD PUSH1 0x0 KECCAK256 PUSH1 0x0 ADD SLOAD SUB PUSH2 0xCA2 JUMPI PUSH1 0x0 PUSH1 0x40 MLOAD DUP1 PUSH2 0x100 ADD PUSH1 0x40 MSTORE DUP1 DUP11 DUP2 MSTORE PUSH1 0x20 ADD DUP10 DUP2 MSTORE PUSH1 0x20 ADD DUP9 DUP2 MSTORE PUSH1 0x20 ADD DUP8 DUP2 MSTORE PUSH1 0x20 ADD DUP7 DUP2 MSTORE PUSH1 0x20 ADD DUP6 DUP2 MSTORE PUSH1 0x20 ADD DUP5 DUP2 MSTORE PUSH1 0x20 ADD DUP4 DUP2 MSTORE POP SWAP1 POP DUP1 PUSH1 0x1 PUSH1 0x0 DUP12 DUP2 MSTORE PUSH1 0x20 ADD SWAP1 DUP2 MSTORE PUSH1 0x20 ADD PUSH1 0x0 KECCAK256 PUSH1 0x0 DUP3 ADD MLOAD DUP2 PUSH1 0x0 ADD SSTORE PUSH1 0x20 DUP3 ADD MLOAD DUP2 PUSH1 0x1 ADD SSTORE PUSH1 0x40 DUP3 ADD MLOAD DUP2 PUSH1 0x2 ADD SSTORE PUSH1 0x60 DUP3 ADD MLOAD DUP2 PUSH1 0x3 ADD SWAP1 DUP2 PUSH2 0xBB6 SWAP2 SWAP1 PUSH2 0x1FCE JUMP JUMPDEST POP PUSH1 0x80 DUP3 ADD MLOAD DUP2 PUSH1 0x4 ADD SSTORE PUSH1 0xA0 DUP3 ADD MLOAD DUP2 PUSH1 0x5 ADD SSTORE PUSH1 0xC0 DUP3 ADD MLOAD DUP2 PUSH1 0x6 ADD SWAP1 DUP2 PUSH2 0xBE0 SWAP2 SWAP1 PUSH2 0x1FCE JUMP JUMPDEST POP PUSH1 0xE0 DUP3 ADD MLOAD DUP2 PUSH1 0x7 ADD SWAP1 DUP2 PUSH2 0xBF6 SWAP2 SWAP1 PUSH2 0x1FCE JUMP JUMPDEST POP SWAP1 POP POP PUSH1 0x2 DUP2 SWAP1 DUP1 PUSH1 0x1 DUP2 SLOAD ADD DUP1 DUP3 SSTORE DUP1 SWAP2 POP POP PUSH1 0x1 SWAP1 SUB SWAP1 PUSH1 0x0 MSTORE PUSH1 0x20 PUSH1 0x0 KECCAK256 SWAP1 PUSH1 0x8 MUL ADD PUSH1 0x0 SWAP1 SWAP2 SWAP1 SWAP2 SWAP1 SWAP2 POP PUSH1 0x0 DUP3 ADD MLOAD DUP2 PUSH1 0x0 ADD SSTORE PUSH1 0x20 DUP3 ADD MLOAD DUP2 PUSH1 0x1 ADD SSTORE PUSH1 0x40 DUP3 ADD MLOAD DUP2 PUSH1 0x2 ADD SSTORE PUSH1 0x60 DUP3 ADD MLOAD DUP2 PUSH1 0x3 ADD SWAP1 DUP2 PUSH2 0xC59 SWAP2 SWAP1 PUSH2 0x1FCE JUMP JUMPDEST POP PUSH1 0x80 DUP3 ADD MLOAD DUP2 PUSH1 0x4 ADD SSTORE PUSH1 0xA0 DUP3 ADD MLOAD DUP2 PUSH1 0x5 ADD SSTORE PUSH1 0xC0 DUP3 ADD MLOAD DUP2 PUSH1 0x6 ADD SWAP1 DUP2 PUSH2 0xC83 SWAP2 SWAP1 PUSH2 0x1FCE JUMP JUMPDEST POP PUSH1 0xE0 DUP3 ADD MLOAD DUP2 PUSH1 0x7 ADD SWAP1 DUP2 PUSH2 0xC99 SWAP2 SWAP1 PUSH2 0x1FCE JUMP JUMPDEST POP POP POP POP PUSH2 0xCB3 JUMP JUMPDEST PUSH2 0xCB2 DUP9 DUP9 DUP9 DUP9 DUP9 DUP9 DUP9 DUP9 PUSH2 0x125B JUMP JUMPDEST JUMPDEST POP POP POP POP POP POP POP POP JUMP JUMPDEST PUSH1 0x1 PUSH1 0x20 MSTORE DUP1 PUSH1 0x0 MSTORE PUSH1 0x40 PUSH1 0x0 KECCAK256 PUSH1 0x0 SWAP2 POP SWAP1 POP DUP1 PUSH1 0x0 ADD SLOAD SWAP1 DUP1 PUSH1 0x1 ADD SLOAD SWAP1 DUP1 PUSH1 0x2 ADD SLOAD SWAP1 DUP1 PUSH1 0x3 ADD DUP1 SLOAD PUSH2 0xCF2 SWAP1 PUSH2 0x1C19 JUMP JUMPDEST DUP1 PUSH1 0x1F ADD PUSH1 0x20 DUP1 SWAP2 DIV MUL PUSH1 0x20 ADD PUSH1 0x40 MLOAD SWAP1 DUP2 ADD PUSH1 0x40 MSTORE DUP1 SWAP3 SWAP2 SWAP1 DUP2 DUP2 MSTORE PUSH1 0x20 ADD DUP3 DUP1 SLOAD PUSH2 0xD1E SWAP1 PUSH2 0x1C19 JUMP JUMPDEST DUP1 ISZERO PUSH2 0xD6B JUMPI DUP1 PUSH1 0x1F LT PUSH2 0xD40 JUMPI PUSH2 0x100 DUP1 DUP4 SLOAD DIV MUL DUP4 MSTORE SWAP2 PUSH1 0x20 ADD SWAP2 PUSH2 0xD6B JUMP JUMPDEST DUP3 ADD SWAP2 SWAP1 PUSH1 0x0 MSTORE PUSH1 0x20 PUSH1 0x0 KECCAK256 SWAP1 JUMPDEST DUP2 SLOAD DUP2 MSTORE SWAP1 PUSH1 0x1 ADD SWAP1 PUSH1 0x20 ADD DUP1 DUP4 GT PUSH2 0xD4E JUMPI DUP3 SWAP1 SUB PUSH1 0x1F AND DUP3 ADD SWAP2 JUMPDEST POP POP POP POP POP SWAP1 DUP1 PUSH1 0x4 ADD SLOAD SWAP1 DUP1 PUSH1 0x5 ADD SLOAD SWAP1 DUP1 PUSH1 0x6 ADD DUP1 SLOAD PUSH2 0xD8C SWAP1 PUSH2 0x1C19 JUMP JUMPDEST DUP1 PUSH1 0x1F ADD PUSH1 0x20 DUP1 SWAP2 DIV MUL PUSH1 0x20 ADD PUSH1 0x40 MLOAD SWAP1 DUP2 ADD PUSH1 0x40 MSTORE DUP1 SWAP3 SWAP2 SWAP1 DUP2 DUP2 MSTORE PUSH1 0x20 ADD DUP3 DUP1 SLOAD PUSH2 0xDB8 SWAP1 PUSH2 0x1C19 JUMP JUMPDEST DUP1 ISZERO PUSH2 0xE05 JUMPI DUP1 PUSH1 0x1F LT PUSH2 0xDDA JUMPI PUSH2 0x100 DUP1 DUP4 SLOAD DIV MUL DUP4 MSTORE SWAP2 PUSH1 0x20 ADD SWAP2 PUSH2 0xE05 JUMP JUMPDEST DUP3 ADD SWAP2 SWAP1 PUSH1 0x0 MSTORE PUSH1 0x20 PUSH1 0x0 KECCAK256 SWAP1 JUMPDEST DUP2 SLOAD DUP2 MSTORE SWAP1 PUSH1 0x1 ADD SWAP1 PUSH1 0x20 ADD DUP1 DUP4 GT PUSH2 0xDE8 JUMPI DUP3 SWAP1 SUB PUSH1 0x1F AND DUP3 ADD SWAP2 JUMPDEST POP POP POP POP POP SWAP1 DUP1 PUSH1 0x7 ADD DUP1 SLOAD PUSH2 0xE1A SWAP1 PUSH2 0x1C19 JUMP JUMPDEST DUP1 PUSH1 0x1F ADD PUSH1 0x20 DUP1 SWAP2 DIV MUL PUSH1 0x20 ADD PUSH1 0x40 MLOAD SWAP1 DUP2 ADD PUSH1 0x40 MSTORE DUP1 SWAP3 SWAP2 SWAP1 DUP2 DUP2 MSTORE PUSH1 0x20 ADD DUP3 DUP1 SLOAD PUSH2 0xE46 SWAP1 PUSH2 0x1C19 JUMP JUMPDEST DUP1 ISZERO PUSH2 0xE93 JUMPI DUP1 PUSH1 0x1F LT PUSH2 0xE68 JUMPI PUSH2 0x100 DUP1 DUP4 SLOAD DIV MUL DUP4 MSTORE SWAP2 PUSH1 0x20 ADD SWAP2 PUSH2 0xE93 JUMP JUMPDEST DUP3 ADD SWAP2 SWAP1 PUSH1 0x0 MSTORE PUSH1 0x20 PUSH1 0x0 KECCAK256 SWAP1 JUMPDEST DUP2 SLOAD DUP2 MSTORE SWAP1 PUSH1 0x1 ADD SWAP1 PUSH1 0x20 ADD DUP1 DUP4 GT PUSH2 0xE76 JUMPI DUP3 SWAP1 SUB PUSH1 0x1F AND DUP3 ADD SWAP2 JUMPDEST POP POP POP POP POP SWAP1 POP DUP9 JUMP JUMPDEST PUSH1 0x3 DUP1 PUSH1 0x0 ADD SLOAD SWAP1 DUP1 PUSH1 0x1 ADD SLOAD SWAP1 DUP1 PUSH1 0x2 ADD SLOAD SWAP1 DUP1 PUSH1 0x3 ADD DUP1 SLOAD PUSH2 0xEC0 SWAP1 PUSH2 0x1C19 JUMP JUMPDEST DUP1 PUSH1 0x1F ADD PUSH1 0x20 DUP1 SWAP2 DIV MUL PUSH1 0x20 ADD PUSH1 0x40 MLOAD SWAP1 DUP2 ADD PUSH1 0x40 MSTORE DUP1 SWAP3 SWAP2 SWAP1 DUP2 DUP2 MSTORE PUSH1 0x20 ADD DUP3 DUP1 SLOAD PUSH2 0xEEC SWAP1 PUSH2 0x1C19 JUMP JUMPDEST DUP1 ISZERO PUSH2 0xF39 JUMPI DUP1 PUSH1 0x1F LT PUSH2 0xF0E JUMPI PUSH2 0x100 DUP1 DUP4 SLOAD DIV MUL DUP4 MSTORE SWAP2 PUSH1 0x20 ADD SWAP2 PUSH2 0xF39 JUMP JUMPDEST DUP3 ADD SWAP2 SWAP1 PUSH1 0x0 MSTORE PUSH1 0x20 PUSH1 0x0 KECCAK256 SWAP1 JUMPDEST DUP2 SLOAD DUP2 MSTORE SWAP1 PUSH1 0x1 ADD SWAP1 PUSH1 0x20 ADD DUP1 DUP4 GT PUSH2 0xF1C JUMPI DUP3 SWAP1 SUB PUSH1 0x1F AND DUP3 ADD SWAP2 JUMPDEST POP POP POP POP POP SWAP1 DUP1 PUSH1 0x4 ADD SLOAD SWAP1 DUP1 PUSH1 0x5 ADD SLOAD SWAP1 DUP1 PUSH1 0x6 ADD DUP1 SLOAD PUSH2 0xF5A SWAP1 PUSH2 0x1C19 JUMP JUMPDEST DUP1 PUSH1 0x1F ADD PUSH1 0x20 DUP1 SWAP2 DIV MUL PUSH1 0x20 ADD PUSH1 0x40 MLOAD SWAP1 DUP2 ADD PUSH1 0x40 MSTORE DUP1 SWAP3 SWAP2 SWAP1 DUP2 DUP2 MSTORE PUSH1 0x20 ADD DUP3 DUP1 SLOAD PUSH2 0xF86 SWAP1 PUSH2 0x1C19 JUMP JUMPDEST DUP1 ISZERO PUSH2 0xFD3 JUMPI DUP1 PUSH1 0x1F LT PUSH2 0xFA8 JUMPI PUSH2 0x100 DUP1 DUP4 SLOAD DIV MUL DUP4 MSTORE SWAP2 PUSH1 0x20 ADD SWAP2 PUSH2 0xFD3 JUMP JUMPDEST DUP3 ADD SWAP2 SWAP1 PUSH1 0x0 MSTORE PUSH1 0x20 PUSH1 0x0 KECCAK256 SWAP1 JUMPDEST DUP2 SLOAD DUP2 MSTORE SWAP1 PUSH1 0x1 ADD SWAP1 PUSH1 0x20 ADD DUP1 DUP4 GT PUSH2 0xFB6 JUMPI DUP3 SWAP1 SUB PUSH1 0x1F AND DUP3 ADD SWAP2 JUMPDEST POP POP POP POP POP SWAP1 DUP1 PUSH1 0x7 ADD DUP1 SLOAD PUSH2 0xFE8 SWAP1 PUSH2 0x1C19 JUMP JUMPDEST DUP1 PUSH1 0x1F ADD PUSH1 0x20 DUP1 SWAP2 DIV MUL PUSH1 0x20 ADD PUSH1 0x40 MLOAD SWAP1 DUP2 ADD PUSH1 0x40 MSTORE DUP1 SWAP3 SWAP2 SWAP1 DUP2 DUP2 MSTORE PUSH1 0x20 ADD DUP3 DUP1 SLOAD PUSH2 0x1014 SWAP1 PUSH2 0x1C19 JUMP JUMPDEST DUP1 ISZERO PUSH2 0x1061 JUMPI DUP1 PUSH1 0x1F LT PUSH2 0x1036 JUMPI PUSH2 0x100 DUP1 DUP4 SLOAD DIV MUL DUP4 MSTORE SWAP2 PUSH1 0x20 ADD SWAP2 PUSH2 0x1061 JUMP JUMPDEST DUP3 ADD SWAP2 SWAP1 PUSH1 0x0 MSTORE PUSH1 0x20 PUSH1 0x0 KECCAK256 SWAP1 JUMPDEST DUP2 SLOAD DUP2 MSTORE SWAP1 PUSH1 0x1 ADD SWAP1 PUSH1 0x20 ADD DUP1 DUP4 GT PUSH2 0x1044 JUMPI DUP3 SWAP1 SUB PUSH1 0x1F AND DUP3 ADD SWAP2 JUMPDEST POP POP POP POP POP SWAP1 POP DUP9 JUMP JUMPDEST PUSH1 0x2 DUP2 DUP2 SLOAD DUP2 LT PUSH2 0x107B JUMPI PUSH1 0x0 DUP1 REVERT JUMPDEST SWAP1 PUSH1 0x0 MSTORE PUSH1 0x20 PUSH1 0x0 KECCAK256 SWAP1 PUSH1 0x8 MUL ADD PUSH1 0x0 SWAP2 POP SWAP1 POP DUP1 PUSH1 0x0 ADD SLOAD SWAP1 DUP1 PUSH1 0x1 ADD SLOAD SWAP1 DUP1 PUSH1 0x2 ADD SLOAD SWAP1 DUP1 PUSH1 0x3 ADD DUP1 SLOAD PUSH2 0x10B0 SWAP1 PUSH2 0x1C19 JUMP JUMPDEST DUP1 PUSH1 0x1F ADD PUSH1 0x20 DUP1 SWAP2 DIV MUL PUSH1 0x20 ADD PUSH1 0x40 MLOAD SWAP1 DUP2 ADD PUSH1 0x40 MSTORE DUP1 SWAP3 SWAP2 SWAP1 DUP2 DUP2 MSTORE PUSH1 0x20 ADD DUP3 DUP1 SLOAD PUSH2 0x10DC SWAP1 PUSH2 0x1C19 JUMP JUMPDEST DUP1 ISZERO PUSH2 0x1129 JUMPI DUP1 PUSH1 0x1F LT PUSH2 0x10FE JUMPI PUSH2 0x100 DUP1 DUP4 SLOAD DIV MUL DUP4 MSTORE SWAP2 PUSH1 0x20 ADD SWAP2 PUSH2 0x1129 JUMP JUMPDEST DUP3 ADD SWAP2 SWAP1 PUSH1 0x0 MSTORE PUSH1 0x20 PUSH1 0x0 KECCAK256 SWAP1 JUMPDEST DUP2 SLOAD DUP2 MSTORE SWAP1 PUSH1 0x1 ADD SWAP1 PUSH1 0x20 ADD DUP1 DUP4 GT PUSH2 0x110C JUMPI DUP3 SWAP1 SUB PUSH1 0x1F AND DUP3 ADD SWAP2 JUMPDEST POP POP POP POP POP SWAP1 DUP1 PUSH1 0x4 ADD SLOAD SWAP1 DUP1 PUSH1 0x5 ADD SLOAD SWAP1 DUP1 PUSH1 0x6 ADD DUP1 SLOAD PUSH2 0x114A SWAP1 PUSH2 0x1C19 JUMP JUMPDEST DUP1 PUSH1 0x1F ADD PUSH1 0x20 DUP1 SWAP2 DIV MUL PUSH1 0x20 ADD PUSH1 0x40 MLOAD SWAP1 DUP2 ADD PUSH1 0x40 MSTORE DUP1 SWAP3 SWAP2 SWAP1 DUP2 DUP2 MSTORE PUSH1 0x20 ADD DUP3 DUP1 SLOAD PUSH2 0x1176 SWAP1 PUSH2 0x1C19 JUMP JUMPDEST DUP1 ISZERO PUSH2 0x11C3 JUMPI DUP1 PUSH1 0x1F LT PUSH2 0x1198 JUMPI PUSH2 0x100 DUP1 DUP4 SLOAD DIV MUL DUP4 MSTORE SWAP2 PUSH1 0x20 ADD SWAP2 PUSH2 0x11C3 JUMP JUMPDEST DUP3 ADD SWAP2 SWAP1 PUSH1 0x0 MSTORE PUSH1 0x20 PUSH1 0x0 KECCAK256 SWAP1 JUMPDEST DUP2 SLOAD DUP2 MSTORE SWAP1 PUSH1 0x1 ADD SWAP1 PUSH1 0x20 ADD DUP1 DUP4 GT PUSH2 0x11A6 JUMPI DUP3 SWAP1 SUB PUSH1 0x1F AND DUP3 ADD SWAP2 JUMPDEST POP POP POP POP POP SWAP1 DUP1 PUSH1 0x7 ADD DUP1 SLOAD PUSH2 0x11D8 SWAP1 PUSH2 0x1C19 JUMP JUMPDEST DUP1 PUSH1 0x1F ADD PUSH1 0x20 DUP1 SWAP2 DIV MUL PUSH1 0x20 ADD PUSH1 0x40 MLOAD SWAP1 DUP2 ADD PUSH1 0x40 MSTORE DUP1 SWAP3 SWAP2 SWAP1 DUP2 DUP2 MSTORE PUSH1 0x20 ADD DUP3 DUP1 SLOAD PUSH2 0x1204 SWAP1 PUSH2 0x1C19 JUMP JUMPDEST DUP1 ISZERO PUSH2 0x1251 JUMPI DUP1 PUSH1 0x1F LT PUSH2 0x1226 JUMPI PUSH2 0x100 DUP1 DUP4 SLOAD DIV MUL DUP4 MSTORE SWAP2 PUSH1 0x20 ADD SWAP2 PUSH2 0x1251 JUMP JUMPDEST DUP3 ADD SWAP2 SWAP1 PUSH1 0x0 MSTORE PUSH1 0x20 PUSH1 0x0 KECCAK256 SWAP1 JUMPDEST DUP2 SLOAD DUP2 MSTORE SWAP1 PUSH1 0x1 ADD SWAP1 PUSH1 0x20 ADD DUP1 DUP4 GT PUSH2 0x1234 JUMPI DUP3 SWAP1 SUB PUSH1 0x1F AND DUP3 ADD SWAP2 JUMPDEST POP POP POP POP POP SWAP1 POP DUP9 JUMP JUMPDEST PUSH1 0x0 DUP1 SLOAD SWAP1 PUSH2 0x100 EXP SWAP1 DIV PUSH20 0xFFFFFFFFFFFFFFFFFFFFFFFFFFFFFFFFFFFFFFFF AND PUSH20 0xFFFFFFFFFFFFFFFFFFFFFFFFFFFFFFFFFFFFFFFF AND CALLER PUSH20 0xFFFFFFFFFFFFFFFFFFFFFFFFFFFFFFFFFFFFFFFF AND EQ PUSH2 0x12B3 JUMPI PUSH1 0x0 DUP1 REVERT JUMPDEST PUSH1 0x0 PUSH1 0x1 PUSH1 0x0 DUP11 DUP2 MSTORE PUSH1 0x20 ADD SWAP1 DUP2 MSTORE PUSH1 0x20 ADD PUSH1 0x0 KECCAK256 PUSH1 0x0 ADD SLOAD SUB PUSH2 0x130C JUMPI PUSH1 0x40 MLOAD PUSH32 0x8C379A000000000000000000000000000000000000000000000000000000000 DUP2 MSTORE PUSH1 0x4 ADD PUSH2 0x1303 SWAP1 PUSH2 0x1B9B JUMP JUMPDEST PUSH1 0x40 MLOAD DUP1 SWAP2 SUB SWAP1 REVERT JUMPDEST PUSH2 0x1315 DUP9 PUSH2 0x1C7 JUMP JUMPDEST PUSH1 0x0 PUSH1 0x40 MLOAD DUP1 PUSH2 0x100 ADD PUSH1 0x40 MSTORE DUP1 DUP11 DUP2 MSTORE PUSH1 0x20 ADD DUP10 DUP2 MSTORE PUSH1 0x20 ADD DUP9 DUP2 MSTORE PUSH1 0x20 ADD DUP8 DUP2 MSTORE PUSH1 0x20 ADD DUP7 DUP2 MSTORE PUSH1 0x20 ADD DUP6 DUP2 MSTORE PUSH1 0x20 ADD DUP5 DUP2 MSTORE PUSH1 0x20 ADD DUP4 DUP2 MSTORE POP SWAP1 POP DUP1 PUSH1 0x1 PUSH1 0x0 DUP12 DUP2 MSTORE PUSH1 0x20 ADD SWAP1 DUP2 MSTORE PUSH1 0x20 ADD PUSH1 0x0 KECCAK256 PUSH1 0x0 DUP3 ADD MLOAD DUP2 PUSH1 0x0 ADD SSTORE PUSH1 0x20 DUP3 ADD MLOAD DUP2 PUSH1 0x1 ADD SSTORE PUSH1 0x40 DUP3 ADD MLOAD DUP2 PUSH1 0x2 ADD SSTORE PUSH1 0x60 DUP3 ADD MLOAD DUP2 PUSH1 0x3 ADD SWAP1 DUP2 PUSH2 0x139A SWAP2 SWAP1 PUSH2 0x1FCE JUMP JUMPDEST POP PUSH1 0x80 DUP3 ADD MLOAD DUP2 PUSH1 0x4 ADD SSTORE PUSH1 0xA0 DUP3 ADD MLOAD DUP2 PUSH1 0x5 ADD SSTORE PUSH1 0xC0 DUP3 ADD MLOAD DUP2 PUSH1 0x6 ADD SWAP1 DUP2 PUSH2 0x13C4 SWAP2 SWAP1 PUSH2 0x1FCE JUMP JUMPDEST POP PUSH1 0xE0 DUP3 ADD MLOAD DUP2 PUSH1 0x7 ADD SWAP1 DUP2 PUSH2 0x13DA SWAP2 SWAP1 PUSH2 0x1FCE JUMP JUMPDEST POP SWAP1 POP POP PUSH1 0x2 DUP2 SWAP1 DUP1 PUSH1 0x1 DUP2 SLOAD ADD DUP1 DUP3 SSTORE DUP1 SWAP2 POP POP PUSH1 0x1 SWAP1 SUB SWAP1 PUSH1 0x0 MSTORE PUSH1 0x20 PUSH1 0x0 KECCAK256 SWAP1 PUSH1 0x8 MUL ADD PUSH1 0x0 SWAP1 SWAP2 SWAP1 SWAP2 SWAP1 SWAP2 POP PUSH1 0x0 DUP3 ADD MLOAD DUP2 PUSH1 0x0 ADD SSTORE PUSH1 0x20 DUP3 ADD MLOAD DUP2 PUSH1 0x1 ADD SSTORE PUSH1 0x40 DUP3 ADD MLOAD DUP2 PUSH1 0x2 ADD SSTORE PUSH1 0x60 DUP3 ADD MLOAD DUP2 PUSH1 0x3 ADD SWAP1 DUP2 PUSH2 0x143D SWAP2 SWAP1 PUSH2 0x1FCE JUMP JUMPDEST POP PUSH1 0x80 DUP3 ADD MLOAD DUP2 PUSH1 0x4 ADD SSTORE PUSH1 0xA0 DUP3 ADD MLOAD DUP2 PUSH1 0x5 ADD SSTORE PUSH1 0xC0 DUP3 ADD MLOAD DUP2 PUSH1 0x6 ADD SWAP1 DUP2 PUSH2 0x1467 SWAP2 SWAP1 PUSH2 0x1FCE JUMP JUMPDEST POP PUSH1 0xE0 DUP3 ADD MLOAD DUP2 PUSH1 0x7 ADD SWAP1 DUP2 PUSH2 0x147D SWAP2 SWAP1 PUSH2 0x1FCE JUMP JUMPDEST POP POP POP POP POP POP POP POP POP POP POP POP JUMP JUMPDEST POP DUP1 SLOAD PUSH2 0x1497 SWAP1 PUSH2 0x1C19 JUMP JUMPDEST PUSH1 0x0 DUP3 SSTORE DUP1 PUSH1 0x1F LT PUSH2 0x14A9 JUMPI POP PUSH2 0x14C8 JUMP JUMPDEST PUSH1 0x1F ADD PUSH1 0x20 SWAP1 DIV SWAP1 PUSH1 0x0 MSTORE PUSH1 0x20 PUSH1 0x0 KECCAK256 SWAP1 DUP2 ADD SWAP1 PUSH2 0x14C7 SWAP2 SWAP1 PUSH2 0x14CB JUMP JUMPDEST JUMPDEST POP JUMP JUMPDEST JUMPDEST DUP1 DUP3 GT ISZERO PUSH2 0x14E4 JUMPI PUSH1 0x0 DUP2 PUSH1 0x0 SWAP1 SSTORE POP PUSH1 0x1 ADD PUSH2 0x14CC JUMP JUMPDEST POP SWAP1 JUMP JUMPDEST PUSH1 0x0 PUSH1 0x40 MLOAD SWAP1 POP SWAP1 JUMP JUMPDEST PUSH1 0x0 DUP1 REVERT JUMPDEST PUSH1 0x0 DUP1 REVERT JUMPDEST PUSH1 0x0 DUP2 SWAP1 POP SWAP2 SWAP1 POP JUMP JUMPDEST PUSH2 0x150F DUP2 PUSH2 0x14FC JUMP JUMPDEST DUP2 EQ PUSH2 0x151A JUMPI PUSH1 0x0 DUP1 REVERT JUMPDEST POP JUMP JUMPDEST PUSH1 0x0 DUP2 CALLDATALOAD SWAP1 POP PUSH2 0x152C DUP2 PUSH2 0x1506 JUMP JUMPDEST SWAP3 SWAP2 POP POP JUMP JUMPDEST PUSH1 0x0 PUSH1 0x20 DUP3 DUP5 SUB SLT ISZERO PUSH2 0x1548 JUMPI PUSH2 0x1547 PUSH2 0x14F2 JUMP JUMPDEST JUMPDEST PUSH1 0x0 PUSH2 0x1556 DUP5 DUP3 DUP6 ADD PUSH2 0x151D JUMP JUMPDEST SWAP2 POP POP SWAP3 SWAP2 POP POP JUMP JUMPDEST PUSH1 0x0 DUP2 MLOAD SWAP1 POP SWAP2 SWAP1 POP JUMP JUMPDEST PUSH1 0x0 DUP3 DUP3 MSTORE PUSH1 0x20 DUP3 ADD SWAP1 POP SWAP3 SWAP2 POP POP JUMP JUMPDEST PUSH1 0x0 DUP2 SWAP1 POP PUSH1 0x20 DUP3 ADD SWAP1 POP SWAP2 SWAP1 POP JUMP JUMPDEST PUSH2 0x1594 DUP2 PUSH2 0x14FC JUMP JUMPDEST DUP3 MSTORE POP POP JUMP JUMPDEST PUSH1 0x0 DUP2 MLOAD SWAP1 POP SWAP2 SWAP1 POP JUMP JUMPDEST PUSH1 0x0 DUP3 DUP3 MSTORE PUSH1 0x20 DUP3 ADD SWAP1 POP SWAP3 SWAP2 POP POP JUMP JUMPDEST PUSH1 0x0 JUMPDEST DUP4 DUP2 LT ISZERO PUSH2 0x15D4 JUMPI DUP1 DUP3 ADD MLOAD DUP2 DUP5 ADD MSTORE PUSH1 0x20 DUP2 ADD SWAP1 POP PUSH2 0x15B9 JUMP JUMPDEST PUSH1 0x0 DUP5 DUP5 ADD MSTORE POP POP POP POP JUMP JUMPDEST PUSH1 0x0 PUSH1 0x1F NOT PUSH1 0x1F DUP4 ADD AND SWAP1 POP SWAP2 SWAP1 POP JUMP JUMPDEST PUSH1 0x0 PUSH2 0x15FC DUP3 PUSH2 0x159A JUMP JUMPDEST PUSH2 0x1606 DUP2 DUP6 PUSH2 0x15A5 JUMP JUMPDEST SWAP4 POP PUSH2 0x1616 DUP2 DUP6 PUSH1 0x20 DUP7 ADD PUSH2 0x15B6 JUMP JUMPDEST PUSH2 0x161F DUP2 PUSH2 0x15E0 JUMP JUMPDEST DUP5 ADD SWAP2 POP POP SWAP3 SWAP2 POP POP JUMP JUMPDEST PUSH1 0x0 PUSH2 0x100 DUP4 ADD PUSH1 0x0 DUP4 ADD MLOAD PUSH2 0x1643 PUSH1 0x0 DUP7 ADD DUP3 PUSH2 0x158B JUMP JUMPDEST POP PUSH1 0x20 DUP4 ADD MLOAD PUSH2 0x1656 PUSH1 0x20 DUP7 ADD DUP3 PUSH2 0x158B JUMP JUMPDEST POP PUSH1 0x40 DUP4 ADD MLOAD PUSH2 0x1669 PUSH1 0x40 DUP7 ADD DUP3 PUSH2 0x158B JUMP JUMPDEST POP PUSH1 0x60 DUP4 ADD MLOAD DUP5 DUP3 SUB PUSH1 0x60 DUP7 ADD MSTORE PUSH2 0x1681 DUP3 DUP3 PUSH2 0x15F1 JUMP JUMPDEST SWAP2 POP POP PUSH1 0x80 DUP4 ADD MLOAD PUSH2 0x1696 PUSH1 0x80 DUP7 ADD DUP3 PUSH2 0x158B JUMP JUMPDEST POP PUSH1 0xA0 DUP4 ADD MLOAD PUSH2 0x16A9 PUSH1 0xA0 DUP7 ADD DUP3 PUSH2 0x158B JUMP JUMPDEST POP PUSH1 0xC0 DUP4 ADD MLOAD DUP5 DUP3 SUB PUSH1 0xC0 DUP7 ADD MSTORE PUSH2 0x16C1 DUP3 DUP3 PUSH2 0x15F1 JUMP JUMPDEST SWAP2 POP POP PUSH1 0xE0 DUP4 ADD MLOAD DUP5 DUP3 SUB PUSH1 0xE0 DUP7 ADD MSTORE PUSH2 0x16DB DUP3 DUP3 PUSH2 0x15F1 JUMP JUMPDEST SWAP2 POP POP DUP1 SWAP2 POP POP SWAP3 SWAP2 POP POP JUMP JUMPDEST PUSH1 0x0 PUSH2 0x16F4 DUP4 DUP4 PUSH2 0x162A JUMP JUMPDEST SWAP1 POP SWAP3 SWAP2 POP POP JUMP JUMPDEST PUSH1 0x0 PUSH1 0x20 DUP3 ADD SWAP1 POP SWAP2 SWAP1 POP JUMP JUMPDEST PUSH1 0x0 PUSH2 0x1714 DUP3 PUSH2 0x155F JUMP JUMPDEST PUSH2 0x171E DUP2 DUP6 PUSH2 0x156A JUMP JUMPDEST SWAP4 POP DUP4 PUSH1 0x20 DUP3 MUL DUP6 ADD PUSH2 0x1730 DUP6 PUSH2 0x157B JUMP JUMPDEST DUP1 PUSH1 0x0 JUMPDEST DUP6 DUP2 LT ISZERO PUSH2 0x176C JUMPI DUP5 DUP5 SUB DUP10 MSTORE DUP2 MLOAD PUSH2 0x174D DUP6 DUP3 PUSH2 0x16E8 JUMP JUMPDEST SWAP5 POP PUSH2 0x1758 DUP4 PUSH2 0x16FC JUMP JUMPDEST SWAP3 POP PUSH1 0x20 DUP11 ADD SWAP10 POP POP PUSH1 0x1 DUP2 ADD SWAP1 POP PUSH2 0x1734 JUMP JUMPDEST POP DUP3 SWAP8 POP DUP8 SWAP6 POP POP POP POP POP POP SWAP3 SWAP2 POP POP JUMP JUMPDEST PUSH1 0x0 PUSH1 0x20 DUP3 ADD SWAP1 POP DUP2 DUP2 SUB PUSH1 0x0 DUP4 ADD MSTORE PUSH2 0x1798 DUP2 DUP5 PUSH2 0x1709 JUMP JUMPDEST SWAP1 POP SWAP3 SWAP2 POP POP JUMP JUMPDEST PUSH2 0x17A9 DUP2 PUSH2 0x14FC JUMP JUMPDEST DUP3 MSTORE POP POP JUMP JUMPDEST PUSH1 0x0 DUP3 DUP3 MSTORE PUSH1 0x20 DUP3 ADD SWAP1 POP SWAP3 SWAP2 POP POP JUMP JUMPDEST PUSH1 0x0 PUSH2 0x17CB DUP3 PUSH2 0x159A JUMP JUMPDEST PUSH2 0x17D5 DUP2 DUP6 PUSH2 0x17AF JUMP JUMPDEST SWAP4 POP PUSH2 0x17E5 DUP2 DUP6 PUSH1 0x20 DUP7 ADD PUSH2 0x15B6 JUMP JUMPDEST PUSH2 0x17EE DUP2 PUSH2 0x15E0 JUMP JUMPDEST DUP5 ADD SWAP2 POP POP SWAP3 SWAP2 POP POP JUMP JUMPDEST PUSH1 0x0 PUSH1 0xE0 DUP3 ADD SWAP1 POP PUSH2 0x180E PUSH1 0x0 DUP4 ADD DUP11 PUSH2 0x17A0 JUMP JUMPDEST PUSH2 0x181B PUSH1 0x20 DUP4 ADD DUP10 PUSH2 0x17A0 JUMP JUMPDEST DUP2 DUP2 SUB PUSH1 0x40 DUP4 ADD MSTORE PUSH2 0x182D DUP2 DUP9 PUSH2 0x17C0 JUMP JUMPDEST SWAP1 POP PUSH2 0x183C PUSH1 0x60 DUP4 ADD DUP8 PUSH2 0x17A0 JUMP JUMPDEST PUSH2 0x1849 PUSH1 0x80 DUP4 ADD DUP7 PUSH2 0x17A0 JUMP JUMPDEST DUP2 DUP2 SUB PUSH1 0xA0 DUP4 ADD MSTORE PUSH2 0x185B DUP2 DUP6 PUSH2 0x17C0 JUMP JUMPDEST SWAP1 POP DUP2 DUP2 SUB PUSH1 0xC0 DUP4 ADD MSTORE PUSH2 0x186F DUP2 DUP5 PUSH2 0x17C0 JUMP JUMPDEST SWAP1 POP SWAP9 SWAP8 POP POP POP POP POP POP POP POP JUMP JUMPDEST PUSH1 0x0 DUP1 REVERT JUMPDEST PUSH1 0x0 DUP1 REVERT JUMPDEST PUSH32 0x4E487B7100000000000000000000000000000000000000000000000000000000 PUSH1 0x0 MSTORE PUSH1 0x41 PUSH1 0x4 MSTORE PUSH1 0x24 PUSH1 0x0 REVERT JUMPDEST PUSH2 0x18BF DUP3 PUSH2 0x15E0 JUMP JUMPDEST DUP2 ADD DUP2 DUP2 LT PUSH8 0xFFFFFFFFFFFFFFFF DUP3 GT OR ISZERO PUSH2 0x18DE JUMPI PUSH2 0x18DD PUSH2 0x1887 JUMP JUMPDEST JUMPDEST DUP1 PUSH1 0x40 MSTORE POP POP POP JUMP JUMPDEST PUSH1 0x0 PUSH2 0x18F1 PUSH2 0x14E8 JUMP JUMPDEST SWAP1 POP PUSH2 0x18FD DUP3 DUP3 PUSH2 0x18B6 JUMP JUMPDEST SWAP2 SWAP1 POP JUMP JUMPDEST PUSH1 0x0 PUSH8 0xFFFFFFFFFFFFFFFF DUP3 GT ISZERO PUSH2 0x191D JUMPI PUSH2 0x191C PUSH2 0x1887 JUMP JUMPDEST JUMPDEST PUSH2 0x1926 DUP3 PUSH2 0x15E0 JUMP JUMPDEST SWAP1 POP PUSH1 0x20 DUP2 ADD SWAP1 POP SWAP2 SWAP1 POP JUMP JUMPDEST DUP3 DUP2 DUP4 CALLDATACOPY PUSH1 0x0 DUP4 DUP4 ADD MSTORE POP POP POP JUMP JUMPDEST PUSH1 0x0 PUSH2 0x1955 PUSH2 0x1950 DUP5 PUSH2 0x1902 JUMP JUMPDEST PUSH2 0x18E7 JUMP JUMPDEST SWAP1 POP DUP3 DUP2 MSTORE PUSH1 0x20 DUP2 ADD DUP5 DUP5 DUP5 ADD GT ISZERO PUSH2 0x1971 JUMPI PUSH2 0x1970 PUSH2 0x1882 JUMP JUMPDEST JUMPDEST PUSH2 0x197C DUP5 DUP3 DUP6 PUSH2 0x1933 JUMP JUMPDEST POP SWAP4 SWAP3 POP POP POP JUMP JUMPDEST PUSH1 0x0 DUP3 PUSH1 0x1F DUP4 ADD SLT PUSH2 0x1999 JUMPI PUSH2 0x1998 PUSH2 0x187D JUMP JUMPDEST JUMPDEST DUP2 CALLDATALOAD PUSH2 0x19A9 DUP5 DUP3 PUSH1 0x20 DUP7 ADD PUSH2 0x1942 JUMP JUMPDEST SWAP2 POP POP SWAP3 SWAP2 POP POP JUMP JUMPDEST PUSH1 0x0 DUP1 PUSH1 0x0 DUP1 PUSH1 0x0 DUP1 PUSH1 0x0 DUP1 PUSH2 0x100 DUP10 DUP12 SUB SLT ISZERO PUSH2 0x19D3 JUMPI PUSH2 0x19D2 PUSH2 0x14F2 JUMP JUMPDEST JUMPDEST PUSH1 0x0 PUSH2 0x19E1 DUP12 DUP3 DUP13 ADD PUSH2 0x151D JUMP JUMPDEST SWAP9 POP POP PUSH1 0x20 PUSH2 0x19F2 DUP12 DUP3 DUP13 ADD PUSH2 0x151D JUMP JUMPDEST SWAP8 POP POP PUSH1 0x40 PUSH2 0x1A03 DUP12 DUP3 DUP13 ADD PUSH2 0x151D JUMP JUMPDEST SWAP7 POP POP PUSH1 0x60 DUP10 ADD CALLDATALOAD PUSH8 0xFFFFFFFFFFFFFFFF DUP2 GT ISZERO PUSH2 0x1A24 JUMPI PUSH2 0x1A23 PUSH2 0x14F7 JUMP JUMPDEST JUMPDEST PUSH2 0x1A30 DUP12 DUP3 DUP13 ADD PUSH2 0x1984 JUMP JUMPDEST SWAP6 POP POP PUSH1 0x80 PUSH2 0x1A41 DUP12 DUP3 DUP13 ADD PUSH2 0x151D JUMP JUMPDEST SWAP5 POP POP PUSH1 0xA0 PUSH2 0x1A52 DUP12 DUP3 DUP13 ADD PUSH2 0x151D JUMP JUMPDEST SWAP4 POP POP PUSH1 0xC0 DUP10 ADD CALLDATALOAD PUSH8 0xFFFFFFFFFFFFFFFF DUP2 GT ISZERO PUSH2 0x1A73 JUMPI PUSH2 0x1A72 PUSH2 0x14F7 JUMP JUMPDEST JUMPDEST PUSH2 0x1A7F DUP12 DUP3 DUP13 ADD PUSH2 0x1984 JUMP JUMPDEST SWAP3 POP POP PUSH1 0xE0 DUP10 ADD CALLDATALOAD PUSH8 0xFFFFFFFFFFFFFFFF DUP2 GT ISZERO PUSH2 0x1AA0 JUMPI PUSH2 0x1A9F PUSH2 0x14F7 JUMP JUMPDEST JUMPDEST PUSH2 0x1AAC DUP12 DUP3 DUP13 ADD PUSH2 0x1984 JUMP JUMPDEST SWAP2 POP POP SWAP3 SWAP6 SWAP9 POP SWAP3 SWAP6 SWAP9 SWAP1 SWAP4 SWAP7 POP JUMP JUMPDEST PUSH1 0x0 PUSH2 0x100 DUP3 ADD SWAP1 POP PUSH2 0x1AD2 PUSH1 0x0 DUP4 ADD DUP12 PUSH2 0x17A0 JUMP JUMPDEST PUSH2 0x1ADF PUSH1 0x20 DUP4 ADD DUP11 PUSH2 0x17A0 JUMP JUMPDEST PUSH2 0x1AEC PUSH1 0x40 DUP4 ADD DUP10 PUSH2 0x17A0 JUMP JUMPDEST DUP2 DUP2 SUB PUSH1 0x60 DUP4 ADD MSTORE PUSH2 0x1AFE DUP2 DUP9 PUSH2 0x17C0 JUMP JUMPDEST SWAP1 POP PUSH2 0x1B0D PUSH1 0x80 DUP4 ADD DUP8 PUSH2 0x17A0 JUMP JUMPDEST PUSH2 0x1B1A PUSH1 0xA0 DUP4 ADD DUP7 PUSH2 0x17A0 JUMP JUMPDEST DUP2 DUP2 SUB PUSH1 0xC0 DUP4 ADD MSTORE PUSH2 0x1B2C DUP2 DUP6 PUSH2 0x17C0 JUMP JUMPDEST SWAP1 POP DUP2 DUP2 SUB PUSH1 0xE0 DUP4 ADD MSTORE PUSH2 0x1B40 DUP2 DUP5 PUSH2 0x17C0 JUMP JUMPDEST SWAP1 POP SWAP10 SWAP9 POP POP POP POP POP POP POP POP POP JUMP JUMPDEST PUSH32 0x5472616E73616374696F6E206973206E6F7420617661696C61626C6500000000 PUSH1 0x0 DUP3 ADD MSTORE POP JUMP JUMPDEST PUSH1 0x0 PUSH2 0x1B85 PUSH1 0x1C DUP4 PUSH2 0x17AF JUMP JUMPDEST SWAP2 POP PUSH2 0x1B90 DUP3 PUSH2 0x1B4F JUMP JUMPDEST PUSH1 0x20 DUP3 ADD SWAP1 POP SWAP2 SWAP1 POP JUMP JUMPDEST PUSH1 0x0 PUSH1 0x20 DUP3 ADD SWAP1 POP DUP2 DUP2 SUB PUSH1 0x0 DUP4 ADD MSTORE PUSH2 0x1BB4 DUP2 PUSH2 0x1B78 JUMP JUMPDEST SWAP1 POP SWAP2 SWAP1 POP JUMP JUMPDEST PUSH32 0x4E487B7100000000000000000000000000000000000000000000000000000000 PUSH1 0x0 MSTORE PUSH1 0x32 PUSH1 0x4 MSTORE PUSH1 0x24 PUSH1 0x0 REVERT JUMPDEST PUSH32 0x4E487B7100000000000000000000000000000000000000000000000000000000 PUSH1 0x0 MSTORE PUSH1 0x22 PUSH1 0x4 MSTORE PUSH1 0x24 PUSH1 0x0 REVERT JUMPDEST PUSH1 0x0 PUSH1 0x2 DUP3 DIV SWAP1 POP PUSH1 0x1 DUP3 AND DUP1 PUSH2 0x1C31 JUMPI PUSH1 0x7F DUP3 AND SWAP2 POP JUMPDEST PUSH1 0x20 DUP3 LT DUP2 SUB PUSH2 0x1C44 JUMPI PUSH2 0x1C43 PUSH2 0x1BEA JUMP JUMPDEST JUMPDEST POP SWAP2 SWAP1 POP JUMP JUMPDEST PUSH1 0x0 DUP2 SLOAD SWAP1 POP PUSH2 0x1C59 DUP2 PUSH2 0x1C19 JUMP JUMPDEST SWAP1 POP SWAP2 SWAP1 POP JUMP JUMPDEST PUSH1 0x0 DUP2 SWAP1 POP DUP2 PUSH1 0x0 MSTORE PUSH1 0x20 PUSH1 0x0 KECCAK256 SWAP1 POP SWAP2 SWAP1 POP JUMP JUMPDEST PUSH1 0x0 PUSH1 0x20 PUSH1 0x1F DUP4 ADD DIV SWAP1 POP SWAP2 SWAP1 POP JUMP JUMPDEST PUSH1 0x0 DUP3 DUP3 SHL SWAP1 POP SWAP3 SWAP2 POP POP JUMP JUMPDEST PUSH1 0x0 PUSH1 0x8 DUP4 MUL PUSH2 0x1CC2 PUSH32 0xFFFFFFFFFFFFFFFFFFFFFFFFFFFFFFFFFFFFFFFFFFFFFFFFFFFFFFFFFFFFFFFF DUP3 PUSH2 0x1C85 JUMP JUMPDEST PUSH2 0x1CCC DUP7 DUP4 PUSH2 0x1C85 JUMP JUMPDEST SWAP6 POP DUP1 NOT DUP5 AND SWAP4 POP DUP1 DUP7 AND DUP5 OR SWAP3 POP POP POP SWAP4 SWAP3 POP POP POP JUMP JUMPDEST PUSH1 0x0 DUP2 SWAP1 POP SWAP2 SWAP1 POP JUMP JUMPDEST PUSH1 0x0 PUSH2 0x1D09 PUSH2 0x1D04 PUSH2 0x1CFF DUP5 PUSH2 0x14FC JUMP JUMPDEST PUSH2 0x1CE4 JUMP JUMPDEST PUSH2 0x14FC JUMP JUMPDEST SWAP1 POP SWAP2 SWAP1 POP JUMP JUMPDEST PUSH1 0x0 DUP2 SWAP1 POP SWAP2 SWAP1 POP JUMP JUMPDEST PUSH2 0x1D23 DUP4 PUSH2 0x1CEE JUMP JUMPDEST PUSH2 0x1D37 PUSH2 0x1D2F DUP3 PUSH2 0x1D10 JUMP JUMPDEST DUP5 DUP5 SLOAD PUSH2 0x1C92 JUMP JUMPDEST DUP3 SSTORE POP POP POP POP JUMP JUMPDEST PUSH1 0x0 SWAP1 JUMP JUMPDEST PUSH2 0x1D4C PUSH2 0x1D3F JUMP JUMPDEST PUSH2 0x1D57 DUP2 DUP5 DUP5 PUSH2 0x1D1A JUMP JUMPDEST POP POP POP JUMP JUMPDEST JUMPDEST DUP2 DUP2 LT ISZERO PUSH2 0x1D7B JUMPI PUSH2 0x1D70 PUSH1 0x0 DUP3 PUSH2 0x1D44 JUMP JUMPDEST PUSH1 0x1 DUP2 ADD SWAP1 POP PUSH2 0x1D5D JUMP JUMPDEST POP POP JUMP JUMPDEST PUSH1 0x1F DUP3 GT ISZERO PUSH2 0x1DC0 JUMPI PUSH2 0x1D91 DUP2 PUSH2 0x1C60 JUMP JUMPDEST PUSH2 0x1D9A DUP5 PUSH2 0x1C75 JUMP JUMPDEST DUP2 ADD PUSH1 0x20 DUP6 LT ISZERO PUSH2 0x1DA9 JUMPI DUP2 SWAP1 POP JUMPDEST PUSH2 0x1DBD PUSH2 0x1DB5 DUP6 PUSH2 0x1C75 JUMP JUMPDEST DUP4 ADD DUP3 PUSH2 0x1D5C JUMP JUMPDEST POP POP JUMPDEST POP POP POP JUMP JUMPDEST PUSH1 0x0 DUP3 DUP3 SHR SWAP1 POP SWAP3 SWAP2 POP POP JUMP JUMPDEST PUSH1 0x0 PUSH2 0x1DE3 PUSH1 0x0 NOT DUP5 PUSH1 0x8 MUL PUSH2 0x1DC5 JUMP JUMPDEST NOT DUP1 DUP4 AND SWAP2 POP POP SWAP3 SWAP2 POP POP JUMP JUMPDEST PUSH1 0x0 PUSH2 0x1DFC DUP4 DUP4 PUSH2 0x1DD2 JUMP JUMPDEST SWAP2 POP DUP3 PUSH1 0x2 MUL DUP3 OR SWAP1 POP SWAP3 SWAP2 POP POP JUMP JUMPDEST DUP2 DUP2 SUB PUSH2 0x1E1A JUMPI POP POP PUSH2 0x1EF2 JUMP JUMPDEST PUSH2 0x1E23 DUP3 PUSH2 0x1C4A JUMP JUMPDEST PUSH8 0xFFFFFFFFFFFFFFFF DUP2 GT ISZERO PUSH2 0x1E3C JUMPI PUSH2 0x1E3B PUSH2 0x1887 JUMP JUMPDEST JUMPDEST PUSH2 0x1E46 DUP3 SLOAD PUSH2 0x1C19 JUMP JUMPDEST PUSH2 0x1E51 DUP3 DUP3 DUP6 PUSH2 0x1D7F JUMP JUMPDEST PUSH1 0x0 PUSH1 0x1F DUP4 GT PUSH1 0x1 DUP2 EQ PUSH2 0x1E80 JUMPI PUSH1 0x0 DUP5 ISZERO PUSH2 0x1E6E JUMPI DUP3 DUP8 ADD SLOAD SWAP1 POP JUMPDEST PUSH2 0x1E78 DUP6 DUP3 PUSH2 0x1DF0 JUMP JUMPDEST DUP7 SSTORE POP PUSH2 0x1EEB JUMP JUMPDEST PUSH1 0x1F NOT DUP5 AND PUSH2 0x1E8E DUP8 PUSH2 0x1C60 JUMP JUMPDEST SWAP7 POP PUSH2 0x1E99 DUP7 PUSH2 0x1C60 JUMP JUMPDEST PUSH1 0x0 JUMPDEST DUP3 DUP2 LT ISZERO PUSH2 0x1EC1 JUMPI DUP5 DUP10 ADD SLOAD DUP3 SSTORE PUSH1 0x1 DUP3 ADD SWAP2 POP PUSH1 0x1 DUP6 ADD SWAP5 POP PUSH1 0x20 DUP2 ADD SWAP1 POP PUSH2 0x1E9C JUMP JUMPDEST DUP7 DUP4 LT ISZERO PUSH2 0x1EDE JUMPI DUP5 DUP10 ADD SLOAD PUSH2 0x1EDA PUSH1 0x1F DUP10 AND DUP3 PUSH2 0x1DD2 JUMP JUMPDEST DUP4 SSTORE POP JUMPDEST PUSH1 0x1 PUSH1 0x2 DUP9 MUL ADD DUP9 SSTORE POP POP POP JUMPDEST POP POP POP POP POP POP JUMPDEST JUMP JUMPDEST PUSH32 0x4E487B7100000000000000000000000000000000000000000000000000000000 PUSH1 0x0 MSTORE PUSH1 0x11 PUSH1 0x4 MSTORE PUSH1 0x24 PUSH1 0x0 REVERT JUMPDEST PUSH1 0x0 PUSH2 0x1F2E DUP3 PUSH2 0x14FC JUMP JUMPDEST SWAP2 POP PUSH2 0x1F39 DUP4 PUSH2 0x14FC JUMP JUMPDEST SWAP3 POP DUP3 DUP3 SUB SWAP1 POP DUP2 DUP2 GT ISZERO PUSH2 0x1F51 JUMPI PUSH2 0x1F50 PUSH2 0x1EF4 JUMP JUMPDEST JUMPDEST SWAP3 SWAP2 POP POP JUMP JUMPDEST PUSH1 0x0 PUSH2 0x1F62 DUP3 PUSH2 0x14FC JUMP JUMPDEST SWAP2 POP PUSH32 0xFFFFFFFFFFFFFFFFFFFFFFFFFFFFFFFFFFFFFFFFFFFFFFFFFFFFFFFFFFFFFFFF DUP3 SUB PUSH2 0x1F94 JUMPI PUSH2 0x1F93 PUSH2 0x1EF4 JUMP JUMPDEST JUMPDEST PUSH1 0x1 DUP3 ADD SWAP1 POP SWAP2 SWAP1 POP JUMP JUMPDEST PUSH32 0x4E487B7100000000000000000000000000000000000000000000000000000000 PUSH1 0x0 MSTORE PUSH1 0x31 PUSH1 0x4 MSTORE PUSH1 0x24 PUSH1 0x0 REVERT JUMPDEST PUSH2 0x1FD7 DUP3 PUSH2 0x159A JUMP JUMPDEST PUSH8 0xFFFFFFFFFFFFFFFF DUP2 GT ISZERO PUSH2 0x1FF0 JUMPI PUSH2 0x1FEF PUSH2 0x1887 JUMP JUMPDEST JUMPDEST PUSH2 0x1FFA DUP3 SLOAD PUSH2 0x1C19 JUMP JUMPDEST PUSH2 0x2005 DUP3 DUP3 DUP6 PUSH2 0x1D7F JUMP JUMPDEST PUSH1 0x0 PUSH1 0x20 SWAP1 POP PUSH1 0x1F DUP4 GT PUSH1 0x1 DUP2 EQ PUSH2 0x2038 JUMPI PUSH1 0x0 DUP5 ISZERO PUSH2 0x2026 JUMPI DUP3 DUP8 ADD MLOAD SWAP1 POP JUMPDEST PUSH2 0x2030 DUP6 DUP3 PUSH2 0x1DF0 JUMP JUMPDEST DUP7 SSTORE POP PUSH2 0x2098 JUMP JUMPDEST PUSH1 0x1F NOT DUP5 AND PUSH2 0x2046 DUP7 PUSH2 0x1C60 JUMP JUMPDEST PUSH1 0x0 JUMPDEST DUP3 DUP2 LT ISZERO PUSH2 0x206E JUMPI DUP5 DUP10 ADD MLOAD DUP3 SSTORE PUSH1 0x1 DUP3 ADD SWAP2 POP PUSH1 0x20 DUP6 ADD SWAP5 POP PUSH1 0x20 DUP2 ADD SWAP1 POP PUSH2 0x2049 JUMP JUMPDEST DUP7 DUP4 LT ISZERO PUSH2 0x208B JUMPI DUP5 DUP10 ADD MLOAD PUSH2 0x2087 PUSH1 0x1F DUP10 AND DUP3 PUSH2 0x1DD2 JUMP JUMPDEST DUP4 SSTORE POP JUMPDEST PUSH1 0x1 PUSH1 0x2 DUP9 MUL ADD DUP9 SSTORE POP POP POP JUMPDEST POP POP POP POP POP POP JUMP INVALID LOG2 PUSH5 0x6970667358 0x22 SLT KECCAK256 SWAP13 0xA5 SWAP10 0xBA DUP5 0xE4 0x2E SWAP9 CODECOPY POP SWAP2 0xDF JUMPI SWAP13 0xD5 PUSH21 0xCFA4BFBBF9CA553D92213C033F1FD50E64736F6C63 NUMBER STOP ADDMOD SLT STOP CALLER "
				},
				"gasEstimates": {
					"creation": {
						"codeDepositCost": "1681200",
						"executionCost": "26030",
						"totalCost": "1707230"
					},
					"external": {
						"deleteTransaction(uint256)": "infinite",
						"getAllTransactions()": "infinite",
						"getTransaction(uint256)": "infinite",
						"removeMe()": "infinite",
						"setTransaction(uint256,uint256,uint256,string,uint256,uint256,string,string)": "infinite",
						"transactionArray(uint256)": "infinite",
						"transactions(uint256)": "infinite",
						"updateTransaction(uint256,uint256,uint256,string,uint256,uint256,string,string)": "infinite"
					}
				},
				"methodIdentifiers": {
					"deleteTransaction(uint256)": "00e9c006",
					"getAllTransactions()": "27506f53",
					"getTransaction(uint256)": "33ea3dc8",
					"removeMe()": "9d08f4a9",
					"setTransaction(uint256,uint256,uint256,string,uint256,uint256,string,string)": "93691e0a",
					"transactionArray(uint256)": "c82ef8fb",
					"transactions(uint256)": "9ace38c2",
					"updateTransaction(uint256,uint256,uint256,string,uint256,uint256,string,string)": "f80ad0b6"
				}
			},
			"storageLayout": {
				"storage": [
					{
						"astId": 20,
						"contract": "contracts/transactionData.sol:TransactionData",
						"label": "owner",
						"offset": 0,
						"slot": "0",
						"type": "t_address"
					},
					{
						"astId": 25,
						"contract": "contracts/transactionData.sol:TransactionData",
						"label": "transactions",
						"offset": 0,
						"slot": "1",
						"type": "t_mapping(t_uint256,t_struct(Transaction)18_storage)"
					},
					{
						"astId": 29,
						"contract": "contracts/transactionData.sol:TransactionData",
						"label": "transactionArray",
						"offset": 0,
						"slot": "2",
						"type": "t_array(t_struct(Transaction)18_storage)dyn_storage"
					},
					{
						"astId": 245,
						"contract": "contracts/transactionData.sol:TransactionData",
						"label": "removeMe",
						"offset": 0,
						"slot": "3",
						"type": "t_struct(Transaction)18_storage"
					}
				],
				"types": {
					"t_address": {
						"encoding": "inplace",
						"label": "address",
						"numberOfBytes": "20"
					},
					"t_array(t_struct(Transaction)18_storage)dyn_storage": {
						"base": "t_struct(Transaction)18_storage",
						"encoding": "dynamic_array",
						"label": "struct TransactionData.Transaction[]",
						"numberOfBytes": "32"
					},
					"t_mapping(t_uint256,t_struct(Transaction)18_storage)": {
						"encoding": "mapping",
						"key": "t_uint256",
						"label": "mapping(uint256 => struct TransactionData.Transaction)",
						"numberOfBytes": "32",
						"value": "t_struct(Transaction)18_storage"
					},
					"t_string_storage": {
						"encoding": "bytes",
						"label": "string",
						"numberOfBytes": "32"
					},
					"t_struct(Transaction)18_storage": {
						"encoding": "inplace",
						"label": "struct TransactionData.Transaction",
						"members": [
							{
								"astId": 3,
								"contract": "contracts/transactionData.sol:TransactionData",
								"label": "transactionID",
								"offset": 0,
								"slot": "0",
								"type": "t_uint256"
							},
							{
								"astId": 5,
								"contract": "contracts/transactionData.sol:TransactionData",
								"label": "userID",
								"offset": 0,
								"slot": "1",
								"type": "t_uint256"
							},
							{
								"astId": 7,
								"contract": "contracts/transactionData.sol:TransactionData",
								"label": "productID",
								"offset": 0,
								"slot": "2",
								"type": "t_uint256"
							},
							{
								"astId": 9,
								"contract": "contracts/transactionData.sol:TransactionData",
								"label": "productName",
								"offset": 0,
								"slot": "3",
								"type": "t_string_storage"
							},
							{
								"astId": 11,
								"contract": "contracts/transactionData.sol:TransactionData",
								"label": "amount",
								"offset": 0,
								"slot": "4",
								"type": "t_uint256"
							},
							{
								"astId": 13,
								"contract": "contracts/transactionData.sol:TransactionData",
								"label": "unitPrice",
								"offset": 0,
								"slot": "5",
								"type": "t_uint256"
							},
							{
								"astId": 15,
								"contract": "contracts/transactionData.sol:TransactionData",
								"label": "dateTime",
								"offset": 0,
								"slot": "6",
								"type": "t_string_storage"
							},
							{
								"astId": 17,
								"contract": "contracts/transactionData.sol:TransactionData",
								"label": "status",
								"offset": 0,
								"slot": "7",
								"type": "t_string_storage"
							}
						],
						"numberOfBytes": "256"
					},
					"t_uint256": {
						"encoding": "inplace",
						"label": "uint256",
						"numberOfBytes": "32"
					}
				}
			},
			"userdoc": {
				"kind": "user",
				"methods": {},
				"version": 1
			}
		}
	}
}