{
  "contractName": "TransactionData",
  "abi": [
    {
      "inputs": [],
      "stateMutability": "nonpayable",
      "type": "constructor"
    },
    {
      "inputs": [],
      "name": "removeMe",
      "outputs": [
        {
          "internalType": "uint256",
          "name": "transactionID",
          "type": "uint256"
        },
        {
          "internalType": "uint256",
          "name": "userID",
          "type": "uint256"
        },
        {
          "internalType": "uint256",
          "name": "productID",
          "type": "uint256"
        },
        {
          "internalType": "string",
          "name": "productName",
          "type": "string"
        },
        {
          "internalType": "uint256",
          "name": "amount",
          "type": "uint256"
        },
        {
          "internalType": "uint256",
          "name": "unitPrice",
          "type": "uint256"
        },
        {
          "internalType": "string",
          "name": "dateTime",
          "type": "string"
        },
        {
          "internalType": "string",
          "name": "status",
          "type": "string"
        }
      ],
      "stateMutability": "view",
      "type": "function",
      "constant": true
    },
    {
      "inputs": [
        {
          "internalType": "uint256",
          "name": "",
          "type": "uint256"
        }
      ],
      "name": "transactionArray",
      "outputs": [
        {
          "internalType": "uint256",
          "name": "transactionID",
          "type": "uint256"
        },
        {
          "internalType": "uint256",
          "name": "userID",
          "type": "uint256"
        },
        {
          "internalType": "uint256",
          "name": "productID",
          "type": "uint256"
        },
        {
          "internalType": "string",
          "name": "productName",
          "type": "string"
        },
        {
          "internalType": "uint256",
          "name": "amount",
          "type": "uint256"
        },
        {
          "internalType": "uint256",
          "name": "unitPrice",
          "type": "uint256"
        },
        {
          "internalType": "string",
          "name": "dateTime",
          "type": "string"
        },
        {
          "internalType": "string",
          "name": "status",
          "type": "string"
        }
      ],
      "stateMutability": "view",
      "type": "function",
      "constant": true
    },
    {
      "inputs": [
        {
          "internalType": "uint256",
          "name": "",
          "type": "uint256"
        }
      ],
      "name": "transactions",
      "outputs": [
        {
          "internalType": "uint256",
          "name": "transactionID",
          "type": "uint256"
        },
        {
          "internalType": "uint256",
          "name": "userID",
          "type": "uint256"
        },
        {
          "internalType": "uint256",
          "name": "productID",
          "type": "uint256"
        },
        {
          "internalType": "string",
          "name": "productName",
          "type": "string"
        },
        {
          "internalType": "uint256",
          "name": "amount",
          "type": "uint256"
        },
        {
          "internalType": "uint256",
          "name": "unitPrice",
          "type": "uint256"
        },
        {
          "internalType": "string",
          "name": "dateTime",
          "type": "string"
        },
        {
          "internalType": "string",
          "name": "status",
          "type": "string"
        }
      ],
      "stateMutability": "view",
      "type": "function",
      "constant": true
    },
    {
      "inputs": [
        {
          "internalType": "uint256",
          "name": "userID",
          "type": "uint256"
        },
        {
          "internalType": "uint256",
          "name": "productID",
          "type": "uint256"
        },
        {
          "internalType": "string",
          "name": "productName",
          "type": "string"
        },
        {
          "internalType": "uint256",
          "name": "amount",
          "type": "uint256"
        },
        {
          "internalType": "uint256",
          "name": "unitPrice",
          "type": "uint256"
        },
        {
          "internalType": "string",
          "name": "dateTime",
          "type": "string"
        },
        {
          "internalType": "string",
          "name": "status",
          "type": "string"
        }
      ],
      "name": "setTransaction",
      "outputs": [],
      "stateMutability": "nonpayable",
      "type": "function"
    },
    {
      "inputs": [
        {
          "internalType": "uint256",
          "name": "transactionID",
          "type": "uint256"
        }
      ],
      "name": "getTransaction",
      "outputs": [
        {
          "internalType": "uint256",
          "name": "",
          "type": "uint256"
        },
        {
          "internalType": "uint256",
          "name": "",
          "type": "uint256"
        },
        {
          "internalType": "string",
          "name": "",
          "type": "string"
        },
        {
          "internalType": "uint256",
          "name": "",
          "type": "uint256"
        },
        {
          "internalType": "uint256",
          "name": "",
          "type": "uint256"
        },
        {
          "internalType": "string",
          "name": "",
          "type": "string"
        },
        {
          "internalType": "string",
          "name": "",
          "type": "string"
        }
      ],
      "stateMutability": "view",
      "type": "function",
      "constant": true
    },
    {
      "inputs": [],
      "name": "getAllTransactions",
      "outputs": [
        {
          "components": [
            {
              "internalType": "uint256",
              "name": "transactionID",
              "type": "uint256"
            },
            {
              "internalType": "uint256",
              "name": "userID",
              "type": "uint256"
            },
            {
              "internalType": "uint256",
              "name": "productID",
              "type": "uint256"
            },
            {
              "internalType": "string",
              "name": "productName",
              "type": "string"
            },
            {
              "internalType": "uint256",
              "name": "amount",
              "type": "uint256"
            },
            {
              "internalType": "uint256",
              "name": "unitPrice",
              "type": "uint256"
            },
            {
              "internalType": "string",
              "name": "dateTime",
              "type": "string"
            },
            {
              "internalType": "string",
              "name": "status",
              "type": "string"
            }
          ],
          "internalType": "struct TransactionData.Transaction[]",
          "name": "",
          "type": "tuple[]"
        }
      ],
      "stateMutability": "view",
      "type": "function",
      "constant": true
    },
    {
      "inputs": [
        {
          "internalType": "uint256",
          "name": "transactionID",
          "type": "uint256"
        },
        {
          "internalType": "uint256",
          "name": "userID",
          "type": "uint256"
        },
        {
          "internalType": "uint256",
          "name": "productID",
          "type": "uint256"
        },
        {
          "internalType": "string",
          "name": "productName",
          "type": "string"
        },
        {
          "internalType": "uint256",
          "name": "amount",
          "type": "uint256"
        },
        {
          "internalType": "uint256",
          "name": "unitPrice",
          "type": "uint256"
        },
        {
          "internalType": "string",
          "name": "dateTime",
          "type": "string"
        },
        {
          "internalType": "string",
          "name": "status",
          "type": "string"
        }
      ],
      "name": "updateTransaction",
      "outputs": [],
      "stateMutability": "nonpayable",
      "type": "function"
    },
    {
      "inputs": [
        {
          "internalType": "uint256",
          "name": "transactionID",
          "type": "uint256"
        }
      ],
      "name": "deleteTransaction",
      "outputs": [],
      "stateMutability": "nonpayable",
      "type": "function"
    }
  ],
  "bytecode": "0x608060405234801561001057600080fd5b50336000806101000a81548173ffffffffffffffffffffffffffffffffffffffff021916908373ffffffffffffffffffffffffffffffffffffffff16021790555061202d806100606000396000f3fe608060405234801561001057600080fd5b50600436106100875760003560e01c80639ace38c21161005b5780639ace38c2146101185780639d08f4a91461014f578063c82ef8fb14610174578063f80ad0b6146101ab57610087565b8062e9c0061461008c57806327506f53146100a857806333ea3dc8146100c65780635fd2832a146100fc575b600080fd5b6100a660048036038101906100a19190611706565b6101c7565b005b6100b061062a565b6040516100bd919061195b565b60405180910390f35b6100e060048036038101906100db9190611706565b610872565b6040516100f397969594939291906119d6565b60405180910390f35b61011660048036038101906101119190611b8f565b610b1e565b005b610132600480360381019061012d9190611706565b610d54565b604051610146989796959493929190611c85565b60405180910390f35b610157610f34565b60405161016b989796959493929190611c85565b60405180910390f35b61018e60048036038101906101899190611706565b611102565b6040516101a2989796959493929190611c85565b60405180910390f35b6101c560048036038101906101c09190611d18565b6112f2565b005b60008054906101000a900473ffffffffffffffffffffffffffffffffffffffff1673ffffffffffffffffffffffffffffffffffffffff163373ffffffffffffffffffffffffffffffffffffffff161461021f57600080fd5b6000600160008381526020019081526020016000206000015403610278576040517f08c379a000000000000000000000000000000000000000000000000000000000815260040161026f90611e6e565b60405180910390fd5b60016000828152602001908152602001600020600080820160009055600182016000905560028201600090556003820160006102b4919061154c565b600482016000905560058201600090556006820160006102d4919061154c565b6007820160006102e4919061154c565b505060005b6002805490508110156105a357816002828154811061030b5761030a611e8e565b5b90600052602060002090600802016000015403610590576002818154811061033657610335611e8e565b5b90600052602060002090600802016003600082015481600001556001820154816001015560028201548160020155600382018160030190805461037890611eec565b61038392919061158c565b50600482015481600401556005820154816005015560068201816006019080546103ac90611eec565b6103b792919061158c565b5060078201816007019080546103cc90611eec565b6103d792919061158c565b50905050600260016002805490506103ef9190611f4c565b81548110610400576103ff611e8e565b5b90600052602060002090600802016002828154811061042257610421611e8e565b5b9060005260206000209060080201600082015481600001556001820154816001015560028201548160020155600382018160030190805461046290611eec565b61046d92919061158c565b506004820154816004015560058201548160050155600682018160060190805461049690611eec565b6104a192919061158c565b5060078201816007019080546104b690611eec565b6104c192919061158c565b509050506003600260016002805490506104db9190611f4c565b815481106104ec576104eb611e8e565b5b9060005260206000209060080201600082015481600001556001820154816001015560028201548160020155600382018160030190805461052c90611eec565b61053792919061158c565b506004820154816004015560058201548160050155600682018160060190805461056090611eec565b61056b92919061158c565b50600782018160070190805461058090611eec565b61058b92919061158c565b509050505b808061059b90611f80565b9150506102e9565b5060028054806105b6576105b5611fc8565b5b6001900381819060005260206000209060080201600080820160009055600182016000905560028201600090556003820160006105f3919061154c565b60048201600090556005820160009055600682016000610613919061154c565b600782016000610623919061154c565b5050905550565b60606002805480602002602001604051908101604052809291908181526020016000905b828210156108695783829060005260206000209060080201604051806101000160405290816000820154815260200160018201548152602001600282015481526020016003820180546106a090611eec565b80601f01602080910402602001604051908101604052809291908181526020018280546106cc90611eec565b80156107195780601f106106ee57610100808354040283529160200191610719565b820191906000526020600020905b8154815290600101906020018083116106fc57829003601f168201915b50505050508152602001600482015481526020016005820154815260200160068201805461074690611eec565b80601f016020809104026020016040519081016040528092919081815260200182805461077290611eec565b80156107bf5780601f10610794576101008083540402835291602001916107bf565b820191906000526020600020905b8154815290600101906020018083116107a257829003601f168201915b505050505081526020016007820180546107d890611eec565b80601f016020809104026020016040519081016040528092919081815260200182805461080490611eec565b80156108515780601f1061082657610100808354040283529160200191610851565b820191906000526020600020905b81548152906001019060200180831161083457829003601f168201915b5050505050815250508152602001906001019061064e565b50505050905090565b60008060606000806060806000600160008a815260200190815260200160002060000154036108d6576040517f08c379a00000000000000000000000000000000000000000000000000000000081526004016108cd90611e6e565b60405180910390fd5b6000600160008a81526020019081526020016000206040518061010001604052908160008201548152602001600182015481526020016002820154815260200160038201805461092590611eec565b80601f016020809104026020016040519081016040528092919081815260200182805461095190611eec565b801561099e5780601f106109735761010080835404028352916020019161099e565b820191906000526020600020905b81548152906001019060200180831161098157829003601f168201915b5050505050815260200160048201548152602001600582015481526020016006820180546109cb90611eec565b80601f01602080910402602001604051908101604052809291908181526020018280546109f790611eec565b8015610a445780601f10610a1957610100808354040283529160200191610a44565b820191906000526020600020905b815481529060010190602001808311610a2757829003601f168201915b50505050508152602001600782018054610a5d90611eec565b80601f0160208091040260200160405190810160405280929190818152602001828054610a8990611eec565b8015610ad65780601f10610aab57610100808354040283529160200191610ad6565b820191906000526020600020905b815481529060010190602001808311610ab957829003601f168201915b505050505081525050905080602001518160400151826060015183608001518460a001518560c001518660e00151975097509750975097509750975050919395979092949650565b60008054906101000a900473ffffffffffffffffffffffffffffffffffffffff1673ffffffffffffffffffffffffffffffffffffffff163373ffffffffffffffffffffffffffffffffffffffff1614610b7657600080fd5b600060028054905090506000600160008381526020019081526020016000206000015403610d395760006040518061010001604052808381526020018a815260200189815260200188815260200187815260200186815260200185815260200184815250905080600160008481526020019081526020016000206000820151816000015560208201518160010155604082015181600201556060820151816003019080519060200190610c2a929190611619565b506080820151816004015560a0820151816005015560c0820151816006019080519060200190610c5b929190611619565b5060e0820151816007019080519060200190610c78929190611619565b5090505060028190806001815401808255809150506001900390600052602060002090600802016000909190919091506000820151816000015560208201518160010155604082015181600201556060820151816003019080519060200190610ce2929190611619565b506080820151816004015560a0820151816005015560c0820151816006019080519060200190610d13929190611619565b5060e0820151816007019080519060200190610d30929190611619565b50505050610d4a565b610d4981898989898989896112f2565b5b5050505050505050565b6001602052806000526040600020600091509050806000015490806001015490806002015490806003018054610d8990611eec565b80601f0160208091040260200160405190810160405280929190818152602001828054610db590611eec565b8015610e025780601f10610dd757610100808354040283529160200191610e02565b820191906000526020600020905b815481529060010190602001808311610de557829003601f168201915b505050505090806004015490806005015490806006018054610e2390611eec565b80601f0160208091040260200160405190810160405280929190818152602001828054610e4f90611eec565b8015610e9c5780601f10610e7157610100808354040283529160200191610e9c565b820191906000526020600020905b815481529060010190602001808311610e7f57829003601f168201915b505050505090806007018054610eb190611eec565b80601f0160208091040260200160405190810160405280929190818152602001828054610edd90611eec565b8015610f2a5780601f10610eff57610100808354040283529160200191610f2a565b820191906000526020600020905b815481529060010190602001808311610f0d57829003601f168201915b5050505050905088565b6003806000015490806001015490806002015490806003018054610f5790611eec565b80601f0160208091040260200160405190810160405280929190818152602001828054610f8390611eec565b8015610fd05780601f10610fa557610100808354040283529160200191610fd0565b820191906000526020600020905b815481529060010190602001808311610fb357829003601f168201915b505050505090806004015490806005015490806006018054610ff190611eec565b80601f016020809104026020016040519081016040528092919081815260200182805461101d90611eec565b801561106a5780601f1061103f5761010080835404028352916020019161106a565b820191906000526020600020905b81548152906001019060200180831161104d57829003601f168201915b50505050509080600701805461107f90611eec565b80601f01602080910402602001604051908101604052809291908181526020018280546110ab90611eec565b80156110f85780601f106110cd576101008083540402835291602001916110f8565b820191906000526020600020905b8154815290600101906020018083116110db57829003601f168201915b5050505050905088565b6002818154811061111257600080fd5b906000526020600020906008020160009150905080600001549080600101549080600201549080600301805461114790611eec565b80601f016020809104026020016040519081016040528092919081815260200182805461117390611eec565b80156111c05780601f10611195576101008083540402835291602001916111c0565b820191906000526020600020905b8154815290600101906020018083116111a357829003601f168201915b5050505050908060040154908060050154908060060180546111e190611eec565b80601f016020809104026020016040519081016040528092919081815260200182805461120d90611eec565b801561125a5780601f1061122f5761010080835404028352916020019161125a565b820191906000526020600020905b81548152906001019060200180831161123d57829003601f168201915b50505050509080600701805461126f90611eec565b80601f016020809104026020016040519081016040528092919081815260200182805461129b90611eec565b80156112e85780601f106112bd576101008083540402835291602001916112e8565b820191906000526020600020905b8154815290600101906020018083116112cb57829003601f168201915b5050505050905088565b60008054906101000a900473ffffffffffffffffffffffffffffffffffffffff1673ffffffffffffffffffffffffffffffffffffffff163373ffffffffffffffffffffffffffffffffffffffff161461134a57600080fd5b6000600160008a815260200190815260200160002060000154036113a3576040517f08c379a000000000000000000000000000000000000000000000000000000000815260040161139a90611e6e565b60405180910390fd5b6113ac886101c7565b60006040518061010001604052808a815260200189815260200188815260200187815260200186815260200185815260200184815260200183815250905080600160008b81526020019081526020016000206000820151816000015560208201518160010155604082015181600201556060820151816003019080519060200190611438929190611619565b506080820151816004015560a0820151816005015560c0820151816006019080519060200190611469929190611619565b5060e0820151816007019080519060200190611486929190611619565b50905050600281908060018154018082558091505060019003906000526020600020906008020160009091909190915060008201518160000155602082015181600101556040820151816002015560608201518160030190805190602001906114f0929190611619565b506080820151816004015560a0820151816005015560c0820151816006019080519060200190611521929190611619565b5060e082015181600701908051906020019061153e929190611619565b505050505050505050505050565b50805461155890611eec565b6000825580601f1061156a5750611589565b601f016020900490600052602060002090810190611588919061169f565b5b50565b82805461159890611eec565b90600052602060002090601f0160209004810192826115ba5760008555611608565b82601f106115cb5780548555611608565b8280016001018555821561160857600052602060002091601f016020900482015b828111156116075782548255916001019190600101906115ec565b5b509050611615919061169f565b5090565b82805461162590611eec565b90600052602060002090601f016020900481019282611647576000855561168e565b82601f1061166057805160ff191683800117855561168e565b8280016001018555821561168e579182015b8281111561168d578251825591602001919060010190611672565b5b50905061169b919061169f565b5090565b5b808211156116b85760008160009055506001016116a0565b5090565b6000604051905090565b600080fd5b600080fd5b6000819050919050565b6116e3816116d0565b81146116ee57600080fd5b50565b600081359050611700816116da565b92915050565b60006020828403121561171c5761171b6116c6565b5b600061172a848285016116f1565b91505092915050565b600081519050919050565b600082825260208201905092915050565b6000819050602082019050919050565b611768816116d0565b82525050565b600081519050919050565b600082825260208201905092915050565b60005b838110156117a857808201518184015260208101905061178d565b838111156117b7576000848401525b50505050565b6000601f19601f8301169050919050565b60006117d98261176e565b6117e38185611779565b93506117f381856020860161178a565b6117fc816117bd565b840191505092915050565b600061010083016000830151611820600086018261175f565b506020830151611833602086018261175f565b506040830151611846604086018261175f565b506060830151848203606086015261185e82826117ce565b9150506080830151611873608086018261175f565b5060a083015161188660a086018261175f565b5060c083015184820360c086015261189e82826117ce565b91505060e083015184820360e08601526118b882826117ce565b9150508091505092915050565b60006118d18383611807565b905092915050565b6000602082019050919050565b60006118f182611733565b6118fb818561173e565b93508360208202850161190d8561174f565b8060005b85811015611949578484038952815161192a85826118c5565b9450611935836118d9565b925060208a01995050600181019050611911565b50829750879550505050505092915050565b6000602082019050818103600083015261197581846118e6565b905092915050565b611986816116d0565b82525050565b600082825260208201905092915050565b60006119a88261176e565b6119b2818561198c565b93506119c281856020860161178a565b6119cb816117bd565b840191505092915050565b600060e0820190506119eb600083018a61197d565b6119f8602083018961197d565b8181036040830152611a0a818861199d565b9050611a19606083018761197d565b611a26608083018661197d565b81810360a0830152611a38818561199d565b905081810360c0830152611a4c818461199d565b905098975050505050505050565b600080fd5b600080fd5b7f4e487b7100000000000000000000000000000000000000000000000000000000600052604160045260246000fd5b611a9c826117bd565b810181811067ffffffffffffffff82111715611abb57611aba611a64565b5b80604052505050565b6000611ace6116bc565b9050611ada8282611a93565b919050565b600067ffffffffffffffff821115611afa57611af9611a64565b5b611b03826117bd565b9050602081019050919050565b82818337600083830152505050565b6000611b32611b2d84611adf565b611ac4565b905082815260208101848484011115611b4e57611b4d611a5f565b5b611b59848285611b10565b509392505050565b600082601f830112611b7657611b75611a5a565b5b8135611b86848260208601611b1f565b91505092915050565b600080600080600080600060e0888a031215611bae57611bad6116c6565b5b6000611bbc8a828b016116f1565b9750506020611bcd8a828b016116f1565b965050604088013567ffffffffffffffff811115611bee57611bed6116cb565b5b611bfa8a828b01611b61565b9550506060611c0b8a828b016116f1565b9450506080611c1c8a828b016116f1565b93505060a088013567ffffffffffffffff811115611c3d57611c3c6116cb565b5b611c498a828b01611b61565b92505060c088013567ffffffffffffffff811115611c6a57611c696116cb565b5b611c768a828b01611b61565b91505092959891949750929550565b600061010082019050611c9b600083018b61197d565b611ca8602083018a61197d565b611cb5604083018961197d565b8181036060830152611cc7818861199d565b9050611cd6608083018761197d565b611ce360a083018661197d565b81810360c0830152611cf5818561199d565b905081810360e0830152611d09818461199d565b90509998505050505050505050565b600080600080600080600080610100898b031215611d3957611d386116c6565b5b6000611d478b828c016116f1565b9850506020611d588b828c016116f1565b9750506040611d698b828c016116f1565b965050606089013567ffffffffffffffff811115611d8a57611d896116cb565b5b611d968b828c01611b61565b9550506080611da78b828c016116f1565b94505060a0611db88b828c016116f1565b93505060c089013567ffffffffffffffff811115611dd957611dd86116cb565b5b611de58b828c01611b61565b92505060e089013567ffffffffffffffff811115611e0657611e056116cb565b5b611e128b828c01611b61565b9150509295985092959890939650565b7f5472616e73616374696f6e206973206e6f7420617661696c61626c6500000000600082015250565b6000611e58601c8361198c565b9150611e6382611e22565b602082019050919050565b60006020820190508181036000830152611e8781611e4b565b9050919050565b7f4e487b7100000000000000000000000000000000000000000000000000000000600052603260045260246000fd5b7f4e487b7100000000000000000000000000000000000000000000000000000000600052602260045260246000fd5b60006002820490506001821680611f0457607f821691505b602082108103611f1757611f16611ebd565b5b50919050565b7f4e487b7100000000000000000000000000000000000000000000000000000000600052601160045260246000fd5b6000611f57826116d0565b9150611f62836116d0565b925082821015611f7557611f74611f1d565b5b828203905092915050565b6000611f8b826116d0565b91507fffffffffffffffffffffffffffffffffffffffffffffffffffffffffffffffff8203611fbd57611fbc611f1d565b5b600182019050919050565b7f4e487b7100000000000000000000000000000000000000000000000000000000600052603160045260246000fdfea2646970667358221220304f9aaa95decdb69414bd132a09009b7b5df793fb7176180bfcf304634facb064736f6c634300080d0033",
  "immutableReferences": {},
  "source": "// SPDX-License-Identifier: UNLICENSED \r\npragma solidity >=0.4.22 <0.9.0;\r\n\r\ncontract TransactionData {\r\n    struct Transaction {\r\n        uint256 transactionID;\r\n        uint256 userID;\r\n        uint256 productID;\r\n        string productName;\r\n        uint256 amount;\r\n        uint256 unitPrice;\r\n        string dateTime;\r\n        string status;\r\n    }\r\n\r\n    address owner;\r\n\r\n    mapping (uint => Transaction) public transactions;\r\n    Transaction[] public transactionArray;\r\n\r\n    constructor() {\r\n        owner = msg.sender;\r\n    }\r\n\r\n    modifier onlyOwner {\r\n        require(msg.sender == owner);\r\n        _;\r\n    }\r\n\r\n    // If the transactionID has already been setup, the updateTransaction method would be called instead\r\n    function setTransaction(uint256 userID, uint256 productID, \r\n                            string memory productName, uint256 amount, uint256 unitPrice, string memory dateTime, string memory status) public onlyOwner {\r\n        uint256 transactionID = transactionArray.length; \r\n\r\n        if (transactions[transactionID].transactionID == 0) {\r\n            Transaction memory transaction = Transaction(transactionID, userID, productID, productName, amount, unitPrice, dateTime, status);\r\n            transactions[transactionID] = transaction;\r\n            transactionArray.push(transaction);\r\n        }\r\n        else {\r\n            updateTransaction(transactionID, userID, productID, productName, amount, unitPrice, dateTime, status);\r\n        }\r\n    }\r\n\r\n    function getTransaction(uint256 transactionID) public view returns (uint256, uint256, string memory, uint256, uint256, string memory, string memory) {\r\n        require(transactions[transactionID].transactionID != 0, \"Transaction is not available\");\r\n        Transaction memory transaction = transactions[transactionID];\r\n        return (transaction.userID, transaction.productID, transaction.productName, transaction.amount, transaction.unitPrice, transaction.dateTime, transaction.status);\r\n    }\r\n\r\n    function getAllTransactions() public view returns (Transaction[] memory) {\r\n        return transactionArray;\r\n    }\r\n\r\n    function updateTransaction(uint256 transactionID, uint256 userID, uint256 productID, \r\n                               string memory productName, uint256 amount, uint256 unitPrice, string memory dateTime, string memory status) public onlyOwner() {\r\n        require(transactions[transactionID].transactionID != 0, \"Transaction is not available\");\r\n\r\n        deleteTransaction(transactionID);\r\n\r\n        Transaction memory transaction = Transaction(transactionID, userID, productID, productName, amount, unitPrice, dateTime, status);\r\n        transactions[transactionID] = transaction;\r\n        transactionArray.push(transaction);\r\n    }\r\n\r\n    Transaction public removeMe;\r\n    \r\n    // Delete a transaction in the array by swap it with the last element, then remove that\r\n    function deleteTransaction(uint256 transactionID) public onlyOwner() {\r\n        require(transactions[transactionID].transactionID != 0, \"Transaction is not available\");\r\n        delete transactions[transactionID];\r\n\r\n        for (uint i = 0; i < transactionArray.length; i++) {\r\n            if (transactionArray[i].transactionID == transactionID) {\r\n                removeMe = transactionArray[i];\r\n                transactionArray[i] = transactionArray[transactionArray.length - 1];\r\n                transactionArray[transactionArray.length - 1] = removeMe;\r\n            }\r\n        }\r\n        transactionArray.pop();\r\n    }\r\n}",
  "sourcePath": "E:\\COS30049_Computing_Technology_Innovation_Project\\CTrade\\contracts\\transactionData.sol",
  "compiler": {
    "name": "solc",
    "version": "0.8.13+commit.abaa5c0e.Emscripten.clang"
  },
  "schemaVersion": "3.4.16",
  "updatedAt": "2023-10-15T10:41:01.182Z",
  "networkType": "ethereum",
  "devdoc": {
    "kind": "dev",
    "methods": {},
    "version": 1
  },
  "userdoc": {
    "kind": "user",
    "methods": {},
    "version": 1
  }
}