{
  "contractName": "TransactionData",
  "abi": [
    {
      "inputs": [],
      "stateMutability": "nonpayable",
      "type": "constructor"
    },
    {
      "inputs": [],
      "name": "removeMe",
      "outputs": [
        {
          "internalType": "uint256",
          "name": "transactionID",
          "type": "uint256"
        },
        {
          "internalType": "uint256",
          "name": "userID",
          "type": "uint256"
        },
        {
          "internalType": "uint256",
          "name": "productID",
          "type": "uint256"
        },
        {
          "internalType": "string",
          "name": "productName",
          "type": "string"
        },
        {
          "internalType": "uint256",
          "name": "amount",
          "type": "uint256"
        },
        {
          "internalType": "uint256",
          "name": "unitPrice",
          "type": "uint256"
        },
        {
          "internalType": "string",
          "name": "dateTime",
          "type": "string"
        },
        {
          "internalType": "string",
          "name": "status",
          "type": "string"
        }
      ],
      "stateMutability": "view",
      "type": "function",
      "constant": true
    },
    {
      "inputs": [
        {
          "internalType": "uint256",
          "name": "",
          "type": "uint256"
        }
      ],
      "name": "transactionArray",
      "outputs": [
        {
          "internalType": "uint256",
          "name": "transactionID",
          "type": "uint256"
        },
        {
          "internalType": "uint256",
          "name": "userID",
          "type": "uint256"
        },
        {
          "internalType": "uint256",
          "name": "productID",
          "type": "uint256"
        },
        {
          "internalType": "string",
          "name": "productName",
          "type": "string"
        },
        {
          "internalType": "uint256",
          "name": "amount",
          "type": "uint256"
        },
        {
          "internalType": "uint256",
          "name": "unitPrice",
          "type": "uint256"
        },
        {
          "internalType": "string",
          "name": "dateTime",
          "type": "string"
        },
        {
          "internalType": "string",
          "name": "status",
          "type": "string"
        }
      ],
      "stateMutability": "view",
      "type": "function",
      "constant": true
    },
    {
      "inputs": [
        {
          "internalType": "uint256",
          "name": "",
          "type": "uint256"
        }
      ],
      "name": "transactions",
      "outputs": [
        {
          "internalType": "uint256",
          "name": "transactionID",
          "type": "uint256"
        },
        {
          "internalType": "uint256",
          "name": "userID",
          "type": "uint256"
        },
        {
          "internalType": "uint256",
          "name": "productID",
          "type": "uint256"
        },
        {
          "internalType": "string",
          "name": "productName",
          "type": "string"
        },
        {
          "internalType": "uint256",
          "name": "amount",
          "type": "uint256"
        },
        {
          "internalType": "uint256",
          "name": "unitPrice",
          "type": "uint256"
        },
        {
          "internalType": "string",
          "name": "dateTime",
          "type": "string"
        },
        {
          "internalType": "string",
          "name": "status",
          "type": "string"
        }
      ],
      "stateMutability": "view",
      "type": "function",
      "constant": true
    },
    {
      "inputs": [
        {
          "internalType": "uint256",
          "name": "userID",
          "type": "uint256"
        },
        {
          "internalType": "uint256",
          "name": "productID",
          "type": "uint256"
        },
        {
          "internalType": "string",
          "name": "productName",
          "type": "string"
        },
        {
          "internalType": "uint256",
          "name": "amount",
          "type": "uint256"
        },
        {
          "internalType": "uint256",
          "name": "unitPrice",
          "type": "uint256"
        },
        {
          "internalType": "string",
          "name": "dateTime",
          "type": "string"
        },
        {
          "internalType": "string",
          "name": "status",
          "type": "string"
        }
      ],
      "name": "setTransaction",
      "outputs": [],
      "stateMutability": "nonpayable",
      "type": "function"
    },
    {
      "inputs": [
        {
          "internalType": "uint256",
          "name": "transactionID",
          "type": "uint256"
        }
      ],
      "name": "getTransaction",
      "outputs": [
        {
          "internalType": "uint256",
          "name": "",
          "type": "uint256"
        },
        {
          "internalType": "uint256",
          "name": "",
          "type": "uint256"
        },
        {
          "internalType": "string",
          "name": "",
          "type": "string"
        },
        {
          "internalType": "uint256",
          "name": "",
          "type": "uint256"
        },
        {
          "internalType": "uint256",
          "name": "",
          "type": "uint256"
        },
        {
          "internalType": "string",
          "name": "",
          "type": "string"
        },
        {
          "internalType": "string",
          "name": "",
          "type": "string"
        }
      ],
      "stateMutability": "view",
      "type": "function",
      "constant": true
    },
    {
      "inputs": [],
      "name": "getAllTransactions",
      "outputs": [
        {
          "components": [
            {
              "internalType": "uint256",
              "name": "transactionID",
              "type": "uint256"
            },
            {
              "internalType": "uint256",
              "name": "userID",
              "type": "uint256"
            },
            {
              "internalType": "uint256",
              "name": "productID",
              "type": "uint256"
            },
            {
              "internalType": "string",
              "name": "productName",
              "type": "string"
            },
            {
              "internalType": "uint256",
              "name": "amount",
              "type": "uint256"
            },
            {
              "internalType": "uint256",
              "name": "unitPrice",
              "type": "uint256"
            },
            {
              "internalType": "string",
              "name": "dateTime",
              "type": "string"
            },
            {
              "internalType": "string",
              "name": "status",
              "type": "string"
            }
          ],
          "internalType": "struct TransactionData.Transaction[]",
          "name": "",
          "type": "tuple[]"
        }
      ],
      "stateMutability": "view",
      "type": "function",
      "constant": true
    },
    {
      "inputs": [
        {
          "internalType": "uint256",
          "name": "transactionID",
          "type": "uint256"
        },
        {
          "internalType": "uint256",
          "name": "userID",
          "type": "uint256"
        },
        {
          "internalType": "uint256",
          "name": "productID",
          "type": "uint256"
        },
        {
          "internalType": "string",
          "name": "productName",
          "type": "string"
        },
        {
          "internalType": "uint256",
          "name": "amount",
          "type": "uint256"
        },
        {
          "internalType": "uint256",
          "name": "unitPrice",
          "type": "uint256"
        },
        {
          "internalType": "string",
          "name": "dateTime",
          "type": "string"
        },
        {
          "internalType": "string",
          "name": "status",
          "type": "string"
        }
      ],
      "name": "updateTransaction",
      "outputs": [],
      "stateMutability": "nonpayable",
      "type": "function"
    },
    {
      "inputs": [
        {
          "internalType": "uint256",
          "name": "transactionID",
          "type": "uint256"
        }
      ],
      "name": "deleteTransaction",
      "outputs": [],
      "stateMutability": "nonpayable",
      "type": "function"
    }
  ],
  "bytecode": "0x608060405234801561001057600080fd5b50336000806101000a81548173ffffffffffffffffffffffffffffffffffffffff021916908373ffffffffffffffffffffffffffffffffffffffff160217905550611ff9806100606000396000f3fe608060405234801561001057600080fd5b50600436106100875760003560e01c80639ace38c21161005b5780639ace38c2146101185780639d08f4a91461014f578063c82ef8fb14610174578063f80ad0b6146101ab57610087565b8062e9c0061461008c57806327506f53146100a857806333ea3dc8146100c65780635fd2832a146100fc575b600080fd5b6100a660048036038101906100a191906116d2565b6101c7565b005b6100b061062a565b6040516100bd9190611927565b60405180910390f35b6100e060048036038101906100db91906116d2565b610872565b6040516100f397969594939291906119a2565b60405180910390f35b61011660048036038101906101119190611b5b565b610b1e565b005b610132600480360381019061012d91906116d2565b610d20565b604051610146989796959493929190611c51565b60405180910390f35b610157610f00565b60405161016b989796959493929190611c51565b60405180910390f35b61018e600480360381019061018991906116d2565b6110ce565b6040516101a2989796959493929190611c51565b60405180910390f35b6101c560048036038101906101c09190611ce4565b6112be565b005b60008054906101000a900473ffffffffffffffffffffffffffffffffffffffff1673ffffffffffffffffffffffffffffffffffffffff163373ffffffffffffffffffffffffffffffffffffffff161461021f57600080fd5b6000600160008381526020019081526020016000206000015403610278576040517f08c379a000000000000000000000000000000000000000000000000000000000815260040161026f90611e3a565b60405180910390fd5b60016000828152602001908152602001600020600080820160009055600182016000905560028201600090556003820160006102b49190611518565b600482016000905560058201600090556006820160006102d49190611518565b6007820160006102e49190611518565b505060005b6002805490508110156105a357816002828154811061030b5761030a611e5a565b5b90600052602060002090600802016000015403610590576002818154811061033657610335611e5a565b5b90600052602060002090600802016003600082015481600001556001820154816001015560028201548160020155600382018160030190805461037890611eb8565b610383929190611558565b50600482015481600401556005820154816005015560068201816006019080546103ac90611eb8565b6103b7929190611558565b5060078201816007019080546103cc90611eb8565b6103d7929190611558565b50905050600260016002805490506103ef9190611f18565b81548110610400576103ff611e5a565b5b90600052602060002090600802016002828154811061042257610421611e5a565b5b9060005260206000209060080201600082015481600001556001820154816001015560028201548160020155600382018160030190805461046290611eb8565b61046d929190611558565b506004820154816004015560058201548160050155600682018160060190805461049690611eb8565b6104a1929190611558565b5060078201816007019080546104b690611eb8565b6104c1929190611558565b509050506003600260016002805490506104db9190611f18565b815481106104ec576104eb611e5a565b5b9060005260206000209060080201600082015481600001556001820154816001015560028201548160020155600382018160030190805461052c90611eb8565b610537929190611558565b506004820154816004015560058201548160050155600682018160060190805461056090611eb8565b61056b929190611558565b50600782018160070190805461058090611eb8565b61058b929190611558565b509050505b808061059b90611f4c565b9150506102e9565b5060028054806105b6576105b5611f94565b5b6001900381819060005260206000209060080201600080820160009055600182016000905560028201600090556003820160006105f39190611518565b600482016000905560058201600090556006820160006106139190611518565b6007820160006106239190611518565b5050905550565b60606002805480602002602001604051908101604052809291908181526020016000905b828210156108695783829060005260206000209060080201604051806101000160405290816000820154815260200160018201548152602001600282015481526020016003820180546106a090611eb8565b80601f01602080910402602001604051908101604052809291908181526020018280546106cc90611eb8565b80156107195780601f106106ee57610100808354040283529160200191610719565b820191906000526020600020905b8154815290600101906020018083116106fc57829003601f168201915b50505050508152602001600482015481526020016005820154815260200160068201805461074690611eb8565b80601f016020809104026020016040519081016040528092919081815260200182805461077290611eb8565b80156107bf5780601f10610794576101008083540402835291602001916107bf565b820191906000526020600020905b8154815290600101906020018083116107a257829003601f168201915b505050505081526020016007820180546107d890611eb8565b80601f016020809104026020016040519081016040528092919081815260200182805461080490611eb8565b80156108515780601f1061082657610100808354040283529160200191610851565b820191906000526020600020905b81548152906001019060200180831161083457829003601f168201915b5050505050815250508152602001906001019061064e565b50505050905090565b60008060606000806060806000600160008a815260200190815260200160002060000154036108d6576040517f08c379a00000000000000000000000000000000000000000000000000000000081526004016108cd90611e3a565b60405180910390fd5b6000600160008a81526020019081526020016000206040518061010001604052908160008201548152602001600182015481526020016002820154815260200160038201805461092590611eb8565b80601f016020809104026020016040519081016040528092919081815260200182805461095190611eb8565b801561099e5780601f106109735761010080835404028352916020019161099e565b820191906000526020600020905b81548152906001019060200180831161098157829003601f168201915b5050505050815260200160048201548152602001600582015481526020016006820180546109cb90611eb8565b80601f01602080910402602001604051908101604052809291908181526020018280546109f790611eb8565b8015610a445780601f10610a1957610100808354040283529160200191610a44565b820191906000526020600020905b815481529060010190602001808311610a2757829003601f168201915b50505050508152602001600782018054610a5d90611eb8565b80601f0160208091040260200160405190810160405280929190818152602001828054610a8990611eb8565b8015610ad65780601f10610aab57610100808354040283529160200191610ad6565b820191906000526020600020905b815481529060010190602001808311610ab957829003601f168201915b505050505081525050905080602001518160400151826060015183608001518460a001518560c001518660e00151975097509750975097509750975050919395979092949650565b60008054906101000a900473ffffffffffffffffffffffffffffffffffffffff1673ffffffffffffffffffffffffffffffffffffffff163373ffffffffffffffffffffffffffffffffffffffff1614610b7657600080fd5b6000600280549050905060006040518061010001604052808381526020018a815260200189815260200188815260200187815260200186815260200185815260200184815250905080600160008481526020019081526020016000206000820151816000015560208201518160010155604082015181600201556060820151816003019080519060200190610c0c9291906115e5565b506080820151816004015560a0820151816005015560c0820151816006019080519060200190610c3d9291906115e5565b5060e0820151816007019080519060200190610c5a9291906115e5565b5090505060028190806001815401808255809150506001900390600052602060002090600802016000909190919091506000820151816000015560208201518160010155604082015181600201556060820151816003019080519060200190610cc49291906115e5565b506080820151816004015560a0820151816005015560c0820151816006019080519060200190610cf59291906115e5565b5060e0820151816007019080519060200190610d129291906115e5565b505050505050505050505050565b6001602052806000526040600020600091509050806000015490806001015490806002015490806003018054610d5590611eb8565b80601f0160208091040260200160405190810160405280929190818152602001828054610d8190611eb8565b8015610dce5780601f10610da357610100808354040283529160200191610dce565b820191906000526020600020905b815481529060010190602001808311610db157829003601f168201915b505050505090806004015490806005015490806006018054610def90611eb8565b80601f0160208091040260200160405190810160405280929190818152602001828054610e1b90611eb8565b8015610e685780601f10610e3d57610100808354040283529160200191610e68565b820191906000526020600020905b815481529060010190602001808311610e4b57829003601f168201915b505050505090806007018054610e7d90611eb8565b80601f0160208091040260200160405190810160405280929190818152602001828054610ea990611eb8565b8015610ef65780601f10610ecb57610100808354040283529160200191610ef6565b820191906000526020600020905b815481529060010190602001808311610ed957829003601f168201915b5050505050905088565b6003806000015490806001015490806002015490806003018054610f2390611eb8565b80601f0160208091040260200160405190810160405280929190818152602001828054610f4f90611eb8565b8015610f9c5780601f10610f7157610100808354040283529160200191610f9c565b820191906000526020600020905b815481529060010190602001808311610f7f57829003601f168201915b505050505090806004015490806005015490806006018054610fbd90611eb8565b80601f0160208091040260200160405190810160405280929190818152602001828054610fe990611eb8565b80156110365780601f1061100b57610100808354040283529160200191611036565b820191906000526020600020905b81548152906001019060200180831161101957829003601f168201915b50505050509080600701805461104b90611eb8565b80601f016020809104026020016040519081016040528092919081815260200182805461107790611eb8565b80156110c45780601f10611099576101008083540402835291602001916110c4565b820191906000526020600020905b8154815290600101906020018083116110a757829003601f168201915b5050505050905088565b600281815481106110de57600080fd5b906000526020600020906008020160009150905080600001549080600101549080600201549080600301805461111390611eb8565b80601f016020809104026020016040519081016040528092919081815260200182805461113f90611eb8565b801561118c5780601f106111615761010080835404028352916020019161118c565b820191906000526020600020905b81548152906001019060200180831161116f57829003601f168201915b5050505050908060040154908060050154908060060180546111ad90611eb8565b80601f01602080910402602001604051908101604052809291908181526020018280546111d990611eb8565b80156112265780601f106111fb57610100808354040283529160200191611226565b820191906000526020600020905b81548152906001019060200180831161120957829003601f168201915b50505050509080600701805461123b90611eb8565b80601f016020809104026020016040519081016040528092919081815260200182805461126790611eb8565b80156112b45780601f10611289576101008083540402835291602001916112b4565b820191906000526020600020905b81548152906001019060200180831161129757829003601f168201915b5050505050905088565b60008054906101000a900473ffffffffffffffffffffffffffffffffffffffff1673ffffffffffffffffffffffffffffffffffffffff163373ffffffffffffffffffffffffffffffffffffffff161461131657600080fd5b6000600160008a8152602001908152602001600020600001540361136f576040517f08c379a000000000000000000000000000000000000000000000000000000000815260040161136690611e3a565b60405180910390fd5b611378886101c7565b60006040518061010001604052808a815260200189815260200188815260200187815260200186815260200185815260200184815260200183815250905080600160008b815260200190815260200160002060008201518160000155602082015181600101556040820151816002015560608201518160030190805190602001906114049291906115e5565b506080820151816004015560a0820151816005015560c08201518160060190805190602001906114359291906115e5565b5060e08201518160070190805190602001906114529291906115e5565b50905050600281908060018154018082558091505060019003906000526020600020906008020160009091909190915060008201518160000155602082015181600101556040820151816002015560608201518160030190805190602001906114bc9291906115e5565b506080820151816004015560a0820151816005015560c08201518160060190805190602001906114ed9291906115e5565b5060e082015181600701908051906020019061150a9291906115e5565b505050505050505050505050565b50805461152490611eb8565b6000825580601f106115365750611555565b601f016020900490600052602060002090810190611554919061166b565b5b50565b82805461156490611eb8565b90600052602060002090601f01602090048101928261158657600085556115d4565b82601f1061159757805485556115d4565b828001600101855582156115d457600052602060002091601f016020900482015b828111156115d35782548255916001019190600101906115b8565b5b5090506115e1919061166b565b5090565b8280546115f190611eb8565b90600052602060002090601f016020900481019282611613576000855561165a565b82601f1061162c57805160ff191683800117855561165a565b8280016001018555821561165a579182015b8281111561165957825182559160200191906001019061163e565b5b509050611667919061166b565b5090565b5b8082111561168457600081600090555060010161166c565b5090565b6000604051905090565b600080fd5b600080fd5b6000819050919050565b6116af8161169c565b81146116ba57600080fd5b50565b6000813590506116cc816116a6565b92915050565b6000602082840312156116e8576116e7611692565b5b60006116f6848285016116bd565b91505092915050565b600081519050919050565b600082825260208201905092915050565b6000819050602082019050919050565b6117348161169c565b82525050565b600081519050919050565b600082825260208201905092915050565b60005b83811015611774578082015181840152602081019050611759565b83811115611783576000848401525b50505050565b6000601f19601f8301169050919050565b60006117a58261173a565b6117af8185611745565b93506117bf818560208601611756565b6117c881611789565b840191505092915050565b6000610100830160008301516117ec600086018261172b565b5060208301516117ff602086018261172b565b506040830151611812604086018261172b565b506060830151848203606086015261182a828261179a565b915050608083015161183f608086018261172b565b5060a083015161185260a086018261172b565b5060c083015184820360c086015261186a828261179a565b91505060e083015184820360e0860152611884828261179a565b9150508091505092915050565b600061189d83836117d3565b905092915050565b6000602082019050919050565b60006118bd826116ff565b6118c7818561170a565b9350836020820285016118d98561171b565b8060005b8581101561191557848403895281516118f68582611891565b9450611901836118a5565b925060208a019950506001810190506118dd565b50829750879550505050505092915050565b6000602082019050818103600083015261194181846118b2565b905092915050565b6119528161169c565b82525050565b600082825260208201905092915050565b60006119748261173a565b61197e8185611958565b935061198e818560208601611756565b61199781611789565b840191505092915050565b600060e0820190506119b7600083018a611949565b6119c46020830189611949565b81810360408301526119d68188611969565b90506119e56060830187611949565b6119f26080830186611949565b81810360a0830152611a048185611969565b905081810360c0830152611a188184611969565b905098975050505050505050565b600080fd5b600080fd5b7f4e487b7100000000000000000000000000000000000000000000000000000000600052604160045260246000fd5b611a6882611789565b810181811067ffffffffffffffff82111715611a8757611a86611a30565b5b80604052505050565b6000611a9a611688565b9050611aa68282611a5f565b919050565b600067ffffffffffffffff821115611ac657611ac5611a30565b5b611acf82611789565b9050602081019050919050565b82818337600083830152505050565b6000611afe611af984611aab565b611a90565b905082815260208101848484011115611b1a57611b19611a2b565b5b611b25848285611adc565b509392505050565b600082601f830112611b4257611b41611a26565b5b8135611b52848260208601611aeb565b91505092915050565b600080600080600080600060e0888a031215611b7a57611b79611692565b5b6000611b888a828b016116bd565b9750506020611b998a828b016116bd565b965050604088013567ffffffffffffffff811115611bba57611bb9611697565b5b611bc68a828b01611b2d565b9550506060611bd78a828b016116bd565b9450506080611be88a828b016116bd565b93505060a088013567ffffffffffffffff811115611c0957611c08611697565b5b611c158a828b01611b2d565b92505060c088013567ffffffffffffffff811115611c3657611c35611697565b5b611c428a828b01611b2d565b91505092959891949750929550565b600061010082019050611c67600083018b611949565b611c74602083018a611949565b611c816040830189611949565b8181036060830152611c938188611969565b9050611ca26080830187611949565b611caf60a0830186611949565b81810360c0830152611cc18185611969565b905081810360e0830152611cd58184611969565b90509998505050505050505050565b600080600080600080600080610100898b031215611d0557611d04611692565b5b6000611d138b828c016116bd565b9850506020611d248b828c016116bd565b9750506040611d358b828c016116bd565b965050606089013567ffffffffffffffff811115611d5657611d55611697565b5b611d628b828c01611b2d565b9550506080611d738b828c016116bd565b94505060a0611d848b828c016116bd565b93505060c089013567ffffffffffffffff811115611da557611da4611697565b5b611db18b828c01611b2d565b92505060e089013567ffffffffffffffff811115611dd257611dd1611697565b5b611dde8b828c01611b2d565b9150509295985092959890939650565b7f5472616e73616374696f6e206973206e6f7420617661696c61626c6500000000600082015250565b6000611e24601c83611958565b9150611e2f82611dee565b602082019050919050565b60006020820190508181036000830152611e5381611e17565b9050919050565b7f4e487b7100000000000000000000000000000000000000000000000000000000600052603260045260246000fd5b7f4e487b7100000000000000000000000000000000000000000000000000000000600052602260045260246000fd5b60006002820490506001821680611ed057607f821691505b602082108103611ee357611ee2611e89565b5b50919050565b7f4e487b7100000000000000000000000000000000000000000000000000000000600052601160045260246000fd5b6000611f238261169c565b9150611f2e8361169c565b925082821015611f4157611f40611ee9565b5b828203905092915050565b6000611f578261169c565b91507fffffffffffffffffffffffffffffffffffffffffffffffffffffffffffffffff8203611f8957611f88611ee9565b5b600182019050919050565b7f4e487b7100000000000000000000000000000000000000000000000000000000600052603160045260246000fdfea2646970667358221220e0afc03e6bda6994fcf414618ff6ce1fe2ee4fa2b40fffd9068022b83646c6c564736f6c634300080d0033",
  "immutableReferences": {},
  "source": "// SPDX-License-Identifier: UNLICENSED \r\npragma solidity >=0.4.22 <0.9.0;\r\n\r\ncontract TransactionData {\r\n    struct Transaction {\r\n        uint256 transactionID;\r\n        uint256 userID;\r\n        uint256 productID;\r\n        string productName;\r\n        uint256 amount;\r\n        uint256 unitPrice;\r\n        string dateTime;\r\n        string status;\r\n    }\r\n\r\n    address owner;\r\n\r\n    mapping (uint => Transaction) public transactions;\r\n    Transaction[] public transactionArray;\r\n\r\n    constructor() {\r\n        owner = msg.sender;\r\n    }\r\n\r\n    modifier onlyOwner {\r\n        require(msg.sender == owner);\r\n        _;\r\n    }\r\n\r\n    // Add the new transaction\r\n    function setTransaction(uint256 userID, uint256 productID, \r\n                            string memory productName, uint256 amount, uint256 unitPrice, string memory dateTime, string memory status) public onlyOwner {\r\n        uint256 transactionID = transactionArray.length; \r\n\r\n        Transaction memory transaction = Transaction(transactionID, userID, productID, productName, amount, unitPrice, dateTime, status);\r\n        transactions[transactionID] = transaction;\r\n        transactionArray.push(transaction);\r\n    }\r\n\r\n    function getTransaction(uint256 transactionID) public view returns (uint256, uint256, string memory, uint256, uint256, string memory, string memory) {\r\n        require(transactions[transactionID].transactionID != 0, \"Transaction is not available\");\r\n        Transaction memory transaction = transactions[transactionID];\r\n        return (transaction.userID, transaction.productID, transaction.productName, transaction.amount, transaction.unitPrice, transaction.dateTime, transaction.status);\r\n    }\r\n\r\n    function getAllTransactions() public view returns (Transaction[] memory) {\r\n        return transactionArray;\r\n    }\r\n\r\n    function updateTransaction(uint256 transactionID, uint256 userID, uint256 productID, \r\n                               string memory productName, uint256 amount, uint256 unitPrice, string memory dateTime, string memory status) public onlyOwner() {\r\n        require(transactions[transactionID].transactionID != 0, \"Transaction is not available\");\r\n\r\n        deleteTransaction(transactionID);\r\n\r\n        Transaction memory transaction = Transaction(transactionID, userID, productID, productName, amount, unitPrice, dateTime, status);\r\n        transactions[transactionID] = transaction;\r\n        transactionArray.push(transaction);\r\n    }\r\n\r\n    Transaction public removeMe;\r\n    \r\n    // Delete a transaction in the array by swap it with the last element, then remove that\r\n    function deleteTransaction(uint256 transactionID) public onlyOwner() {\r\n        require(transactions[transactionID].transactionID != 0, \"Transaction is not available\");\r\n        delete transactions[transactionID];\r\n\r\n        for (uint i = 0; i < transactionArray.length; i++) {\r\n            if (transactionArray[i].transactionID == transactionID) {\r\n                removeMe = transactionArray[i];\r\n                transactionArray[i] = transactionArray[transactionArray.length - 1];\r\n                transactionArray[transactionArray.length - 1] = removeMe;\r\n            }\r\n        }\r\n        transactionArray.pop();\r\n    }\r\n}",
  "sourcePath": "E:\\COS30049_Computing_Technology_Innovation_Project\\CTrade\\contracts\\transactionData.sol",
  "compiler": {
    "name": "solc",
    "version": "0.8.13+commit.abaa5c0e.Emscripten.clang"
  },
  "schemaVersion": "3.4.16",
  "updatedAt": "2023-10-15T12:44:41.146Z",
  "networkType": "ethereum",
  "devdoc": {
    "kind": "dev",
    "methods": {},
    "version": 1
  },
  "userdoc": {
    "kind": "user",
    "methods": {},
    "version": 1
  }
}