{
  "contractName": "TransactionData",
  "abi": [
    {
      "inputs": [],
      "stateMutability": "nonpayable",
      "type": "constructor"
    },
    {
      "inputs": [],
      "name": "removeMe",
      "outputs": [
        {
          "internalType": "uint256",
          "name": "transactionID",
          "type": "uint256"
        },
        {
          "internalType": "uint256",
          "name": "userID",
          "type": "uint256"
        },
        {
          "internalType": "uint256",
          "name": "productID",
          "type": "uint256"
        },
        {
          "internalType": "string",
          "name": "productName",
          "type": "string"
        },
        {
          "internalType": "uint256",
          "name": "amount",
          "type": "uint256"
        },
        {
          "internalType": "uint256",
          "name": "unitPrice",
          "type": "uint256"
        },
        {
          "internalType": "string",
          "name": "dateTime",
          "type": "string"
        },
        {
          "internalType": "string",
          "name": "status",
          "type": "string"
        }
      ],
      "stateMutability": "view",
      "type": "function",
      "constant": true
    },
    {
      "inputs": [
        {
          "internalType": "uint256",
          "name": "",
          "type": "uint256"
        }
      ],
      "name": "transactionArray",
      "outputs": [
        {
          "internalType": "uint256",
          "name": "transactionID",
          "type": "uint256"
        },
        {
          "internalType": "uint256",
          "name": "userID",
          "type": "uint256"
        },
        {
          "internalType": "uint256",
          "name": "productID",
          "type": "uint256"
        },
        {
          "internalType": "string",
          "name": "productName",
          "type": "string"
        },
        {
          "internalType": "uint256",
          "name": "amount",
          "type": "uint256"
        },
        {
          "internalType": "uint256",
          "name": "unitPrice",
          "type": "uint256"
        },
        {
          "internalType": "string",
          "name": "dateTime",
          "type": "string"
        },
        {
          "internalType": "string",
          "name": "status",
          "type": "string"
        }
      ],
      "stateMutability": "view",
      "type": "function",
      "constant": true
    },
    {
      "inputs": [
        {
          "internalType": "uint256",
          "name": "",
          "type": "uint256"
        }
      ],
      "name": "transactions",
      "outputs": [
        {
          "internalType": "uint256",
          "name": "transactionID",
          "type": "uint256"
        },
        {
          "internalType": "uint256",
          "name": "userID",
          "type": "uint256"
        },
        {
          "internalType": "uint256",
          "name": "productID",
          "type": "uint256"
        },
        {
          "internalType": "string",
          "name": "productName",
          "type": "string"
        },
        {
          "internalType": "uint256",
          "name": "amount",
          "type": "uint256"
        },
        {
          "internalType": "uint256",
          "name": "unitPrice",
          "type": "uint256"
        },
        {
          "internalType": "string",
          "name": "dateTime",
          "type": "string"
        },
        {
          "internalType": "string",
          "name": "status",
          "type": "string"
        }
      ],
      "stateMutability": "view",
      "type": "function",
      "constant": true
    },
    {
      "inputs": [
        {
          "internalType": "uint256",
          "name": "transactionID",
          "type": "uint256"
        },
        {
          "internalType": "uint256",
          "name": "userID",
          "type": "uint256"
        },
        {
          "internalType": "uint256",
          "name": "productID",
          "type": "uint256"
        },
        {
          "internalType": "string",
          "name": "productName",
          "type": "string"
        },
        {
          "internalType": "uint256",
          "name": "amount",
          "type": "uint256"
        },
        {
          "internalType": "uint256",
          "name": "unitPrice",
          "type": "uint256"
        },
        {
          "internalType": "string",
          "name": "dateTime",
          "type": "string"
        },
        {
          "internalType": "string",
          "name": "status",
          "type": "string"
        }
      ],
      "name": "setTransaction",
      "outputs": [],
      "stateMutability": "nonpayable",
      "type": "function"
    },
    {
      "inputs": [
        {
          "internalType": "uint256",
          "name": "transactionID",
          "type": "uint256"
        }
      ],
      "name": "getTransaction",
      "outputs": [
        {
          "internalType": "uint256",
          "name": "",
          "type": "uint256"
        },
        {
          "internalType": "uint256",
          "name": "",
          "type": "uint256"
        },
        {
          "internalType": "string",
          "name": "",
          "type": "string"
        },
        {
          "internalType": "uint256",
          "name": "",
          "type": "uint256"
        },
        {
          "internalType": "uint256",
          "name": "",
          "type": "uint256"
        },
        {
          "internalType": "string",
          "name": "",
          "type": "string"
        },
        {
          "internalType": "string",
          "name": "",
          "type": "string"
        }
      ],
      "stateMutability": "view",
      "type": "function",
      "constant": true
    },
    {
      "inputs": [],
      "name": "getAllTransactions",
      "outputs": [
        {
          "components": [
            {
              "internalType": "uint256",
              "name": "transactionID",
              "type": "uint256"
            },
            {
              "internalType": "uint256",
              "name": "userID",
              "type": "uint256"
            },
            {
              "internalType": "uint256",
              "name": "productID",
              "type": "uint256"
            },
            {
              "internalType": "string",
              "name": "productName",
              "type": "string"
            },
            {
              "internalType": "uint256",
              "name": "amount",
              "type": "uint256"
            },
            {
              "internalType": "uint256",
              "name": "unitPrice",
              "type": "uint256"
            },
            {
              "internalType": "string",
              "name": "dateTime",
              "type": "string"
            },
            {
              "internalType": "string",
              "name": "status",
              "type": "string"
            }
          ],
          "internalType": "struct TransactionData.Transaction[]",
          "name": "",
          "type": "tuple[]"
        }
      ],
      "stateMutability": "view",
      "type": "function",
      "constant": true
    },
    {
      "inputs": [
        {
          "internalType": "uint256",
          "name": "transactionID",
          "type": "uint256"
        },
        {
          "internalType": "uint256",
          "name": "userID",
          "type": "uint256"
        },
        {
          "internalType": "uint256",
          "name": "productID",
          "type": "uint256"
        },
        {
          "internalType": "string",
          "name": "productName",
          "type": "string"
        },
        {
          "internalType": "uint256",
          "name": "amount",
          "type": "uint256"
        },
        {
          "internalType": "uint256",
          "name": "unitPrice",
          "type": "uint256"
        },
        {
          "internalType": "string",
          "name": "dateTime",
          "type": "string"
        },
        {
          "internalType": "string",
          "name": "status",
          "type": "string"
        }
      ],
      "name": "updateTransaction",
      "outputs": [],
      "stateMutability": "nonpayable",
      "type": "function"
    },
    {
      "inputs": [
        {
          "internalType": "uint256",
          "name": "transactionID",
          "type": "uint256"
        }
      ],
      "name": "deleteTransaction",
      "outputs": [],
      "stateMutability": "nonpayable",
      "type": "function"
    }
  ],
  "bytecode": "0x608060405234801561001057600080fd5b50336000806101000a81548173ffffffffffffffffffffffffffffffffffffffff021916908373ffffffffffffffffffffffffffffffffffffffff160217905550611f2d806100606000396000f3fe608060405234801561001057600080fd5b50600436106100875760003560e01c80639ace38c21161005b5780639ace38c2146101185780639d08f4a91461014f578063c82ef8fb14610174578063f80ad0b6146101ab57610087565b8062e9c0061461008c57806327506f53146100a857806333ea3dc8146100c657806393691e0a146100fc575b600080fd5b6100a660048036038101906100a191906116fc565b6101c7565b005b6100b061062a565b6040516100bd9190611951565b60405180910390f35b6100e060048036038101906100db91906116fc565b610872565b6040516100f397969594939291906119cc565b60405180910390f35b61011660048036038101906101119190611b85565b610b1e565b005b610132600480360381019061012d91906116fc565b610d4a565b604051610146989796959493929190611c8f565b60405180910390f35b610157610f2a565b60405161016b989796959493929190611c8f565b60405180910390f35b61018e600480360381019061018991906116fc565b6110f8565b6040516101a2989796959493929190611c8f565b60405180910390f35b6101c560048036038101906101c09190611b85565b6112e8565b005b60008054906101000a900473ffffffffffffffffffffffffffffffffffffffff1673ffffffffffffffffffffffffffffffffffffffff163373ffffffffffffffffffffffffffffffffffffffff161461021f57600080fd5b6000600160008381526020019081526020016000206000015403610278576040517f08c379a000000000000000000000000000000000000000000000000000000000815260040161026f90611d6e565b60405180910390fd5b60016000828152602001908152602001600020600080820160009055600182016000905560028201600090556003820160006102b49190611542565b600482016000905560058201600090556006820160006102d49190611542565b6007820160006102e49190611542565b505060005b6002805490508110156105a357816002828154811061030b5761030a611d8e565b5b90600052602060002090600802016000015403610590576002818154811061033657610335611d8e565b5b90600052602060002090600802016003600082015481600001556001820154816001015560028201548160020155600382018160030190805461037890611dec565b610383929190611582565b50600482015481600401556005820154816005015560068201816006019080546103ac90611dec565b6103b7929190611582565b5060078201816007019080546103cc90611dec565b6103d7929190611582565b50905050600260016002805490506103ef9190611e4c565b81548110610400576103ff611d8e565b5b90600052602060002090600802016002828154811061042257610421611d8e565b5b9060005260206000209060080201600082015481600001556001820154816001015560028201548160020155600382018160030190805461046290611dec565b61046d929190611582565b506004820154816004015560058201548160050155600682018160060190805461049690611dec565b6104a1929190611582565b5060078201816007019080546104b690611dec565b6104c1929190611582565b509050506003600260016002805490506104db9190611e4c565b815481106104ec576104eb611d8e565b5b9060005260206000209060080201600082015481600001556001820154816001015560028201548160020155600382018160030190805461052c90611dec565b610537929190611582565b506004820154816004015560058201548160050155600682018160060190805461056090611dec565b61056b929190611582565b50600782018160070190805461058090611dec565b61058b929190611582565b509050505b808061059b90611e80565b9150506102e9565b5060028054806105b6576105b5611ec8565b5b6001900381819060005260206000209060080201600080820160009055600182016000905560028201600090556003820160006105f39190611542565b600482016000905560058201600090556006820160006106139190611542565b6007820160006106239190611542565b5050905550565b60606002805480602002602001604051908101604052809291908181526020016000905b828210156108695783829060005260206000209060080201604051806101000160405290816000820154815260200160018201548152602001600282015481526020016003820180546106a090611dec565b80601f01602080910402602001604051908101604052809291908181526020018280546106cc90611dec565b80156107195780601f106106ee57610100808354040283529160200191610719565b820191906000526020600020905b8154815290600101906020018083116106fc57829003601f168201915b50505050508152602001600482015481526020016005820154815260200160068201805461074690611dec565b80601f016020809104026020016040519081016040528092919081815260200182805461077290611dec565b80156107bf5780601f10610794576101008083540402835291602001916107bf565b820191906000526020600020905b8154815290600101906020018083116107a257829003601f168201915b505050505081526020016007820180546107d890611dec565b80601f016020809104026020016040519081016040528092919081815260200182805461080490611dec565b80156108515780601f1061082657610100808354040283529160200191610851565b820191906000526020600020905b81548152906001019060200180831161083457829003601f168201915b5050505050815250508152602001906001019061064e565b50505050905090565b60008060606000806060806000600160008a815260200190815260200160002060000154036108d6576040517f08c379a00000000000000000000000000000000000000000000000000000000081526004016108cd90611d6e565b60405180910390fd5b6000600160008a81526020019081526020016000206040518061010001604052908160008201548152602001600182015481526020016002820154815260200160038201805461092590611dec565b80601f016020809104026020016040519081016040528092919081815260200182805461095190611dec565b801561099e5780601f106109735761010080835404028352916020019161099e565b820191906000526020600020905b81548152906001019060200180831161098157829003601f168201915b5050505050815260200160048201548152602001600582015481526020016006820180546109cb90611dec565b80601f01602080910402602001604051908101604052809291908181526020018280546109f790611dec565b8015610a445780601f10610a1957610100808354040283529160200191610a44565b820191906000526020600020905b815481529060010190602001808311610a2757829003601f168201915b50505050508152602001600782018054610a5d90611dec565b80601f0160208091040260200160405190810160405280929190818152602001828054610a8990611dec565b8015610ad65780601f10610aab57610100808354040283529160200191610ad6565b820191906000526020600020905b815481529060010190602001808311610ab957829003601f168201915b505050505081525050905080602001518160400151826060015183608001518460a001518560c001518660e00151975097509750975097509750975050919395979092949650565b60008054906101000a900473ffffffffffffffffffffffffffffffffffffffff1673ffffffffffffffffffffffffffffffffffffffff163373ffffffffffffffffffffffffffffffffffffffff1614610b7657600080fd5b6000600160008a81526020019081526020016000206000015403610d2f5760006040518061010001604052808a815260200189815260200188815260200187815260200186815260200185815260200184815260200183815250905080600160008b81526020019081526020016000206000820151816000015560208201518160010155604082015181600201556060820151816003019080519060200190610c2092919061160f565b506080820151816004015560a0820151816005015560c0820151816006019080519060200190610c5192919061160f565b5060e0820151816007019080519060200190610c6e92919061160f565b5090505060028190806001815401808255809150506001900390600052602060002090600802016000909190919091506000820151816000015560208201518160010155604082015181600201556060820151816003019080519060200190610cd892919061160f565b506080820151816004015560a0820151816005015560c0820151816006019080519060200190610d0992919061160f565b5060e0820151816007019080519060200190610d2692919061160f565b50505050610d40565b610d3f88888888888888886112e8565b5b5050505050505050565b6001602052806000526040600020600091509050806000015490806001015490806002015490806003018054610d7f90611dec565b80601f0160208091040260200160405190810160405280929190818152602001828054610dab90611dec565b8015610df85780601f10610dcd57610100808354040283529160200191610df8565b820191906000526020600020905b815481529060010190602001808311610ddb57829003601f168201915b505050505090806004015490806005015490806006018054610e1990611dec565b80601f0160208091040260200160405190810160405280929190818152602001828054610e4590611dec565b8015610e925780601f10610e6757610100808354040283529160200191610e92565b820191906000526020600020905b815481529060010190602001808311610e7557829003601f168201915b505050505090806007018054610ea790611dec565b80601f0160208091040260200160405190810160405280929190818152602001828054610ed390611dec565b8015610f205780601f10610ef557610100808354040283529160200191610f20565b820191906000526020600020905b815481529060010190602001808311610f0357829003601f168201915b5050505050905088565b6003806000015490806001015490806002015490806003018054610f4d90611dec565b80601f0160208091040260200160405190810160405280929190818152602001828054610f7990611dec565b8015610fc65780601f10610f9b57610100808354040283529160200191610fc6565b820191906000526020600020905b815481529060010190602001808311610fa957829003601f168201915b505050505090806004015490806005015490806006018054610fe790611dec565b80601f016020809104026020016040519081016040528092919081815260200182805461101390611dec565b80156110605780601f1061103557610100808354040283529160200191611060565b820191906000526020600020905b81548152906001019060200180831161104357829003601f168201915b50505050509080600701805461107590611dec565b80601f01602080910402602001604051908101604052809291908181526020018280546110a190611dec565b80156110ee5780601f106110c3576101008083540402835291602001916110ee565b820191906000526020600020905b8154815290600101906020018083116110d157829003601f168201915b5050505050905088565b6002818154811061110857600080fd5b906000526020600020906008020160009150905080600001549080600101549080600201549080600301805461113d90611dec565b80601f016020809104026020016040519081016040528092919081815260200182805461116990611dec565b80156111b65780601f1061118b576101008083540402835291602001916111b6565b820191906000526020600020905b81548152906001019060200180831161119957829003601f168201915b5050505050908060040154908060050154908060060180546111d790611dec565b80601f016020809104026020016040519081016040528092919081815260200182805461120390611dec565b80156112505780601f1061122557610100808354040283529160200191611250565b820191906000526020600020905b81548152906001019060200180831161123357829003601f168201915b50505050509080600701805461126590611dec565b80601f016020809104026020016040519081016040528092919081815260200182805461129190611dec565b80156112de5780601f106112b3576101008083540402835291602001916112de565b820191906000526020600020905b8154815290600101906020018083116112c157829003601f168201915b5050505050905088565b60008054906101000a900473ffffffffffffffffffffffffffffffffffffffff1673ffffffffffffffffffffffffffffffffffffffff163373ffffffffffffffffffffffffffffffffffffffff161461134057600080fd5b6000600160008a81526020019081526020016000206000015403611399576040517f08c379a000000000000000000000000000000000000000000000000000000000815260040161139090611d6e565b60405180910390fd5b6113a2886101c7565b60006040518061010001604052808a815260200189815260200188815260200187815260200186815260200185815260200184815260200183815250905080600160008b8152602001908152602001600020600082015181600001556020820151816001015560408201518160020155606082015181600301908051906020019061142e92919061160f565b506080820151816004015560a0820151816005015560c082015181600601908051906020019061145f92919061160f565b5060e082015181600701908051906020019061147c92919061160f565b50905050600281908060018154018082558091505060019003906000526020600020906008020160009091909190915060008201518160000155602082015181600101556040820151816002015560608201518160030190805190602001906114e692919061160f565b506080820151816004015560a0820151816005015560c082015181600601908051906020019061151792919061160f565b5060e082015181600701908051906020019061153492919061160f565b505050505050505050505050565b50805461154e90611dec565b6000825580601f10611560575061157f565b601f01602090049060005260206000209081019061157e9190611695565b5b50565b82805461158e90611dec565b90600052602060002090601f0160209004810192826115b057600085556115fe565b82601f106115c157805485556115fe565b828001600101855582156115fe57600052602060002091601f016020900482015b828111156115fd5782548255916001019190600101906115e2565b5b50905061160b9190611695565b5090565b82805461161b90611dec565b90600052602060002090601f01602090048101928261163d5760008555611684565b82601f1061165657805160ff1916838001178555611684565b82800160010185558215611684579182015b82811115611683578251825591602001919060010190611668565b5b5090506116919190611695565b5090565b5b808211156116ae576000816000905550600101611696565b5090565b6000604051905090565b600080fd5b600080fd5b6000819050919050565b6116d9816116c6565b81146116e457600080fd5b50565b6000813590506116f6816116d0565b92915050565b600060208284031215611712576117116116bc565b5b6000611720848285016116e7565b91505092915050565b600081519050919050565b600082825260208201905092915050565b6000819050602082019050919050565b61175e816116c6565b82525050565b600081519050919050565b600082825260208201905092915050565b60005b8381101561179e578082015181840152602081019050611783565b838111156117ad576000848401525b50505050565b6000601f19601f8301169050919050565b60006117cf82611764565b6117d9818561176f565b93506117e9818560208601611780565b6117f2816117b3565b840191505092915050565b6000610100830160008301516118166000860182611755565b5060208301516118296020860182611755565b50604083015161183c6040860182611755565b506060830151848203606086015261185482826117c4565b91505060808301516118696080860182611755565b5060a083015161187c60a0860182611755565b5060c083015184820360c086015261189482826117c4565b91505060e083015184820360e08601526118ae82826117c4565b9150508091505092915050565b60006118c783836117fd565b905092915050565b6000602082019050919050565b60006118e782611729565b6118f18185611734565b93508360208202850161190385611745565b8060005b8581101561193f578484038952815161192085826118bb565b945061192b836118cf565b925060208a01995050600181019050611907565b50829750879550505050505092915050565b6000602082019050818103600083015261196b81846118dc565b905092915050565b61197c816116c6565b82525050565b600082825260208201905092915050565b600061199e82611764565b6119a88185611982565b93506119b8818560208601611780565b6119c1816117b3565b840191505092915050565b600060e0820190506119e1600083018a611973565b6119ee6020830189611973565b8181036040830152611a008188611993565b9050611a0f6060830187611973565b611a1c6080830186611973565b81810360a0830152611a2e8185611993565b905081810360c0830152611a428184611993565b905098975050505050505050565b600080fd5b600080fd5b7f4e487b7100000000000000000000000000000000000000000000000000000000600052604160045260246000fd5b611a92826117b3565b810181811067ffffffffffffffff82111715611ab157611ab0611a5a565b5b80604052505050565b6000611ac46116b2565b9050611ad08282611a89565b919050565b600067ffffffffffffffff821115611af057611aef611a5a565b5b611af9826117b3565b9050602081019050919050565b82818337600083830152505050565b6000611b28611b2384611ad5565b611aba565b905082815260208101848484011115611b4457611b43611a55565b5b611b4f848285611b06565b509392505050565b600082601f830112611b6c57611b6b611a50565b5b8135611b7c848260208601611b15565b91505092915050565b600080600080600080600080610100898b031215611ba657611ba56116bc565b5b6000611bb48b828c016116e7565b9850506020611bc58b828c016116e7565b9750506040611bd68b828c016116e7565b965050606089013567ffffffffffffffff811115611bf757611bf66116c1565b5b611c038b828c01611b57565b9550506080611c148b828c016116e7565b94505060a0611c258b828c016116e7565b93505060c089013567ffffffffffffffff811115611c4657611c456116c1565b5b611c528b828c01611b57565b92505060e089013567ffffffffffffffff811115611c7357611c726116c1565b5b611c7f8b828c01611b57565b9150509295985092959890939650565b600061010082019050611ca5600083018b611973565b611cb2602083018a611973565b611cbf6040830189611973565b8181036060830152611cd18188611993565b9050611ce06080830187611973565b611ced60a0830186611973565b81810360c0830152611cff8185611993565b905081810360e0830152611d138184611993565b90509998505050505050505050565b7f5472616e73616374696f6e206973206e6f7420617661696c61626c6500000000600082015250565b6000611d58601c83611982565b9150611d6382611d22565b602082019050919050565b60006020820190508181036000830152611d8781611d4b565b9050919050565b7f4e487b7100000000000000000000000000000000000000000000000000000000600052603260045260246000fd5b7f4e487b7100000000000000000000000000000000000000000000000000000000600052602260045260246000fd5b60006002820490506001821680611e0457607f821691505b602082108103611e1757611e16611dbd565b5b50919050565b7f4e487b7100000000000000000000000000000000000000000000000000000000600052601160045260246000fd5b6000611e57826116c6565b9150611e62836116c6565b925082821015611e7557611e74611e1d565b5b828203905092915050565b6000611e8b826116c6565b91507fffffffffffffffffffffffffffffffffffffffffffffffffffffffffffffffff8203611ebd57611ebc611e1d565b5b600182019050919050565b7f4e487b7100000000000000000000000000000000000000000000000000000000600052603160045260246000fdfea26469706673582212205e00ac07813c842a8883f47a523602f2a5281e2ad6dfb2b92d76b33db5c03e2064736f6c634300080d0033",
  "immutableReferences": {},
  "source": "// SPDX-License-Identifier: UNLICENSED \r\npragma solidity >=0.4.22 <0.9.0;\r\n\r\ncontract TransactionData {\r\n    struct Transaction {\r\n        uint256 transactionID;\r\n        uint256 userID;\r\n        uint256 productID;\r\n        string productName;\r\n        uint256 amount;\r\n        uint256 unitPrice;\r\n        string dateTime;\r\n        string status;\r\n    }\r\n\r\n    address owner;\r\n\r\n    mapping (uint => Transaction) public transactions;\r\n    Transaction[] public transactionArray;\r\n\r\n    constructor() {\r\n        owner = msg.sender;\r\n    }\r\n\r\n    modifier onlyOwner {\r\n        require(msg.sender == owner);\r\n        _;\r\n    }\r\n\r\n    // If the transactionID has already been chosen, the updateTransaction method would be called instead\r\n    function setTransaction(uint256 transactionID, uint256 userID, uint256 productID, \r\n                            string memory productName, uint256 amount, uint256 unitPrice, string memory dateTime, string memory status) public onlyOwner {\r\n        if (transactions[transactionID].transactionID == 0) {\r\n            Transaction memory transaction = Transaction(transactionID, userID, productID, productName, amount, unitPrice, dateTime, status);\r\n            transactions[transactionID] = transaction;\r\n            transactionArray.push(transaction);\r\n        }\r\n        else {\r\n            updateTransaction(transactionID, userID, productID, productName, amount, unitPrice, dateTime, status);\r\n        }\r\n    }\r\n\r\n    function getTransaction(uint256 transactionID) public view returns (uint256, uint256, string memory, uint256, uint256, string memory, string memory) {\r\n        require(transactions[transactionID].transactionID != 0, \"Transaction is not available\");\r\n        Transaction memory transaction = transactions[transactionID];\r\n        return (transaction.userID, transaction.productID, transaction.productName, transaction.amount, transaction.unitPrice, transaction.dateTime, transaction.status);\r\n    }\r\n\r\n    function getAllTransactions() public view returns (Transaction[] memory) {\r\n        return transactionArray;\r\n    }\r\n\r\n    function updateTransaction(uint256 transactionID, uint256 userID, uint256 productID, \r\n                               string memory productName, uint256 amount, uint256 unitPrice, string memory dateTime, string memory status) public onlyOwner() {\r\n        require(transactions[transactionID].transactionID != 0, \"Transaction is not available\");\r\n\r\n        deleteTransaction(transactionID);\r\n\r\n        Transaction memory transaction = Transaction(transactionID, userID, productID, productName, amount, unitPrice, dateTime, status);\r\n        transactions[transactionID] = transaction;\r\n        transactionArray.push(transaction);\r\n    }\r\n\r\n    Transaction public removeMe;\r\n    \r\n    // Delete a transaction in the array by swap it to the last element, then remove that\r\n    function deleteTransaction(uint256 transactionID) public onlyOwner() {\r\n        require(transactions[transactionID].transactionID != 0, \"Transaction is not available\");\r\n        delete transactions[transactionID];\r\n\r\n        for (uint i = 0; i < transactionArray.length; i++) {\r\n            if (transactionArray[i].transactionID == transactionID) {\r\n                removeMe = transactionArray[i];\r\n                transactionArray[i] = transactionArray[transactionArray.length - 1];\r\n                transactionArray[transactionArray.length - 1] = removeMe;\r\n            }\r\n        }\r\n        transactionArray.pop();\r\n    }\r\n}",
  "sourcePath": "E:\\COS30049_Computing_Technology_Innovation_Project\\CTrade\\contracts\\transactionData.sol",
  "compiler": {
    "name": "solc",
    "version": "0.8.13+commit.abaa5c0e.Emscripten.clang"
  },
  "schemaVersion": "3.4.16",
  "updatedAt": "2023-10-15T01:10:31.646Z",
  "networkType": "ethereum",
  "devdoc": {
    "kind": "dev",
    "methods": {},
    "version": 1
  },
  "userdoc": {
    "kind": "user",
    "methods": {},
    "version": 1
  }
}