{
  "contractName": "UserData",
  "abi": [
    {
      "inputs": [],
      "stateMutability": "nonpayable",
      "type": "constructor"
    },
    {
      "inputs": [],
      "name": "removeMe",
      "outputs": [
        {
          "internalType": "uint256",
          "name": "userID",
          "type": "uint256"
        },
        {
          "internalType": "string",
          "name": "username",
          "type": "string"
        },
        {
          "internalType": "string",
          "name": "pwd",
          "type": "string"
        },
        {
          "internalType": "string",
          "name": "firstName",
          "type": "string"
        },
        {
          "internalType": "string",
          "name": "lastName",
          "type": "string"
        },
        {
          "internalType": "string",
          "name": "userEmail",
          "type": "string"
        }
      ],
      "stateMutability": "view",
      "type": "function",
      "constant": true
    },
    {
      "inputs": [
        {
          "internalType": "uint256",
          "name": "",
          "type": "uint256"
        }
      ],
      "name": "userArray",
      "outputs": [
        {
          "internalType": "uint256",
          "name": "userID",
          "type": "uint256"
        },
        {
          "internalType": "string",
          "name": "username",
          "type": "string"
        },
        {
          "internalType": "string",
          "name": "pwd",
          "type": "string"
        },
        {
          "internalType": "string",
          "name": "firstName",
          "type": "string"
        },
        {
          "internalType": "string",
          "name": "lastName",
          "type": "string"
        },
        {
          "internalType": "string",
          "name": "userEmail",
          "type": "string"
        }
      ],
      "stateMutability": "view",
      "type": "function",
      "constant": true
    },
    {
      "inputs": [
        {
          "internalType": "uint256",
          "name": "",
          "type": "uint256"
        }
      ],
      "name": "users",
      "outputs": [
        {
          "internalType": "uint256",
          "name": "userID",
          "type": "uint256"
        },
        {
          "internalType": "string",
          "name": "username",
          "type": "string"
        },
        {
          "internalType": "string",
          "name": "pwd",
          "type": "string"
        },
        {
          "internalType": "string",
          "name": "firstName",
          "type": "string"
        },
        {
          "internalType": "string",
          "name": "lastName",
          "type": "string"
        },
        {
          "internalType": "string",
          "name": "userEmail",
          "type": "string"
        }
      ],
      "stateMutability": "view",
      "type": "function",
      "constant": true
    },
    {
      "inputs": [
        {
          "internalType": "uint256",
          "name": "userID",
          "type": "uint256"
        },
        {
          "internalType": "string",
          "name": "username",
          "type": "string"
        },
        {
          "internalType": "string",
          "name": "pwd",
          "type": "string"
        },
        {
          "internalType": "string",
          "name": "firstName",
          "type": "string"
        },
        {
          "internalType": "string",
          "name": "lastName",
          "type": "string"
        },
        {
          "internalType": "string",
          "name": "userEmail",
          "type": "string"
        }
      ],
      "name": "setUser",
      "outputs": [],
      "stateMutability": "nonpayable",
      "type": "function"
    },
    {
      "inputs": [
        {
          "internalType": "uint256",
          "name": "userID",
          "type": "uint256"
        }
      ],
      "name": "getUser",
      "outputs": [
        {
          "internalType": "string",
          "name": "",
          "type": "string"
        },
        {
          "internalType": "string",
          "name": "",
          "type": "string"
        },
        {
          "internalType": "string",
          "name": "",
          "type": "string"
        },
        {
          "internalType": "string",
          "name": "",
          "type": "string"
        },
        {
          "internalType": "string",
          "name": "",
          "type": "string"
        }
      ],
      "stateMutability": "view",
      "type": "function",
      "constant": true
    },
    {
      "inputs": [],
      "name": "getAllUsers",
      "outputs": [
        {
          "components": [
            {
              "internalType": "uint256",
              "name": "userID",
              "type": "uint256"
            },
            {
              "internalType": "string",
              "name": "username",
              "type": "string"
            },
            {
              "internalType": "string",
              "name": "pwd",
              "type": "string"
            },
            {
              "internalType": "string",
              "name": "firstName",
              "type": "string"
            },
            {
              "internalType": "string",
              "name": "lastName",
              "type": "string"
            },
            {
              "internalType": "string",
              "name": "userEmail",
              "type": "string"
            }
          ],
          "internalType": "struct UserData.User[]",
          "name": "",
          "type": "tuple[]"
        }
      ],
      "stateMutability": "view",
      "type": "function",
      "constant": true
    },
    {
      "inputs": [
        {
          "internalType": "uint256",
          "name": "userID",
          "type": "uint256"
        },
        {
          "internalType": "string",
          "name": "username",
          "type": "string"
        },
        {
          "internalType": "string",
          "name": "pwd",
          "type": "string"
        },
        {
          "internalType": "string",
          "name": "firstName",
          "type": "string"
        },
        {
          "internalType": "string",
          "name": "lastName",
          "type": "string"
        },
        {
          "internalType": "string",
          "name": "userEmail",
          "type": "string"
        }
      ],
      "name": "updateUser",
      "outputs": [],
      "stateMutability": "nonpayable",
      "type": "function"
    },
    {
      "inputs": [
        {
          "internalType": "uint256",
          "name": "userID",
          "type": "uint256"
        }
      ],
      "name": "deleteUser",
      "outputs": [],
      "stateMutability": "nonpayable",
      "type": "function"
    }
  ],
  "bytecode": "0x608060405234801561001057600080fd5b50336000806101000a81548173ffffffffffffffffffffffffffffffffffffffff021916908373ffffffffffffffffffffffffffffffffffffffff16021790555061245e806100606000396000f3fe608060405234801561001057600080fd5b50600436106100885760003560e01c80639d08f4a91161005b5780639d08f4a91461012f578063b0467deb14610152578063e2842d7914610186578063f828c36a146101a457610088565b8063365b98b21461008d57806338f14845146100c257806341209af1146100de5780639515c00a14610113575b600080fd5b6100a760048036038101906100a29190611c54565b6101c0565b6040516100b996959493929190611d29565b60405180910390f35b6100dc60048036038101906100d79190611c54565b6104a4565b005b6100f860048036038101906100f39190611c54565b61094f565b60405161010a96959493929190611d29565b60405180910390f35b61012d60048036038101906101289190611ee2565b610c43565b005b610137610eb2565b60405161014996959493929190611d29565b60405180910390f35b61016c60048036038101906101679190611c54565b611184565b60405161017d959493929190611ffb565b60405180910390f35b61018e611518565b60405161019b9190612231565b60405180910390f35b6101be60048036038101906101b99190611ee2565b61185b565b005b60076020528060005260406000206000915090508060000154908060010180546101e990612282565b80601f016020809104026020016040519081016040528092919081815260200182805461021590612282565b80156102625780601f1061023757610100808354040283529160200191610262565b820191906000526020600020905b81548152906001019060200180831161024557829003601f168201915b50505050509080600201805461027790612282565b80601f01602080910402602001604051908101604052809291908181526020018280546102a390612282565b80156102f05780601f106102c5576101008083540402835291602001916102f0565b820191906000526020600020905b8154815290600101906020018083116102d357829003601f168201915b50505050509080600301805461030590612282565b80601f016020809104026020016040519081016040528092919081815260200182805461033190612282565b801561037e5780601f106103535761010080835404028352916020019161037e565b820191906000526020600020905b81548152906001019060200180831161036157829003601f168201915b50505050509080600401805461039390612282565b80601f01602080910402602001604051908101604052809291908181526020018280546103bf90612282565b801561040c5780601f106103e15761010080835404028352916020019161040c565b820191906000526020600020905b8154815290600101906020018083116103ef57829003601f168201915b50505050509080600501805461042190612282565b80601f016020809104026020016040519081016040528092919081815260200182805461044d90612282565b801561049a5780601f1061046f5761010080835404028352916020019161049a565b820191906000526020600020905b81548152906001019060200180831161047d57829003601f168201915b5050505050905086565b60008054906101000a900473ffffffffffffffffffffffffffffffffffffffff1673ffffffffffffffffffffffffffffffffffffffff163373ffffffffffffffffffffffffffffffffffffffff16146104fc57600080fd5b6000600760008381526020019081526020016000206000015403610555576040517f08c379a000000000000000000000000000000000000000000000000000000000815260040161054c906122ff565b60405180910390fd5b600760008281526020019081526020016000206000808201600090556001820160006105819190611a9a565b6002820160006105919190611a9a565b6003820160006105a19190611a9a565b6004820160006105b19190611a9a565b6005820160006105c19190611a9a565b505060005b6008805490508110156108c85781600882815481106105e8576105e761231f565b5b906000526020600020906006020160000154036108b557600881815481106106135761061261231f565b5b9060005260206000209060060201600160008201548160000155600182018160010190805461064190612282565b61064c929190611ada565b50600282018160020190805461066190612282565b61066c929190611ada565b50600382018160030190805461068190612282565b61068c929190611ada565b5060048201816004019080546106a190612282565b6106ac929190611ada565b5060058201816005019080546106c190612282565b6106cc929190611ada565b50905050600860016008805490506106e4919061237d565b815481106106f5576106f461231f565b5b9060005260206000209060060201600882815481106107175761071661231f565b5b906000526020600020906006020160008201548160000155600182018160010190805461074390612282565b61074e929190611ada565b50600282018160020190805461076390612282565b61076e929190611ada565b50600382018160030190805461078390612282565b61078e929190611ada565b5060048201816004019080546107a390612282565b6107ae929190611ada565b5060058201816005019080546107c390612282565b6107ce929190611ada565b509050506001600860016008805490506107e8919061237d565b815481106107f9576107f861231f565b5b906000526020600020906006020160008201548160000155600182018160010190805461082590612282565b610830929190611ada565b50600282018160020190805461084590612282565b610850929190611ada565b50600382018160030190805461086590612282565b610870929190611ada565b50600482018160040190805461088590612282565b610890929190611ada565b5060058201816005019080546108a590612282565b6108b0929190611ada565b509050505b80806108c0906123b1565b9150506105c6565b5060088054806108db576108da6123f9565b5b60019003818190600052602060002090600602016000808201600090556001820160006109089190611a9a565b6002820160006109189190611a9a565b6003820160006109289190611a9a565b6004820160006109389190611a9a565b6005820160006109489190611a9a565b5050905550565b6008818154811061095f57600080fd5b906000526020600020906006020160009150905080600001549080600101805461098890612282565b80601f01602080910402602001604051908101604052809291908181526020018280546109b490612282565b8015610a015780601f106109d657610100808354040283529160200191610a01565b820191906000526020600020905b8154815290600101906020018083116109e457829003601f168201915b505050505090806002018054610a1690612282565b80601f0160208091040260200160405190810160405280929190818152602001828054610a4290612282565b8015610a8f5780601f10610a6457610100808354040283529160200191610a8f565b820191906000526020600020905b815481529060010190602001808311610a7257829003601f168201915b505050505090806003018054610aa490612282565b80601f0160208091040260200160405190810160405280929190818152602001828054610ad090612282565b8015610b1d5780601f10610af257610100808354040283529160200191610b1d565b820191906000526020600020905b815481529060010190602001808311610b0057829003601f168201915b505050505090806004018054610b3290612282565b80601f0160208091040260200160405190810160405280929190818152602001828054610b5e90612282565b8015610bab5780601f10610b8057610100808354040283529160200191610bab565b820191906000526020600020905b815481529060010190602001808311610b8e57829003601f168201915b505050505090806005018054610bc090612282565b80601f0160208091040260200160405190810160405280929190818152602001828054610bec90612282565b8015610c395780601f10610c0e57610100808354040283529160200191610c39565b820191906000526020600020905b815481529060010190602001808311610c1c57829003601f168201915b5050505050905086565b60008054906101000a900473ffffffffffffffffffffffffffffffffffffffff1673ffffffffffffffffffffffffffffffffffffffff163373ffffffffffffffffffffffffffffffffffffffff1614610c9b57600080fd5b6000600760008881526020019081526020016000206000015403610cf4576040517f08c379a0000000000000000000000000000000000000000000000000000000008152600401610ceb906122ff565b60405180910390fd5b610cfd866104a4565b60006040518060c001604052808881526020018781526020018681526020018581526020018481526020018381525090508060076000898152602001908152602001600020600082015181600001556020820151816001019080519060200190610d68929190611b67565b506040820151816002019080519060200190610d85929190611b67565b506060820151816003019080519060200190610da2929190611b67565b506080820151816004019080519060200190610dbf929190611b67565b5060a0820151816005019080519060200190610ddc929190611b67565b509050506008819080600181540180825580915050600190039060005260206000209060060201600090919091909150600082015181600001556020820151816001019080519060200190610e32929190611b67565b506040820151816002019080519060200190610e4f929190611b67565b506060820151816003019080519060200190610e6c929190611b67565b506080820151816004019080519060200190610e89929190611b67565b5060a0820151816005019080519060200190610ea6929190611b67565b50505050505050505050565b6001806000015490806001018054610ec990612282565b80601f0160208091040260200160405190810160405280929190818152602001828054610ef590612282565b8015610f425780601f10610f1757610100808354040283529160200191610f42565b820191906000526020600020905b815481529060010190602001808311610f2557829003601f168201915b505050505090806002018054610f5790612282565b80601f0160208091040260200160405190810160405280929190818152602001828054610f8390612282565b8015610fd05780601f10610fa557610100808354040283529160200191610fd0565b820191906000526020600020905b815481529060010190602001808311610fb357829003601f168201915b505050505090806003018054610fe590612282565b80601f016020809104026020016040519081016040528092919081815260200182805461101190612282565b801561105e5780601f106110335761010080835404028352916020019161105e565b820191906000526020600020905b81548152906001019060200180831161104157829003601f168201915b50505050509080600401805461107390612282565b80601f016020809104026020016040519081016040528092919081815260200182805461109f90612282565b80156110ec5780601f106110c1576101008083540402835291602001916110ec565b820191906000526020600020905b8154815290600101906020018083116110cf57829003601f168201915b50505050509080600501805461110190612282565b80601f016020809104026020016040519081016040528092919081815260200182805461112d90612282565b801561117a5780601f1061114f5761010080835404028352916020019161117a565b820191906000526020600020905b81548152906001019060200180831161115d57829003601f168201915b5050505050905086565b606080606080606060006007600088815260200190815260200160002060000154036111e5576040517f08c379a00000000000000000000000000000000000000000000000000000000081526004016111dc906122ff565b60405180910390fd5b6000600760008881526020019081526020016000206040518060c00160405290816000820154815260200160018201805461121f90612282565b80601f016020809104026020016040519081016040528092919081815260200182805461124b90612282565b80156112985780601f1061126d57610100808354040283529160200191611298565b820191906000526020600020905b81548152906001019060200180831161127b57829003601f168201915b505050505081526020016002820180546112b190612282565b80601f01602080910402602001604051908101604052809291908181526020018280546112dd90612282565b801561132a5780601f106112ff5761010080835404028352916020019161132a565b820191906000526020600020905b81548152906001019060200180831161130d57829003601f168201915b5050505050815260200160038201805461134390612282565b80601f016020809104026020016040519081016040528092919081815260200182805461136f90612282565b80156113bc5780601f10611391576101008083540402835291602001916113bc565b820191906000526020600020905b81548152906001019060200180831161139f57829003601f168201915b505050505081526020016004820180546113d590612282565b80601f016020809104026020016040519081016040528092919081815260200182805461140190612282565b801561144e5780601f106114235761010080835404028352916020019161144e565b820191906000526020600020905b81548152906001019060200180831161143157829003601f168201915b5050505050815260200160058201805461146790612282565b80601f016020809104026020016040519081016040528092919081815260200182805461149390612282565b80156114e05780601f106114b5576101008083540402835291602001916114e0565b820191906000526020600020905b8154815290600101906020018083116114c357829003601f168201915b505050505081525050905080602001518160400151826060015183608001518460a00151955095509550955095505091939590929450565b60606008805480602002602001604051908101604052809291908181526020016000905b8282101561185257838290600052602060002090600602016040518060c00160405290816000820154815260200160018201805461157990612282565b80601f01602080910402602001604051908101604052809291908181526020018280546115a590612282565b80156115f25780601f106115c7576101008083540402835291602001916115f2565b820191906000526020600020905b8154815290600101906020018083116115d557829003601f168201915b5050505050815260200160028201805461160b90612282565b80601f016020809104026020016040519081016040528092919081815260200182805461163790612282565b80156116845780601f1061165957610100808354040283529160200191611684565b820191906000526020600020905b81548152906001019060200180831161166757829003601f168201915b5050505050815260200160038201805461169d90612282565b80601f01602080910402602001604051908101604052809291908181526020018280546116c990612282565b80156117165780601f106116eb57610100808354040283529160200191611716565b820191906000526020600020905b8154815290600101906020018083116116f957829003601f168201915b5050505050815260200160048201805461172f90612282565b80601f016020809104026020016040519081016040528092919081815260200182805461175b90612282565b80156117a85780601f1061177d576101008083540402835291602001916117a8565b820191906000526020600020905b81548152906001019060200180831161178b57829003601f168201915b505050505081526020016005820180546117c190612282565b80601f01602080910402602001604051908101604052809291908181526020018280546117ed90612282565b801561183a5780601f1061180f5761010080835404028352916020019161183a565b820191906000526020600020905b81548152906001019060200180831161181d57829003601f168201915b5050505050815250508152602001906001019061153c565b50505050905090565b60008054906101000a900473ffffffffffffffffffffffffffffffffffffffff1673ffffffffffffffffffffffffffffffffffffffff163373ffffffffffffffffffffffffffffffffffffffff16146118b357600080fd5b6000600760008881526020019081526020016000206000015403611a835760006040518060c00160405280888152602001878152602001868152602001858152602001848152602001838152509050806007600089815260200190815260200160002060008201518160000155602082015181600101908051906020019061193c929190611b67565b506040820151816002019080519060200190611959929190611b67565b506060820151816003019080519060200190611976929190611b67565b506080820151816004019080519060200190611993929190611b67565b5060a08201518160050190805190602001906119b0929190611b67565b509050506008819080600181540180825580915050600190039060005260206000209060060201600090919091909150600082015181600001556020820151816001019080519060200190611a06929190611b67565b506040820151816002019080519060200190611a23929190611b67565b506060820151816003019080519060200190611a40929190611b67565b506080820151816004019080519060200190611a5d929190611b67565b5060a0820151816005019080519060200190611a7a929190611b67565b50505050611a92565b611a91868686868686610c43565b5b505050505050565b508054611aa690612282565b6000825580601f10611ab85750611ad7565b601f016020900490600052602060002090810190611ad69190611bed565b5b50565b828054611ae690612282565b90600052602060002090601f016020900481019282611b085760008555611b56565b82601f10611b195780548555611b56565b82800160010185558215611b5657600052602060002091601f016020900482015b82811115611b55578254825591600101919060010190611b3a565b5b509050611b639190611bed565b5090565b828054611b7390612282565b90600052602060002090601f016020900481019282611b955760008555611bdc565b82601f10611bae57805160ff1916838001178555611bdc565b82800160010185558215611bdc579182015b82811115611bdb578251825591602001919060010190611bc0565b5b509050611be99190611bed565b5090565b5b80821115611c06576000816000905550600101611bee565b5090565b6000604051905090565b600080fd5b600080fd5b6000819050919050565b611c3181611c1e565b8114611c3c57600080fd5b50565b600081359050611c4e81611c28565b92915050565b600060208284031215611c6a57611c69611c14565b5b6000611c7884828501611c3f565b91505092915050565b611c8a81611c1e565b82525050565b600081519050919050565b600082825260208201905092915050565b60005b83811015611cca578082015181840152602081019050611caf565b83811115611cd9576000848401525b50505050565b6000601f19601f8301169050919050565b6000611cfb82611c90565b611d058185611c9b565b9350611d15818560208601611cac565b611d1e81611cdf565b840191505092915050565b600060c082019050611d3e6000830189611c81565b8181036020830152611d508188611cf0565b90508181036040830152611d648187611cf0565b90508181036060830152611d788186611cf0565b90508181036080830152611d8c8185611cf0565b905081810360a0830152611da08184611cf0565b9050979650505050505050565b600080fd5b600080fd5b7f4e487b7100000000000000000000000000000000000000000000000000000000600052604160045260246000fd5b611def82611cdf565b810181811067ffffffffffffffff82111715611e0e57611e0d611db7565b5b80604052505050565b6000611e21611c0a565b9050611e2d8282611de6565b919050565b600067ffffffffffffffff821115611e4d57611e4c611db7565b5b611e5682611cdf565b9050602081019050919050565b82818337600083830152505050565b6000611e85611e8084611e32565b611e17565b905082815260208101848484011115611ea157611ea0611db2565b5b611eac848285611e63565b509392505050565b600082601f830112611ec957611ec8611dad565b5b8135611ed9848260208601611e72565b91505092915050565b60008060008060008060c08789031215611eff57611efe611c14565b5b6000611f0d89828a01611c3f565b965050602087013567ffffffffffffffff811115611f2e57611f2d611c19565b5b611f3a89828a01611eb4565b955050604087013567ffffffffffffffff811115611f5b57611f5a611c19565b5b611f6789828a01611eb4565b945050606087013567ffffffffffffffff811115611f8857611f87611c19565b5b611f9489828a01611eb4565b935050608087013567ffffffffffffffff811115611fb557611fb4611c19565b5b611fc189828a01611eb4565b92505060a087013567ffffffffffffffff811115611fe257611fe1611c19565b5b611fee89828a01611eb4565b9150509295509295509295565b600060a08201905081810360008301526120158188611cf0565b905081810360208301526120298187611cf0565b9050818103604083015261203d8186611cf0565b905081810360608301526120518185611cf0565b905081810360808301526120658184611cf0565b90509695505050505050565b600081519050919050565b600082825260208201905092915050565b6000819050602082019050919050565b6120a681611c1e565b82525050565b600082825260208201905092915050565b60006120c882611c90565b6120d281856120ac565b93506120e2818560208601611cac565b6120eb81611cdf565b840191505092915050565b600060c08301600083015161210e600086018261209d565b506020830151848203602086015261212682826120bd565b9150506040830151848203604086015261214082826120bd565b9150506060830151848203606086015261215a82826120bd565b9150506080830151848203608086015261217482826120bd565b91505060a083015184820360a086015261218e82826120bd565b9150508091505092915050565b60006121a783836120f6565b905092915050565b6000602082019050919050565b60006121c782612071565b6121d1818561207c565b9350836020820285016121e38561208d565b8060005b8581101561221f5784840389528151612200858261219b565b945061220b836121af565b925060208a019950506001810190506121e7565b50829750879550505050505092915050565b6000602082019050818103600083015261224b81846121bc565b905092915050565b7f4e487b7100000000000000000000000000000000000000000000000000000000600052602260045260246000fd5b6000600282049050600182168061229a57607f821691505b6020821081036122ad576122ac612253565b5b50919050565b7f55736572206973206e6f7420617661696c61626c650000000000000000000000600082015250565b60006122e9601583611c9b565b91506122f4826122b3565b602082019050919050565b60006020820190508181036000830152612318816122dc565b9050919050565b7f4e487b7100000000000000000000000000000000000000000000000000000000600052603260045260246000fd5b7f4e487b7100000000000000000000000000000000000000000000000000000000600052601160045260246000fd5b600061238882611c1e565b915061239383611c1e565b9250828210156123a6576123a561234e565b5b828203905092915050565b60006123bc82611c1e565b91507fffffffffffffffffffffffffffffffffffffffffffffffffffffffffffffffff82036123ee576123ed61234e565b5b600182019050919050565b7f4e487b7100000000000000000000000000000000000000000000000000000000600052603160045260246000fdfea2646970667358221220c6dc138c65aa2db2b0dfd4566fd162996bc6e3a4d66cf72c9940090c68eef98964736f6c634300080d0033",
  "immutableReferences": {},
  "source": "// SPDX-License-Identifier: UNLICENSED \r\npragma solidity ^0.8.8;\r\n\r\ncontract UserData {\r\n    struct User {\r\n        uint256 userID;\r\n        string username;\r\n        string pwd;\r\n        string firstName;\r\n        string lastName;\r\n        string userEmail;\r\n    }\r\n\r\n    address owner;\r\n\r\n    User public removeMe;\r\n\r\n    mapping (uint => User) public users;\r\n    User[] public userArray;\r\n\r\n    constructor() {\r\n        owner = msg.sender;\r\n    }\r\n\r\n    modifier onlyOwner {\r\n        require(msg.sender == owner);\r\n        _;\r\n    }\r\n\r\n    function setUser(uint256 userID, string memory username, string memory pwd, \r\n                     string memory firstName, string memory lastName, string memory userEmail) public onlyOwner {\r\n        if (users[userID].userID == 0) {\r\n            User memory user = User(userID, username, pwd, firstName, lastName, userEmail);\r\n            users[userID] = user;\r\n            userArray.push(user);\r\n        }\r\n        else {\r\n            updateUser(userID, username, pwd, firstName, lastName, userEmail);\r\n        }\r\n    }\r\n\r\n    function getUser(uint256 userID) public view returns (string memory, string memory, string memory, string memory, string memory) {\r\n        require(users[userID].userID != 0, \"User is not available\");\r\n        User memory user = users[userID];\r\n        return (user.username, user.pwd, user.firstName, user.lastName, user.userEmail);\r\n    }\r\n\r\n    function getAllUsers() public view returns (User[] memory) {\r\n        return userArray;\r\n    }\r\n\r\n    function updateUser(uint256 userID, string memory username, string memory pwd, \r\n                        string memory firstName, string memory lastName, string memory userEmail) public onlyOwner() {\r\n        require(users[userID].userID != 0, \"User is not available\");\r\n\r\n        deleteUser(userID);\r\n\r\n        User memory user = User(userID, username, pwd, firstName, lastName, userEmail);\r\n        users[userID] = user;\r\n        userArray.push(user);\r\n    }\r\n\r\n    function deleteUser(uint256 userID) public onlyOwner() {\r\n        require(users[userID].userID != 0, \"User is not available\");\r\n        delete users[userID];\r\n\r\n        for (uint i = 0; i < userArray.length; i++) {\r\n            if (userArray[i].userID == userID) {\r\n                removeMe = userArray[i];\r\n                userArray[i] = userArray[userArray.length - 1];\r\n                userArray[userArray.length - 1] = removeMe;\r\n            }\r\n        }\r\n        userArray.pop();\r\n    }\r\n}",
  "sourcePath": "E:\\COS30049_Computing_Technology_Innovation_Project\\CTrade\\contracts\\userData.sol",
  "compiler": {
    "name": "solc",
    "version": "0.8.13+commit.abaa5c0e.Emscripten.clang"
  },
  "schemaVersion": "3.4.16",
  "updatedAt": "2023-10-15T01:10:31.846Z",
  "networkType": "ethereum",
  "devdoc": {
    "kind": "dev",
    "methods": {},
    "version": 1
  },
  "userdoc": {
    "kind": "user",
    "methods": {},
    "version": 1
  }
}