{
  "contractName": "UserData",
  "abi": [
    {
      "inputs": [],
      "stateMutability": "nonpayable",
      "type": "constructor"
    },
    {
      "inputs": [],
      "name": "removeMe",
      "outputs": [
        {
          "internalType": "uint256",
          "name": "userID",
          "type": "uint256"
        },
        {
          "internalType": "string",
          "name": "username",
          "type": "string"
        },
        {
          "internalType": "string",
          "name": "pwd",
          "type": "string"
        },
        {
          "internalType": "string",
          "name": "firstName",
          "type": "string"
        },
        {
          "internalType": "string",
          "name": "lastName",
          "type": "string"
        },
        {
          "internalType": "string",
          "name": "userEmail",
          "type": "string"
        }
      ],
      "stateMutability": "view",
      "type": "function",
      "constant": true
    },
    {
      "inputs": [
        {
          "internalType": "uint256",
          "name": "",
          "type": "uint256"
        }
      ],
      "name": "userArray",
      "outputs": [
        {
          "internalType": "uint256",
          "name": "userID",
          "type": "uint256"
        },
        {
          "internalType": "string",
          "name": "username",
          "type": "string"
        },
        {
          "internalType": "string",
          "name": "pwd",
          "type": "string"
        },
        {
          "internalType": "string",
          "name": "firstName",
          "type": "string"
        },
        {
          "internalType": "string",
          "name": "lastName",
          "type": "string"
        },
        {
          "internalType": "string",
          "name": "userEmail",
          "type": "string"
        }
      ],
      "stateMutability": "view",
      "type": "function",
      "constant": true
    },
    {
      "inputs": [
        {
          "internalType": "uint256",
          "name": "",
          "type": "uint256"
        }
      ],
      "name": "users",
      "outputs": [
        {
          "internalType": "uint256",
          "name": "userID",
          "type": "uint256"
        },
        {
          "internalType": "string",
          "name": "username",
          "type": "string"
        },
        {
          "internalType": "string",
          "name": "pwd",
          "type": "string"
        },
        {
          "internalType": "string",
          "name": "firstName",
          "type": "string"
        },
        {
          "internalType": "string",
          "name": "lastName",
          "type": "string"
        },
        {
          "internalType": "string",
          "name": "userEmail",
          "type": "string"
        }
      ],
      "stateMutability": "view",
      "type": "function",
      "constant": true
    },
    {
      "inputs": [
        {
          "internalType": "string",
          "name": "username",
          "type": "string"
        },
        {
          "internalType": "string",
          "name": "pwd",
          "type": "string"
        },
        {
          "internalType": "string",
          "name": "firstName",
          "type": "string"
        },
        {
          "internalType": "string",
          "name": "lastName",
          "type": "string"
        },
        {
          "internalType": "string",
          "name": "userEmail",
          "type": "string"
        }
      ],
      "name": "setUser",
      "outputs": [],
      "stateMutability": "nonpayable",
      "type": "function"
    },
    {
      "inputs": [
        {
          "internalType": "uint256",
          "name": "userID",
          "type": "uint256"
        }
      ],
      "name": "getUser",
      "outputs": [
        {
          "internalType": "string",
          "name": "",
          "type": "string"
        },
        {
          "internalType": "string",
          "name": "",
          "type": "string"
        },
        {
          "internalType": "string",
          "name": "",
          "type": "string"
        },
        {
          "internalType": "string",
          "name": "",
          "type": "string"
        },
        {
          "internalType": "string",
          "name": "",
          "type": "string"
        }
      ],
      "stateMutability": "view",
      "type": "function",
      "constant": true
    },
    {
      "inputs": [],
      "name": "getAllUsers",
      "outputs": [
        {
          "components": [
            {
              "internalType": "uint256",
              "name": "userID",
              "type": "uint256"
            },
            {
              "internalType": "string",
              "name": "username",
              "type": "string"
            },
            {
              "internalType": "string",
              "name": "pwd",
              "type": "string"
            },
            {
              "internalType": "string",
              "name": "firstName",
              "type": "string"
            },
            {
              "internalType": "string",
              "name": "lastName",
              "type": "string"
            },
            {
              "internalType": "string",
              "name": "userEmail",
              "type": "string"
            }
          ],
          "internalType": "struct UserData.User[]",
          "name": "",
          "type": "tuple[]"
        }
      ],
      "stateMutability": "view",
      "type": "function",
      "constant": true
    },
    {
      "inputs": [
        {
          "internalType": "uint256",
          "name": "userID",
          "type": "uint256"
        },
        {
          "internalType": "string",
          "name": "username",
          "type": "string"
        },
        {
          "internalType": "string",
          "name": "pwd",
          "type": "string"
        },
        {
          "internalType": "string",
          "name": "firstName",
          "type": "string"
        },
        {
          "internalType": "string",
          "name": "lastName",
          "type": "string"
        },
        {
          "internalType": "string",
          "name": "userEmail",
          "type": "string"
        }
      ],
      "name": "updateUser",
      "outputs": [],
      "stateMutability": "nonpayable",
      "type": "function"
    },
    {
      "inputs": [
        {
          "internalType": "uint256",
          "name": "userID",
          "type": "uint256"
        }
      ],
      "name": "deleteUser",
      "outputs": [],
      "stateMutability": "nonpayable",
      "type": "function"
    }
  ],
  "bytecode": "0x608060405234801561001057600080fd5b50336000806101000a81548173ffffffffffffffffffffffffffffffffffffffff021916908373ffffffffffffffffffffffffffffffffffffffff16021790555061256f806100606000396000f3fe608060405234801561001057600080fd5b50600436106100885760003560e01c80639d08f4a91161005b5780639d08f4a91461012f578063b0467deb14610152578063ded0d76a14610186578063e2842d79146101a257610088565b8063365b98b21461008d57806338f14845146100c257806341209af1146100de5780639515c00a14610113575b600080fd5b6100a760048036038101906100a29190611c5e565b6101c0565b6040516100b996959493929190611d33565b60405180910390f35b6100dc60048036038101906100d79190611c5e565b6104a4565b005b6100f860048036038101906100f39190611c5e565b61094f565b60405161010a96959493929190611d33565b60405180910390f35b61012d60048036038101906101289190611eec565b610c43565b005b610137610eb2565b60405161014996959493929190611d33565b60405180910390f35b61016c60048036038101906101679190611c5e565b611184565b60405161017d959493929190612005565b60405180910390f35b6101a0600480360381019061019b919061207b565b611518565b005b6101aa611761565b6040516101b79190612342565b60405180910390f35b60076020528060005260406000206000915090508060000154908060010180546101e990612393565b80601f016020809104026020016040519081016040528092919081815260200182805461021590612393565b80156102625780601f1061023757610100808354040283529160200191610262565b820191906000526020600020905b81548152906001019060200180831161024557829003601f168201915b50505050509080600201805461027790612393565b80601f01602080910402602001604051908101604052809291908181526020018280546102a390612393565b80156102f05780601f106102c5576101008083540402835291602001916102f0565b820191906000526020600020905b8154815290600101906020018083116102d357829003601f168201915b50505050509080600301805461030590612393565b80601f016020809104026020016040519081016040528092919081815260200182805461033190612393565b801561037e5780601f106103535761010080835404028352916020019161037e565b820191906000526020600020905b81548152906001019060200180831161036157829003601f168201915b50505050509080600401805461039390612393565b80601f01602080910402602001604051908101604052809291908181526020018280546103bf90612393565b801561040c5780601f106103e15761010080835404028352916020019161040c565b820191906000526020600020905b8154815290600101906020018083116103ef57829003601f168201915b50505050509080600501805461042190612393565b80601f016020809104026020016040519081016040528092919081815260200182805461044d90612393565b801561049a5780601f1061046f5761010080835404028352916020019161049a565b820191906000526020600020905b81548152906001019060200180831161047d57829003601f168201915b5050505050905086565b60008054906101000a900473ffffffffffffffffffffffffffffffffffffffff1673ffffffffffffffffffffffffffffffffffffffff163373ffffffffffffffffffffffffffffffffffffffff16146104fc57600080fd5b6000600760008381526020019081526020016000206000015403610555576040517f08c379a000000000000000000000000000000000000000000000000000000000815260040161054c90612410565b60405180910390fd5b600760008281526020019081526020016000206000808201600090556001820160006105819190611aa4565b6002820160006105919190611aa4565b6003820160006105a19190611aa4565b6004820160006105b19190611aa4565b6005820160006105c19190611aa4565b505060005b6008805490508110156108c85781600882815481106105e8576105e7612430565b5b906000526020600020906006020160000154036108b5576008818154811061061357610612612430565b5b9060005260206000209060060201600160008201548160000155600182018160010190805461064190612393565b61064c929190611ae4565b50600282018160020190805461066190612393565b61066c929190611ae4565b50600382018160030190805461068190612393565b61068c929190611ae4565b5060048201816004019080546106a190612393565b6106ac929190611ae4565b5060058201816005019080546106c190612393565b6106cc929190611ae4565b50905050600860016008805490506106e4919061248e565b815481106106f5576106f4612430565b5b90600052602060002090600602016008828154811061071757610716612430565b5b906000526020600020906006020160008201548160000155600182018160010190805461074390612393565b61074e929190611ae4565b50600282018160020190805461076390612393565b61076e929190611ae4565b50600382018160030190805461078390612393565b61078e929190611ae4565b5060048201816004019080546107a390612393565b6107ae929190611ae4565b5060058201816005019080546107c390612393565b6107ce929190611ae4565b509050506001600860016008805490506107e8919061248e565b815481106107f9576107f8612430565b5b906000526020600020906006020160008201548160000155600182018160010190805461082590612393565b610830929190611ae4565b50600282018160020190805461084590612393565b610850929190611ae4565b50600382018160030190805461086590612393565b610870929190611ae4565b50600482018160040190805461088590612393565b610890929190611ae4565b5060058201816005019080546108a590612393565b6108b0929190611ae4565b509050505b80806108c0906124c2565b9150506105c6565b5060088054806108db576108da61250a565b5b60019003818190600052602060002090600602016000808201600090556001820160006109089190611aa4565b6002820160006109189190611aa4565b6003820160006109289190611aa4565b6004820160006109389190611aa4565b6005820160006109489190611aa4565b5050905550565b6008818154811061095f57600080fd5b906000526020600020906006020160009150905080600001549080600101805461098890612393565b80601f01602080910402602001604051908101604052809291908181526020018280546109b490612393565b8015610a015780601f106109d657610100808354040283529160200191610a01565b820191906000526020600020905b8154815290600101906020018083116109e457829003601f168201915b505050505090806002018054610a1690612393565b80601f0160208091040260200160405190810160405280929190818152602001828054610a4290612393565b8015610a8f5780601f10610a6457610100808354040283529160200191610a8f565b820191906000526020600020905b815481529060010190602001808311610a7257829003601f168201915b505050505090806003018054610aa490612393565b80601f0160208091040260200160405190810160405280929190818152602001828054610ad090612393565b8015610b1d5780601f10610af257610100808354040283529160200191610b1d565b820191906000526020600020905b815481529060010190602001808311610b0057829003601f168201915b505050505090806004018054610b3290612393565b80601f0160208091040260200160405190810160405280929190818152602001828054610b5e90612393565b8015610bab5780601f10610b8057610100808354040283529160200191610bab565b820191906000526020600020905b815481529060010190602001808311610b8e57829003601f168201915b505050505090806005018054610bc090612393565b80601f0160208091040260200160405190810160405280929190818152602001828054610bec90612393565b8015610c395780601f10610c0e57610100808354040283529160200191610c39565b820191906000526020600020905b815481529060010190602001808311610c1c57829003601f168201915b5050505050905086565b60008054906101000a900473ffffffffffffffffffffffffffffffffffffffff1673ffffffffffffffffffffffffffffffffffffffff163373ffffffffffffffffffffffffffffffffffffffff1614610c9b57600080fd5b6000600760008881526020019081526020016000206000015403610cf4576040517f08c379a0000000000000000000000000000000000000000000000000000000008152600401610ceb90612410565b60405180910390fd5b610cfd866104a4565b60006040518060c001604052808881526020018781526020018681526020018581526020018481526020018381525090508060076000898152602001908152602001600020600082015181600001556020820151816001019080519060200190610d68929190611b71565b506040820151816002019080519060200190610d85929190611b71565b506060820151816003019080519060200190610da2929190611b71565b506080820151816004019080519060200190610dbf929190611b71565b5060a0820151816005019080519060200190610ddc929190611b71565b509050506008819080600181540180825580915050600190039060005260206000209060060201600090919091909150600082015181600001556020820151816001019080519060200190610e32929190611b71565b506040820151816002019080519060200190610e4f929190611b71565b506060820151816003019080519060200190610e6c929190611b71565b506080820151816004019080519060200190610e89929190611b71565b5060a0820151816005019080519060200190610ea6929190611b71565b50505050505050505050565b6001806000015490806001018054610ec990612393565b80601f0160208091040260200160405190810160405280929190818152602001828054610ef590612393565b8015610f425780601f10610f1757610100808354040283529160200191610f42565b820191906000526020600020905b815481529060010190602001808311610f2557829003601f168201915b505050505090806002018054610f5790612393565b80601f0160208091040260200160405190810160405280929190818152602001828054610f8390612393565b8015610fd05780601f10610fa557610100808354040283529160200191610fd0565b820191906000526020600020905b815481529060010190602001808311610fb357829003601f168201915b505050505090806003018054610fe590612393565b80601f016020809104026020016040519081016040528092919081815260200182805461101190612393565b801561105e5780601f106110335761010080835404028352916020019161105e565b820191906000526020600020905b81548152906001019060200180831161104157829003601f168201915b50505050509080600401805461107390612393565b80601f016020809104026020016040519081016040528092919081815260200182805461109f90612393565b80156110ec5780601f106110c1576101008083540402835291602001916110ec565b820191906000526020600020905b8154815290600101906020018083116110cf57829003601f168201915b50505050509080600501805461110190612393565b80601f016020809104026020016040519081016040528092919081815260200182805461112d90612393565b801561117a5780601f1061114f5761010080835404028352916020019161117a565b820191906000526020600020905b81548152906001019060200180831161115d57829003601f168201915b5050505050905086565b606080606080606060006007600088815260200190815260200160002060000154036111e5576040517f08c379a00000000000000000000000000000000000000000000000000000000081526004016111dc90612410565b60405180910390fd5b6000600760008881526020019081526020016000206040518060c00160405290816000820154815260200160018201805461121f90612393565b80601f016020809104026020016040519081016040528092919081815260200182805461124b90612393565b80156112985780601f1061126d57610100808354040283529160200191611298565b820191906000526020600020905b81548152906001019060200180831161127b57829003601f168201915b505050505081526020016002820180546112b190612393565b80601f01602080910402602001604051908101604052809291908181526020018280546112dd90612393565b801561132a5780601f106112ff5761010080835404028352916020019161132a565b820191906000526020600020905b81548152906001019060200180831161130d57829003601f168201915b5050505050815260200160038201805461134390612393565b80601f016020809104026020016040519081016040528092919081815260200182805461136f90612393565b80156113bc5780601f10611391576101008083540402835291602001916113bc565b820191906000526020600020905b81548152906001019060200180831161139f57829003601f168201915b505050505081526020016004820180546113d590612393565b80601f016020809104026020016040519081016040528092919081815260200182805461140190612393565b801561144e5780601f106114235761010080835404028352916020019161144e565b820191906000526020600020905b81548152906001019060200180831161143157829003601f168201915b5050505050815260200160058201805461146790612393565b80601f016020809104026020016040519081016040528092919081815260200182805461149390612393565b80156114e05780601f106114b5576101008083540402835291602001916114e0565b820191906000526020600020905b8154815290600101906020018083116114c357829003601f168201915b505050505081525050905080602001518160400151826060015183608001518460a00151955095509550955095505091939590929450565b60008054906101000a900473ffffffffffffffffffffffffffffffffffffffff1673ffffffffffffffffffffffffffffffffffffffff163373ffffffffffffffffffffffffffffffffffffffff161461157057600080fd5b60006008805490509050600060076000838152602001908152602001600020600001540361174a5760006040518060c001604052808381526020018881526020018781526020018681526020018581526020018481525090508060076000848152602001908152602001600020600082015181600001556020820151816001019080519060200190611603929190611b71565b506040820151816002019080519060200190611620929190611b71565b50606082015181600301908051906020019061163d929190611b71565b50608082015181600401908051906020019061165a929190611b71565b5060a0820151816005019080519060200190611677929190611b71565b5090505060088190806001815401808255809150506001900390600052602060002090600602016000909190919091506000820151816000015560208201518160010190805190602001906116cd929190611b71565b5060408201518160020190805190602001906116ea929190611b71565b506060820151816003019080519060200190611707929190611b71565b506080820151816004019080519060200190611724929190611b71565b5060a0820151816005019080519060200190611741929190611b71565b50505050611759565b611758818787878787610c43565b5b505050505050565b60606008805480602002602001604051908101604052809291908181526020016000905b82821015611a9b57838290600052602060002090600602016040518060c0016040529081600082015481526020016001820180546117c290612393565b80601f01602080910402602001604051908101604052809291908181526020018280546117ee90612393565b801561183b5780601f106118105761010080835404028352916020019161183b565b820191906000526020600020905b81548152906001019060200180831161181e57829003601f168201915b5050505050815260200160028201805461185490612393565b80601f016020809104026020016040519081016040528092919081815260200182805461188090612393565b80156118cd5780601f106118a2576101008083540402835291602001916118cd565b820191906000526020600020905b8154815290600101906020018083116118b057829003601f168201915b505050505081526020016003820180546118e690612393565b80601f016020809104026020016040519081016040528092919081815260200182805461191290612393565b801561195f5780601f106119345761010080835404028352916020019161195f565b820191906000526020600020905b81548152906001019060200180831161194257829003601f168201915b5050505050815260200160048201805461197890612393565b80601f01602080910402602001604051908101604052809291908181526020018280546119a490612393565b80156119f15780601f106119c6576101008083540402835291602001916119f1565b820191906000526020600020905b8154815290600101906020018083116119d457829003601f168201915b50505050508152602001600582018054611a0a90612393565b80601f0160208091040260200160405190810160405280929190818152602001828054611a3690612393565b8015611a835780601f10611a5857610100808354040283529160200191611a83565b820191906000526020600020905b815481529060010190602001808311611a6657829003601f168201915b50505050508152505081526020019060010190611785565b50505050905090565b508054611ab090612393565b6000825580601f10611ac25750611ae1565b601f016020900490600052602060002090810190611ae09190611bf7565b5b50565b828054611af090612393565b90600052602060002090601f016020900481019282611b125760008555611b60565b82601f10611b235780548555611b60565b82800160010185558215611b6057600052602060002091601f016020900482015b82811115611b5f578254825591600101919060010190611b44565b5b509050611b6d9190611bf7565b5090565b828054611b7d90612393565b90600052602060002090601f016020900481019282611b9f5760008555611be6565b82601f10611bb857805160ff1916838001178555611be6565b82800160010185558215611be6579182015b82811115611be5578251825591602001919060010190611bca565b5b509050611bf39190611bf7565b5090565b5b80821115611c10576000816000905550600101611bf8565b5090565b6000604051905090565b600080fd5b600080fd5b6000819050919050565b611c3b81611c28565b8114611c4657600080fd5b50565b600081359050611c5881611c32565b92915050565b600060208284031215611c7457611c73611c1e565b5b6000611c8284828501611c49565b91505092915050565b611c9481611c28565b82525050565b600081519050919050565b600082825260208201905092915050565b60005b83811015611cd4578082015181840152602081019050611cb9565b83811115611ce3576000848401525b50505050565b6000601f19601f8301169050919050565b6000611d0582611c9a565b611d0f8185611ca5565b9350611d1f818560208601611cb6565b611d2881611ce9565b840191505092915050565b600060c082019050611d486000830189611c8b565b8181036020830152611d5a8188611cfa565b90508181036040830152611d6e8187611cfa565b90508181036060830152611d828186611cfa565b90508181036080830152611d968185611cfa565b905081810360a0830152611daa8184611cfa565b9050979650505050505050565b600080fd5b600080fd5b7f4e487b7100000000000000000000000000000000000000000000000000000000600052604160045260246000fd5b611df982611ce9565b810181811067ffffffffffffffff82111715611e1857611e17611dc1565b5b80604052505050565b6000611e2b611c14565b9050611e378282611df0565b919050565b600067ffffffffffffffff821115611e5757611e56611dc1565b5b611e6082611ce9565b9050602081019050919050565b82818337600083830152505050565b6000611e8f611e8a84611e3c565b611e21565b905082815260208101848484011115611eab57611eaa611dbc565b5b611eb6848285611e6d565b509392505050565b600082601f830112611ed357611ed2611db7565b5b8135611ee3848260208601611e7c565b91505092915050565b60008060008060008060c08789031215611f0957611f08611c1e565b5b6000611f1789828a01611c49565b965050602087013567ffffffffffffffff811115611f3857611f37611c23565b5b611f4489828a01611ebe565b955050604087013567ffffffffffffffff811115611f6557611f64611c23565b5b611f7189828a01611ebe565b945050606087013567ffffffffffffffff811115611f9257611f91611c23565b5b611f9e89828a01611ebe565b935050608087013567ffffffffffffffff811115611fbf57611fbe611c23565b5b611fcb89828a01611ebe565b92505060a087013567ffffffffffffffff811115611fec57611feb611c23565b5b611ff889828a01611ebe565b9150509295509295509295565b600060a082019050818103600083015261201f8188611cfa565b905081810360208301526120338187611cfa565b905081810360408301526120478186611cfa565b9050818103606083015261205b8185611cfa565b9050818103608083015261206f8184611cfa565b90509695505050505050565b600080600080600060a0868803121561209757612096611c1e565b5b600086013567ffffffffffffffff8111156120b5576120b4611c23565b5b6120c188828901611ebe565b955050602086013567ffffffffffffffff8111156120e2576120e1611c23565b5b6120ee88828901611ebe565b945050604086013567ffffffffffffffff81111561210f5761210e611c23565b5b61211b88828901611ebe565b935050606086013567ffffffffffffffff81111561213c5761213b611c23565b5b61214888828901611ebe565b925050608086013567ffffffffffffffff81111561216957612168611c23565b5b61217588828901611ebe565b9150509295509295909350565b600081519050919050565b600082825260208201905092915050565b6000819050602082019050919050565b6121b781611c28565b82525050565b600082825260208201905092915050565b60006121d982611c9a565b6121e381856121bd565b93506121f3818560208601611cb6565b6121fc81611ce9565b840191505092915050565b600060c08301600083015161221f60008601826121ae565b506020830151848203602086015261223782826121ce565b9150506040830151848203604086015261225182826121ce565b9150506060830151848203606086015261226b82826121ce565b9150506080830151848203608086015261228582826121ce565b91505060a083015184820360a086015261229f82826121ce565b9150508091505092915050565b60006122b88383612207565b905092915050565b6000602082019050919050565b60006122d882612182565b6122e2818561218d565b9350836020820285016122f48561219e565b8060005b85811015612330578484038952815161231185826122ac565b945061231c836122c0565b925060208a019950506001810190506122f8565b50829750879550505050505092915050565b6000602082019050818103600083015261235c81846122cd565b905092915050565b7f4e487b7100000000000000000000000000000000000000000000000000000000600052602260045260246000fd5b600060028204905060018216806123ab57607f821691505b6020821081036123be576123bd612364565b5b50919050565b7f55736572206973206e6f7420617661696c61626c650000000000000000000000600082015250565b60006123fa601583611ca5565b9150612405826123c4565b602082019050919050565b60006020820190508181036000830152612429816123ed565b9050919050565b7f4e487b7100000000000000000000000000000000000000000000000000000000600052603260045260246000fd5b7f4e487b7100000000000000000000000000000000000000000000000000000000600052601160045260246000fd5b600061249982611c28565b91506124a483611c28565b9250828210156124b7576124b661245f565b5b828203905092915050565b60006124cd82611c28565b91507fffffffffffffffffffffffffffffffffffffffffffffffffffffffffffffffff82036124ff576124fe61245f565b5b600182019050919050565b7f4e487b7100000000000000000000000000000000000000000000000000000000600052603160045260246000fdfea2646970667358221220fb9e58a9eca58d7c340a0a691d3fb1d0ab742a714f1f52e9a4431f9291aac91664736f6c634300080d0033",
  "immutableReferences": {},
  "source": "// SPDX-License-Identifier: UNLICENSED \r\npragma solidity ^0.8.8;\r\n\r\ncontract UserData {\r\n    struct User {\r\n        uint256 userID;\r\n        string username;\r\n        string pwd;\r\n        string firstName;\r\n        string lastName;\r\n        string userEmail;\r\n    }\r\n\r\n    address owner;\r\n\r\n    User public removeMe;\r\n\r\n    mapping (uint => User) public users;\r\n    User[] public userArray;\r\n\r\n    constructor() {\r\n        owner = msg.sender;\r\n    }\r\n\r\n    modifier onlyOwner {\r\n        require(msg.sender == owner);\r\n        _;\r\n    }\r\n\r\n    // If the userID has already been set up, the updateTransaction method would be called instead\r\n    function setUser(string memory username, string memory pwd, \r\n                     string memory firstName, string memory lastName, string memory userEmail) public onlyOwner {\r\n        uint256 userID = userArray.length; \r\n\r\n        if (users[userID].userID == 0) {\r\n            User memory user = User(userID, username, pwd, firstName, lastName, userEmail);\r\n            users[userID] = user;\r\n            userArray.push(user);\r\n        }\r\n        else {\r\n            updateUser(userID, username, pwd, firstName, lastName, userEmail);\r\n        }\r\n    }\r\n\r\n    function getUser(uint256 userID) public view returns (string memory, string memory, string memory, string memory, string memory) {\r\n        require(users[userID].userID != 0, \"User is not available\");\r\n        User memory user = users[userID];\r\n        return (user.username, user.pwd, user.firstName, user.lastName, user.userEmail);\r\n    }\r\n\r\n    function getAllUsers() public view returns (User[] memory) {\r\n        return userArray;\r\n    }\r\n\r\n    function updateUser(uint256 userID, string memory username, string memory pwd, \r\n                        string memory firstName, string memory lastName, string memory userEmail) public onlyOwner() {\r\n        require(users[userID].userID != 0, \"User is not available\");\r\n\r\n        deleteUser(userID);\r\n\r\n        User memory user = User(userID, username, pwd, firstName, lastName, userEmail);\r\n        users[userID] = user;\r\n        userArray.push(user);\r\n    }\r\n\r\n    // Delete a user in the array by swap it with the last element, then remove that\r\n    function deleteUser(uint256 userID) public onlyOwner() {\r\n        require(users[userID].userID != 0, \"User is not available\");\r\n        delete users[userID];\r\n\r\n        for (uint i = 0; i < userArray.length; i++) {\r\n            if (userArray[i].userID == userID) {\r\n                removeMe = userArray[i];\r\n                userArray[i] = userArray[userArray.length - 1];\r\n                userArray[userArray.length - 1] = removeMe;\r\n            }\r\n        }\r\n        userArray.pop();\r\n    }\r\n}",
  "sourcePath": "E:\\COS30049_Computing_Technology_Innovation_Project\\CTrade\\contracts\\userData.sol",
  "compiler": {
    "name": "solc",
    "version": "0.8.13+commit.abaa5c0e.Emscripten.clang"
  },
  "schemaVersion": "3.4.16",
  "updatedAt": "2023-10-15T10:41:01.309Z",
  "networkType": "ethereum",
  "devdoc": {
    "kind": "dev",
    "methods": {},
    "version": 1
  },
  "userdoc": {
    "kind": "user",
    "methods": {},
    "version": 1
  }
}